:020000040800F2
:10800000F04F002011E600081188000813880008CE
:108010008188000885880008898800080000000021
:108020000000000000000000000000008D88000833
:108030008F880008000000009188000893880008DD
:108040002BE600082BE600082BE6000865C60008B2
:108050002BE600082BE600082BE600082BE60008BC
:108060002BE600082BE600082BE6000873C2000888
:108070002BE600082BE600082BE600082BE600089C
:108080002BE600082BE600082BE600082BE600088C
:1080900013BE00082BE600082BE60008FFAA000824
:1080A0002BE600082BE600082BE600082BE600086C
:1080B0009FE400082BE600082BE600082BE60008EA
:1080C0002BE600082BE600082BE600082BE600084C
:1080D0002BE600082BE600088FE300082BE60008DB
:1080E00001AA00082BE600082BE600082BE6000892
:1080F0002BE600082BE600082BE600082BE600081C
:108100002BE600082BE60008EBBF00082BE6000872
:108110002BE600082BE6000813A500082BE6000854
:108120002BE600082BE600082BE600082BE60008EB
:1081300000F002F800F03FF80AA090E8000C82443A
:108140008344AAF10107DA4501D100F034F8AFF217
:10815000090EBAE80F0013F0010F18BFFB1A43F025
:10816000010318476CAC00008CAC0000103A24BF2F
:1081700078C878C1FAD8520724BF30C830C144BF8C
:1081800004680C60704700000023002400250026CE
:10819000103A28BF78C1FBD8520728BF30C148BF6A
:1081A0000B607047642909F0DD84002070471FB51B
:1081B0001FBD10B510BD09F0BAFE1146FFF7F7FF5D
:1081C00000F008F809F0D8FE03B4FFF7F2FF03BC93
:1081D00006F002F82DE9F047FE4800684FF47A7285
:1081E000B0FBF2F1B1F1807F00D31DE021F07F40C0
:1081F000401E4FF0E022506150170F22002807DA8E
:1082000013071D0EF44B00F00F04241F1D5503E04F
:1082100013071C0EF14B1C5400BF00204FF0E0224E
:1082200090610720106100BF02F04EFA4FF4A06089
:1082300006F00EFA03F078FE06F049F902F008F8AD
:1082400002F097FA04F0B3F903F087FEE4480068FF
:10825000E4490860084600684FF6FF71884203D180
:108260000120E049086004E0DE480068401CDD4968
:10827000086009F050F9352009F0E8FBDA48007889
:10828000042817D0D9480078401CD84908700846FF
:108290000078022806DB0320D549087008460078DC
:1082A000BDE8F087352009F0D1FBCD4809F078F919
:1082B000CD49087009F03BF909F02DF9C94801686A
:1082C000C74809F03DFA09F032F903F0F3FD02F076
:1082D000C2F800F0E5FB03F0EDFE06F091F802F0C5
:1082E0001FFB02F0E2FC02F0B6F84FF48051C148E7
:1082F00006F02BFB4FF40041BE4806F026FB4FF47E
:108300000041BD4806F005FBBC4981F8FB04002094
:10831000BB49088012E04FF47A7006F013F94FF46D
:108320008051B44802F0ACF84FF40041B14802F07B
:10833000A7F8B3480088401CB1490880B0480088BD
:108340000628E8DB05F0CDFEAD4908800846008828
:1083500020B14FF48051A74802F092F84FF4004149
:10836000A54806F0D6FA012814D102F0ADF9002193
:10837000A24880F82B1080F82C1080F82D1080F87F
:108380002A1080F8281080F8291001209B4981F8D4
:10839000000532E002F089FA4FF4FA7006F0D2F8E4
:1083A00002F027FA03F0D9FD4FF4FA7006F0CAF88C
:1083B00002F04BFA00209249088008E04FF47A70EE
:1083C00006F0C0F88E480088401C8D4908808C4813
:1083D00000880228F2DB80218A4806F0B4FA4FF4C4
:1083E0008071884806F0AFFA4FF40071854806F0B6
:1083F000AAFA0121844808F045F8F5E103F0ADFD43
:108400004FF480517B4806F091FA50B17B4890F8C8
:10841000240500F0FE0020B94FF48051754806F0A5
:1084200094FA764BB3F8E824D3F81C15D3F8180562
:1084300000F0C3FC00284DD17048D0F818056F49F2
:10844000C1F81C05084690F8240500F0FE0020B98C
:10845000084690F80805012814D12221674880F8C1
:10846000E7144FF48051634806F060FA10BB63488C
:10847000B0F824054010E8B14FF480515D4806F093
:1084800062FA17E05D4890F8080598B95B4890F8E3
:10849000240500F0FE0068B9584890F83000012823
:1084A00008D0564890F8E704112803D033215348E8
:1084B00080F8E714514890F8000558B94F4890F8F3
:1084C000E704222807D14D4890F80805012802D179
:1084D00001F044FF34E0494890F83000012816D1FB
:1084E000464890F8E70421280ED0444890F800054B
:1084F00050B964214148A0F8E81401F001FF0021BF
:108500003E4880F8EA141BE001F044FF18E03B48C5
:1085100090F8E704112807D101F058FF374890F888
:10852000E71480F8EA140BE0344890F8E7043328A5
:1085300006D1324890F8E71480F8EA1401F062FF9F
:108540002E4AD2F81015D2F81805C82200F035FCD2
:1085500000283ED12948D0F818052849C1F810054F
:10856000D1F85C0409F00DFF8046284A284B09F039
:1085700057FF04460D462149D1F8580409F001FF80
:10858000064622462B460AF049F805D31B48D0F888
:108590005804B0F57A7F47D3184890F83000012886
:1085A00041D00120154981F8300002F045FC00213E
:1085B000124880F8E7144FF4005008F018FE1548F0
:1085C000006840F4005013490860C82005F0BAFF65
:1085D00022E0A6E01000002018ED00E000E400E03A
:1085E000008003080800002004000020050000208F
:1085F00006000020000C0140000801405800002047
:1086000002000020001001400004004014AE47E1C9
:108610007A14EE3F0004014002F00EFCC82005F081
:1086200091FF02F009FC4BE07049D1F85C0409F0BD
:10863000A8FE06466E4A6F4B09F0F2FE04460D4650
:108640006A49D1F8580409F09CFE804622462B4620
:1086500009F0AAFE34D26548D0F85804B0F52F7F4F
:108660002ED8624890F8300050B300205F4981F85E
:10867000300000215D4881635F48006820F40050AD
:108680005D490860594890F8C70401280BD10021C2
:10869000564880F8C714B0F824054FF6FF6108402B
:1086A0005249A1F82405514890F8E70420B14F48F9
:1086B00090F8E704212803D133214C4880F8E714CF
:1086C0004A4890F83000012826D14849D1F858048A
:1086D00009F057FE0646464A464B09F09DFC044603
:1086E00009F022FE4149C8630846D0F85C14416392
:1086F000818F808E081A00B2404908800846B0F980
:108700000000002803DA00213848816304E03B4878
:108710000088C1B235488163344890F8301080F841
:10872000271000F080FA314AD2F81415D2F8180553
:108730004FF47A7200F041FB80B94FF400413048A9
:1087400001F09EFE2948D0F818052849C1F8140503
:108750002C480078042801D102F06EFB02F0F1FDF4
:10876000224890F8ED0455283CD100201F4981F89B
:10877000ED0425480078012812D14021234806F055
:10878000D5F878BB00F079FC4021204806F0C1F80C
:10879000164981F829000021144880F8C81421E006
:1087A00019480078F0B94420104981F8ED0402F02E
:1087B00043FB4FF47A7005F0C5FE02F03DFB4FF429
:1087C0007A7005F0BFFE02F037FB4FF47A7005F0C7
:1087D000B9FE00F0F8FB40210C4806F0A7F8034969
:1087E00081F8290001F0EDF808E6000058000020AB
:1087F00014AE47E17A14EE3F000401400C00002063
:10880000000C01402C0000208005002000080140E1
:10881000704728480468250E6D1C04EB056481141C
:10882000254806F083F8012804D14102224806F0C9
:108830008CF804E04FF400711F4806F084F808F04B
:108840006AFE352009F002F9042E0AD0781CC7B25E
:10885000022F00DB05E0352009F0F8F8154808F094
:108860009FFE08F064FE08F056FE2146114808F00D
:1088700067FF08F05CFE0A2002F05BFD00BFFEE728
:1088800000BFFEE700BFFEE700BFFEE7704770478E
:1088900070470A48D0F81805401C0849C1F8180567
:1088A0000846D0F81805401C10B90020C1F818057A
:1088B0007047000000800308000C014058000020B1
:1088C0000CB50020019000906B48006840F48030A7
:1088D0006949086000BF6848006800F400300090F3
:1088E0000198401C0190009818B90198B0F5A06F4C
:1088F000F1D16148006800F4003010B1012000900F
:1089000001E0002000900098012843D15B480068F6
:1089100040F01000594908600846006820F0030044
:1089200008600846006840F002000860524840684D
:10893000514948600846406848600846406840F42D
:10894000806048600846406820F47C104860084613
:10895000406840F4E81048600846006840F08070C5
:10896000086000BF4448006800F000700028F9D09B
:108970004148406820F003003F494860084640688D
:1089800040F00200486000BF3B48406800F00C0027
:108990000828F9D10CBD10B5FFF792FF10BD10B536
:1089A0003548006840F001003349086008464068D7
:1089B000334908403049486008460068314908405A
:1089C0002D4908600846006820F4802008600846A9
:1089D000406820F4FE0048604FF41F008860FFF7F5
:1089E000DAFF29482949086010BD10B50021002090
:1089F0000022214B5B6803F00C0121B1042906D051
:108A0000082928D107E0224B224C236027E0204B85
:108A1000204C236023E0184B5B6803F47010164B66
:108A20005B6803F48032022303EB904022B91A4BB7
:108A30004343184C23600DE00F4B5B6803F4003395
:108A400023B1154B4343134C236003E0104B4343C6
:108A5000104C236003E00E4B0E4C236000BF00BFA0
:108A6000054B5B68C3F303130C4CE15C094B1B68BB
:108A7000CB40084C236010BD001002400020024093
:108A80000000FFF8FFFFF6FE0080000808ED00E0A0
:108A900000127A001000002000093D0014000020A0
:108AA00010B50020002100BF39E00023C0EB4012C8
:108AB00002EB8014FE4A02EB840282F87A31C0EBAA
:108AC000401202EB8014FA4A02F82430002122E01E
:108AD0000023C0EB401202EB8014F54A02EB840243
:108AE000921CC1EB011404EB411402EB8402A2F8C6
:108AF000B830C0EB401202EB8014ED4A02EB840266
:108B0000921CC1EB011404EB411402EB8402A2F8A5
:108B1000BA304A1CD1B20229DADB421CD0B2022898
:108B2000C3DB0023E24AFA3AA2F8F630A2F8F830A2
:108B30000022DF4BFA3B83F8EC24C3F8182504220B
:108B40009A720122DA7203221A735A73002283F88E
:108B5000ED2483F8C4240023D54AFA3A82F8CC34B1
:108B600082F8CD3482F8CE3482F8D13482F8D03411
:108B700082F8CF3482F8D23482F8D3340A2382F8D0
:108B8000BE34002382F8BF3482F8C1341122C84BAE
:108B9000FA3B83F8E6243323C54AFA3A82F8E734ED
:108BA0004FF4FA63A2F8E834002382F8EA34002292
:108BB000BF4BFA3BDA830023BD4AFA3A138453844D
:108BC00082F8263082F82730012382F82B3082F891
:108BD0002C3082F82D3082F82A3082F8283082F842
:108BE00029300022B24BFA3BA3F8F82483F8FA2488
:108BF00083F8FD2483F8FE2483F8FF2483F80025FE
:108C000083F80125C3F8042583F8082583F809258E
:108C100083F80A25A3F80C25A3F80E25C3F8182518
:108C2000C3F81C2510BD10B5A148FA3890F8C80447
:108C3000012814D19E48FA38B0F824054FF6BF71C8
:108C400008409B49FA39A1F824050846B0F82405E4
:108C500040F04000A1F82405012081F82605944841
:108C6000FA3890F8C904012814D19148FA38B0F8BC
:108C700024054FF6FD7108408D49FA39A1F8240505
:108C80000846B0F8240540F00200A1F824050120B0
:108C900081F826058648FA3890F8CA04012814D1CC
:108CA0008348FA38B0F824054FF6DF710840804950
:108CB000FA39A1F824050846B0F8240540F0200050
:108CC000A1F82405012081F826057948FA3890F8A2
:108CD000C604012822D14102764805F036FE002163
:108CE0007348FA3880F82D10B0F824054FF6EF716C
:108CF00008406F49FA39A1F824050846B0F8240560
:108D000040F01000A1F8240500216948FA3880F8E5
:108D1000C61401206649FA3981F826056448FA38F4
:108D200090F8C504012822D10102624805F00DFE29
:108D300000215F48FA3880F82C10B0F824054FF66F
:108D4000F77108405A49FA39A1F824050846B0F8E5
:108D5000240540F00800A1F8240500215448FA3801
:108D600080F8C51401205249FA3981F82605504887
:108D7000FA3890F8C40401281ED180214D4805F02E
:108D8000E4FD00214A48FA3880F82B10B0F8240599
:108D90004FF6FB7108404649FA39A1F82405084608
:108DA000B0F8240540F00400A1F82405002081F863
:108DB000C404012081F8260510BD03468B4206D36A
:108DC000581A904201D2012070470020FCE7C1F1FF
:108DD000FF301844904201D20120F5E70020F3E76C
:108DE00010B502460B460021002003E0545C6040B1
:108DF0004C1CE1B29942F9DB10BD0246002108E0AB
:108E00002D48405C535C984201D000207047481CBC
:108E1000C1B20629F4DB0120F8E7704710B504461B
:108E2000B4F8BA10204605F096FA10BD10B5044605
:108E30001F48FA3890F8EC0428B1012807D12046E1
:108E4000FFF7ECFF04E02046FFF7E7FF00E000BF7C
:108E500000BF10BD10B5B0B004460020ADF8BC0096
:108E6000ADF8BE008DF80400ADF8BC00ADF8BE0052
:108E7000BDF8BC00401CB52808DAAA21BDF8BC200A
:108E8000501C80B2ADF8BC0001A88154BDF8BC00F4
:108E9000ADF8BE00BDF8BC00401CB5280FDA552166
:108EA000BDF8BC20501C80B2ADF8BC0001A805E0A4
:108EB0005201002000100140480500208154BDF8F7
:108EC000BC00ADF8BE00BDF8BC00401CB52808DAF7
:108ED0000D21BDF8BC20501C80B2ADF8BC0001A82B
:108EE0008154BDF8BC00ADF8BE00BDF8BC00401C0C
:108EF000B52808DA0021BDF8BC20501C80B2ADF8BE
:108F0000BC0001A88154BDF8BC00ADF8BE00BDF89E
:108F1000BC00401CB52808DA0221BDF8BC20501C5A
:108F200080B2ADF8BC0001A88154BDF8BC00ADF81A
:108F3000BE00BDF8BC00401CB52808DA0221BDF80F
:108F4000BC20501C80B2ADF8BC0001A88154BDF813
:108F5000BC00ADF8BE00BDF8BC00801CB52810DA1E
:108F6000BDF8BC20501C80B2ADF8BC0001A88454F0
:108F7000210ABDF8BC20501C80B2ADF8BC0001A88D
:108F80008154BDF8BC00ADF8BE00BDF8BC00401C6B
:108F9000B5280FDABDF8BC00801E81B20DF10600C5
:108FA000FFF71EFFBDF8BC20511C89B2ADF8BC1004
:108FB00001A98854BDF8BC00ADF8BE0001A8FFF7B8
:108FC00035FF30B010BD10B56421FC4807F0F4FC4B
:108FD0006421FA4807F0F4FCF948006820F4806046
:108FE000F74908600846006820F4006008600846F9
:108FF000006820F04000086001F09EFB47F230500E
:1090000005F0A0FA3221ED4807F0D6FC3221EB48FA
:1090100007F0D6FC8021EB4805F097FC4FF47A70FE
:1090200005F090FA4FF40071E64805F08EFC4FF41D
:109030007A7005F087FA4FF48071E24805F085FCFC
:109040004FF47A7005F07EFA01F059FB41F270702E
:1090500005F078FA01F038FB0021D84807F0ACFCA5
:109060000021D64807F0ACFC0021D44807F00AFAEA
:109070000120D54981F8000510BD10B501F015FC9F
:109080004FF47A7005F05EFA01F0DFFB8021CD48E5
:1090900005F059FC0121CC4880F82B104FF47A7070
:1090A00005F050FA4FF40071C64805F04CFC012160
:1090B000C54880F82D104FF47A7005F043FA4FF44C
:1090C0008071C04805F03FFC0121BF4880F82C109A
:1090D0004FF47A7005F036FA01F08BFB4FF48060A4
:1090E00008F085F84FF4006008F081F8402008F09F
:1090F0007EF80121B14807F0C5F90020B24981F896
:1091000000050021AD4807F057FC0021AB4807F0EF
:1091100057FC10BD00B5AFB00020ADF8B800ADF8F9
:10912000BA008DF80000ADF8B800ADF8BA00BDF88F
:10913000B800401CB52808DAAA21BDF8B820501C98
:1091400080B2ADF8B8000DF80210BDF8B800ADF867
:10915000BA00BDF8B800401CB52808DA5521BDF8A2
:10916000B820501C80B2ADF8B8000DF80210BDF860
:10917000B800ADF8BA00BDF8B800401CB52808DA50
:109180000321BDF8B820501C80B2ADF8B8000DF82E
:109190000210BDF8B800ADF8BA00BDF8B800401C28
:1091A000B52808DA0021BDF8B820501C80B2ADF80F
:1091B000B8000DF80210BDF8B800ADF8BA00BDF85F
:1091C000B800401CB52808DA0021BDF8B820501CB2
:1091D00080B2ADF8B8000DF80210BDF8B800ADF8D7
:1091E000BA00BDF8B800401CB52808DA0121BDF866
:1091F000B820501C80B2ADF8B8000DF80210BDF8D0
:10920000B800ADF8BA00BDF8B800401CB5280FDAB8
:10921000BDF8B800801E81B20DF10200FFF7E0FD3D
:10922000BDF8B820511C89B2ADF8B8100DF8020095
:10923000BDF8B800ADF8BA006846FFF7F7FD2FB0EB
:1092400000BD70B50446604890F8EF04012804D0D2
:1092500048F20100FFF7FEFD70BDB4F8B800401CF5
:10926000B4F8BA10884207DC34F8B81F2088401CD4
:1092700024F8B809655C00E00025012D03D1A9029E
:10928000524805F060FB25B94FF480614F4805F066
:109290005CFBFFF73FFF00BFDEE770B504464A48BE
:1092A00090F8EF04012804D048F20100FFF7D2FD46
:1092B00070BDB4F8B800401CB4F8BA10884207DC9E
:1092C00034F8B81F2088401C24F8B809655C00E019
:1092D0000025012D03D1E9023C4805F034FB25B9F6
:1092E0004FF40061394805F030FBFFF713FF00BF72
:1092F000DEE770B50446344890F8EF04012804D046
:1093000048F20100FFF7A6FD70BDB4F8B800401C9C
:10931000B4F8BA10884207DC34F8B81F2088401C23
:1093200024F8B809655C00E00025012D03D169022D
:10933000244805F008FB25B94FF40071214805F0D9
:1093400004FBFFF7E7FE00BFDEE770B504461E48EA
:1093500090F8EF04012804D048F20100FFF77AFDED
:1093600070BDB4F8B800401CB4F8BA10884207DCED
:1093700034F8B81F2088401C24F8B809655C00E068
:109380000025012D03D129020E4805F0DCFA25B98C
:109390004FF480710B4805F0D8FAFFF7BBFE00BF11
:1093A000DEE770B50446084890F8EF0401280FD0B6
:1093B00048F20100FFF74EFD70BD000000040040C0
:1093C000000401400010014058000020000C014042
:1093D000B4F8B800401CB4F8BA10884207DC34F87E
:1093E000B81F2088401C24F8B809655C00E00025FF
:1093F000012D03D18021F74805F0A5FA1DB9802180
:10940000F44805F0A2FAFFF785FE00BFD4E710B5D7
:109410000446F14890F8EF04022804D048F2010015
:10942000FFF718FD10BDB4F8B800801CB4F8BA10EE
:10943000884218DC34F8B81F2088401C24F8B8098A
:10944000605CE549A1F8F80434F8B81F2088401C96
:1094500024F8B809605CE049B1F8F81401EB002089
:10946000DD49A1F8F804DC48B0F8F80440B948F246
:109470000100FFF7EFFC4021D84805F066FAD1E77C
:10948000FFF748FE40F6B83005F05CF84021D348BD
:1094900005F059FA00BFC5E7704710B50446CE483D
:1094A00090F8EF0420B148F20100FFF7D3FC10BDA3
:1094B0000020C94981F8FF0400BFF8E710B5044651
:1094C000C54890F8EF0420B148F20100FFF7C2FC54
:1094D00010BD0120C04981F8FF0400BFF8E710B5B6
:1094E0000446BD4890F8EF0420B148F20100FFF7B0
:1094F000B1FC10BD0021BA4806F0C4FF00BFF8E778
:1095000070B5B0B00646B44890F8EF0428B148F200
:109510000100FFF79FFC30B070BD0020ADF8BC002B
:10952000ADF8BE008DF80400ADF8BC00ADF8BE008B
:10953000BDF8BC00401CB52808DAAA21BDF8BC2043
:10954000501C80B2ADF8BC0001A88154BDF8BC002D
:10955000ADF8BE00BDF8BC00401CB52808DA5521A6
:10956000BDF8BC20501C80B2ADF8BC0001A88154ED
:10957000BDF8BC00ADF8BE00BDF8BC00401CB5286D
:1095800008DA2121BDF8BC20501C80B2ADF8BC0027
:1095900001A88154BDF8BC00ADF8BE00BDF8BC0008
:1095A000401CB52808DA0021BDF8BC20501C80B250
:1095B000ADF8BC0001A88154BDF8BC00ADF8BE00F8
:1095C000BDF8BC00401CB52808DA1E21BDF8BC203F
:1095D000501C80B2ADF8BC0001A88154BDF8BC009D
:1095E000ADF8BE00BDF8BC00401CB52808DA01216A
:1095F000BDF8BC20501C80B2ADF8BC0001A881545D
:10960000BDF8BC00ADF8BE00734D002413E0BDF8FA
:10961000BC00401CB52808DA295DBDF8BC20501CF0
:1096200080B2ADF8BC0001A88154BDF8BC00ADF813
:10963000BE00601CC4B21E2CE9D3BDF8BC00401CA7
:10964000B5280FDABDF8BC00801E81B20DF106000E
:10965000FFF7C6FBBDF8BC20511C89B2ADF8BC10A9
:1096600001A98854BDF8BC00ADF8BE0001A8FFF701
:10967000DDFB00BF4FE710B50446574890F8EF04F4
:1096800020B148F20100FFF7E5FB10BDFFF742FDF6
:1096900000BFFAE72DE9F0410446022024F8B80F94
:1096A0002088401C6188B83C884207DC34F8B81F29
:1096B0002088401C24F8B809655C00E00025B4F857
:1096C000B800401CB4F8BA10884207DC34F8B81F60
:1096D0002088401C24F8B809675C00E000272FB1FF
:1096E00048F20200FFF7B6FBBDE8F081B4F8B8001D
:1096F000401CB4F8BA10884207DC34F8B81F208840
:10970000401C24F8B809665C00E00026B4F8B800F4
:10971000401CB4F8BA10884208DC34F8B81F20881E
:10972000401C24F8B80914F8018001E04FF000084B
:10973000B52D07DCB4F8BA10281D814202D1F01C07
:10974000854204D048F20200FFF784FBCCE72248B0
:1097500080F8EF644046B8F1200F2FD00EDC1128BE
:1097600020D006DC012811D0022813D0102846D1C1
:1097700014E012281AD0152841D11BE022380628FF
:109780003DD2DFE800F03B1F232F37332046FFF7A1
:1097900072FF39E02046FFF7B3FE35E02046FFF7C1
:1097A0009EFE31E02046FFF789FE2DE02046FFF7C0
:1097B00074FE29E02046FFF76FFE25E02046FFF704
:1097C00026FE21E02046FFF7ECFD1DE02046FFF7D6
:1097D000BCFD19E0001001405800002000080140C5
:1097E000000C00402046FFF784FD0DE02046FFF707
:1097F00054FD09E02046FFF724FD05E004E04FF4A6
:109800000040FFF727FB00BF00BF00BF6CE7002050
:10981000FE490870BBE00021FD48FC4A127840F880
:1098200022100020FB49087019E0F948F74909782F
:1098300050F82110F7480078F44A127802EBC00281
:10984000F348503830F812000144F148EF4A1278DA
:1098500040F82210EF480078401CEE490870ED48AF
:1098600000780528E1DBE9480078052803D0E748BF
:109870000078072817D1E648E449097850F8211004
:1098800040F6D1404143E248E04A127840F82210C5
:10989000DE49097850F82100010BDD48DB4A1278D7
:1098A00040F8221055E0D9480078B8B9D848D749CF
:1098B000097850F8211041F65C404143D448D34A1E
:1098C000127840F82210D149097850F82100010B94
:1098D000CF48CE4A127840F822103AE0CB480078C0
:1098E000012807D0C9480078022803D0C74800786B
:1098F000032817D1C648C549097850F821104FF4FC
:1099000024704143C248C14A127840F82210BF492E
:10991000097850F82100010BBD48BC4A127840F884
:10992000221016E0BA48B949097850F8211041F6DA
:10993000A2104143B648B54A127840F82210B34904
:10994000097850F82100010BB148B04A127840F86C
:109950002210AE480078A8B1AD48AC49097850F85B
:10996000210000EB4001AA48A84A127840F82210D2
:10997000A649097850F821004108A548A34A127861
:1099800040F82210A1480078401CA04908709F4868
:1099900000780828FFF63FAF00209C4908700BE0D4
:1099A00000219B485038994A127820F812109748A5
:1099B0000078401C95490870944800782828EFDB0F
:1099C00070472DE9F0470027934890F8BA00C01E71
:1099D00000F0FF09914890F8FC04002859D08F4806
:1099E00090F8FC04012801D1FFF747FB8B4890F861
:1099F000FC04022813D101F01FFA4FF47A7004F02E
:109A0000A1FD01F019FA4FF47A7004F09BFD01F00A
:109A100013FA4FF47A7004F095FDFFF7D4FA4FF47F
:109A20007A7004F08FFD7D4890F8FC0401280FD176
:109A3000C1037B4804F06DFF012804D1022077495F
:109A400081F8FC0413E00020744981F8FC040EE066
:109A50004FF40041724804F05CFF20B901206F49C7
:109A600081F8FC0403E000206C4981F8FC046B4899
:109A700090F8FC0438B94FF40041694804F049FFFC
:109A8000664981F8FB046748006840F40040654976
:109A9000086002F062FA02F0A5FB604890F8BE048C
:109AA000EE287CD10A215D4880F8BE14FFF7AFFE96
:109AB0005D48007801285AD15848D0F844045749E5
:109AC000C8830846D0F85C0481B254480184D0F8B9
:109AD000440445F6C051884203D200214F484184D6
:109AE0000EE04E48D0F84404A0F5BA40C0386421D6
:109AF000484341F25041B0FBF1F081B24748418404
:109B00004648D0F8540481B244488184C08B43490C
:109B1000A1F80E050020444908704048B0F80E0531
:109B200046F2A811884219DA3C48B0F824054FF6ED
:109B3000FE7108403949A1F824050846B0F824050B
:109B400040F00100A1F82405084690F830000128F3
:109B50000DD01121314880F8E71408E02F48B0F803
:109B600024054FF6FE7108402C49A1F824052B4826
:109B7000B0F80C05401C2949A1F80C050846B0F8BE
:109B80000C0528287DD10846D0F86414D0F8440488
:109B900001442248C0F864140020204900E08CE20F
:109BA000A1F80C05084690F8C004401CC1B21B483F
:109BB00080F8C01490F8C0040F2875DB1748D0F85F
:109BC00064040F21B0FBF1F01449A1F80E0508461A
:109BD000B0F80E05C8830846B0F80E0545F6C0512A
:109BE000884203DC00210D4841840EE00B48B0F8A8
:109BF0000E05A0F5BA40C0386421484341F2EC415B
:109C000090FBF1F081B2054841840FE0260000206E
:109C10009C040020270000200A0C0020580000208F
:109C2000000801400004014025000020FE48408C4F
:109C3000642802DD6421FC4841840021FA4880F850
:109C4000C014C0F86414B0F80E0546F2A81188429A
:109C500021DAF54890F8240500F00100D8B9F2485F
:109C6000B0F824054FF6FE710840EF49A1F824052D
:109C70000846B0F8240540F00100A1F82405084684
:109C800000E007E090F8300001280DD01121E648EF
:109C900080F8E71408E0E448B0F824054FF6FE71B8
:109CA0000840E149A1F824050024FBE1082C7DD2FD
:109CB000DFE804F0041F95FDFCFBFAF9DB4850F8DF
:109CC000240046F2A811884212D9D74890F82405FA
:109CD00000F0010060B1D44890F8260540B9D248A0
:109CE000B0F824054FF6FE710840CF49A1F82405CD
:109CF000D5E1CE4850F82400B0F57A6F04D30121A5
:109D0000C94880F8C6144DE0C84850F8240040F611
:109D1000C411884204D8C44890F8CE04012841D127
:109D2000C24850F8240081B2BF4890F8D62400F20F
:109D3000B44020F812100121BB4880F8CE1490F8EE
:109D4000D604401CC1B2B84880F8D61490F8D604A6
:109D5000052827DB0026002506E0B448703030F8DF
:109D600015000644681CC5B2052DF6DB0520B6FBC0
:109D7000F0F640F6C410864203D30121AA4880F8C9
:109D8000C614002506E00021A848703020F8151000
:109D9000681CC5B2052DF6DB0021A34880F8D61457
:109DA00080F8CE14A14850F8240000E076E140F697
:109DB000C411884212D29C4890F82405C0F30010C8
:109DC00060B1994890F8260540B99748B0F8240545
:109DD0004FF6EF7108409449A1F824055FE19348DC
:109DE00050F82400B0F57A6F04D301218E4880F832
:109DF000C5144DE08D4850F8240040F6C411884247
:109E000004D8894890F8CD04012841D1874850F8FA
:109E1000240081B2844890F8D52400F2AA4020F8AA
:109E200012100121804880F8CD1490F8D504401C10
:109E3000C1B27D4880F8D51490F8D504052827DBF9
:109E40000026002506E07948663030F81500064403
:109E5000681CC5B2052DF6DB0520B6FBF0F640F612
:109E6000C410864203D301216F4880F8C514002531
:109E700006E000216D48663020F81510681CC5B258
:109E8000052DF6DB0021684880F8D51480F8CD1444
:109E9000664850F8240040F6C411884218D262483F
:109EA00090F8240504E0D6E0ADE0ABE087E010E0F8
:109EB000C0F3C00060B15C4890F8260540B95A482C
:109EC000B0F824054FF6F77108405749A1F824056A
:109ED000E5E0564850F82400B0F57A6F04D301212C
:109EE000514880F8C6144FE0504850F8240040F61E
:109EF000C411884204D84C4890F8CC04012843D1BE
:109F00004A4850F8240081B2474890F8D42400F51C
:109F1000946020F812100121434880F8CC1490F886
:109F2000D404401C404981F8D404084690F8D40475
:109F3000052829DB0026002506E03C485C3030F887
:109F400015000644681CC5B2052DF6DB0520B6FBDE
:109F5000F0F640F6C410864203D30120324981F85E
:109F6000C404002506E0002130485C3020F81510BC
:109F7000681CC5B2052DF6DB00202B4981F8D404FE
:109F80000021294880F8CC14284850F8240040F6D5
:109F9000C411884212D2244890F82405C0F38000EE
:109FA00060B1214890F8260540B91F48B0F8240553
:109FB0004FF6FB7108401C49A1F824056FE01B48CF
:109FC00050F8240041F2707188421AD2164890F875
:109FD0002405C0F34010A0B1134890F826050128CD
:109FE0000FD1114890F8CA0458B90F48B0F82405A9
:109FF0004FF6DF7108400C49A1F82405002081F8D4
:10A0000026054CE04BE0094850F8240041F2883125
:10A0100088421FD2044890F82405C0F38010C8B1CC
:10A02000014890F8260503E0580000209C04002019
:10A0300001280FD1724890F8C80458B97048B0F898
:10A0400024054FF6BF7108406D49A1F82405002092
:10A0500081F8260523E06B4850F8240041F288314E
:10A0600088421AD2664890F82605012815D164481E
:10A0700090F82405C0F3400078B1614890F8C90415
:10A0800058B95F48B0F824054FF6FD7108405C49A7
:10A09000A1F82405002081F8260500E000BF00BFDC
:10A0A000601CC4B2082CFFF601AE0021544880F8B1
:10A0B000BF140121880706F0E5F9534890F8B6006F
:10A0C000552875D101204E4981F8EC0401278046BE
:10A0D000C7EB471101EB87134949FA3101EB8301C3
:10A0E000891CC8EB081303EB481301EB83004649B6
:10A0F000B1F8BA2007F0B2FD4348B0F8BA10C7EB88
:10A10000471000EB87123E48FA3000EB8200801CBB
:10A11000C8EB081202EB481200EB8200A0F8BA105C
:10A12000C7EB471101EB87123549FA3101EB820188
:10A13000891CC8EB081202EB481201EB8201881C53
:10A140004946FEF74DFE304981F8B700C7EB47108E
:10A1500000EB87112A48FA3000EB8100801CC8EB25
:10A16000081101EB481100EB81012748B0F8BA0053
:10A17000401E085C244991F8B710884219D101208B
:10A180001F4981F8EC04C7EB471101EB87121C490A
:10A19000FA3101EB8201891CC8EB081202EB48126C
:10A1A00001EB8200FFF776FA0020174981F8B6002C
:10A1B00023E01548B0F8BA1007F0C7FDC7EB471207
:10A1C00002EB87130E4AFA3202EB8302921CC8EBB1
:10A1D000081303EB481302EB83000B4AB2F8BA10E2
:10A1E00007F0B3FD00200849A1F8BA000620FEF7E9
:10A1F00031FE0020044981F8B600BDE8F0877047C1
:10A20000580000209C0400200A0C002008B5012101
:10A21000482004F0A7FD2020ADF8000010208DF8A4
:10A22000030003208DF802006946FD4804F0DEFAC1
:10A230002021FB4804F087FB2020ADF80000694690
:10A24000F84804F0D3FA2021F64804F07CFB08BD5E
:10A2500000B589B00121052004F084FD0121092009
:10A2600004F080FD8020ADF8200018208DF8230038
:10A2700003208DF8220008A9EB4804F0B7FA032068
:10A28000ADF8200008A9E64804F0B0FA0121022048
:10A2900004F075FD4FF47A70ADF818004720ADF862
:10A2A00014000020ADF81A00ADF8160005A9DF482B
:10A2B00005F08CFD6020ADF804000120ADF806002B
:10A2C0000220ADF80C006420ADF80A0001A9D748BF
:10A2D00005F0FBFD01A9D54805F08FFE0821D34804
:10A2E00006F009FA0821D14806F01BFA0121CF48EF
:10A2F00006F0C8F90121CD4806F0C4F809B000BD48
:10A3000010B5CB480088B0F5C87F02DB0020C849F3
:10A310000880C7480088C82809DCC5480188C348A8
:10A3200006F04AFBC2480188C04806F049FBC04815
:10A330000088C8280CDDBE480088C0F5C87084B20B
:10A340002146BA4806F038FB2146B84806F038FBEB
:10A35000B74800880F30B649088010BD10B54FF4DB
:10A360009671B448A0F8E814B0483830008840B975
:10A370006421AE4806F020FB6421AC4806F020FBC7
:10A3800007E00021A94806F017FB0021A74806F0C6
:10A3900017FB10BD10B54FF47A71A648A0F8E81469
:10A3A000A2483830008840B96421A04806F004FB78
:10A3B00000219E4806F004FB07E064219B4806F05C
:10A3C000FFFA0021994806F0F7FA10BD10B54FF4D6
:10A3D000FA619848A0F8E81494483830008840B9E9
:10A3E0006421924806F0E8FA6421904806F0E8FA01
:10A3F00007E000218D4806F0DFFA00218B4806F0C7
:10A40000DFFA10BD10B5894838300088642804D1BF
:10A4100086484030008864280CD04FF4FA618548A3
:10A42000A0F8E8146421814806F0C6FA64217F4848
:10A4300006F0C6FA10BD08B54FF40050ADF80000A4
:10A4400028208DF8030003208DF802006946744827
:10A4500004F0CCF908BD08B54FF41040ADF8000089
:10A4600010208DF8030003208DF8020069466C4827
:10A4700004F0BCF94FF41041694804F064FA08BDD7
:10A4800070B504460D462946204604F04FFA20B127
:10A490002946204604F059FA03E02946204604F0F4
:10A4A00052FA70BD1FB504460121102004F067FC6C
:10A4B000614805F0B7FB601E80B2ADF808005F4848
:10A4C00000680A21B0FBF1F0401E80B2ADF8040034
:10A4D0000020ADF80A00ADF8060001A9564805F0C5
:10A4E00075FC01221146544805F0E7FF36208DF82F
:10A4F000000003208DF801008DF8020001208DF886
:10A500000300684604F0A9F800214B4805F0BAFFA3
:10A510001FBD10B50121484806F07DFA90B3012116
:10A52000454806F089FA0121434806F071FA41488E
:10A5300090F8FE04022809D03E4890F8FE04032853
:10A5400004D03C4890F8FE04042821D14FF48051F7
:10A55000334804F0EBF9012804D10103304804F03A
:10A56000F4F904E04FF480512D4804F0ECF94FF475
:10A5700000412B4804F0DAF9012804D1C10328482E
:10A5800004F0E3F904E04FF40041254804F0DBF95E
:10A5900010BD10B50446052C12D2DFE804F00312FA
:10A5A000215170000021244805F06CFF4FF48051C8
:10A5B0001B4804F0CAF94FF40041194804F0C3F9EC
:10A5C0007CE000211C4805F05DFF4FF40041144879
:10A5D00004F0BBF94FF48051114804F0B4F96DE078
:10A5E000144890F8FE04022809D0124890F8FE049E
:10A5F000032804D00F4890F8FE04042803D100215A
:10A600000D4805F03FFF02200A4981F8FE040A20A8
:10A61000FFF748FF0121084805F034FF4EE0000035
:10A62000000C0140001801400008014000040040F7
:10A6300028000020580000200010004010000020DA
:10A640001F4890F8FE04022809D01D4890F8FE0427
:10A65000032804D01A4890F8FE04042803D10021EE
:10A66000184805F00FFF0320154981F8FE04052066
:10A67000FFF718FF0121134805F004FF1EE0104802
:10A6800090F8FE04022809D00D4890F8FE04032833
:10A6900004D00B4890F8FE04042803D10021094897
:10A6A00005F0F0FE0420064981F8FE040220FFF7C1
:10A6B000F9FE0121034805F0E5FE00BF00BF10BD13
:10A6C000580000200010004008B50121042004F0CB
:10A6D00049FB4020ADF8000010208DF80300032056
:10A6E0008DF802006946FE4804F080F84021FC48DD
:10A6F00004F02BF90021FB4880F8291008BD08B5AB
:10A700000121082004F02EFB4FF40060ADF800009A
:10A7100010208DF8030003208DF802006946F248EE
:10A7200004F064F84FF40061EF4804F00EF90021E2
:10A73000EC4880F82A1008BD08B50121082004F073
:10A7400011FB4FF48060ADF8000010208DF803007D
:10A7500003208DF802006946E34804F047F84FF4FF
:10A760008061E14804F0F1F80021DE4880F828100B
:10A7700008BD38B50121102004F0F4FA40F285300C
:10A78000ADF8000010208DF8030003208DF80200C2
:10A790006946D64804F02AF88021D44804F0D5F858
:10A7A0004FF48071D14804F0D0F84FF40071CF48D5
:10A7B00004F0CBF80421CD4804F0C7F80121CB48C0
:10A7C00004F0C1F8FFF7B8FF002401E0601C84B278
:10A7D00040F6FF708442F9DBFFF791FF002401E0AF
:10A7E000601C84B240F6FF708442F9DBFFF76CFF17
:10A7F00038BD0EB50121082004F0B4FA4FF4806092
:10A80000ADF8080004208DF80B0002A9B64803F04B
:10A81000EDFF0121084604F0A5FA0A21012004F009
:10A82000FBF84FF48060009000208DF804000C20AD
:10A830008DF8050001208DF80600684606F060FCE2
:10A840000121A84880F828100EBD0EB5012108206E
:10A8500004F088FA4FF40060ADF8080004208DF889
:10A860000B0002A9A04803F0C1FF0121084604F033
:10A8700079FA0B21012004F0CFF84FF4006000902A
:10A8800000208DF804000C208DF8050001208DF8C3
:10A890000600684606F034FC4FF4006006F0A7FCA2
:10A8A0000121904880F82A100EBD1FB50121042017
:10A8B00004F058FA4020ADF80C0004208DF80F0089
:10A8C00003A9874803F092FF0121084604F04AFAE1
:10A8D0000621002004F0A0F84020019000208DF80F
:10A8E00008000C208DF8090001208DF80A0001A84D
:10A8F00006F006FC28208DF8000000208DF80100ED
:10A9000001208DF802008DF80300684603F0A5FED3
:10A91000402006F06CFC0121724880F829101FBD10
:10A920001FB50121042004F01DFA4FF40040ADF8DA
:10A930000C0028208DF80F0003A9694803F056FF8A
:10A940000121084604F00EFA0F21002004F064F8FB
:10A950004FF40040019000208DF8080010208DF881
:10A96000090001208DF80A0001A806F0C9FB282083
:10A970008DF8000000208DF8010001208DF8020004
:10A980008DF80300684603F068FE4FF4004006F0BF
:10A990002EFC1FBD70B505464FF40041504803F032
:10A9A000B8FF504991F8FB14884227D0002400E0FA
:10A9B000641CB4F5003FFBD34FF40041484803F05A
:10A9C000A8FF4B490870474890F8FB040978884273
:10A9D00005D0444890F8FB04012800D170BD4148DF
:10A9E00090F8FB0442490978884205D03D4890F828
:10A9F000FB0408B90220F1E70020EFE70020EDE7B3
:10AA000010B54FF4004006F0E1FBB8B10120FFF7AC
:10AA1000C1FF344981F8FC044FF4004006F0E7FB25
:10AA20004FF4004006F0CEFB2E4890F8FC0428B10D
:10AA30003048006820F400402E4908604FF4005070
:10AA400006F0C4FBD8B14FF4005006F0D0FB4FF431
:10AA5000005006F0B7FB0121224880F8C714B0F877
:10AA6000E004401C81B21F48A0F8E014B0F8E004F4
:10AA7000B0F5803F03DB00211A48A0F8E0144FF442
:10AA8000806006F0A3FB98B14FF4806006F0AFFB46
:10AA90004FF4806006F096FB1648006820F4806052
:10AAA00014490860FFF748FE01210E4880F8CA14D7
:10AAB0004FF4006006F08AFB00B34FF4006006F02C
:10AAC00096FB4FF4006006F07DFB0A48006820F416
:10AAD000006008490860FFF712FE012101480BE001
:10AAE0000008014058000020000C01400010014007
:10AAF0002A0000200004014080F8C91410BD10B5E0
:10AB0000402006F063FB88B1402006F070FB402037
:10AB100006F058FB0648006820F040000449086031
:10AB2000FFF7D2FD0121034880F8C81410BD0000D2
:10AB300000040140580000202DE9F04180460C46F9
:10AB40000025FE480078012801D1BDE8F081A08AE7
:10AB5000072805DCA28AFA48A16807F07FF83FE0E1
:10AB6000A08A0C280FDCF648A1680A680260898870
:10AB70008180A81DC5B2A38A9A1FF14B581921697B
:10AB800007F06CF82CE0A08A06B2ED49A0680268D4
:10AB90000A6080888880A81DC5B2701F06B2E76869
:10ABA00015E01C2E06D9E64948191C22391D07F06C
:10ABB00055F805E0E24948193246391D07F04EF8CC
:10ABC0003F6806F11C0006B205F11C00C5B2002F5B
:10ABD000E7D1DB4A50193246216907F03FF800BF40
:10ABE000A08AD849088020222146D74807F07BF860
:10ABF0000120D249087000BFA7E770B50546049C44
:10AC0000022B07D100BF00BFD04ED148C1E9006080
:10AC1000012070BD012B46D1CD2A26D008DCC92ADF
:10AC20000FD0CA2A12D0CB2A15D0CC2A34D117E0A3
:10AC3000D82A1FD0E12A21D0FE2A23D0FF2A2BD1E7
:10AC400025E0C44EC448C1E9006029E0C34EC448B1
:10AC5000C1E9006024E0C34EC348C1E900601FE0C1
:10AC6000C248C34EC1E900061AE0C24EC248C1E95B
:10AC7000006015E000260E604E6011E000260E60B8
:10AC80004E600DE0BD4EBE48C1E9006008E0BD4821
:10AC9000BD4EC1E9000603E000260E604E6000BF15
:10ACA00000BF0120B5E70020B3E730B58BB000242A
:10ACB00000250121480604F062F80121042004F077
:10ACC00051F84FF40060ADF8080048208DF80B00F3
:10ACD00003208DF80A0002A9AC4803F087FD4FF469
:10ACE0008050ADF8080018208DF80B0002A9A74885
:10ACF00003F07CFDA64804F099F808A804F0BAF91E
:10AD00000121480604F03BF800208DF826008DF85C
:10AD100027008DF8280001208DF8290000208DF8EB
:10AD20002A0001208DF82B0000208DF822008DF8DC
:10AD3000230005208DF8240004208DF8250006202E
:10AD4000ADF8200008A9924804F089F84FF408658E
:10AD50004FF4FF4400208DF81A008DF81B000120ED
:10AD60008DF81C00680BADF810004FF6FF7000EA7C
:10AD7000C500001DADF81200600BADF814004FF6D1
:10AD8000FF7000EAC400001DADF816000020ADF809
:10AD9000180001208DF81D0004A804F0EAF87D4D8C
:10ADA0006FF07F4409208DF81A0000208DF81B00F9
:10ADB00001208DF81C00680BADF81000201200EA8D
:10ADC000C500001DADF81200600BADF81400201294
:10ADD00000EAC40021120843ADF816000020ADF8C7
:10ADE000180001208DF81D0004A804F0C2F801220B
:10ADF0000221674804F0BCFB14208DF80C000120F0
:10AE00008DF80D0000208DF80E0001208DF80F0048
:10AE100003A803F022FC00205F49604B4FF48062DE
:10AE2000CDE900105E495F4801F0CFFC08215D4884
:10AE300001F000FD0BB030BD10B586B000240FE06E
:10AE4000594850F82400594A02F81400564850F85E
:10AE50002400C0F307216000401C1154601CC4B2E0
:10AE6000082CEDDB524890F82200504908745048F5
:10AE700090F8240548744E48B0F82405000A8874F8
:10AE80000020C8744A4890F8ED04442804D048488B
:10AE900090F8FC04022809D14448C07C40F08000AE
:10AEA0004249C8740020424981F8ED043F48C17C02
:10AEB0003F4890F8270041EA80103C49C874084692
:10AEC000C17C3B4890F8280041EA40103749C874DB
:10AED0000846C17C364890F8290041EA0010334901
:10AEE000C8740846C17C324890F82A0041EAC00084
:10AEF0002E49C8740846C17C2D4890F82B0041EAC1
:10AF000080002A49C8740846C17C294890F82C0062
:10AF100041EA40002549C8740846C07C244991F89C
:10AF20002D1008432149C87414201F22214BCDE95C
:10AF30000132CDE9031045F240003DE03000002031
:10AF4000800500202E000020F80A0020401DA120CE
:10AF500026812A0B6840D69D8BCBDED906E0EC011A
:10AF6000F0E1B36AEC7895020F7F087E79437CC8E4
:10AF7000DA287FECDCA167B532884C64A1780C2913
:10AF8000D0BF2E81E2DB3111450FD0D10008014046
:10AF90000064004010025000FBAB000839AB000811
:10AFA000F8060020D40600209C040020160600208D
:10AFB0005800002038000020F94AFA4B0090FA4867
:10AFC00001F0D9FD06B010BD00B587B0F748B0F864
:10AFD0002405000AF6490870F44890F824054870E2
:10AFE0000221F34A0023F348807ECDE90332059124
:10AFF0000290F0481930DD21CDE900101938C17EEA
:10B000001A46E94801F062FE07B000BD02465079D9
:10B01000137900EB0321B1F5006F09D040F6010070
:10B02000814205D0401C814202D0401C814201D1A6
:10B03000080470470020FCE710B50324DE48DF4910
:10B04000884215D306F067FADD4806F0A9FA06F043
:10B050006EFA06F060FADB49D94806F071FB06F09B
:10B0600066FAD7480068D74988421AD1002418E008
:10B07000D148D449884214D306F04DFAD04806F09E
:10B080008FFA06F054FA06F046FACC49CC4806F09E
:10B0900057FB06F04CFACA480068C849884200D1FC
:10B0A0000024204610BD2DE9FC5F0546884698F82F
:10B0B000010005EB002098F80210461898F80040AF
:10B0C00008F10407B5F1006F0BD0BF48854208D0E6
:10B0D000BA48854205D0BD48854202D00320BDE86C
:10B0E000FC9FC6F30D0000283ED1B34606F013FACC
:10B0F000352006F0ABFC4FF0000A2FE0584606F072
:10B100004FFA01900198042811D00098401CC0B259
:10B1100000900098022803DB4FF003094846DEE761
:10B12000352006F093FC584606F03AFA01900BF5EC
:10B13000806B4FF40071A64803F0F8FB012804D19E
:10B140004102A34803F001FC04E04FF40071A04861
:10B1500003F0F9FB0AF1010000F0FF0ABAF1100F49
:10B16000CCDB06F0E4F900BF06F0D5F93AE04FF485
:10B170000071974803F0DAFB012804D1410294489A
:10B1800003F0E3FB04E04FF40071914803F0DBFBB4
:10B19000E11704EB9171891049B13046396806F026
:10B1A000CFFA8146361D201FC4B23F1D16E004EBC6
:10B1B000D471491049B13988304606F0F4FA814615
:10B1C000B61CA01EC4B2BF1C08E03978304606F099
:10B1D00008FB8146761C601EC4B27F1CB9F1040FC7
:10B1E00000D001E0002CC2D100BF06F0A0F9B9F1F7
:10B1F000040F01D0032072E7002070E770B5054608
:10B20000E878062821D2DFE800F0030A0E10121EAB
:10B21000294670480068FFF746FF044617E0FFF72D
:10B220000BFF044613E0002411E000240FE0284641
:10B23000FFF7ECFE674908600846006808B9022479
:10B2400000E0002403E0002401E0002400BF00BF70
:10B25000204670BD0146302905DB392903DCA1F108
:10B260003000C0B27047412905DB462903DCA1F15B
:10B270003700C0B2F6E7FF20F4E70146302903DBD0
:10B28000392901DC01207047412903DB462901DC13
:10B290000120F8E70020F6E7F0B504460D46002649
:10B2A0002B4620783A2801D00020F0BD012223E06F
:10B2B000A05CFFF7E2FF08B90020F6E7104602EBBA
:10B2C000D0714910A2EB410131B1A05CFFF7C2FF80
:10B2D0000007000E187006E0A05CFFF7BBFF1978AE
:10B2E000084418705B1C501CC2B22878801D4000B6
:10B2F000904201DA0020D8E7A05C0D28D8D12B4677
:10B300001878401DC7B2002205E018783044C6B254
:10B310005B1C501CC2B2781E9042F6DCF043C6B2F1
:10B32000701CC6B21878B04201D10120BDE70020E0
:10B33000BBE70446052094FBF0F0FDF744FE00BF98
:10B34000FEE700B591B000200B902348007801285B
:10B3500073D11848007E022842D11648C08A45F2AF
:10B360000201884215D11D4890F894000121B1EBEB
:10B37000E00F05D0194890F89500C0F3400020B1C7
:10B3800001200A4981F8080503E00020074981F8F7
:10B3900008050020114981F8940081F89500F9E32F
:10B3A0009E4BB028DF3AC915D40600205800002073
:10B3B00016060020F80A0020262D010800000208C9
:10B3C00000F80308008000080000010800000308DE
:10B3D000000C0140340000203000002080050020D7
:10B3E000FA48007E01287DD1F848C08ADB287AD04F
:10B3F00012DCCD2878D008DCC9281FD0CA2874D028
:10B40000CB2873D0CC2872D157E1D82870D0D92856
:10B410006FD0DA28F7D148E2DF286BD006DCDC28D1
:10B4200069D0DD2868D0DE28EDD12FE3E12877D080
:10B43000FE2876D0FF28E6D1EBE3FDE3E448007870
:10B4400020281FD102F07CFE0990E249099808707B
:10B450000998000A48700221DE4A0023DB48807EFA
:10B46000CDE9033205910290D8481930C921CDE9C0
:10B4700000101938C07ED84AD84B01460890D848E9
:10B4800001F024FCD248007811281AD10A20D149B1
:10B4900008700121CF4A0023CC48807ECDE90332D9
:10B4A00005910290C9481930C921CDE90010193819
:10B4B000C07EC94AC94B01460890C94801F006FC44
:10B4C000B1E0C348007812282CD1C64890F8D704C0
:10B4D000C0490870002048700221BE4A0023BB48C2
:10B4E000807E0AE0FEE347E208E19DE0B4E025E269
:10B4F00025E191E14FE37CE2ECE2CDE903320591F5
:10B500000290B2481930C921CDE900101938C07E27
:10B51000B14AB24B01460890B14801F0D7FB82E036
:10B520000DE2F0E3AA480078132830D100F06BFF59
:10B53000AD488088A7490870AB488088000A4870E9
:10B54000A94880798870A848C079C870A648007852
:10B550000871A54840784871A34880788871072110
:10B560009C4A00239948807ECDE9033205910290E0
:10B5700096481930C921CDE900101938C07E964A85
:10B58000964B01460890964801F0A0FB4BE090488E
:10B59000007814282DD18E4840788D49897800EBA9
:10B5A0000120914988808A48C0788871884800794C
:10B5B000C87187484079087085488079487005F0DF
:10B5C0002CFE002188484078CDE9000186480078AB
:10B5D00008908548C0790790834880790690824812
:10B5E0008088059006A90EC900F085FF05F01EFEB3
:10B5F00019E00120774908700121764A0023734839
:10B60000807ECDE903320591029070481930C9213E
:10B61000CDE900101938C07E6F4A704B0146089082
:10B620006F4801F053FBC1E32621704A00236748AD
:10B63000807ECDE903320591029064481930CA2119
:10B64000CDE900101938C07E694A6A4B014608905E
:10B65000634801F03BFBA9E35D480078E12806D18F
:10B66000FDF7B1FC0421644803F06DF924E058486B
:10B6700040785749097800EB012080B20A900120F8
:10B68000544908700121534A00235048807ECDE977
:10B690000332059102904D481930CB21CDE90010BD
:10B6A0001938C07E554A564B014608904C4801F067
:10B6B0000DFB0A98FFF73DFE78E35248007840F012
:10B6C0000400504908700120424908700121414A94
:10B6D00000233E48807ECDE90332059102903B482D
:10B6E0001930CC21CDE900101938C07E464A474BAD
:10B6F000014608903A4801F0E9FA57E3012035493C
:10B7000008704048007820F004003E49087001218C
:10B71000304A00232D48807ECDE903320591029006
:10B720002A481930CD21CDE900101938C07E384A99
:10B73000384B014608902A4801F0C8FA36E32448FD
:10B74000007801280FD180212B4803F0EFF850B981
:10B750008021294803F0F7F80121224880F82B10B6
:10B7600001200B9012E01A48007878B98021224815
:10B7700003F0DCF8012809D180211F4803F0E5F827
:10B780000021184880F82B1001200B900B980128FD
:10B7900002D11049087002E002200E490870012110
:10B7A0000C4A00230948807ECDE9033205910290BE
:10B7B00006481930D821CDE900101938C07E1A4644
:10B7C00001460890064801F081FAEFE2F80A0020ED
:10B7D00080050020160600206840D69D8BCBDED960
:10B7E000D406002058000020440B0020262D01081C
:10B7F00006E0EC01F0E1B36A00100140EC7895023C
:10B800000F7F087E2C00002079437CC8DA287FEC6B
:10B81000DCA167B532884C64FE480078012810D15D
:10B820000102FD4803F082F858B94FF48071FA48DC
:10B8300003F089F80121F94880F82C1001200B90C1
:10B8400013E0F448007880B94FF48071F24803F0B7
:10B850006DF8012809D10102EF4803F076F80021C4
:10B86000EE4880F82C1001200B900B98012802D193
:10B87000EB49087002E00220E94908700121E84A1A
:10B880000023E848807ECDE9033205910290E54827
:10B890001930D921CDE900101938C07E1A46014669
:10B8A0000890E14801F012FA80E2DA4800780128B5
:10B8B00010D14102D84803F039F858B94FF400715B
:10B8C000D54803F040F80121D44880F82D1001201C
:10B8D0000B9013E0CF48007880B94FF40071CE4848
:10B8E00003F024F8012809D14102CB4803F02DF8D8
:10B8F0000021CA4880F82D1001200B900B980128D8
:10B9000003D10121C648017002E00220C449087039
:10B910000121C34A0023C348807ECDE9033205914B
:10B920000290C0481930DA21CDE900101938C07EE4
:10B930001A4601460890BC4801F0C8F936E2552085
:10B94000B64981F8ED040121B54801700246002393
:10B95000B448807ECDE9033205910290B148193098
:10B96000E121CDE900101938C07E1A460146089041
:10B97000AD4801F0ABF919E2A6480078012808D1DA
:10B98000FEF737FF0021A54880F8CA1401200B906C
:10B990000FE0A048007860B9A448006820F48060F7
:10B9A000A2490860081505F022FCFEF7C5FE01203B
:10B9B0000B900B98012802D19949087002E00220EF
:10B9C000974908700121964A00239648807ECDE968
:10B9D00003320591029093481930DB21CDE9001024
:10B9E0001938C07E1A46014608908F4801F06EF95A
:10B9F000DCE188480078012810D1FEF726FF4FF4DB
:10BA000000618B4802F085FF844981F82A000021FB
:10BA1000824880F8C91401200B9017E07D48007817
:10BA2000A0B98248006820F4006080490860C8140A
:10BA300005F0DDFBFEF763FE4FF400617C4802F089
:10BA400075FF764981F82A0001200B900B98012898
:10BA500002D17349087002E0022071490870012187
:10BA60006F4A00236F48807ECDE903320591029032
:10BA70006C481930DC21CDE900101938C07E1A4617
:10BA800001460890684801F021F98FE1634890F879
:10BA90003000634908706148008F000A48705F48B1
:10BAA00090F83800887003215D4A00235D48807E4D
:10BAB000CDE90332059102905A481930DE21CDE9D3
:10BAC00000101938C07E1A4601460890564801F009
:10BAD000FDF86BE14F480078052809D14F4890F8F0
:10BAE0002605012804D100204C4981F8260550E0A4
:10BAF00048480078012820D14848B0F82405000AB9
:10BB000047490870454890F8240548700221444A86
:10BB100000234448807ECDE90332059102904148DC
:10BB20001930DD21CDE900101938C07E1A460146D2
:10BB300008903D4801F0CAF82BE03648007802280A
:10BB400027D13C48006808900898000E34490870D6
:10BB50000898010C324841700898000A30498870F2
:10BB60000898C87004212E4A00232E48807ECDE913
:10BB70000332059102902B481930DD21CDE90010E8
:10BB80001938C07E1A4601460790274801F09EF8F2
:10BB900000BF0BE10CE1FDF73AFE2048B0F80E05BE
:10BBA000000A1F4908701D4890F80E0548701B4890
:10BBB000D0F85C04000A88701848D0F85C04C8709B
:10BBC0001648408C000A0871144890F82200487109
:10BBD0001248D0F85404000A88711048D0F8540470
:10BBE000C8710E48D0F86004000A08720B48D0F8FB
:10BBF000600448720948D0F85004000A8872074867
:10BC0000D0F85004C8720548D0F84C04000A0873F4
:10BC100013E0A0E080050020001001405800002043
:10BC200016060020F80A0020D40600200004014077
:10BC3000000C014000800308BDE08D48D0F84C04A2
:10BC400048738B48D0F84804000A88738848D0F8B5
:10BC50004804C873002008740846017C844890F8A2
:10BC6000270041EA8010834908740846017C804817
:10BC700090F8280041EA40107E4908740846017C8B
:10BC80007B4890F8290041EA00107A490874084678
:10BC9000017C774890F82A0041EAC0007549087491
:10BCA0000846017C724890F82B0041EA80007149F7
:10BCB00008740846017C6E4890F82C0041EA400068
:10BCC0006C4908740846007C694991F82D100843B6
:10BCD000684908741121674A00236748807ECDE9CE
:10BCE000033200E063E00591029063481930DF21E0
:10BCF000CDE900101938C07E1A46014608905F4809
:10BD000000F0E4FF52E0FFE75D495E48FFF7C4FA48
:10BD1000012805D15A48FFF771FA5649087002E028
:10BD20000120544908700121524A00235248807E64
:10BD3000CDE90332059102904F481930FE21CDE93B
:10BD400000101938C07E504A504B014608904B48AD
:10BD500000F0BCFF2AE04E484E49884203D302213E
:10BD6000444801700AE04A484B49884203D3012005
:10BD70004049087002E000203E49087001213D4A18
:10BD800000233D48807ECDE90332059102903A4878
:10BD90001930FF21CDE900101938C07E3F4A404BD1
:10BDA00001460890354800F091FF00BF00E000BF59
:10BDB00000203C4908700020089022E008980068A4
:10BDC0000D900898007B8DF83A0004208DF838001B
:10BDD00000208DF839000898007B024606900899EB
:10BDE000091D0DF13B0005F039FF0CA92E4803F0A9
:10BDF000AFF907900798042802D0204800F0D5FF3B
:10BE000000BF1E4800F0B3FF08900028D6D111B043
:10BE100000BD1FB5254A0021234803F08EFA2348B0
:10BE2000406800902148807A8DF80C001F48827A83
:10BE300000F10B0101A805F011FF009820F07F40F0
:10BE40001B4988420BD19DF8060000F00F000D49F8
:10BE500081F894009DF80600000981F895004FF4E0
:10BE60007A7200236946054801F007F91FBD0000FA
:10BE70005800002016060020F80A0020D4060020F2
:10BE8000AC06002080050020A1780C29D0BF2E81AF
:10BE9000262D01080000020800800008E2DB3111B5
:10BEA000450FD0D13000002000640040180B002066
:10BEB000100250001FB50121082002F053FF4FF47B
:10BEC0000050ADF80C0048208DF80F0003A957482A
:10BED00002F08CFC0121084602F044FF0D210120F4
:10BEE00002F09AFD4FF40050019000208DF80800F8
:10BEF00008208DF8090000208DF80A0001A805F03F
:10BF0000FFF84FF4005005F072F928208DF800007A
:10BF100003208DF8010001208DF802008DF8030048
:10BF2000684602F09AFB1FBD08B50121082002F007
:10BF300019FF4FF40070ADF8000010208DF80300D9
:10BF400003208DF802006946384802F04FFC4FF498
:10BF50000071364802F0F9FC08BD10B54FF40071CD
:10BF6000324802F0E3FC012804D141022F4802F0DC
:10BF7000ECFC04E04FF400712C4802F0E4FC10BD2E
:10BF80001FB50121082002F0FAFE4FF47A70ADF8D7
:10BF90000800274800684FF47A71B0FBF1F0401EAA
:10BFA00080B2ADF804000020ADF80A00ADF806003C
:10BFB00001A9204803F00AFF012211461D4804F0A0
:10BFC0007CFA32208DF8000003208DF8010000205B
:10BFD0008DF8020001208DF80300684602F03DFB59
:10BFE0000121144804F04EFA1FBD10B5012111487B
:10BFF00004F011FDC0B101210E4804F01DFD012126
:10C000000C4804F005FD4FF40071084802F08EFC66
:10C01000012804D14102054802F097FC04E04FF4E6
:10C020000071024802F08FFC10BD0000000C0140BE
:10C0300010000020000C004000B58DB00121084622
:10C0400002F083FEB94804F023FFB9480290B948D2
:10C050000390002004902820059000200690802066
:10C060000790400008908000099000200A904FF44B
:10C0700080500B9000200C9002A9AC4804F0AAFF5D
:10C0800001220221A94804F0DCFF0B208DF80400F6
:10C0900000208DF8050003208DF8060001208DF8A2
:10C0A000070001A802F0D9FA0121A04804F0BDFF61
:10C0B0000DB000BD00B587B001214FF4017002F052
:10C0C00051FE4FF4004002F0B1FD3320ADF8040002
:10C0D00000208DF8070001A9974802F087FB012195
:10C0E000102002F03FFE3A20ADF8040000208DF849
:10C0F000070001A9914802F079FB8D484C3804F003
:10C100009FFC0020029001208DF80C0000208DF88B
:10C110000D004FF4602004900020059008208DF859
:10C12000180002A982484C3804F0B1FC0723012210
:10C130000B217F484C3804F042FD072302220D21D9
:10C140007B484C3804F03BFD07230322002178484C
:10C150004C3804F034FD07230422012174484C3884
:10C1600004F02DFD07230522042171484C3804F00A
:10C1700026FD0723062205216D484C3804F01FFDDB
:10C1800007231A460E216A484C3804F018FD07238D
:10C1900008220F2166484C3804F011FD0121644843
:10C1A0004C3804F0A0FCFFF747FF012160484C38F1
:10C1B00004F0A4FC5E484C3804F0B7FC00BF5C48B7
:10C1C0004C3804F0B7FC0028F9D159484C3804F039
:10C1D000BBFC00BF56484C3804F0BBFC0028F9D12A
:10C1E00007B000BD10B5564890F8BF0405282BDAFB
:10C1F000534890F8BE040A2826D1514890F8C1044B
:10C20000012821D100214E4880F8C114012148485D
:10C210004C3804F0A8FC322002F094F9484890F819
:10C22000BF04401CC1B2464880F8BF1410214048EA
:10C230004C3804F012FE424890F8BF04052803DA97
:10C240000121880704F01EF910BD10B50446012134
:10C2500037484C3804F087FC00BF022134484C3882
:10C2600004F0F2FD0028F8D031484C3804F00EFDFF
:10C2700010BD10B5022004F012FF88B100212B4838
:10C2800004F0D3FE2821294804F0E4FE022004F043
:10C290001AFF022004F0F8FEEE21294880F8BE14AF
:10C2A0000121224804F0C1FE10BD2DE9F0470446EB
:10C2B0002448406823490860084680684860204652
:10C2C00006F076FB0646204906F078FA1D4988609C
:10C2D0001E4840681D490860084680684860084656
:10C2E00001681B4806F0ACFB0746164841684FF052
:10C2F000804006F0A5FB8046124A9168106806F05F
:10C30000EFF98146414606F0EBF90646394606F05C
:10C31000E7F90E49886088680E4906F091FB0646E9
:10C3200006F00EFB05462846BDE8F08708000240EF
:10C330004C2401404C040020000801400010014042
:10C34000580000202C0B002000605545380B0020C1
:10C35000CDB02FBE00007A44F0B503460C4615461A
:10C36000642093FBF0F0C6B2642093FBF0F700FB6F
:10C370001730C1B2132E02DD01F16400C1B20846CC
:10C38000CF1701EB977701EBA707BAB2072092FB13
:10C39000F0F700FB172082B25719601EDFF8C8C300
:10C3A0001CF80000384482B2CF1701EB9777BF101A
:10C3B000A1EB87071FB9032C01DA501E82B20720B8
:10C3C00092FBF0F700FB1720C0B2F0BD0146CA1780
:10C3D00001EB92729210A1EB820292B9642091FB60
:10C3E000F0F200FB121050B94FF4C87091FBF0F25C
:10C3F00000FB121008B9012070470020FCE7012063
:10C40000FAE70020F8E770B500260024002504F0C4
:10C4100017FF0646D548B6FBF0F4D5480088A04281
:10C420003CD0D3490C8040F2B27510E02846FFF7AB
:10C43000CDFF40B1B4F5B77F02D3A4F5B77404E0E3
:10C44000681C85B206E0A4F26D14681C85B2B4F5D0
:10C45000B67FEBD800BFC7488580002516E0C549E8
:10C460008888FFF7B3FF30B1012D04D11D2C01D313
:10C470001D3C09E00CE0C048405DA04203D8BE4826
:10C48000405D241A00E003E0681C85B21C2CE6D253
:10C4900000BF681CB7498871601CC871B348B6FBFF
:10C4A000F0F100FB11644FF46160B4FBF0F0B149AE
:10C4B00008704FF46160B4FBF0F100FB11403C21C7
:10C4C000B0FBF1F0AB4948704FF46160B4FBF0F1A0
:10C4D00000FB11403C21B0FBF1F201FB1200A54929
:10C4E00088700B46DA7999799888FFF735FFA1496A
:10C4F0000872002070BD2DE9F05F06460F46904699
:10C500009946DDE90AAB002440F2B270864203DBB3
:10C5100040F63300864202DD0120BDE8F09F40F284
:10C52000B2750AE02846FFF751FF10B19348044462
:10C5300001E093480444681C85B2B542F2DB781EE2
:10C54000C7B2002510E08C48405D40F2A32148436B
:10C5500004EBC0143046FFF739FF18B1012D01D1AB
:10C5600082480444681C85B2BD42ECDBA8F101009E
:10C5700040F2A321484304EBC014C9EB4910C0EBBF
:10C58000092004EB0014CAEB0A1004EB80045C449D
:10C5900001214FF0C05002F0F2FB012004F041FFF6
:10C5A000204604F056FE04F087FE0020B5E71CB5D7
:10C5B000002401214FF0C05002F0E1FB012004F003
:10C5C00030FF082004F0F5FE45F25001884241D0CA
:10C5D00004F0BAFE4FF4407002F04DFB04E0601C22
:10C5E000C4B20A2001F0EBFF312002F090FA08B942
:10C5F000FA2CF4DBFA2C01DB01201CBD4FF4407057
:10C6000002F039FB012002F03CFB04F055FE04F07F
:10C610005CFE0021012004F0F3FD04F04DFE04F067
:10C62000FCFD4FF2244004F021FE04F045FE002002
:10C630000A2112230522CDE90010072140F2E27001
:10C64000FFF759FF04F0F2FD45F25001042004F019
:10C65000A4FE03E004F039FE04F02EFEFFF7D3FE43
:10C660000020CAE70EB5012004F054FE08B1FFF720
:10C67000CAFE022004F04EFEA0B1022004F05AFED1
:10C68000FFF7C1FE3B4880783A494978394A127829
:10C69000CDE9002102903748C3798279818839A099
:10C6A00005F020FA052004F045FE04F005FE0EBD5D
:10C6B0002DE9F05F06460F4690469946DDE90AAB44
:10C6C000002440F2B270864203DB40F6330086421B
:10C6D00002DD0120BDE8F09F40F2B2750AE0284675
:10C6E000FFF774FE10B12548044401E024480444D7
:10C6F000681C85B2B542F2DB781EC7B2002510E097
:10C700001D48405D40F2A321484304EBC01430466D
:10C71000FFF75CFE18B1012D01D114480444681CD8
:10C7200085B2BD42ECDBA8F1010040F2A3214843F1
:10C7300004EBC014C9EB4910C0EB092004EB001452
:10C74000CAEB0A1004EB80045C4401214FF0C05096
:10C7500002F015FB012004F064FE204604F094FD75
:10C7600004F0AAFD0020B5E74C2D0108805101001E
:10C770003A000020440B0020582D01080085E201FA
:10C780008033E101416C61726D2054696D653A2519
:10C79000642D25642D25642025643A25643A25649A
:10C7A0000A00000070B50C460021034604E004EBCB
:10C7B00041151D601B68491C9142F8D300251D607E
:10C7C00082800026C680068170BD2DE9F0470446B0
:10C7D000884615461E46DDE9089A6F0904B104E053
:10C7E0004F22F3A1F9A005F0F9F92421204605F024
:10C7F000CEFA00202070A660C4F80490A061E06129
:10C80000C4F820A0B7F5803F01D34FF6FF77BAB246
:10C81000414604F10C00FFF7C5FFBDE8F08710B5F5
:10C82000044604B104E06D22E1A1E9A005F0D6F9C7
:10C83000206A10BD70B504460D4604B104E07322B1
:10C84000DBA1E3A005F0CAF9207828B9012D03DBAC
:10C850007F2D01DC257004E07D22D5A1DFA005F04D
:10C86000BDF970BD01460878704710B5044604B1A3
:10C8700005E040F25632CEA1D9A005F0AFF92078FC
:10C88000401C20702078202801DB0020207010BD83
:10C890002DE9F043024621F0604322F06044CF0FBF
:10C8A000D50FAF4214D00FB1980C00E01846804667
:10C8B0000DB1A00C00E020468146C84506D0C84511
:10C8C00002D20120BDE8F0830020FBE72846F9E70B
:10C8D000C1F3807CC2F38076A34203D1B44501D07A
:10C8E0003046EFE7A34201D20120EBE70020E9E761
:10C8F0002DE9F04106460D4606B105E040F2BD3295
:10C90000ABA1B3A005F06AF9287C002800DD05E0A2
:10C9100040F2BE32A6A1B7A005F060F9F06910B9E7
:10C92000F561BDE8F081F469F76913E06968606852
:10C93000FFF7AEFF40B1F069A04202D12C60F56173
:10C9400001E03D602C60ECE7206808B92560E8E76D
:10C9500027462468002CE9D100BFE2E701460868B9
:10C9600008B9002070470A68086800680860C8882D
:10C97000401CC8800B89C888834201DACB880B81B0
:10C980001046EFE770B505462846FFF7E7FF044677
:10C990000CB9002070BD1421204605F0F8F920469E
:10C9A000F8E72DE9FF4F83B0814688469246119CF7
:10C9B000B9F1000F00D005E040F266327CA184A0FE
:10C9C00005F00CF928F06040404500D105E040F248
:10C9D000673277A18EA005F001F9BAF1000F04D1FA
:10C9E0006FF0010007B0BDE8F08F002C04DD109857
:10C9F00010B96FF00100F5E74FF0000B082C23DAB7
:10CA000009F10C00FFF7BEFF054615B96FF00200F3
:10CA1000E8E7224605F10800109905F01FF9601CAF
:10CA200028749AF8000000F01F0040F0C00105F1E2
:10CA30000800015548F00040686029464846FFF765
:10CA400057FF0BF1010B4FE00026002002908020E1
:10CA50000190002545E009F10C00FFF793FF054622
:10CA600015B96FF00200BDE7002736B906982872A5
:10CA7000069801126972022700E0002708E010986A
:10CA8000815D05F10800C155781CC7B2701CC6B2A3
:10CA9000072F01DAA642F2DBA64201D1402000E0D6
:10CAA00001980190DDE9010140EA41109AF8001077
:10CAB00001F01F010843C1B205F10800C15548F05B
:10CAC00000406860781C287429464846FFF710FF2C
:10CAD0000BF1010B029880F0010002900020019000
:10CAE00000BFA01BB7D100BF58467BE710B580EA56
:10CAF0000120002210E000F4004343B14FF6FF7321
:10CB000003EA400341F2210483EA040003E04FF604
:10CB1000FF7303EA4000521C082AECDB10BD70B51D
:10CB200006460C46154605E014F8011B3046FFF793
:10CB3000DDFF0646281EA5F10105F5D1304670BD82
:10CB40002DE9F04781461746984600240EE022461C
:10CB50003D4646462846314604F0B0FF00F0FF0A45
:10CB600051464846FFF7C2FF81460834402CEEDBB1
:10CB70004846BDE8F0872DE9FF5F84B01746984628
:10CB8000DDE913A6DDE91594129D002003904FF610
:10CB9000FF7BB9F1000F05D1002C03DD801E08B02A
:10CBA000BDE8F09F1F2E45DD6FF00100F7E70000A4
:10CBB0002E2E5C48415244574152455C43414E5CE5
:10CBC00063616E6172642E63000000006F75745FB4
:10CBD000696E7320213D203000000000300000000D
:10CBE0007472616E736665725F696420213D2030E6
:10CBF000000000006974656D2D3E6672616D652EE2
:10CC0000646174615F6C656E203E2030000000003E
:10CC10002863616E5F69642026203078314646467D
:10CC2000464646465529203D3D2063616E5F696456
:10CC3000000000000498FFF715FE18BB072C02DD6A
:10CC40006FF00300ABE705F00300A84202D06FF0DD
:10CC50000100A4E7224649464FF6FF70FFF75FFF49
:10CC600047F6FE71084001900498FFF7FBFD32067D
:10CC7000019942EA412105F0030241EA02210843F9
:10CC8000039015E00498FFF7EDFD310641EA052118
:10CC900008430390072C0BDD3A4643465846FFF7FE
:10CCA0004FFF8346224649465846FFF738FF8346E2
:10CCB0005B465246CDE90094DDE90310FFF771FEB3
:10CCC00002905046FFF7D1FD029868E72DE9FF5F1B
:10CCD00084B0894617469846DDF84CA0DDE9165425
:10CCE00035B9002C04DD6FF0010008B0BDE8F09FFD
:10CCF00014981F2802DD6FF00100F6E70498FFF793
:10CD0000B1FD10B96FF00300EFE70498FFF7AAFD3B
:10CD100014990A06129942EA0142159942EAC13170
:10CD200041EA092141F0800140EA010B4FF6FF760C
:10CD3000072C0BDD3A4643463046FFF701FF064617
:10CD4000224629463046FFF7EAFE0646334652465B
:10CD50005946CDE900540498FFF723FE0390159837
:10CD6000012802D15046FFF780FD0398BDE7014638
:10CD7000C86908B900207047C869001DFBE770B595
:10CD800004460D462E46206830602660E088002864
:10CD900000DD06E040F22D62AFF2EC11FAA004F0E3
:10CDA0001DFFE088401EE08070BD70B50446E56957
:10CDB0002868E061294604F10C00FFF7E0FF70BD30
:10CDC00010B50446606800B906E040F22742AFF2B1
:10CDD0002021F9A004F002FF208B800A401CA169E9
:10CDE00060F38E21A161A0696FF30900A061A069C1
:10CDF00020F40040A06110BD70B505460C4608E067
:10CE0000E068066805F10C00E168FFF7B8FFE6602E
:10CE100000BFE0680028F3D1E060A0602061A0823C
:10CE200070BD70B505460C4608E06068066805F1FF
:10CE30000C006168FFF7A3FF666000BF6068002810
:10CE4000F3D1A0696FF30900A0610020014670BD15
:10CE500070B505462846FFF781FD04460CB9002051
:10CE600070BD002020602046FAE72DE9FF5F0C46E8
:10CE700090461E460027208BC0F30900C0F1060033
:10CE800000281CDD218BC1F3090008E018F80720F9
:10CE900004F11A010A54411C88B2791C8FB2062889
:10CEA00001D2B742F2DBB74209DB208B8119A069BE
:10CEB00061F30900A061012004B0BDE8F09F208B60
:10CEC000C0F30900801F1C21B0FBF1F201FB120925
:10CED0000025606858B90098FFF7BAFF6060606885
:10CEE00008B9E81EE8E765684FF0000926E04FF052
:10CEF000010A656804E00AF1010000F0FF0A2D68EC
:10CF000028680028F7D1208BC0F309003044801F27
:10CF10001C21B0FBF1F0401C00F0FF0BD3450CDDF1
:10CF2000B9F1000F09D10098FFF792FF2860286837
:10CF300010B96FF00200BFE72D6800BF1BE0484644
:10CF400007E018F80720291D0A54411C88B2791CF3
:10CF50008FB21C2801D2B742F3DBB7420BDA00983C
:10CF6000FFF776FF2860286810B96FF00200A3E78A
:10CF70002D684FF00009B742E1DB208B8119A069D1
:10CF800061F30900A061012096E70246881A002893
:10CF900000DA20307047024605E01069884201D16E
:10CFA000104670471268002AF7D10020F9E770B5E3
:10CFB00088B006460C462021684604F0E8FE04943A
:10CFC0003046FFF7CBFC054615B9002008B070BD10
:10CFD00020226946284604F086FE2846F6E770B50A
:10CFE00004460E46314604F10C00FFF7E0FF05460B
:10CFF0000DB9002070BDA0692860A5612846F9E739
:10D0000070B505460E46AC695CB9314605F10C00B9
:10D01000FFF7CDFF04460CB9002070BDAC6120467F
:10D02000FBE731462046FFF7B6FF04460CB1204629
:10D03000F3E731462846FFF7D2FFEEE70146C1F39A
:10D04000C0120AB902207047C1F3C03008B10120F4
:10D05000F9E70020F7E710B504462046FFF7EEFF9A
:10D06000022807D1C4F30F2004F07F0109B900F0B2
:10D07000030010BDC4F30740FBE72DE9F04F97B064
:10D0800082460D46174698462868FFF7D7FF834625
:10D09000BBF1020F01D1002002E02888C0F3062076
:10D0A0001690BBF1020F08D05046FFF7DBFB169934
:10D0B000884202D017B0BDE8F08F2868C0F3046042
:10D0C0001590287800F07F0014902868FFF7C3FFC0
:10D0D0001390139840EA0B41149841EA8041169846
:10D0E00041EA40601290287B401E291D0E5C0024FE
:10D0F000F00900B300200A900B90149800905B4652
:10D10000DAF804C00AA95046139AE04788B150469D
:10D110001299FFF775FF044604B9CBE74FF6FF708D
:10D12000DDE90A23FFF70CFD616960F31F416161CE
:10D1300000E0BFE707E0DAF818001299FFF72BFFCD
:10D14000044604B9B6E704B106E04FF49E72AFF2AC
:10D15000A05120A004F042FD0022D4E90210514069
:10D160005040014301D1012000E000201190D4E99A
:10D1700002013A1A68EB01001A4B00219A1A814108
:10D1800032D2012031E00000616C6C6F6361746F1A
:10D19000722D3E737461746973746963732E637561
:10D1A0007272656E745F75736167655F626C6F63E1
:10D1B0006B73203E2030000073746174652D3E62F5
:10D1C00075666665725F626C6F636B73203D3D20B0
:10D1D0003000000072785F737461746520213D2017
:10D1E0003000000080841E0000201090F0090F9095
:10D1F00006F01F01228BC2F38420FFF7C6FE012830
:10D2000001DD012000E000200E90119828B910984F
:10D2100018B90F9818B10E9808B1012000E000204D
:10D220000D900D98A8B1A06966F38E20A061A06949
:10D2300020F40040A06121465046FFF7F2FDF009BE
:10D2400038B9208B800A401CA16960F38E21A1614E
:10D2500030E7F00948B3C6F3801030B3C4E9027870
:10D26000202104A804F093FDCDE90478281D069040
:10D27000287B401EC0B2ADF824001398ADF82600FC
:10D280008DF828B006F01F008DF8290015988DF84C
:10D290002A0014988DF82B0004A95046DAF80820CB
:10D2A00090472046FFF78CFD04E7208BC0F3C03089
:10D2B000C6F34011884200D0FCE606F01F00218B27
:10D2C000C1F38421884200D0F4E6F00978B3C6F3B4
:10D2D000801060BB287B032800DCEBE6C4E9027801
:10D2E000287BC01EC3B2AA1D21460AF10C00FFF71D
:10D2F000BCFD8146B9F1000F07DA21465046FFF721
:10D3000090FD2046FFF75CFDD4E62979687941EA73
:10D310000020A082297BC91ECAB26169080CA91D20
:10D32000FFF7FDFB616960F31F416161CDE0FFE73D
:10D33000F00928BBC6F3801010BB287B401EC3B287
:10D340002A1D21460AF10C00FFF78FFD8146B9F135
:10D35000000F07DA21465046FFF763FD2046FFF72E
:10D360002FFDA7E6297B491ECAB26169080C291D59
:10D37000FFF7D5FB0146606961F31F406061A3E0E0
:10D38000287B401EC0B20C904FF00009208BC0F3E8
:10D390000900062814D2218BC1F309000AE0291DD7
:10D3A00011F8092004F11A010A54401C09F1010185
:10D3B00001F0FF09062843D20C998945EFDB3FE0D5
:10D3C000606803900398D0B30620029005E00398AC
:10D3D0000068039002981C300290039800680028AF
:10D3E000F5D1039800B106E04FF4D972AFF64001D1
:10D3F000F9A004F0F3FB208BC0F309010298081A8E
:10D40000019001981C2800D206E040F2B512AFF658
:10D410006001F44804F0E2FB01980AE0291D11F8CC
:10D4200009200399091D0A54401C09F1010101F06A
:10D43000FF091C2802D20C998945EFDB00BF00BF11
:10D44000CDE9047804F11A000690606807900C9802
:10D45000814501DB002001E0281D48440890208B15
:10D46000C0F309010C980844ADF824001398ADF8F6
:10D4700026008DF828B006F01F008DF829001598B9
:10D480008DF82A0014988DF82B0000206060297B0D
:10D490004A1E6169080C291DFFF741FB616960F3B1
:10D4A0001F416161A08A6169B0EB114F04D104A9E9
:10D4B0005046DAF80820904704A95046FFF79CFC34
:10D4C0002046FFF77DFCF5E500BF208BC00BC14374
:10D4D000A06961F3CF30A06100BFEBE52DE9F04119
:10D4E000044617469846A669A5692AE0D5E90201CF
:10D4F0003A1A68EB0100BC4B00219A1A81411ED2F6
:10D50000A069A8420ED129462046FFF78AFCA069EF
:10D510000068A061294604F10C00FFF730FCA56902
:10D520002E460EE029462046FFF77BFC2868306037
:10D53000294604F10C00FFF722FC356801E02E4675
:10D540002D68002DD2D1BDE8F0812DE9F0410746CC
:10D55000884607B106E040F2C352AFF6AC11A3A073
:10D5600004F03CFB3C460025A8F1010606E0605DA6
:10D57000A15D6155A0556D1C761E00BFB542F6D366
:10D58000BDE8F08108B5012000909DF80100012858
:10D5900000D108BD0020FCE72DE9F05F80460C4675
:10D5A00091461E460A9DB9F1000F00D006E040F2F8
:10D5B0002F52AFF6042190A004F010FB08EBD40822
:10D5C00006EBD50604F0070405F0070504EB090790
:10D5D00038E004F0070305F00700834201DD9B46B5
:10D5E00000E08346DC46A7EB040BCCF1080EF345C4
:10D5F00002D2A7EB040B01E0CCF1080B59464FF423
:10D600007F4B2BFA01FB0BF0FF0B4BFA00F208EB00
:10D61000D40B9BF800B00BFA03FB4BFA00FB0BF0AA
:10D62000FF0A06EBD50B9BF800B02BEA020B0AEAC7
:10D63000020E4BEA0E0B06EBD50E8EF800B00C4432
:10D640000D4400BF381BC4D1BDE8F09F2DE9FF4F4A
:10D6500085B00546894605B106E04FF4AA62AFF6EB
:10D66000B02169A004F0BAFAA88AB9EBC00F03D3BD
:10D67000002009B0BDE8F08F079809EB0001A88AE7
:10D68000B1EBC00F04D9287DC9EBC000C0B2079030
:10D690000798002800DD06E040F25C52AFF6F0216A
:10D6A0005DA004F09BFAE86810B9286900286DD0E5
:10D6B0004C464FF0000A079E302C1AD2C4F13000BD
:10D6C000B04201D9304601E0C4F1300000F0FF085B
:10D6D00000200090A86842462146089BFFF75CFFA7
:10D6E00044440AEB080000F0FF0AA6EB0800C6B2AB
:10D6F00000BFA88A3021C1EBC00004903027E86841
:10D70000039051E0049800B106E040F27D52AFF67C
:10D71000603145A004F062FA0498E02801D9E020C5
:10D7200000E0049800EB0708A04527D9A8EB040007
:10D73000B04201D9304601E0A8EB040000F0FF0B35
:10D74000BC4200D306E040F28652AFF69C313BA0CB
:10D7500004F044FAE01B0290CDF800A05A46DDE93F
:10D760000210001D089BFFF717FF5C440AEB0B003B
:10D7700000F0FF0AA6EB0B00C6B200BFB84500D907
:10D7800008E04FF4B262AFF6D83100E0CCE035A04B
:10D7900004F024FAA8EB07010498401A04904746C5
:10D7A00003980068039000BF039808B1002EA9DC1D
:10D7B0000498864200D806E040F29652AFF6104137
:10D7C00032A004F00BFA286920B1002E02DDBC4221
:10D7D00070D377E087E06DE0626C6F636B20213D72
:10D7E00020300000782D010880841E00646174617F
:10D7F00020213D20300000007372635F6C656E2055
:10D800003E203055000000007472616E73666572D0
:10D8100020213D20300000006269745F6C656E67F6
:10D820007468203E2030000072656D61696E696E1B
:10D83000675F62697473203E20300000696E707506
:10D84000745F6269745F6F6666736574203E3D2025
:10D85000626C6F636B5F6269745F6F666673657439
:10D8600000000000626C6F636B5F656E645F6269ED
:10D87000745F6F6666736574203E20626C6F636BC5
:10D880005F6269745F6F66667365740072656D616F
:10D89000696E696E675F6269745F6C656E677468F4
:10D8A000203C3D2072656D61696E696E675F6269DB
:10D8B0007473000040F29B52AFF60C51AFF284003B
:10D8C00004F08CF9A4EB0708CDF800A028693246D3
:10D8D0004146089BFFF760FE34440AEB060000F067
:10D8E000FF0A002600BFA88AB4EBC00F00D806E0EC
:10D8F00040F2A652AFF64851F2A004F06FF9BAF127
:10D90000400F00DC06E040F2A752AFF65C51F9A0F0
:10D9100004F064F906B906E04FF4B562AFF6705151
:10D92000FAA004F05BF907E000200090A8684946DF
:10D93000DDE90723FFF730FE07989AE62DE9FF4F50
:10D9400085B014469846129D059800B125B96FF030
:10D95000010009B0BDE8F08F012C01DB402C02DD95
:10D960006FF00100F5E7012C04D1B8F1000F01D0F0
:10D97000E01EEEE70020009001906B462246DDE9B4
:10D980000501FFF763FE0646002E01DC3046E0E7A6
:10D99000002E04DD402E02DCA64200DC06E040F250
:10D9A0002E22AFF6F451E0A004F018F9E11704EBD1
:10D9B0005171C910A4EBC101F1B12046E31704EB8A
:10D9C0005373DB101DF8033021464FEAE47C04EB6F
:10D9D0005C7C4FEAEC0CA4EBCC0CCCF1000C0CF012
:10D9E000070C43FA0CF322464FEAE47C04EB5C7C20
:10D9F0004FEAEC0C0DF80C300027012C01D1012767
:10DA000017E0082C01DC012713E0102C01DC0227B1
:10DA10000FE0202C01DC04270BE0402C01DC082760
:10DA200006E040F24722AFF67861BEA004F0D6F8D7
:10DA300000BF002F02DD082F00DC06E040F24B2281
:10DA4000AFF69461C7A004F0C9F8FFF79BFD18B1C9
:10DA500039466846FFF779FDB8F1000F79D0B4EB8D
:10DA6000C70F76D0082C12DC9DF90000611E012240
:10DA70008A40104000286CD09DF800100120A04082
:10DA8000401E61EA000148B28DF8000061E0102CF0
:10DA900012DCBDF90000611E01228A4010400028FE
:10DAA00057D0BDF800100120A040401E61EA0001DF
:10DAB00008B2ADF800004CE0202C0DDC611E012204
:10DAC0008A4000981040D8B30120A040401E009921
:10DAD00061EA000100913CE0402C32DA621E4FF016
