:020000040800F2
:10000000884800202D9500088D0A00088F0A0008F6
:10001000910A0008950A0008990A000800000000EB
:100020000000000000000000000000009D0A000821
:100030009F0A000800000000A10A0008A30A0008A7
:100040004795000847950008479500084795000820
:10005000479500084795000823050008B5050008E6
:1000600065050008479500083D070008D9360008D7
:1000700047950008479500084795000847950008F0
:1000800047950008479500084795000847950008E0
:10009000CB1A00084795000847950008810700081B
:1000A000479500084795000847950008D761000864
:1000B00047950008479500084795000847950008B0
:1000C00047950008479500084795000847950008A0
:1000D0004795000847950008479500084795000890
:1000E0003308000847950008479500084795000821
:1000F0004795000847950008479500084795000870
:10010000479500084795000847950008479500085F
:1001100047950008479500080363000847950008C5
:10012000479500084795000847950008479500083F
:1001300000F002F800F04DF80AA090E8000C8244AC
:100140008344AAF10107DA4501D100F042F8AFF289
:10015000090EBAE80F0013F0010F18BFFB1A43F0A5
:1001600001031847A4B80000C4B80000103A24BF27
:1001700078C878C1FAD8520724BF30C830C144BF0C
:1001800004680C607047000000230024002500264E
:10019000103A28BF78C1FBD8520728BF30C148BFEA
:1001A0000B60704766290BF04682642909F00283D0
:1001B000782909F03B83002070471FB509F07CFFC8
:1001C0000400002000210AF013FDE0601FBD10B5FF
:1001D00010BD0AF091F81146FFF7EFFF00F031F87B
:1001E0000AF0AFF803B4FFF7F2FF03BC05F070FEAE
:1001F00003468B4206D3581A904201D20120704721
:100200000020FCE7C1F1FF301844904201D20120E8
:10021000F5E70020F3E708B50121082006F040FCCF
:100220000420ADF8000010208DF8030003208DF8A5
:1002300002006946F54806F077F90020F4490860A5
:1002400008BDF44800684FF47A72B0FBF2F1B1F1E6
:10025000807F00D31DE021F07F40401E4FF0E02260
:10026000506150170F22002807DA13071D0EEA4BC2
:1002700000F00F04241F1D5503E013071C0EE74B6D
:100280001C5400BF00204FF0E02290610720106155
:1002900000BF4FF4407006F079F8E1480088E0496B
:1002A000491E098840EA8100DE4908800846008826
:1002B0004AF65521884241D1D948801C006801285E
:1002C0000BD1D74808300088D549491E098940EA32
:1002D000810081B2D44881870FE0D148801C00683A
:1002E00002280AD1CE480A300088CD49491E4989E2
:1002F00040EA810081B2CC488187C948401C00682F
:1003000001280BD1C648001D0088C549491E8988AF
:1003100040EA810081B2C44881850FE0C048401C9A
:10032000006802280AD1BE48801D0088BC49491EC9
:10033000C98840EA810081B2BB48818505F049FE49
:100340004FF4E13005F0D4FD03F043F805F0F1FE81
:1003500005F0A4FD03F0BCF803F012FD03F055F91D
:1003600005F004FE04F0D5FD0120B0490860B04955
:10037000C1F8BC0103F088FC18B9AEA009F00EFA70
:1003800002E0B6A009F00AFA0121BF4807F032FFE7
:100390000121880707F02EFF4FF4C871BB4808F011
:1003A000C1F94FF4C871B94808F0BEF90121B74846
:1003B00007F020FF00F042FCFFF72DFF01209449D9
:1003C0000860ADE04FF48061B14806F040F9B149F2
:1003D00008704FF48051AE4806F039F9AE49087004
:1003E0004FF40061AA4806F032F9AC4908704FF4A6
:1003F0008051864806F02BF9A94908704FF4005146
:10040000824806F024F9A749087002217F4806F0C7
:100410001EF9A54908704FF48071A44806F017F939
:10042000A34908704FF40071A04806F010F9A149E3
:1004300008700421A04806F00AF9A04908704FF49A
:1004400080619A4806F003F99D49087000F0BCFDF0
:1004500003F094FF00F0AFFC04F0CFFC4FF4007108
:10046000924806F0F4F8974908704FF480718F486D
:1004700006F0EDF8944908706B4890F824000128C4
:100480000DD103F060F90121904808F086FC0121AC
:100490008F4808F0E0F90020634981F824006248A1
:1004A00090F8A90001280ED15F4AD2F8DC10106A3A
:1004B00041F28832FFF79CFE28B95B48016AC0F818
:1004C000DC1000F05AFC584AD2F8D810106A44F6F2
:1004D0002062FFF78DFE18BB5348016AC0F8D810A0
:1004E00003F005FC5049A1F8EC000846B0F9EC0017
:1004F000B0F5FA7F02DD0020A1F8EC004A49B1F91D
:10050000EC000AF04FFF074672490AF089FE0446E4
:100510000AF04EFE05462A460B466FA009F03EF94A
:1005200050E710B5012008F0FAFC012819D108F0B5
:1005300016FD012008F0FEFC0121344806F087F882
:1005400078B901220021142003F0A2FE01213648CF
:1005500080F8B210B0F8B000401C81B23248A0F868
:10056000B01010BD10B5042008F0D9FC012820D12E
:10057000042008F0DFFC042008F0F1FC04214E48C0
:1005800006F065F8A8B10021142003F0D0FC002289
:1005900004215B4807F049FE234890F856001128D3
:1005A00004D10121204880F8E91002E055A009F0AB
:1005B000F5F810BD10B5022008F0B1FC012823D1D8
:1005C000022008F0CCFC022008F0B4FC02210F4805
:1005D00006F03DF8C0B101220021142003F058FEBE
:1005E000114890F8A10001280DD10F4890F8C500DE
:1005F000112808D10C4890F8E800401CC1B20A4804
:1006000080F8E81099E095E097E00000000C0140C8
:10061000888121423C00002018ED00E000E400E069
:100620000180030800000020500000208C012242BD
:10063000008021425761726E696E673A20612044E2
:10064000533138323020686173206265656E2064F2
:1006500065746563746564210D0A00005761726EEC
:10066000696E673A206661696C696E6720746F20F5
:10067000646574656374207468652044533138324E
:1006800030210D0A00000000000C00400004004072
:10069000001001400A0000200B0000200C00002088
:1006A0000D0000200E0000200F0000200008014077
:1006B0001000002011000020001401401200002052
:1006C000130000200900002008000020080002405C
:1006D000002401400000204163757272656E742031
:1006E00074656D70657261747572657220697320CE
:1006F000252E316620646567726565210D0A00004C
:10070000002C01404255473A204C696674657220BE
:10071000746F70207377697463682D2D2D3E666148
:100720006C73652074726967676572696E670D0A1C
:10073000000000009FA009F031F810BD10B5102096
:1007400008F0EDFB01281AD1102008F008FC102059
:1007500008F0F0FB1021A34805F079FF78B90222D8
:100760000021142003F094FD01219F4880F8B3106C
:10077000B0F8B400401C81B29B48A0F8B41010BD82
:1007800010B54FF4007008F0CAFB012830D14002C8
:1007900008F0E5FB4FF4007008F0CCFB4FF400715B
:1007A000904805F054FF01280CD1022200211420AA
:1007B00003F06EFD8C4890F8E800401CC1B28A48F6
:1007C00080F8E8104FF40071884805F040FF78B9D0
:1007D000854890F85700401CC1B2834880F85710F4
:1007E00090F85700022803DB0021132003F09FFB41
:1007F0004FF4807008F093FB012819D1000208F033
:1008000099FB4FF4807008F0AAFB4FF48071754893
:1008100005F01DFF60B102220021142003F038FD15
:10082000714890F8E800401CC1B26F4880F8E810A9
:1008300010BD10B54FF4804008F071FB01282ED197
:10084000800308F08CFB4FF4804008F073FB4FF4FA
:100850008041674805F0FBFE08BB634890F85800EC
:10086000E8B1614890F86800C8B95F4890F867003F
:10087000401CC1B25C4880F8671090F867000228FD
:100880000DDB0021584880F86710012180F8BF1067
:10089000B0F8B800401C81B25348A0F8B8104FF42B
:1008A000005008F03CFB012827D1400308F057FB1B
:1008B0004FF4005008F03EFB4FF400514C4805F057
:1008C000C6FED0B101220021142003F0E1FC46480D
:1008D00090F8A10001280DD1434890F8C5001228D6
:1008E00008D1414890F8E800401CC1B23E4880F869
:1008F000E81002E03FA008F051FF4FF4806008F0DC
:100900000EFB012822D1800208F014FB4FF4806016
:1009100008F025FB4FF48061324805F098FEA8B13D
:100920000021142003F003FB002204213C4807F0BF
:100930007CFC2D4890F85600122804D101212A4849
:1009400080F8E91002E037A008F028FF10BD10B5CC
:100950004FF40051264805F07AFE012829D01121D4
:10096000012003F080FA04461CB139A008F016FFFC
:100970001FE04FF480511D4805F069FE012808D0A2
:100980001221012004F0E7FC044614B136A008F05F
:1009900005FF4FF48051164805F059FE012808D094
:1009A0001221022004F0D7FC044614B12EA008F056
:1009B000F5FE10BD5761726E696E67203A20757042
:1009C000706572646F6F722D6F70656E65642073F1
:1009D000656E736F722070726F626C656D210D0AA7
:1009E00000000000000801405000002000100140FD
:1009F000000C0140425547203A20757070657264C2
:100A00006F6F722D636C6F7365642073656E736FA7
:100A1000722070726F626C656D210D0A000000001B
:100A2000002C01404255473A204C6966746572209B
:100A3000626F74746F6D2D2D2D3E66616C73652031
:100A400074726967676572696E670D0A000000005D
:100A50004572726F723A206661696C20746F2075FE
:100A60006E6C6F636B0D0A006572726F723A20666E
:100A700061696C20746F20636C6F736520746865A6
:100A8000207570706572646F6F72000070477047F8
:100A900000BFFEE700BFFEE700BFFEE770477047FC
:100AA00070470648006A401C044908620846006A0C
:100AB000401C08B900200862704700005000002068
:100AC0002DE9F04180460C460025FE4800780128BB
:100AD00001D1BDE8F081A08A072805DCA28AFA4886
:100AE000A16808F097FF3FE0A08A0C280FDCF648C9
:100AF000A1680A68026089888180A81DC5B2A38A9E
:100B00009A1FF14B5819216908F084FF2CE0A08A44
:100B100006B2ED49A06802680A6080888880A81D36
:100B2000C5B2701F06B2E76815E01C2E06D9E6496B
:100B300048191C22391D08F06DFF05E0E2494819EB
:100B40003246391D08F066FF3F6806F11C0006B208
:100B500005F11C00C5B2002FE7D1DB4A501932461F
:100B6000216908F057FF00BFA08AD84908802022D9
:100B70002146D74808F093FF0120D249087000BFF2
:100B8000A7E770B50546049C022B07D100BF00BF44
:100B9000D04ED148C1E90060012070BD012B4BD17E
:100BA0001046D82A2BD008DCA0F1C90005283CD279
:100BB000DFE800F00C11161B2000D92823D0DA281A
:100BC00025D0FE2827D0FF282FD129E0C348C44EC6
:100BD000C1E900062DE0C34EC348C1E9006028E02A
:100BE000C24EC348C1E9006023E0C24EC248C1E919
:100BF00000601EE0C14EC248C1E9006019E0002655
:100C00000E604E6015E000200860486011E000268C
:100C10000E604E600DE0BB4EBB48C1E9006008E0CD
:100C2000BA48BB4EC1E9000603E0002008604860F6
:100C300000BF00BF0120B0E70020AEE730B58BB0A9
:100C4000002400250121480605F037FF012104207A
:100C500005F026FF4FF40060ADF8080048208DF83D
:100C60000B0003208DF80A0002A9AA4805F05CFCDD
:100C70004FF48050ADF8080018208DF80B0002A941
:100C8000A44805F051FCA44805F06EFF08A806F042
:100C90008FF80121480605F010FF00208DF826008E
:100CA0008DF827008DF8280001208DF829000020FC
:100CB0008DF82A0001208DF82B0000208DF82200ED
:100CC0008DF8230005208DF8240004208DF82500E0
:100CD0000620ADF8200008A98F4805F05EFF4FF40C
:100CE00008654FF4FF4400208DF81A008DF81B00B2
:100CF00001208DF81C00680BADF810004FF6FF7056
:100D000000EAC500001DADF81200600BADF814003C
:100D10004FF6FF7000EAC400001DADF81600002079
:100D2000ADF8180001208DF81D0004A805F0BFFFE4
:100D300001220221784806F0B9FA14208DF80C003F
:100D400001208DF80D0000208DF80E0001208DF897
:100D50000F0003A805F01FFB00207049704B4FF4F3
:100D60008062CDE900106F496F4800F0F4FE082161
:100D70006D4800F025FF0BB030BD00B585B01120E7
:100D80006A49087022204870332088704420C87057
:100D90005520087105201F22654BCDE90132CDE9B0
:100DA000031045F24100634A634B00905E4801F036
:100DB000B3F805B000BD00B587B0604890F8A50055
:100DC000012829D15D4890F8A20028B300215B4892
:100DD00080F8A51090F8A60054490870574890F87C
:100DE000A20048700221514A00233948807ECDE993
:100DF00003320591029036481930D921CDE900100F
:100E00001938C17E1A46484801F033F900214B4891
:100E100080F8A61080F8A210484890F8A100012898
:100E20004ED1464890F8A300002849D00022022164
:100E3000434807F0FAF9414890F8A2003B4908708E
:100E40003E4890F8C40048703C4890F8C50088704F
:100E50003A4890F82A00C870384890F83A0008716B
:100E6000364890F85A004871344890F86A00887102
:100E700007212E4A00231648807ECDE903320591D2
:100E8000029013481930D821CDE900101938C17EDD
:100E90001A46254801F0EDF80021284880F8A310F3
:100EA00080F8A1100020254981F8C40000212348C2
:100EB00080F8C5100020214981F8A000322141E0CE
:100EC00043E0000018000020400100201600002030
:100ED000F0050020401DA12026812A0B6840D69DE8
:100EE0008BCBDED906E0EC01F0E1B36AEC78950239
:100EF0000F7F087E79437CC8DA287FECDCA167B5D8
:100F000032884C64A1780C29D0BF2E81E2DB3111EC
:100F1000450FD0D10008014000640040830B000859
:100F2000C10A0008F0010020CC010020720100205D
:100F3000200000209E4BB028DF3AC9155000002049
:100F4000002C0140FD4808F0DCFDFD4890F8A700AA
:100F5000012837D1FA4890F8A40098B30022042160
:100F6000F84807F062F9F64890F8A400F3490870D1
:100F7000F34890F84A004870F14890F8560088709D
:100F80000321EE4A0023F048807ECDE9033205912B
:100F90000290ED481930DA21CDE900101938C17EF0
:100FA0001A46EA4801F065F8E54890F8A410E848C8
:100FB00008F0F4FB0021E24880F8A71080F8A410A4
:100FC00080F8561007B000BD00B58DB0E14800783C
:100FD000012872D1DC48007E022800D12EE3DA48D5
:100FE000007E0128FAD1D848C08ACD287ED008DCFE
:100FF000C9280FD0CA2829D0CB283FD0CC2824D14B
:101000005CE0D82873D0D92872D0DA2871D0DB28D8
:10101000F5D1D6E20120C949087007900A4600239D
:10102000C949897E0798CDE9033202910590C648E7
:101030001930C921CDE900101938C07EC64AC74B06
:1010400001460690C14801F014F8F6E21E21BC4AA0
:101050000023BD48807ECDE9033205910290BA4855
:101060001930CA21CDE900101938C07EBC4ABD4BE9
:1010700001460690B54800F0FCFFDEE25520AF497E
:101080000870AA204870022007900A460023AE4943
:10109000897E0798CDE9033202910590AA4819305C
:1010A000CB21CDE900101938C07EAF4AAF4B0146C5
:1010B0000690A64800F0DDFFBFE2C6E2A04890F827
:1010C000A900012827D001219D4880F8A9105520AA
:1010D0009A490870AA204870022007900A46002307
:1010E0009949897E0798CDE9033203E032E078E040
:1010F0008DE101E20291059093481930CC21CDE9B0
:1011000000101938C07E9A4A9A4B014606908F48C3
:1011100000F0AFFF1DE0532088490870A9204870F7
:10112000022007900A4600238749897E0798CDE967
:1011300003320291059084481930CC21CDE900108A
:101140001938C07E8A4A8B4B014606907F4800F0D2
:1011500090FF72E27A4890F8A900022822D002217A
:10116000774880F8A910552074490870AA20487063
:10117000022007900A4600237349897E0798CDE92B
:1011800003320291059070481930CD21CDE900104D
:101190001938C07E784A794B014606906B4800F0BA
:1011A00068FF1DE0532065490870A920487002209F
:1011B00007900A4600236449897E0798CDE90332E7
:1011C0000291059060481930CD21CDE90010193801
:1011D000C07E694A694B014606905C4800F049FFB1
:1011E0002BE2574890F8A100002873D10121544800
:1011F00080F8A11062480078012841D16048407809
:10120000012818D15E488078A8B901204C4981F89E
:10121000C4005B48C078012802D002280AD104E04B
:101220001121474880F8C51004E01221444880F895
:10123000C51000BF5EE052484078C8B95048807879
:10124000012815D102203E4981F8C4004C48C078DD
:10125000012802D002280AD104E01121384880F880
:10126000C51004E01221364880F8C51000BF41E0E7
:101270000021334880F8A110424808F08FFA39E085
:101280003F48007802282ED103202D4981F8C40060
:101290003B48407801280CD139488078012808D192
:1012A0003748C078012804D11121254880F8C5109D
:1012B00020E03348407801280DD13148807801285A
:1012C00009D12F48C078022805D112211C4880F886
:1012D000C5100FE07AE00021194880F8A1102A48D3
:1012E00008F05CFA06E00021154880F8A11027A05C
:1012F00008F054FA552011490870AA2048700220BD
:1013000007900A4600231049897E0798CDE90332E9
:10131000029105900C481930D821CDE900101938F8
:10132000C07E1A4601460690084800F0A2FE044816
:1013300090F8A10000B143E068E0000072010020D5
:1013400050000020002C0140F0050020CC010020BE
:1013500098B70008180000206840D69D8BCBDED9D6
:1013600006E0EC01F0E1B36AEC7895020F7F087EAD
:1013700079437CC8DA287FECDCA167B532884C64FD
:10138000400100200CB7000854B700084572726F86
:10139000723A204661696C20746F2073656C6563D6
:1013A0007420746865206D6F646520666F722064B8
:1013B0006F6F72206F7065726174696F6E0D0A00D5
:1013C000F9A008F0EBF904F038FB1FE05620FE49C5
:1013D0000870AB204870022007900A460023FB49A2
:1013E000897E0798CDE9033202910590F7481930BC
:1013F000D821CDE900101938C07E1A460146069062
:10140000F34800F036FEF3A008F0C8F915E1FE48F5
:1014100090F8A500002851D10121FB4880F8A510C3
:10142000FA480178F84880F8A610F84800780128B2
:1014300004D11120F44981F8580021E0F3480078E4
:10144000022804D11220F04981F8580018E0EF4832
:101450000078032804D11120EB4981F868000FE0DF
:10146000EA480078042804D11220E74981F868008E
:1014700006E00021E44880F8A510E5A008F08EF908
:101480005520D1490870AA204870022007900A46CA
:101490000023CE49897E0798CDE903320291059059
:1014A000CA481930D921CDE900101938C07E1A4632
:1014B00001460690C64800F0DCFD1CE05320C249FE
:1014C0000870A9204870022007900A460023BF49EF
:1014D000897E0798CDE9033202910590BB48193007
:1014E000D921CDE900101938C07E1A460146069070
:1014F000B74800F0BEFDA0E0C34890F8A700E8BBE5
:101500000121C14880F8A710C0480078012804D103
:101510001121BD4880F856100FE0BC480078022821
:1015200004D11221B84880F8561006E00021B648D0
:1015300080F8A710C6A008F031F95520A24908701C
:10154000AA204870022007900A4600239F49897EFE
:101550000798CDE90332029105909C481930DA21B1
:10156000CDE900101938C07E1A4601460690984809
:1015700000F07FFDA44890F8A70000E003E0F8B178
:1015800003F066FE1CE057208F490870AC204870BD
:10159000022007900A4600238C49897E0798CDE9EE
:1015A00003320291059089481930DA21CDE9001003
:1015B0001938C07E1A4601460690854800F059FD4C
:1015C0003BE09248007801280AD101F0F6FF0021A3
:1015D0008D4880F8BF1080F8C01080F8BA100DE078
:1015E0008A480078022809D101F0F8FF00218648D6
:1015F00080F8BF1080F8C01080F8BA1055207249EA
:101600000870AA204870022007900A4600236F49FC
:10161000897E0798CDE90332029105906B48193015
:10162000DB21CDE900101938C07E994A994B01465B
:101630000690674800F01DFD00BF00BF00209649DE
:1016400008703221604808F05CFA0020069022E021
:101650000698006809900698007B8DF82A000420FF
:101660008DF8280000208DF829000698007B02469E
:1016700004900699091D0DF12B0008F0CBF908A97B
:10168000864805F003FC05900598042802D05048D0
:1016900000F05EFD00BF4E4800F03CFD06900028C3
:1016A000D6D10DB000BD0146302905DB392903DC58
:1016B000A1F13000C0B27047412905DB462903DCA7
:1016C000A1F13700C0B2F6E7FF20F4E70146302968
:1016D00003DB392901DC01207047412903DB46295E
:1016E00001DC0120F8E70020F6E7F0B504460D46DE
:1016F00000262B4620783A2801D00020F0BD012298
:1017000023E0A05CFFF7E2FF08B90020F6E71046EF
:1017100002EBD0714910A2EB410131B1A05CFFF79F
:10172000C2FF0007000E187006E0A05CFFF7BBFFC9
:101730001978084418705B1C501CC2B22878801DB0
:101740004000904201DA0020D8E7A05C0D28D8D1F3
:101750002B461878401DC7B2002205E018783044A7
:10176000C6B25B1C501CC2B2781E9042F6DCF0433D
:10177000C6B2701CC6B21878B04201D10120BDE7D4
:101780000020BBE702465079137900EB0321B1F545
:10179000006F07D040F60100814203D0401C814217
:1017A00000D07DE07FE000004E6F74653A207374D6
:1017B00061727420746F206F70656E20746865208C
:1017C000646F6F72210D0A0072010020F005002085
:1017D000CC0100205761726E696E673A74686520AB
:1017E0006C61737420646F6F722D6F7065726174B9
:1017F000696F6E20686173206E6F742066696E6910
:10180000736865640D0A200050000020400100202C
:101810004572726F723A2074686572652069732030
:10182000612070726F626C656D206F6620706172EE
:10183000616D657465727320666F72206C6F636B87
:101840006572206F7065726174696F6E200D0A0099
:101850004572726F723A20746865726520697320F0
:10186000612070726F626C656D206F6620706172AE
:10187000616D657465727320666F72206C69667441
:101880006572206F7065726174696F6E200D0A0059
:10189000DDA167B532884C64180000200064004068
:1018A000401C814201D1080470470020FCE710B5BC
:1018B000032494489449884215D307F078FB934851
:1018C00007F0BAFB07F07FFB07F071FB90498F48E8
:1018D00007F082FC07F077FB8C4800688C4988424F
:1018E0001AD1002418E087488949884214D307F0A8
:1018F0005EFB864807F0A0FB07F065FB07F057FB8F
:101900008149824807F068FC07F05DFB7F4800686A
:101910007D49884200D10024204610BD2DE9FC5F9E
:101920000546884698F8010005EB002098F802105B
:10193000461898F8004008F10407B5F1006F0BD085
:101940007448854208D07048854205D07248854267
:1019500002D00320BDE8FC9FC6F30D0000283ED155
:10196000B34607F024FB352007F0BCFD4FF0000A1A
:101970002FE0584607F060FB01900198042811D031
:101980000098401CC0B200900098022803DB4FF082
:1019900003094846DEE7352007F0A4FD584607F066
:1019A0004BFB01900BF5806B4FF400715B4804F02A
:1019B0005BFE012804D14102584804F064FE04E0B3
:1019C0004FF40071554804F05CFE0AF1010000F08C
:1019D000FF0ABAF1100FCCDB07F0F5FA00BF07F0F1
:1019E000E6FA3AE04FF400714C4804F03DFE01285D
:1019F00004D14102494804F046FE04E04FF400716E
:101A0000464804F03EFEE11704EB9171891049B19C
:101A10003046396807F0E0FB8146361D201FC4B20E
:101A20003F1D16E004EBD471491049B139883046A6
:101A300007F005FC8146B61CA01EC4B2BF1C08E01E
:101A40003978304607F019FC8146761C601EC4B216
:101A50007F1CB9F1040F00D001E0002CC2D100BFFF
:101A600007F0B1FAB9F1040F01D0032072E70020AA
:101A700070E770B50546E878062821D2DFE800F067
:101A8000030A0E10121E294625480068FFF746FF7C
:101A9000044617E0FFF70BFF044613E0002411E0B3
:101AA00000240FE02846FFF76DFE1D490860084638
:101AB000006808B9022400E0002403E0002401E0EB
:101AC000002400BF00BF204670BD1FB5154A00218D
:101AD000154805F0D0FA1348406800901148807A04
:101AE0008DF80C000F48827A00F10B0101A807F075
:101AF00091FF4FF47A72002369460C4800F090FC85
:101B00001FBD0000500000200000020800F803087C
:101B1000008000080000010800000308000C0140DC
:101B20001C0000201006002000640040CC010020B2
:101B300070B50C460021034604E004EB41151D601E
:101B40001B68491C9142F8D300251D608280002645
:101B5000C680068170BD2DE9F047044688461546CB
:101B60001E46DDE9089A6F0904B104E04F22F6A190
:101B7000FCA007F00FFF2421204607F0E4FF00201F
:101B80002070A660C4F80490A061E061C4F820A0B1
:101B9000B7F5803F01D34FF6FF77BAB2414604F163
:101BA0000C00FFF7C5FFBDE8F08710B5044604B18F
:101BB00004E06D22E4A1ECA007F0ECFE206A10BD69
:101BC00070B504460D4604B104E07322DEA1E6A020
:101BD00007F0E0FE207828B9012D03DB7F2D01DC22
:101BE000257004E07D22D8A1E2A007F0D3FE70BDED
:101BF00001460878704710B5044604B105E040F28C
:101C00005632D1A1DCA007F0C5FE2078401C207020
:101C10002078202801DB0020207010BD2DE9F04342
:101C2000024621F0604322F06044CF0FD50FAF424F
:101C300014D00FB1980C00E0184680460DB1A00CEE
:101C400000E020468146C84506D0C84502D20120A2
:101C5000BDE8F0830020FBE72846F9E7C1F3807C6C
:101C6000C2F38076A34203D1B44501D03046EFE7FA
:101C7000A34201D20120EBE70020E9E72DE9F04182
:101C800006460D4606B105E040F2BF32AEA1B6A051
:101C900007F080FE287C002800DD05E04FF470721C
:101CA000A9A1BAA007F076FEF06910B9F561BDE808
:101CB000F081F469F76913E069686068FFF7AEFFC7
:101CC00040B1F069A04202D12C60F56101E03D60B5
:101CD0002C60ECE7206808B92560E8E7274624680F
:101CE000002CE9D100BFE2E70146086808B90020EE
:101CF00070470A68086800680860C888401CC88087
:101D00000B89C888834201DACB880B811046EFE744
:101D100070B505462846FFF7E7FF04460CB90020DA
:101D200070BD1421204607F00EFF2046F8E72DE98C
:101D3000FF4F83B0814688469246119CB9F1000F4F
:101D400000D005E040F266327FA187A007F022FEB6
:101D500028F06040404500D105E040F267327AA1AA
:101D600091A007F017FEBAF1000F04D16FF0010047
:101D700007B0BDE8F08F002C04DD109810B96FF0AB
:101D80000100F5E74FF0000B082C23DA09F10C00F5
:101D9000FFF7BEFF054615B96FF00200E8E72246DF
:101DA00005F10800109907F035FE601C28749AF8B8
:101DB000000000F01F0040F0C00105F108000155CF
:101DC00048F00040686029464846FFF757FF0BF18E
:101DD000010B5AE000260020029080200190002094
:101DE000009000254EE009F10C00FFF791FF054639
:101DF00015B96FF00200BBE7002736B906982872C4
:101E0000069801126972022700E0002708E0109886
:101E1000815D05F10800C155781CC7B2701CC6B2BF
:101E2000072F01DAA642F2DBA64201D1402000E0F2
:101E300001980190DDE9010140EA41109AF8001093
:101E400001F01F010843C1B205F10800C15548F077
:101E500000406860781C287429464846FFF70EFF4A
:101E60000BF1010B029880F001000290002001901C
:101E7000009003E00098401CC0B200900098FE283B
:101E8000F8DB00BFA01BAED100BF584670E710B50D
:101E900080EA0120002210E000F4004343B14FF635
:101EA000FF7303EA400341F2210483EA040003E0E4
:101EB0004FF6FF7303EA4000521C082AECDB10BD0A
:101EC00070B506460C46154605E014F8011B304671
:101ED000FFF7DDFF0646281EA5F10105F5D13046C6
:101EE00070BD2DE9F04781461746984600240EE064
:101EF00022463D4646462846314607F03BFC00F068
:101F0000FF0A51464846FFF7C2FF81460834402C7D
:101F1000EEDB4846BDE8F0872DE9FF5F84B0174649
:101F20009846DDE913A6DDE91594129D0020039083
:101F30004FF6FF7BB9F1000F48D1002C46DD801E23
:101F400008B0BDE8F09F00002E2E5C484152445777
:101F50004152455C43414E5C63616E6172642E6325
:101F6000000000006F75745F696E7320213D2030A2
:101F700000000000300000007472616E73666572CC
:101F80005F696420213D2030000000006974656DA8
:101F90002D3E6672616D652E646174615F6C656E65
:101FA000203E2030000000002863616E5F696420DD
:101FB0002620307831464646464646465529203D3D
:101FC0003D2063616E5F6964000000001F2E04DD28
:101FD0006FF0010008B0BDE8F09F0498FFF708FE1D
:101FE00018BB072C02DD6FF00300F3E705F00300D8
:101FF000A84202D06FF00100ECE7224649464FF6B6
:10200000FF70FFF75DFF47F6FE71084001900498EE
:10201000FFF7EEFD3206019942EA412105F0030285
:1020200041EA02210843039015E00498FFF7E0FD20
:10203000310641EA052108430390072C0BDD3A469F
:1020400043465846FFF74DFF8346224649465846C9
:10205000FFF736FF83465B465246CDE90094DDE943
:102060000310FFF764FE02905046FFF7C4FD02988C
:10207000B0E72DE9FF5F84B0894617469846DDF842
:102080004CA0DDE9165435B9002C04DD6FF00100D9
:1020900008B0BDE8F09F14981F2802DD6FF0010022
:1020A000F6E70498FFF7A4FD10B96FF00300EFE71F
:1020B0000498FFF79DFD14990A06129942EA01421D
:1020C000159942EAC13141EA092141F0800140EA13
:1020D000010B4FF6FF76072C0BDD3A4643463046A0
:1020E000FFF7FFFE0646224629463046FFF7E8FE88
:1020F0000646334652465946CDE900540498FFF748
:1021000016FE03901598012802D15046FFF773FD83
:102110000398BDE70146C86908B900207047C8693F
:10212000001DFBE770B504460D462E462068306062
:102130002660E088002800DD06E040F22F62AFF262
:10214000F811FAA007F026FCE088401EE08070BD80
:1021500070B50446E5692868E061294604F10C0081
:10216000FFF7E0FF70BD10B50446606800B906E0F7
:1021700040F22942AFF23021F8A007F00BFC208B8F
:10218000800A401CA16960F38E21A161A0696FF3F0
:102190000900A061A06920F40040A06110BD70B5E5
:1021A00005460C4608E0E068066805F10C00E168A9
:1021B000FFF7B8FFE66000BFE0680028F3D1E060F9
:1021C000A0602061A08270BD70B505460C4608E095
:1021D0006068066805F10C006168FFF7A3FF6660A0
:1021E00000BF60680028F3D1A0696FF30900A06107
:1021F0000020014670BD70B505462846FFF774FD06
:1022000004460CB9002070BD002020602046FAE78B
:102210002DE9FF5F0C4690461E460027208BC0F339
:102220000900C0F1060000281CDD218BC1F3090064
:1022300008E018F8072004F11A010A54411C88B27A
:10224000791C8FB2062801D2B742F2DBB74209DB14
:10225000208B8119A06961F30900A061012004B0FD
:10226000BDE8F09F208BC0F30900801F1C21B0FB4C
:10227000F1F201FB12090025606858B90098FFF7D8
:10228000BAFF6060606808B9E81EE8E765684FF06B
:10229000000926E04FF0010A656804E00AF1010038
:1022A00000F0FF0A2D6828680028F7D1208BC0F3C2
:1022B00009003044801F1C21B0FBF1F0401C00F0ED
:1022C000FF0BD3450CDDB9F1000F09D10098FFF7E2
:1022D00092FF2860286810B96FF00200BFE72D68F0
:1022E00000BF1BE0484607E018F80720291D0A54E4
:1022F000411C88B2791C8FB21C2801D2B742F3DB93
:10230000B7420BDA0098FFF776FF2860286810B90B
:102310006FF00200A3E72D684FF00009B742E1DB40
:10232000208B8119A06961F30900A061012096E763
:102330000246881A002800DA20307047024605E07D
:102340001069884201D1104670471268002AF7D1FF
:102350000020F9E770B588B006460C462021684693
:1023600007F0F1FB04943046FFF7BEFC054615B9B3
:10237000002008B070BD20226946284607F08FFB78
:102380002846F6E770B504460E46314604F10C00C7
:10239000FFF7E0FF05460DB9002070BDA069286079
:1023A000A5612846F9E770B505460E46AC695CB9EB
:1023B000314605F10C00FFF7CDFF04460CB90020B3
:1023C00070BDAC612046FBE731462046FFF7B6FF03
:1023D00004460CB12046F3E731462846FFF7D2FF0A
:1023E000EEE70146C1F3C0120AB902207047C1F3FB
:1023F000C03008B10120F9E70020F7E710B5044626
:102400002046FFF7EEFF022807D1C4F30F2004F0A7
:102410007F0109B900F0030010BDC4F30740FBE7DA
:102420002DE9F04F97B082460D461746984628682A
:10243000FFF7D7FF8346BBF1020F01D1002002E076
:102440002888C0F306201690BBF1020F08D0504632
:10245000FFF7CEFB1699884202D017B0BDE8F08F87
:102460002868C0F304601590287800F07F0014906D
:102470002868FFF7C3FF1390139840EA0B411498A4
:1024800041EA8041169841EA40601290287B401E44
:10249000291D0E5C0024F00900B300200A900B9067
:1024A000149800905B46DAF804C00AA95046139AC3
:1024B000E04788B150461299FFF775FF044604B90A
:1024C000CBE74FF6FF70DDE90A23FFF70AFD6169EC
:1024D00060F31F41616100E0BFE707E0DAF8180030
:1024E0001299FFF72BFF044604B9B6E704B106E0E2
:1024F0004FF49E72AFF2B0511FA007F04BFA0022CA
:10250000D4E9021051405040014301D1012000E0C4
:1025100000201190D4E902013A1A68EB01001A4B2D
:1025200000219A1A814131D2012030E0616C6C6F38
:102530006361746F722D3E7374617469737469633F
:10254000732E63757272656E745F75736167655F14
:10255000626C6F636B73203E203000007374617493
:10256000652D3E6275666665725F626C6F636B7344
:10257000203D3D203000000072785F737461746507
:1025800020213D203000000080841E00002010909B
:10259000F0090F9006F01F01228BC2F38420FFF791
:1025A000C7FE012801DD012000E000200E901198F7
:1025B00028B9109818B90F9818B10E9808B10120D1
:1025C00000E000200D900D98A8B1A06966F38E2060
:1025D000A061A06920F40040A06121465046FFF7A9
:1025E000F3FDF00938B9208B800A401CA16960F323
:1025F0008E21A16131E7F00948B3C6F3801030B3F2
:10260000C4E90278202104A807F09DFACDE90478F6
:10261000281D0690287B401EC0B2ADF824001398F8
:10262000ADF826008DF828B006F01F008DF82900BF
:1026300015988DF82A0014988DF82B0004A950469F
:10264000DAF8082090472046FFF78DFD05E7208B3C
:10265000C0F3C030C6F34011884200D0FDE606F05A
:102660001F00218BC1F38421884200D0F5E6F009D8
:1026700078B3C6F3801060BB287B032800DCECE64F
:10268000C4E90278287BC01EC3B2AA1D21460AF104
:102690000C00FFF7BDFD8146B9F1000F07DA2146B6
:1026A0005046FFF791FD2046FFF75DFDD5E62979FD
:1026B000687941EA0020A082297BC91ECAB26169FB
:1026C000080CA91DFFF7FCFB616960F31F41616104
:1026D000CDE0FFE7F00928BBC6F3801010BB287BD4
:1026E000401EC3B22A1D21460AF10C00FFF790FDDF
:1026F0008146B9F1000F07DA21465046FFF764FD25
:102700002046FFF730FDA8E6297B491ECAB2616961
:10271000080C291DFFF7D4FB0146606961F31F40D7
:102720006061A3E0287B401EC0B20C904FF000090E
:10273000208BC0F30900062814D2218BC1F30900B5
:102740000AE0291D11F8092004F11A010A54401C5D
:1027500009F1010101F0FF09062843D20C998945CE
:10276000EFDB3FE0606803900398D0B3062002904F
:1027700005E003980068039002981C3002900398CB
:1027800000680028F5D1039800B106E04FF4D97233
:10279000AFF64C01F9A007F0FDF8208BC0F309015A
:1027A0000298081A019001981C2800D206E040F215
:1027B000B512AFF66C01F44807F0ECF801980AE0A6
:1027C000291D11F809200399091D0A54401C09F11B
:1027D000010101F0FF091C2802D20C998945EFDBA9
:1027E00000BF00BFCDE9047804F11A0006906068CC
:1027F00007900C98814501DB002001E0281D48442A
:102800000890208BC0F309010C980844ADF824000F
:102810001398ADF826008DF828B006F01F008DF84B
:10282000290015988DF82A0014988DF82B000020A7
:102830006060297B4A1E6169080C291DFFF740FB77
:10284000616960F31F416161A08A6169B0EB114F5A
:1028500004D104A95046DAF80820904704A950464C
:10286000FFF79DFC2046FFF77EFCF6E500BF208BBE
:10287000C00BC143A06961F3CF30A06100BFECE59C
:102880002DE9F041044617469846A669A5692AE055
:10289000D5E902013A1A68EB0100BC4B00219A1AF3
:1028A00081411ED2A069A8420ED129462046FFF7D9
:1028B0008BFCA0690068A061294604F10C00FFF7B9
:1028C00031FCA5692E460EE029462046FFF77CFC28
:1028D00028683060294604F10C00FFF723FC3568B6
:1028E00001E02E462D68002DD2D1BDE8F0812DE902
:1028F000F0410746884607B106E040F2C552AFF600
:10290000B811A3A007F046F83C460025A8F101063F
:1029100006E0605DA15D6155A0556D1C761E00BF8F
:10292000B542F6D3BDE8F08108B5012000909DF8CE
:102930000100012800D108BD0020FCE72DE9F05F6F
:1029400080460C4691461E460A9DB9F1000F00D004
:1029500006E040F23152AFF6102190A007F01AF8CD
:1029600008EBD40806EBD50604F0070405F00705CC
:1029700004EB090738E004F0070305F00700834281
:1029800001DD9B4600E08346DC46A7EB040BCCF15F
:10299000080EF34502D2A7EB040B01E0CCF1080BC3
:1029A00059464FF47F4B2BFA01FB0BF0FF0B4BFA10
:1029B00000F208EBD40B9BF800B00BFA03FB4BFAC8
:1029C00000FB0BF0FF0A06EBD50B9BF800B02BEADF
:1029D000020B0AEA020E4BEA0E0B06EBD50E8EF83E
:1029E00000B00C440D4400BF381BC4D1BDE8F09FBB
:1029F0002DE9FF4F85B00546894605B106E040F256
:102A00005252AFF6BC2169A006F0C4FFA88AB9EB08
:102A1000C00F03D3002009B0BDE8F08F079809EB81
:102A20000001A88AB1EBC00F04D9287DC9EBC00012
:102A3000C0B207900798002800DD06E040F25E5221
:102A4000AFF6FC215DA006F0A5FFE86810B9286983
:102A500000287DD04C464FF0000A079E302C1AD239
:102A6000C4F13000B04201D9304601E0C4F1300079
:102A700000F0FF0800200090A86842462146089B0D
:102A8000FFF75CFF44440AEB080000F0FF0AA6EBE6
:102A90000800C6B200BFA88A3021C1EBC000049074
:102AA0003027E86803904FE0049800B106E040F258
:102AB0007F52AFF66C3145A006F06CFF0498E02819
:102AC00001D9E02000E0049800EB0708A04527D9D1
:102AD000A8EB0400B04201D9304601E0A8EB0400A5
:102AE00000F0FF0BBC4200D306E04FF4B162AFF63A
:102AF000A8313BA006F04EFFE01B0290CDF800A0ED
:102B00005A46DDE90210001D089BFFF717FF5C44E1
:102B10000AEB0B0000F0FF0AA6EB0B00C6B200BFE9
:102B2000B84500D906E040F29252AFF6E43136A043
:102B300006F030FFA8EB07010498401A04904746BE
:102B400003980068039000BF039818B1002E00E0BE
:102B5000BCE0A9DC0498864200D806E04FF4B362DA
:102B6000AFF61C4132A006F015FF286920B1002EF7
:102B700002DDBC4270D377E087E06DE0626C6F638A
:102B80006B20213D20300000E0B7000880841E004B
:102B90006461746120213D20300000007372635F26
:102BA0006C656E203E203055000000007472616E2E
:102BB0007366657220213D20300000006269745FF9
:102BC0006C656E677468203E2030000072656D6130
:102BD000696E696E675F62697473203E2030000021
:102BE000696E7075745F6269745F6F666673657431
:102BF000203E3D20626C6F636B5F6269745F6F663D
:102C00006673657400000000626C6F636B5F656ED5
:102C1000645F6269745F6F6666736574203E2062EC
:102C20006C6F636B5F6269745F6F66667365740077
:102C300072656D61696E696E675F6269745F6C650C
:102C40006E677468203C3D2072656D61696E696EC7
:102C5000675F62697473000040F29D52AFF61851CD
:102C6000AFF2840006F096FEA4EB0708CDF800A0B2
:102C7000286932464146089BFFF760FE34440AEB60
:102C8000060000F0FF0A002600BFA88AB4EBC00FC0
:102C900000D806E04FF4B562AFF65451F2A006F04A
:102CA00079FEBAF1400F00DC06E040F2A952AFF61F
:102CB0006851F9A006F06EFE06B906E040F2AA528D
:102CC000AFF67C51FAA006F065FE07E00020009008
:102CD000A8684946DDE90723FFF730FE07989AE622
:102CE0002DE9FF4F85B014469846129D059800B116
:102CF00025B96FF0010009B0BDE8F08F012C01DBB0
:102D0000402C02DD6FF00100F5E7012C04D1B8F191
:102D1000000F01D0E01EEEE70020009001906B460E
:102D20002246DDE90501FFF763FE0646002E01DCC1
:102D30003046E0E7002E04DD402E02DCA64200DC37
:102D400006E040F22E22AFF60061E0A006F022FE7F
:102D5000E11704EB5171C910A4EBC101F1B1204698
:102D6000E31704EB5373DB101DF8033021464FEAE1
:102D7000E47C04EB5C7C4FEAEC0CA4EBCC0CCCF1D7
:102D8000000C0CF0070C43FA0CF322464FEAE47CEB
:102D900004EB5C7C4FEAEC0C0DF80C300027012CA6
:102DA00001D1012717E0082C01DC012713E0102CCA
:102DB00001DC02270FE0202C01DC04270BE0402C73
:102DC00001DC082706E040F24722AFF68461BEA08E
:102DD00006F0E0FD00BF002F02DD082F00DC06E05A
:102DE00040F24B22AFF6A061C7A006F0D3FDFFF77B
:102DF0009BFD18B139466846FFF779FDB8F1000F21
:102E000079D0B4EBC70F76D0082C12DC9DF9000006
:102E1000611E01228A40104000286CD09DF80010ED
:102E20000120A040401E61EA000148B28DF8000078
:102E300061E0102C12DCBDF90000611E01228A4005
:102E40001040002857D0BDF800100120A040401EBF
:102E500061EA000108B2ADF800004CE0202C0DDC66
:102E6000611E01228A4000981040D8B30120A04082
:102E7000401E009961EA000100913CE0402C32DAEA
:102E8000621E4FF001090020DDE900AB02904846C8
:102E9000029906F05CFC0AEA000A0BEA010B002129
:102EA0008AEA010A8BEA010B5AEA0B0A22D022466F
:102EB00001210020DDE900ABCDE9030108460399BB
:102EC00006F045FC401E61F10002C143D0434FF0C3
:102ED000FF32114010404AEA010A4BEA000BCDE9EB
:102EE00000AB07E007E04FF41E72AFF6A47176A0C6
:102EF00006F050FD00BFB8F1000F1FD0082C03DC16
:102F00009DF8000028703EE0102C03DCBDF80000A6
:102F1000288038E0202C02DC0098286033E0402C28
:102F200004DCDDE90001C5E9000106E04FF422728E
:102F3000AFF6EC7164A006F02DFD24E0012C03D166
:102F40009DF8000028701EE0082C03DC9DF80000AE
:102F5000287018E0102C03DCBDF80000288012E077
:102F6000202C02DC009828600DE0402C04DCDDE918
:102F70000001C5E9000105E040F295226E4952A02A
:102F800006F008FD00BFA64200DC05E040F29A22F0
:102F900069496AA006F0FEFC002E00DD05E040F263
:102FA0009B2265496BA006F0F5FC3046A3E62DE9AF
:102FB000FF470646884614461D4606B105E040F226
:102FC000A9225D4966A006F0E5FC05B105E040F2E6
:102FD000AA22594967A006F0DDFC402C05DD40F22D
:102FE000AE22554938A006F0D5FC012C05DA4FF485
:102FF0002D72514934A006F0CDFC002002900390C0
:103000000027012C08D10127287808B1012000E011
:1030100000208DF8080022E0082C04DC0127287825
:103020008DF808001BE0102C04DC02272888ADF87E
:10303000080014E0202C03DC0427286802900EE02E
:10304000402C05DC0827D5E90001CDE9020105E0A7
:1030500040F2D12238491CA006F09CFC00BF002F92
:1030600000DD93E08CE00000696E7075745F62694A
:10307000745F6F6666736574203C3D207472616E88
:10308000736665722D3E7061796C6F61645F6C650B
:103090006E202A20380000006F75747075745F62AE
:1030A00069745F6F6666736574203C3D203634003A
:1030B00072656D61696E696E675F6269745F6C6588
:1030C0006E677468203D3D203000000028726573F3
:1030D000756C74203E2030292026262028726573C6
:1030E000756C74203C3D2036342920262620287219
:1030F0006573756C74203C3D206269745F6C656E0D
:103100006774682900000000287374645F62797432
:10311000655F6C656E677468203E20302920262626
:1031200020287374645F627974655F6C656E677480
:1031300068203C3D20382900481F000872657375DF
:103140006C74203C3D206269745F6C656E677468C6
:1031500000000000726573756C74203E2030000022
:1031600064657374696E6174696F6E20213D2030EF
:103170000000000076616C756520213D2030000064
:103180004FF43572554956A006F004FCFFF7CCFB0E
:1031900018B1394602A8FFF7AAFBE11704EB5171F9
:1031A000C910A4EBC10111B32046E31704EB53731C
:1031B000DB100DF1080C1CF8033021464FEAE47CCB
:1031C00004EB5C7C4FEAEC0CA4EBCC0CCCF1000CD7
:1031D0000CF0070C03FA0CF322464FEAE47C04EBF4
:1031E0005C7C4FEAEC0C0DF1080909F80C30334611
:1031F0002246002102A8CDF80080FFF79FFBBDE822
:10320000FF870B6903608A8A828070472DE9FF413E
:1032100004463848006803903648001D0068029054
:1032200034480830006801904FF000474FEAE74803
:103230000094009800F00045009868400090002637
:103240000399009888420AD303990098884202D9CA
:1032500047F6FF7001E04FF4F840064615E000988D
:103260006FF30B000090DDE9000108F0E7F8009033
:10327000009800F58050009002990098884201D98A
:10328000029800900098C0F34F3646EA1546304643
:1032900004B0BDE8F0813EB5044616480C30006825
:1032A00002901448103000680190600400090090FA
:1032B0000299009808F0C2F80090DDE9000108F0DA
:1032C00089F903D8009840F0FF40009004F40041D1
:1032D000009840EA0140009000983EBD481F000859
:1032E0007374645F627974655F6C656E677468207F
:1032F0003E2030003CB6000800B58DB001210846E4
:1033000003F0C1FBFE4805F07BFCFE480290FE483E
:1033100003900020049006908020079040000890C1
:1033200002A9F74805F00EFD01220221F44805F03C
:1033300040FD0B208DF8040005208DF805000120CC
:103340008DF8070001A803F026F80121EC4805F0EC
:1033500024FD0DB000BD00B587B00121042003F0AD
:10336000ACFB42F21070ADF81400E8480068E84980
:10337000B0FBF1F0401E80B2ADF810000020ADF8B7
:103380001600ADF8120004A9E24804F0BDFB60206D
:10339000ADF800000120ADF8020041F28830ADF830
:1033A00006000220ADF808006946DA4804F0C3FCC4
:1033B0000121D84804F01EFFD64804F04FFF082131
:1033C000D44805F066F80021D24805F05FF907B04F
:1033D00000BD00B587B001214FF4057003F060FB1C
:1033E0004FF4004003F0C0FAE020ADF804000020E4
:1033F0008DF8070001A9C84803F096F83020ADF811
:10340000040000208DF8070001A9C44803F08CF8DF
:10341000BC484C3805F0CCF90020029001208DF812
:103420000C0000208DF80D004FF4202004900020A7
:10343000059005208DF8180002A9B2484C3805F017
:10344000DEF9032301220521AE484C3805F06FFA5E
:10345000032302220621AB484C3805F068FA032307
:103460001A460721A7484C3805F061FA03230422C5
:103470000E21A4484C3805F05AFA032305220F21E7
:10348000A0484C3805F053FA01219E484C3805F00D
:10349000E2F99C484C3805F000FA00BF99484C38D6
:1034A00005F000FA0028F9D196484C3805F004FAE6
:1034B000012194484C3805F096FAFFF71DFF0121D1
:1034C00090484C3805F0D2F9FFF745FF07B000BD32
:1034D0001FB501211C2003F0E3FA1020ADF80C0009
:1034E00004208DF80F0003A98B4803F01DF844F267
:1034F0000100ADF80C0004208DF80F0003A98848E6
:1035000003F012F84FF40070ADF80C0004208DF8B1
:103510000F0003A9814803F007F80121084603F0D2
:10352000BFFA0421002003F015F90021012003F067
:1035300011F90E21012003F00DF90921022003F0F9
:1035400009F944F21120019000208DF808000C20A8
:103550008DF8090001208DF80A0001A805F088FC0B
:1035600017208DF8000002208DF8010001208DF851
:1035700002008DF80300684602F00DFF28208DF848
:103580000000684602F007FF0A208DF80000684638
:1035900002F001FF08208DF80000684602F0FBFEF3
:1035A00007208DF80000684602F0F5FE06208DF831
:1035B0000000684602F0EFFE1FBD08B5012108209B
:1035C00003F06EFA4FF48040ADF8000004208DF84F
:1035D00003006946524802F0A7FF08BD08B5012163
:1035E000082003F05DFA4FF48040ADF80000102091
:1035F0008DF8030003208DF802006946484802F068
:1036000093FF00204749086008BD0EB5012109203D
:1036100003F046FA0121444803F057F843F20A0048
:10362000ADF8080004208DF80B0002A93C4802F018
:103630007BFF0121084603F08DF80D21012003F0E6
:1036400089F80121202003F02BFA0420ADF80800AE
:103650008DF80B0002A9354802F066FF0221032015
:1036600003F078F80121102003F01AFA4FF4E0502B
:10367000ADF8080004208DF80B0002A9274802F0DD
:1036800053FF0121042003F00BFA4FF4E060ADF882
:10369000080004208DF80B0002A91F4802F044FF27
:1036A0000A21002003F056F80921002003F052F807
:1036B0000821002003F04EF842F20670009000202E
:1036C0008DF8040008208DF8050001208DF8060013
:1036D000684605F0CDFB0EBD10B5022005F097FB46
:1036E00030B30021064805F058FB002105484C384E
:1036F00005F0B1F80521024805F064FB022018E04E
:10370000080002404C240140D80000203C0000206A
:10371000A0860100000800400008014000100140A0
:10372000000C0140B8812142000230000014014029
:1037300008E005F080FB022005F05EFB0120A749B0
:1037400081F8240010BD2DE9F04786B0A348B0F8F9
:1037500088004FF47A71484340F6FF7190FBF1FA0C
:10376000504607F010FC80464FF066329C4B07F045
:1037700021FC064600229B4B07F01CFC044607F088
:10378000D5FB81B29548A0F89210B0F88A004FF4AA
:103790007A71484340F6FF7190FBF1FA504607F00A
:1037A000F2FB4FF066328E4BCDE9000107F002FCD0
:1037B000064600228C4B07F0FDFB00228B4BCDE927
:1037C000020107F02BFA80460022894B07F026FA07
:1037D0000446884A884B07F021FACDE9040107F036
:1037E000A5FB81B27D48A0F89410B0F88C0036217A
:1037F00048430A2190FBF1F081B27848A0F8961076
:10380000B0F88E0000EBC00000EB4000642190FB9C
:10381000F1F081B27148A0F89810B0F890004FF420
:103820007A71484340F6FF7190FBF1FA504607F079
:10383000AAFB4FF066326A4BCDE9000107F0BAFBF4
:103840000022694BCDE9020107F0B4FB06460022D5
:10385000664B07F0E3F904460022654B07F0DEF9FA
:103860008046644A644B07F0D9F9CDE9040107F0BA
:103870005DFB81B25948A0F89A1006B0BDE8F08708
:1038800010B504215D4802F0E2FE012809D1810251
:103890005B4802F0DCFE20B90121504880F8AC10F2
:1038A00027E00421554802F0D2FE58B94FF4806158
:1038B000534802F0CCFE012804D10221474880F889
:1038C000AC1016E004214D4802F0C1FE50B94FF48F
:1038D00080614B4802F0BBFE20B903213F4880F8CD
:1038E000AC1006E000213D4880F8AC1045A005F082
:1038F00055FF4FF40051504802F0A9FE012809D1AC
:1039000002214D4802F0A3FE20B90221334880F87D
:10391000AD1027E04FF40051474802F098FE50B92F
:103920000221454802F093FE012804D101212B48D1
:1039300080F8AD1016E04FF400513F4802F087FECA
:1039400048B902213C4802F082FE20B903212348F5
:1039500080F8AD1006E00021204880F8AD1037A0B7
:1039600005F01CFF4FF48071254802F070FE01281D
:1039700009D14102224802F06AFE20B9022117480B
:1039800080F8AE1029E04FF480711D4802F05FFE10
:1039900058B94FF400711A4802F059FE012804D1B9
:1039A00001210E4880F8AE1017E04FF480711448E2
:1039B00002F04DFE50B94FF40071114802F047FE7D
:1039C00020B90321054880F8AE1006E00021034825
:1039D00080F8AE1027A005F0E1FE10BD50000020D9
:1039E00066660A40000026400000104000000840C3
:1039F000000034409A9999999999C93F001401405F
:103A0000000801404572726F723A20465720627575
:103A100067206F72204857206661756C742068615A
:103A20007070656E20746F206C69667465722073A7
:103A3000656E736F72730A00000C01404572726FFD
:103A4000723A20465720627567206F7220485720CF
:103A50006661756C742068617070656E20746F208B
:103A60007570706572646F6F722073656E736F72BC
:103A7000730A00004572726F723A204657206275D1
:103A800067206F72204857206661756C74206861EA
:103A90007070656E20746F206C6F776572646F6FE5
:103AA000722073656E736F72730A000010B504465E
:103AB000204602F0AAFA10BD10B5044601210846BE
:103AC00002F0EEFF0121AB4802F0FFFDAA480068BA
:103AD00020F07040A84908600846006840F0405057
:103AE000086010BD10B504460121084602F0D8FF59
:103AF0000121A04802F0E9FD9F48006820F07040D5
:103B00009D4908600846006840F00040086010BD0C
:103B100010B5044694B14FF400419748001F02F0DD
:103B2000B2FD0620FFF7C2FF4FF400419248001F8C
:103B300002F0A7FD4020FFF7B9FF11E04FF400416C
:103B40008D48001F02F09FFD4020FFF7AFFF4FF4AC
:103B500000418948001F02F094FD0520FFF7A6FFF1
:103B600010BD10B54FF40040FFF7A6FF4FF4004121
:103B70008148001F02F087FD0220FFF797FF4FF4F6
:103B800000417D48001F02F07CFD4FF40040FFF72C
:103B9000A9FF0C20FFF78AFF4FF400417648001F71
:103BA00002F055FD00F001043220FFF77FFF2046B0
:103BB00010BD70B504464FF40040FFF77DFF0620AE
:103BC000FFF774FF002505E004F00100FFF7A0FFF8
:103BD00064106D1C082DF7DB70BD70B50026002544
:103BE00006E0FFF7BEFF0446E00140EA66066D1CF2
:103BF000082DF6DB304670BD10B54FF40040FFF7DE
:103C00005BFF4FF400415C48001F02F03CFD40F2B6
:103C1000EE20FFF74BFF4FF400415748001F02F022
:103C200030FD0F20FFF742FF10BD10B500244FF408
:103C30000040FFF757FF04E0601CC4B20120FFF70B
:103C400035FF4FF400414C48001F02F000FD08B161
:103C5000C82CF1DBC82C01DB012010BD002404E0DE
:103C6000601CC4B20A20FFF721FF4FF40041424814
:103C7000001F02F0ECFC08B9182CF1DB182C01DB5A
:103C80000120EAE70020E8E708B50121042002F05E
:103C900007FF0121084602F003FF0121354802F029
:103CA00014FD4FF40040ADF8000010208DF8030023
:103CB00003208DF8020069462F48001F02F034FCF3
:103CC0004FF400412C48001F02F0DBFCFFF794FF8B
:103CD000FFF7ABFF08BD10B5FFF78EFFFFF7A5FF9D
:103CE000CC20FFF766FF4420FFF763FF10BD2DE9EE
:103CF000F05FFFF7F0FFFFF77FFFFFF796FF8346C8
:103D0000CC20FFF756FFBE20FFF753FFFFF765FFFC
:103D100000F0FF0AFFF761FFC4B2072C08DDE043A3
:103D2000C4B26FEA0A0000F0FF0A4FF0000B01E096
:103D30004FF0010BA1464FEA09200FFA80F909EB79
:103D40000A000FFA80F9484607F01DF907460022DD
:103D50000A4B07F02FF9054607F0B8F80FFA80F97B
:103D6000BBF1000F02D04846BDE8F09FC9F100004A
:103D700000B2F9E700023000040801400000E43F0F
:103D800008B50121102002F08BFE0720ADF80000DD
:103D900010208DF8030003208DF802006946FC48CE
:103DA00002F0C2FB0020FB490860FB49C1F880011A
:103DB000F849091D086008BD70B504460D46112C70
:103DC00008D12946F54804F0ADFC0021F34804F081
:103DD000ABFC21E0122C08D10021F04804F0A2FC39
:103DE0002946EE4804F0A0FC16E0132C08D100216F
:103DF000EA4804F097FC0021E84804F095FC0BE049
:103E0000142C09D14FF4FA71E44804F08BFC4FF400
:103E1000FA71E24804F088FC70BD0146012908D11E
:103E20000020DC4A121F10600120DB4AC2F8840126
:103E300017E0022908D10120D64A121F1060002085
:103E4000D54AC2F884010CE0032907D10020D14AE9
:103E5000121F1060D04AC2F8840102E04FF0FF3018
:103E600070470020FCE72DE9F04106460C4600258E
:103E7000012E26D1FFF7D1FF074617B1681EBDE816
:103E8000F08150212046FFF797FF112C09D100E067
:103E90006D1C4FF48061BE4802F0D9FB0128F7D1B8
:103EA0000AE0122C08D100E06D1C4FF48051B84894
:103EB00002F0CDFB0128F7D114210846FFF77CFF63
:103EC00033E0022E2ED10220FFF7A7FF502120461B
:103ED000FFF772FF112C0FD106E06D1CB5F5801FA6
:103EE00002D34FF0FF30CAE74FF40061A84802F058
:103EF000AEFB0128F1D110E0122C0ED106E06D1CB2
:103F0000B5F5801F02D34FF0FF30B8E74FF4805172
:103F1000A34802F09CFB0128F1D114210846FFF7C9
:103F20004BFF02E09FA005F039FC0020A7E770B529
:103F300004460D46A74890F8480015282DD1112CAD
:103F400008D1A9B2800704F0F1FB0021A00704F01A
:103F5000EFFB22E0122C08D10021600704F0E6FB01
:103F6000A9B2600704F0E4FB17E0142C0CD1002187
:103F7000200704F0DBFB0021200704F0D9FB14200C
:103F8000944981F8480008E0132C06D1002092499A
:103F9000086013208F4981F8480070BD70B5044651
:103FA0000025012C6ED10103794802F050FB012855
:103FB00068D000218748A0F85A1000207549091FD1
:103FC000086001207449C1F8840196211220FFF78E
:103FD000F3FE0121714804F00DF917E06D1C7F48D4
:103FE000854213D34FF48061694802F030FB012809
:103FF00004D103217748A0F85A1003E00421754842
:10400000A0F85A1076A005F0C9FB06E04FF48051E5
:104010005F4802F01CFB0128E0D100BF4FF4FA71A9
:104020001420FFF7C9FE4FF48061594802F00FFBDE
:10403000012804D10221674880F8AA100FE04FF44C
:104040008051534802F003FB012804D1012161484B
:1040500080F8AA1003E003215E4880F8AA105D48AA
:10406000B0F85A0000280CD05A48B0F8B800401CEC
:1040700081B25848A0F8B810B0F85A1066A005F000
:104080008DFB83E0022C68D1E102454802F0DFFAA3
:10409000012862D000214F48A0F86A1000203D4955
:1040A000086001203C49C1F8800196211220FFF7E9
:1040B00083FE0121394804F09DF814E06D1C474847
:1040C000854210D34FF40061314802F0C0FA012854
:1040D00004D103213F48A0F86A1003E004213D48C1
:1040E000A0F86A1006E04FF40061294802F0AFFA28
:1040F0000128E3D100BF50211420FFF75DFE4FF4EB
:104100008051274802F0A3FA012804D10121314847
:1041100080F8AB100FE04FF400611D4802F097FAF1
:10412000012804D102212B4880F8AB1003E00321C1
:10413000284880F8AB102748B0F86A0030B325480B
:10414000B0F8B800401C81B22248A0F8B810B0F80E
:104150006A1040A005F022FB18E0012C0AD12103CF
:104160000B4802F074FA012804D10121194880F8A3
:10417000AA100BE0022C09D1E102094802F067FA0B
:10418000012803D10121134880F8AB1070BD000055
:10419000001001408401224200002242000400403D
:1041A000000C01404572726F723A205468652069B4
:1041B0006E70757420706172616D657465727320C4
:1041C000617265206E6F7420636F72726563742113
:1041D0000A00000050000020BC81214200449508E4
:1041E000204572726F723A206F6E65206F66207480
:1041F00068652075707065726C6F636B6572207393
:104200007769746368206861732070726F62656C8F
:104210006D2E200D0A0000004572726F723A205414
:1042200068652075707065726C6F636B657220666F
:1042300061696C7320746F206C6174636820696EAF
:104240002C206572726F72636F646520697320251C
:10425000640D0A004572726F723A20546865206CD2
:104260006F7765726C6F636B6572206661696C73E2
:1042700020746F2072656C656173652C20657272A5
:104280006F72636F64652069732025640D0A0000F6
:1042900070B504460D461646B5F5617F02DD4FF454
:1042A000617502E0C82D00DAC825012E02D0022E69
:1042B00054D129E0FE4890F82800152823D1112C6C
:1042C00008D1A9B2FB4804F02DFA0021F94804F006
:1042D0002BFA18E0122C08D10021F64804F022FA3B
:1042E000A9B2F44804F020FA0DE0142C0BD11420EC
:1042F000EF4981F828000021EE4804F013FA00216C
:10430000EC4804F011FA29E0E94890F83800152843
:1043100023D1112C08D1A9B2E64804F007FA0021F4
:10432000E44804F005FA18E0122C08D10021E14815
:1043300004F0FCF9A9B2DF4804F0FAF90DE0142CFE
:104340000BD10021DB4804F0F1F90021D94804F039
:10435000EFF91420D64981F8380000BF00BF70BDC6
:1043600070B504460D46012229462046FFF790FF0E
:10437000022229462046FFF78BFF70BD70B5CC485E
:1043800090F8A100012876D1C94890F8A300002830
:10439000F9D1C74BB3F8E020D3F8E410186AFBF763
:1043A00027FF002868D1C24890F8E8000028EAD129
:1043B000BF4890F8C40003286DD0BD4890F8C420D1
:1043C00000211420FFF764FFB94890F8C4000128C9
:1043D0002CD1B74890F8C500112802D012281BD163
:1043E0000CE00221B44802F032F918B14121B04882
:1043F000418502E00321AE4841850DE04FF40051B4
:10440000AD4802F024F918B14121A948418502E0E4
:104410000321A748418500BF00BFA548B0F8B00000
:10442000401C81B2A248A0F8B01092E0A04890F8D9
:10443000C4000228F9D19E4890F8C500112802D086
:1044400012281ED10DE04FF400719C4802F0FFF8D5
:1044500018B141219648418702E0032194484187E1
:104460000FE04FF48071954802F0F1F828B1412136
:104470008F48418704E0B1E07AE003218C4841870E
:1044800000BF00BF8A48B0F8B400401C81B2884821
:10449000A0F8B4105DE000211420FFF761FF84480C
:1044A00090F8C500112802D0122851D127E002212E
:1044B000814802F0CCF850B903217D484185B0F81D
:1044C000B000401C81B27A48A0F8B01002E0002190
:1044D000774841854FF40071784802F0B8F850B938
:1044E000032173484187B0F8B400401C81B2704882
:1044F000A0F8B41002E000216D48418728E04FF495
:1045000000516D4802F0A3F850B903216848418575
:10451000B0F8B000401C81B26548A0F8B01002E0CD
:104520000021634841854FF48071644802F08FF8A0
:1045300050B903215E484187B0F8B400401C81B2F5
:104540005B48A0F8B41002E000215948418700BF41
:1045500000BF0020564981F8C400084690F8C410F6
:1045600057A005F01BF90221514880F8A3105CE028
:104570004F4890F8E800012831D14D4890F8C40028
:1045800003282CD001214A4880F8A31090F8C400D9
:10459000012803D100214648418507E0444890F8AE
:1045A000C400022802D1002141484187404890F8C8
:1045B000C500122839D14FF400513F4802F047F8A6
:1045C000012806D04FF480713C4802F040F80128E1
:1045D0002BD1374991F8C400FFF7E0FC25E03448BF
:1045E00090F8C400032820D1314890F8E800022850
:1045F00018D100212E4841854187012180F8A31060
:1046000049032D4802F023F810B10120FFF7C6FC42
:104610004FF48071294802F01AF830B10220FFF7F8
:10462000BDFC02E032A005F0B9F8214890F8A700DF
:10463000012828D11E4BB3F84C20196D186AFBF7DE
:10464000D7FDA8B900211420FFF771FC03211848F9
:10465000A0F84A10022180F8A410B0F8B600401C5F
:1046600081B21348A0F8B61022A005F097F80AE02E
:104670000F4890F8E90030B101210D4880F8A410EE
:104680000021A0F84A100A4890F8A50001287CD122
:104690000021074880F8A21090F85800112875D121
:1046A000034890F868000028F9D10024004835E05C
:1046B00050000020000C0040000C014000080140A8
:1046C0004572726F723A2074696D656F75742064FB
:1046D0007572696E6720646F6F72206F70657261AA
:1046E00074696F6E2C2049443D25640D0A0000005A
:1046F0002E0000004572726F723A2074696D656F0A
:10470000757420746F206F706572617465207468B1
:1047100065206C69667465720D0A000080F8671088
:10472000A0F85A100020FE4908600120FD49C1F898
:104730008401FD48056A64211120FFF73DFB01213A
:10474000FA4803F057FD46E0641CF948844221D33F
:104750004FF48051F74801F07AFF012804D103217A
:10476000F148A0F85A1003E00421EF48A0F85A10CD
:10477000AFF2945005F012F8EB48006A411BEEA02E
:1047800005F00CF80221E84801E035E343E080F849
:10479000A21027E0E44890F8BF0001281BD1FEF7E3
:1047A0001DFF0A21E048A0F85A10EC4804F0F6FF7B
:1047B000DD48B0F85A10EAA004F0F0FF0021DB4811
:1047C00003F0B0FF0021D94803F0AEFF0221D64824
:1047D00080F8A21006E04FF48061D64801F037FF60
:1047E0000128B1D100BF4FF4FA711420FFF7E4FAA9
:1047F0004FF47A7400BF641E642CFCD20020C849B8
:10480000091D0860C848B0F85A0018B90121C64807
:1048100080F8A210E4E2C44890F85800122878D139
:10482000C14890F86800002873D100240021BE48D8
:10483000A0F85A100020BA4908600120B949C1F80F
:10484000840164211220FFF7B7FA0121B74803F071
:10485000D1FC3DE0641CB648844218D34FF480611B
:10486000B44801F0F4FE012804D10321AE48A0F8B9
:104870005A1003E00421AC48A0F85A10AFF2A0602F
:1048800004F08CFF0221A84880F8A21027E0A64877
:1048900090F8BF0001281BD1FEF7A0FE0A21A24814
:1048A000A0F85A10AD4804F079FF9F48B0F85A10AC
:1048B000ABA004F073FF00219C4803F033FF0021FC
:1048C0009A4803F031FF0221974880F8A21006E0D1
:1048D0004FF48051974801F0BAFE0128BAD100BFC9
:1048E0004FF4FA711420FFF767FA4FF47A7400BF9F
:1048F000641E642CFCD900208949091D08608A487F
:10490000B0F85A0018B90121874880F8A21067E270
:10491000FFE7854890F86800122854D1824890F843
:10492000580000284FD1002400217F48A0F86A10C9
:1049300001207B49086000207A49C1F88401642184
:104940001220FFF739FA0121784803F053FC8FA0B9
:1049500004F024FF1BE0641C7548844217D34FF415
:104960000061744801F073FE012804D103216E48F0
:10497000A0F86A1003E004216B48A0F86A108FA029
:1049800004F00CFF0221684880F8A21006E04FF402
:104990008051984801F05BFE0128DCD100BF4FF444
:1049A000FA711420FFF708FA00205D4908605E489C
:1049B000B0F86A0030B901215B4880F8A2108EA0DF
:1049C00004F0ECFE0CE2584890F86800112855D12C
:1049D000554890F85800002850D100240021524832
:1049E000A0F86A1001204E49086000204D49C1F826
:1049F00084014FF496711120FFF7DEF901214B4835
:104A000003F0F8FB8AA004F0C9FE1BE0641C4848D0
:104A1000844217D34FF48051764801F018FE0128E4
:104A200004D103214048A0F86A1003E004213E4865
:104A3000A0F86A1061A004F0B1FE02213A4880F8A3
:104A4000A21006E04FF400613A4801F000FE012890
:104A5000DCD100BF4FF4FA711420FFF7ADF900204C
:104A60002F4908603048B0F86A0030B901212E485B
:104A700080F8A2107BA004F091FEB1E12A4890F8E2
:104A80006800294991F8581088429BD100240025DC
:104A9000254890F8680011282AD14FF48051254804
:104AA00001F0D5FD01280DD000201D49086001202E
:104AB0001C49C1F884011221FFF7D5F900201849DB
:104AC000091D08604FF480514A4801F0C0FD0128DB
:104AD0000DD001201249086000201249C1F884015C
:104AE00012210220FFF7BFF900200D490860F5E010
:104AF0000D4890F8680012280FD14FF480610D48DE
:104B000001F0A5FD012809D0002005490860012019
:104B10000449C1F884011121C4E0DFE0C7E00000CE
:104B20008001224200002242500000200004004088
:104B3000802ED30000100140205761726E696E67AD
:104B40003A207468652074696D656F7574206973A7
:104B5000202564206D730D0A000000007CB8000859
:104B60004572726F723A20636F72726573706F6E06
:104B700064696E67206572726F7220636F6465206E
:104B80006973202564210D0A000000002053746120
:104B9000727420746F206C6F636B20746865206C76
:104BA0006F7765726C6F636B657220696E2043432B
:104BB00057206D6F64652E200D0A0000204572722B
:104BC0006F723A206F6E65206F6620746865206C86
:104BD0006F7765726C6F636B65722073776974634E
:104BE00068206861732070726F62656C6D2E200D95
:104BF0000A000000000C01402046696E69736820BD
:104C0000746865206F7065726174696F6E206F667D
:104C1000206C6F7765726C6F636B657220696E20B4
:104C2000434357206D6F64652E200D0A000000007D
:104C300020537461727420746F2072656C656173A7
:104C40006520746865206C6F7765726C6F636B6547
:104C50007220696E204357206D6F64652E200D0A07
:104C6000000000002046696E697368207468652042
:104C70006F7065726174696F6E206F66206C6F77FC
:104C800065726C6F636B657220696E2072656C650E
:104C90006173696E672028435729206D6F64652E04
:104CA000200D0A00FFF7DFF80020FE4908604FF4EE
:104CB0000061FD4801F0CBFC01280FD00120F9492B
:104CC000091F08600020F949C1F884011121022060
:104CD000FFF7C9F80020F349091F08600020F149D7
:104CE000091F0860F149C1F88401F148056A0146CD
:104CF00091F868005021FFF75FF8ED4890F86800E0
:104D0000112833D124E0641CEA48844220D34FF4B4
:104D10008061E54801F09BFC012803D00321E448B1
:104D2000A0F85A104FF40061DF4801F090FC012810
:104D300003D00321DE48A0F86A10AFF65C3004F01F
:104D40002DFDDB48006A411BDBA004F027FD0CE0D1
:104D50004FF48061D44801F07AFC0128D3D181025C
:104D6000D14801F074FC0128CDD133E024E0641C6B
:104D7000D048844220D34FF48051CB4801F067FCE7
:104D8000012803D00321CA48A0F85A104FF48051DB
:104D9000D14801F05CFC012803D00321C448A0F8ED
:104DA0006A10AFF6C43004F0F9FCC148006A411B38
:104DB000C1A004F0F3FC0CE04FF48051BA4801F0BC
:104DC00046FC0128D3D10103C34801F040FC01286F
:104DD000CDD100BF4FF4FA711420FEF7EDFF00BFF4
:104DE0000020B34981F8580081F868000021B048DC
:104DF000A0F85A10A0F86A1070BD70B5AC4890F8D1
:104E0000BE0001284BD10026A94890F8A700012830
:104E100012D1A74890F85600112807D112254FF457
:104E20008061AE4801F013FC044605E01125042121
:104E3000AB4801F00CFC04464FF4FA712846FFF72A
:104E400076F800220421A74803F0EFF90120A649D3
:104E5000086008E0761CA548864204D313219448D4
:104E6000A0F84A1001E0012CF4D100BF9048B0F83E
:104E70004A00132812D000214FF0804003F056FC66
:104E800000214FF0804003F053FC00214FF08040A0
:104E900003F0B0F90021864880F8BE1000BF8448B6
:104EA00090F8BF00012833D1814890F8C000002855
:104EB0002ED17F4890F8BA00401CC1B27C4880F8DF
:104EC000BA10012180F8C01090F8BA0003280EDA59
:104ED00041F28831864803F023FC0121844803F025
:104EE00089F9FEF77BFB83A004F058FC10E0FEF785
:104EF00075FB00218E4803F015FC00218C4803F05F
:104F000013FC01216A4880F8AF108A4804F046FC7F
:104F100070BD00B589B00121092001F0C1FD01215A
:104F2000854801F0D2FB4FF44060ADF82000182016
:104F30008DF8230003208DF8220008A9664801F0AF
:104F4000F3FA0121092001F0ABFD01217B4801F0BA
:104F5000BCFB01217A4801F0B8FB3020ADF82000FD
:104F600018208DF8230003208DF8220008A95A4844
:104F700001F0DAFA0121102001F092FD0820ADF8CD
:104F8000200010208DF8230003208DF8220008A9AE
:104F9000454801F0C9FA4FF40040ADF8200008A9D7
:104FA0004D4801F0C1FA0121052001F079FD0F20E3
:104FB000ADF8200018208DF8230003208DF8220082
:104FC00008A9464801F0B0FA0121022001F075FD60
:104FD0004FF4C870ADF808005A4800685A49B0FB51
:104FE000F1F0401E80B2ADF804000020ADF80A00D8
:104FF000ADF8060001A94E4802F086FD6020ADF82C
:1050000010000120ADF812000020ADF81800642057
:10501000ADF8160004A9464802F0B3FD04A94448BF
:1050200002F0F1FD0821424803F014FA082140483B
:1050300003F019FA01213E4803F0E8F801213C4849
:1050400003F0D8F900213A4803F0D4F801210846CA
:1050500001F033FD4FF47A70ADF80800394800686C
:105060003A49B0FBF1F0401E80B2ADF804000020D8
:10507000ADF80A00ADF8060001A94FF0804002F03B
:1050800043FD6020ADF810000120ADF812000020B3
:10509000ADF81800C820ADF8160004A9C00602F04B
:1050A000FFFD55E084012242001001400000224231
:1050B0005000002000449508204572726F723A201B
:1050C00074696D65206475726174696F6E206973AF
:1050D00020256420730D0A00000C014000080140E7
:1050E00000140140002C0140BC81214200A8D4558D
:1050F000001000405761726E696E673A20746865EF
:10510000206C6F636B6572206368616E6E656C20E6
:1051100077696C6C207265636F76657220696E20AA
:1051200035207365636F6E6473210D0A0000000003
:1051300000040040C4B800080002180000081A006B
:10514000000230003C00002000127A0040420F00B4
:1051500004A94FF0804002F0EEFD0821C80603F0DC
:105160008FF90821C80603F094F90121880703F09C
:105170004DF80121880703F03DF900214FF08040F0
:1051800003F038F80121082001F097FCF848006886
:105190004FF47A71B0FBF1F04900B0FBF1F080B24E
:1051A000ADF80800F24800684910B0FBF1F0401E6D
:1051B00080B2ADF804000020ADF80A00ADF806009A
:1051C00001A9EC4802F0A0FC6020ADF8100001201D
:1051D000ADF812000020ADF81800E54800684FF463
:1051E0007A71B0FBF1F04900B0FBF1F0C0F34F0071
:1051F000ADF8160004A9DF4802F0C3FC04A9DD489D
:1052000002F001FD04A9DB4802F04AFD04A9D948D7
:1052100002F091FD0821D74803F01CF90821D54878
:1052200003F021F90821D34803F02AF90821D148D5
:1052300003F02FF90121CF4802F0E8FF0121CD480A
:1052400003F0D8F80021CB4802F0D4FF09B000BD2C
:1052500010B500240421C84801F0F9F9012806D14D
:10526000C64890F85600112801D101240CE04FF4F3
:105270008061C34801F0EBF9012805D1BF4890F8DF
:105280005600122800D10124012C0ED11420BB4954
:1052900081F848000021B948A0F84A10012180F89F
:1052A000A410B8A004F07AFA10BD4FF48061B4489D
:1052B00001F0CDF9012813D00421AF4801F0C7F95E
:1052C00001280DD00421AD48A0F84A10B0F8B6006E
:1052D000401C81B2A948A0F8B610B6A004F05EFA4E
:1052E000A648016A01656421A0F8D4101520A349DD
:1052F00081F8480044F62061A048A0F84C10002135
:10530000A0F8D41080F8E91090F85610B6A004F078
:1053100045FA00219948A0F854100246B2F95410F9
:1053200092F85600FEF703FE01220421BC4802F069
:105330007CFFBB4800884FF6FE710840B8490880E2
:105340000846008800F0010018B90121B44802F0B5
:1053500051FF00BFA8E72DE9F84380460F464FF004
:105360000009112F02D14FF0120901E04FF011098D
:10537000B8F1010F03D0B8F1020F76D17AE07F487F
:10538000016A016341F288318185C8218186152037
:105390007A4981F828000846B0F934104246484658
:1053A000FEF776FF002461E0B9F1120F06D14FF449
:1053B00000519C4801F04BF9044604E00221994851
:1053C00001F045F904466D4890F8240001281BD1EE
:1053D00000206A4981F82400FEF7B5F901219248BE
:1053E00003F0DBFC0121914803F035FA6348B0F883
:1053F0009A0000906148B0F89830B0F89620B0F864
:1054000094108BA004F0CAF95C48016A006B0D1A75
:10541000002D01DAC5F1FF355848808DA84212DC15
:105420008CB90321554841850021524803F07AF98F
:105430000021504803F078F91420504981F82800E1
:105440004FF0FF3614E0012C10D100214B4841856C
:10545000484803F067F90021464803F065F9142035
:10546000464981F82800002602E0FAE0002C9BD093
:1054700000BFF6E04148016A016441F2883181874A
:10548000C821A0F84410112F00D1122715203B4944
:1054900081F838000846B0F9441042463846FEF715
:1054A000F7FE0024D8E0B9F1120F06D14FF4807155
:1054B000334801F0CCF8044605E04FF40071304861
:1054C00001F0C5F804462D4890F8240001281BD1AE
:1054D00000202A4981F82400FEF735F901215248BD
:1054E00003F05BFC0121514803F0B5F92348B0F803
:1054F0009A0000902148B0F89830B0F89620B0F8A3
:1055000094104BA004F04AF91C48016A006C0D1A73
:10551000002D01DAC5F1FF351848808FA84212DC52
:105520008CB90321154841871420144981F83800AB
:105530000021104803F0FAF800210E4803F0F8F8B3
:105540004FF0FF368BE0012C10D100210B48418732
:1055500014200A4981F838000021064803F0E6F8D3
:105560000021044803F0E4F8002678E074E000002D
:105570003C000020000C00400014014050000020BE
:10558000000801405761726E696E673A204C696687
:10559000746572206973206F6E2074686520746171
:1055A00072676574656420706F736974696F6E0DDE
:1055B0000A0000005761726E696E673A204C696696
:1055C000746572206973206E6F7420617420746832
:1055D0006520696E697469616C20706F73697469A4
:1055E0006F6E0D0A00000000537461727420746FB6
:1055F000206F70657261746520746865204C6966FF
:1056000074657220776974682074686520646972B3
:10561000656374696F6E206F662025780D0A00003F
:10562000002C0140000C0140080002400024014011
:105630004348313A2025640909094348323A202574
:10564000640909094348333A202564090909434894
:10565000343A2025640D0A00002C3FF424AF00BF2B
:1056600000BF00BF3046BDE8F88370B50546002492
:10567000012D7CD10021F848A0F85A100020F749EC
:1056800008600120F649C1F884014FF49671112099
:10569000FEF792FB33E0641CF248844210D34FF4CF
:1056A0008051F14800F0D3FF012804D10121EA48DC
:1056B000A0F85A1003E00221E748A0F85A1025E0AC
:1056C000E54890F8BF00012819D10A21E248A0F866
:1056D0005A10002180F8BF10E44804F05FF8DE485B
:1056E000B0F85A10AFF6883004F058F80021E048BE
:1056F00003F018F80021DE4803F016F806E04FF436
:105700008061D94800F0A3FF0128C4D100BF502117
:105710001420FEF751FB4FF48061D34800F097FF4F
:10572000012804D10221CC4880F8AA100FE04FF4E0
:105730008051CD4800F08BFF012804D10121C648DB
:1057400080F8AA1003E00321C34880F8AA10C248D9
:10575000B0F85A0000280ED0BF48B0F8B800401C7E
:1057600081B2BD48A0F8B810B0F85A1000E003E0CC
:10577000C0A004F013F884E0022DFCD10021B6484B
:10578000A0F86A100020B549091D08600120B4493D
:10579000C1F880014FF496711120FEF70DFB012135
:1057A000B34802F027FD33E0641CAE48844210D3B6
:1057B0004FF48051BE4800F04AFF012804D1012176
:1057C000A548A0F86A1003E00221A348A0F86A10D7
:1057D00025E0A14890F8BF00012819D10A219E4870
:1057E000A0F86A10002180F8BF10A04803F0D6FF8F
:1057F0009948B0F85A10AFF6984003F0CFFF002157
:105800009B4802F08FFF0021994802F08DFF06E0CF
:105810004FF40061944800F01AFF0128C4D100BF82
:1058200050211420FEF7C8FA4FF48051A04800F030
:105830000EFF012804D10121874880F8AB100FE04A
:105840004FF40061884800F002FF012804D10221D2
:10585000814880F8AB1003E003217F4880F8AB104B
:105860007D48B0F86A0060B17B48B0F8B800401CD1
:1058700081B27948A0F8B810B0F86A108D4803F0EA
:105880008DFF70BD2DE9F04704460E461546FF27F3
:10589000B8464FF0000988A003F080FF2046FFF7CC
:1058A000E4FE6D4890F8AB2090F8AA108C4803F005
:1058B00075FF012C0ED102217D4800F0C8FE07467D
:1058C00061037B4800F0C3FE80461520624981F8E1
:1058D00028000FE0022C0DD12102824800F0B7FE13
:1058E0000746E1017F4800F0B2FE804615205A4984
:1058F00081F83800112E11D1012F0FD14FF001097D
:10590000012C04D10121544880F8AD101AE0022C7A
:1059100018D10121504880F8AE1013E0122E11D199
:10592000B8F1010F0ED14FF00109012C04D1022171
:10593000494880F8AD1005E0022C03D10221464809
:1059400080F8AE10B9F1010F1ED1012D07D1002052
:10595000414981F8A00000213F4880F8A110012CA6
:1059600007D114203C4981F828005FA003F016FFFE
:1059700008E0022C06D11420374981F8380065A0D0
:1059800003F00CFFBDE8F087B8F1000F15D1A7B9FF
:105990003148B0F85A0030B1012C04D131462046CC
:1059A000FFF7D9FC09E02C48B0F86A0028B1022CB6
:1059B00003D131462046FFF7CEFC012C01D0022C4A
:1059C0001BD104215E4800F042FE012833D0012D96
:1059D00031D10121204880F8A710002180F8A410BF
:1059E00080F8E91015201C4981F8480011211A4857
:1059F00080F85610FFF72CFC1DE0032C1BD14FF450
:105A00008061384800F023FE012814D0022D12D105
:105A10000121114880F8A710002180F8A41080F817
:105A2000E91015200C4981F8480012210A4880F835
:105A30005610FFF70DFC00BFA4E710B5064890F81C
:105A4000C40003287ED000210348418541870120FE
:105A5000014981F8A00076E0500000208001224238
:105A60000000224200449508001001407CB8000864
:105A7000000400404572726F723A205468652075C8
:105A8000707065726C6F636B6572206661696C73B0
:105A900020746F2072656C656173652C206572726D
:105AA0006F72636F64652069732025640D0A0000BE
:105AB000000C0140544200084E6F7465203A207378
:105AC0007461727420746F2072656C6561736520F7
:105AD000746865206C6F636B65720D0A00000000CE
