:020000040800F2
:10000000C04B0020A1A10008250C0008270C000807
:10001000290C00082D0C0008310C0008000000001D
:10002000000000000000000000000000350C000887
:10003000370C000800000000390C00083B0C0008D9
:10004000BBA10008BBA10008BBA10008BBA1000820
:10005000BBA10008BBA10008850500081706000821
:10006000C7050008BBA10008A307000871380008F5
:10007000BBA10008BBA10008BBA10008BBA10008F0
:10008000BBA10008BBA10008BBA10008BBA10008E0
:10009000631C0008BBA10008BBA10008E70700081B
:1000A000BBA10008BBA10008BBA100084B6E000863
:1000B000BBA10008BBA10008BBA10008BBA10008B0
:1000C000BBA10008BBA10008BBA10008BBA10008A0
:1000D000BBA100085B6B0008BBA10008BBA1000826
:1000E00099080008BBA10008BBA10008BBA100083B
:1000F000BBA10008BBA10008BBA10008BBA1000870
:10010000BBA10008BBA10008BBA10008BBA100085F
:10011000BBA10008BBA10008776F0008BBA10008C5
:10012000BBA10008BBA10008BBA10008BBA100083F
:1001300000F002F800F04DF80AA090E8000C8244AC
:100140008344AAF10107DA4501D100F042F8AFF289
:10015000090EBAE80F0013F0010F18BFFB1A43F0A5
:100160000103184760C5000080C50000103A24BF95
:1001700078C878C1FAD8520724BF30C830C144BF0C
:1001800004680C607047000000230024002500264E
:10019000103A28BF78C1FBD8520728BF30C148BFEA
:1001A0000B60704766290CF0808064290AF03C815E
:1001B00078290AF07581002070471FB50AF0B6FD56
:1001C0000400002000210BF04DFBE0601FBD10B5C6
:1001D00010BD0AF0CBFE1146FFF7EFFF00F041F82B
:1001E0000AF0E9FE03B4FFF7F2FF03BC05F0DEFFFF
:1001F000EFF30980704780F309887047EFF30880B8
:10020000704780F30888704740BA7047C0BA70479B
:1002100003468B4206D3581A904201D20120704700
:100220000020FCE7C1F1FF301844904201D20120C8
:10023000F5E70020F3E708B50121082007F06AFA86
:100240000420ADF8000010208DF8030003208DF885
:1002500002006946FE4806F0A1FF0020FD49086043
:1002600008BDFD4800684FF47A72B0FBF2F1B1F1BD
:10027000807F00D31DE021F07F40401E4FF0E02240
:10028000506150170F22002807DA13071D0EF34B99
:1002900000F00F04241F1D5503E013071C0EF04B44
:1002A0001C5400BF00204FF0E02290610720106135
:1002B00000BF4FF4407006F0A3FEEA480088E94909
:1002C000491E098840EA8100E749088008460088FD
:1002D0004AF65521884241D1E248801C0068012835
:1002E0000BD1E04808300088DE49491E098940EA00
:1002F000810081B2DD4881870FE0DA48801C006808
:1003000002280AD1D7480A300088D649491E4989AF
:1003100040EA810081B2D5488187D248401C0068FC
:1003200001280BD1CF48001D0088CE49491E89887D
:1003300040EA810081B2CD4881850FE0C948401C68
:10034000006802280AD1C748801D0088C549491E97
:10035000C98840EA810081B2C448818506F073FCF7
:100360004FF4E13005F054FF0020C04981F823012B
:1003700003F0FBF806F017FD05F0FEFE03F074F93C
:1003800003F0CAFD03F00DFA06F02AFC04F09BFE10
:100390000120B7490860B749C1F8BC0103F040FD2E
:1003A00018B9B5A00AF034F802E0BDA00AF030F8A0
:1003B0000121C64808F058FD0121880708F054FDC6
:1003C0004FF4C871C24808F0E7FF4FF4C871C04845
:1003D00008F0E4FF0121BE4808F046FD00F0FAFCF9
:1003E000FFF729FF01209B4908600021800708F0E2
:1003F000D7FF00214FF0804008F0D4FF0021B34820
:1004000008F0CAFF0021B14808F0C8FF0021AF483A
:1004100008F0C6FF0021AD4808F0C4FF0120AD4937
:10042000C1F88801ADE04FF48061AB4806F049FFA8
:10043000AA4908704FF48051A74806F042FFA84926
:1004400008704FF40061A44806F03BFFA54908700E
:100450004FF480517E4806F034FFA34908704FF4F2
:1004600000517B4806F02DFFA04908700221784812
:1004700006F027FF9E4908704FF480719D4806F0F2
:1004800020FF9D4908704FF400719A4806F019FF4B
:100490009A49087004219A4806F013FF9949087098
:1004A0004FF48061934806F00CFF9749087000F004
:1004B00057FE04F032F800F04AFD04F078FD4FF4E6
:1004C00000718C4806F0FDFE904908704FF4807171
:1004D000884806F0F6FE8E490870644890F82400BB
:1004E00001280DD103F0FBF901218A4809F08FFAA8
:1004F0000121894808F0E9FF00205C4981F82400C7
:100500005A4890F8A90001280ED1584AD2F8DC10B8
:10051000106A41F28832FFF77BFE28B95348016A1E
:10052000C0F8DC1000F0F5FC504AD2F8D810106A80
:1005300044F62062FFF76CFE18BB4C48016AC0F815
:10054000D81003F0A0FC4949A1F8EC000846B0F926
:10055000EC00B0F5FA7F02DD0020A1F8EC00434981
:10056000B1F9EC000BF058FD07466C490BF092FC1A
:1005700004460BF057FC05462A460B4668A009F0D6
:1005800047FF50E710B5012009F003FB012819D1FE
:1005900009F01FFB012009F007FB01212C4806F0A0
:1005A00090FE78B901220021142003F040FF0121C0
:1005B0002E4880F8B210B0F8B000401C81B22B4831
:1005C000A0F8B01010BD10B5042009F0E2FA01281F
:1005D00020D1042009F0E8FA042009F0FAFA0421F5
:1005E000474806F06EFEA8B10021142003F06BFD11
:1005F00000220421544808F052FC1C4890F8560090
:10060000112804D10121194880F8E91002E04FA017
:1006100009F0FEFE10BD10B5022009F0BAFA01285B
:1006200014D1022009F0D5FA022009F0BDFA022106
:10063000074806F046FE48B101220021142003F0CD
:10064000F6FE0A4890F8A100012897E0A8E0000013
:10065000000C0140888121424000002018ED00E09C
:1006600000E400E0018003080000002054000020A6
:100670008C012242008021425761726E696E673A96
:100680002061204453313832302068617320626524
:10069000656E206465746563746564210D0A0000ED
:1006A0005761726E696E673A206661696C696E6740
:1006B00020746F20646574656374207468652044D9
:1006C0005331383230210D0A00000000000C004088
:1006D0000004004000002242001001400A000020F7
:1006E0000B0000200C0000200D0000200E00002058
:1006F0000F00002000080140100000201100002021
:100700000014014012000020130000200900002006
:1007100008000020080002400024014000002041A1
:1007200063757272656E742074656D706572617444
:100730007572657220697320252E316620646567A5
:10074000726565210D0A0000002C01404255473AB0
:10075000204C696674657220746F702073776974B9
:1007600063682D2D2D3E66616C7365207472696718
:10077000676572696E670D0A000000000DD1E948D7
:1007800090F8C500112808D1E64890F8E800401C10
:10079000C1B2E44880F8E81002E0E3A009F038FEB6
:1007A00010BD10B5102009F0F4F901281AD110205D
:1007B00009F00FFA102009F0F7F91021E64806F0C9
:1007C00080FD78B902220021142003F030FE0121BF
:1007D000D44880F8B310B0F8B400401C81B2D148BE
:1007E000A0F8B41010BD10B54FF4007009F0D1F9A5
:1007F000012830D1400209F0ECF94FF4007009F003
:10080000D3F94FF40071D44806F05BFD01280CD1F8
:1008100002220021142003F00AFEC24890F8E800EA
:10082000401CC1B2BF4880F8E8104FF40071CB48BB
:1008300006F047FD78B9BB4890F85700401CC1B29C
:10084000B84880F8571090F85700022803DB0021C1
:10085000132003F038FC4FF4807009F09AF9012856
:1008600019D1000209F0A0F94FF4807009F0B1F934
:100870004FF48071B84806F024FD60B102220021D7
:10088000142003F0D4FDA74890F8E800401CC1B242
:10089000A44880F8E81010BD10B54FF4804009F06E
:1008A00078F901282ED1800309F093F94FF48040A4
:1008B00009F07AF94FF48041A94806F002FD08BB1F
:1008C000984890F85800E8B1964890F86800C8B980
:1008D000944890F86700401CC1B2924880F86710B5
:1008E00090F8670002280DDB00218E4880F8671021
:1008F000012180F8BF10B0F8B800401C81B28948CF
:10090000A0F8B8104FF4005009F043F9012827D19E
:10091000400309F05EF94FF4005009F045F94FF437
:1009200000518F4806F0CDFCD0B1012200211420E7
:1009300003F07DFD7B4890F8A10001280DD1794896
:1009400090F8C500122808D1764890F8E800401CBD
:10095000C1B2744880F8E81002E082A009F058FDA6
:100960004FF4806009F015F9012822D1800209F0C6
:100970001BF94FF4806009F02CF94FF48061764840
:1009800006F09FFCA8B10021142003F09CFB00227C
:1009900004217F4808F083FA624890F85600122834
:1009A00004D101215F4880F8E91002E079A009F044
:1009B0002FFD10BD10B54FF40051694806F081FCC1
:1009C000012829D01121012003F019FB04461CB194
:1009D0007BA009F01DFD1FE04FF480515F4806F039
:1009E00070FC012808D01221012004F096FD044675
:1009F00014B179A009F00CFD4FF48051584806F06D
:100A000060FC012808D01221022004F086FD044673
:100A100014B171A009F0FCFC10BD30B589B0002004
:100A2000002176A41CCC06AD1CC577A3D3E9012513
:100A30001C68DB68CDE90453CDE9024276A30CCBF8
:100A4000CDE9002300BF39E00023C0EB401202EBE8
:100A50008014734A02EB840282F87A31C0EB4012B0
:100A600002EB80146E4A02F82430002122E00023B9
:100A7000C0EB401202EB8014694A02EB8402921C24
:100A8000C1EB011404EB411402EB8402A2F8B8306C
:100A9000C0EB401202EB8014614A02EB8402921C0C
:100AA000C1EB011404EB411402EB8402A2F8BA304A
:100AB0004A1CD1B20229DADB421CD0B20228C3DBC5
:100AC0000122184B83F8232100221A62002006E03D
:100AD0001DF80030524AD21F1354421CD0B20628CF
:100AE000F6DB002005E006AA125C0E4B1A54421CED
:100AF000D0B20A28F7DB01220A4B9A720022DA727E
:100B000001221A7302225A73002006E002AA135C23
:100B1000044A0E321354421CD0B21028F6DB09B03E
:100B200030BD0000540000205761726E696E67206E
:100B30003A207570706572646F6F722D6F70656E9C
:100B400065642073656E736F722070726F626C657E
:100B50006D210D0A00000000000801400010014056
:100B6000000C0140425547203A2075707065726450
:100B70006F6F722D636C6F7365642073656E736F36
:100B8000722070726F626C656D210D0A00000000AA
:100B9000002C01404255473A204C6966746572202A
:100BA000626F74746F6D2D2D2D3E66616C736520C0
:100BB00074726967676572696E670D0A00000000EC
:100BC0004572726F723A206661696C20746F20758D
:100BD0006E6C6F636B0D0A006572726F723A2066FD
:100BE00061696C20746F20636C6F73652074686535
:100BF000207570706572646F6F7200004D4374727F
:100C00006C4D6F64656C0000616263646566676863
:100C1000696A313233343536555044415445000009
:100C2000800100207047704700BFFEE700BFFEE76D
:100C300000BFFEE77047704770470648006A401CD7
:100C4000044908620846006A401C08B9002008628E
:100C500070470000540000202DE9F04180460C460A
:100C60000025FE480078012801D1BDE8F081A08A66
:100C7000072805DCA28AFA48A16809F005FD3FE0D3
:100C8000A08A0C280FDCF648A1680A6802608988EF
:100C90008180A81DC5B2A38A9A1FF14B58192169FA
:100CA00009F0F2FC2CE0A08A06B2ED49A0680268C7
:100CB0000A6080888880A81DC5B2701F06B2E768E8
:100CC00015E01C2E06D9E64948191C22391D09F0E9
:100CD000DBFC05E0E24948193246391D09F0D4FC35
:100CE0003F6806F11C0006B205F11C00C5B2002FDA
:100CF000E7D1DB4A50193246216909F0C5FC00BF33
:100D0000A08AD849088020222146D74809F001FD51
:100D10000120D249087000BFA7E770B50546049CC2
:100D2000022B07D100BF00BFD04ED148C1E90060FF
:100D3000012070BD012B4BD11046D82A2BD008DCE6
:100D4000A0F1C90005283CD2DFE800F00C11161B09
:100D50002000D92823D0DA2825D0FE2827D0FF2844
:100D60002FD129E0C348C44EC1E900062DE0C34E8F
:100D7000C348C1E9006028E0C24EC348C1E9006031
:100D800023E0C24EC248C1E900601EE0C14EC24825
:100D9000C1E9006019E000260E604E6015E00020F9
:100DA0000860486011E000260E604E600DE0BB4E0A
:100DB000BB48C1E9006008E0BA48BB4EC1E9000683
:100DC00003E000200860486000BF00BF0120B0E7DA
:100DD0000020AEE730B58BB0002400250121480685
:100DE00006F0A5FC0121042006F094FC4FF40060FD
:100DF000ADF8080048208DF80B0003208DF80A009C
:100E000002A9AA4806F0CAF94FF48050ADF80800CC
:100E100018208DF80B0002A9A44806F0BFF9A448D9
:100E200006F0DCFC08A806F0FDFD0121480606F0EE
:100E30007EFC00208DF826008DF827008DF8280014
:100E400001208DF8290000208DF82A0001208DF85E
:100E50002B0000208DF822008DF8230005208DF84E
:100E6000240004208DF825000620ADF8200008A9F4
:100E70008F4806F0CCFC4FF408654FF4FF44002087
:100E80008DF81A008DF81B0001208DF81C00680BEE
:100E9000ADF810004FF6FF7000EAC500001DADF878
:100EA0001200600BADF814004FF6FF7000EAC400AA
:100EB000001DADF816000020ADF8180001208DF8D7
:100EC0001D0004A806F02DFD01220221784807F03C
:100ED00027F814208DF80C0001208DF80D0000205B
:100EE0008DF80E0001208DF80F0003A806F08DF894
:100EF00000207049704B4FF48062CDE900106F49BB
:100F00006F4800F0F4FE08216D4800F025FF0BB09B
:100F100030BD00B585B011206A49087022204870A4
:100F2000332088704420C8705520087105201F2286
:100F3000654BCDE90132CDE9031045F24100634A2A
:100F4000634B00905E4801F0B3F805B000BD00B5FA
:100F500087B0604890F8A500012829D15D4890F835
:100F6000A20028B300215B4880F8A51090F8A600E5
:100F700054490870574890F8A20048700221514A1D
:100F800000233948807ECDE903320591029036482E
:100F90001930D921CDE900101938C17E1A464848C8
:100FA00001F033F900214B4880F8A61080F8A21018
:100FB000484890F8A10001284ED1464890F8A30077
:100FC000002849D000220221434807F068FF414829
:100FD00090F8A2003B4908703E4890F8C400487061
:100FE0003C4890F8C50088703A4890F82A00C870CC
:100FF000384890F83A000871364890F85A0048711D
:10100000344890F86A00887107212E4A0023164858
:10101000807ECDE903320591029013481930D82122
:10102000CDE900101938C17E1A46254801F0EDF8C7
:101030000021284880F8A31080F8A110002025493D
:1010400081F8C4000021234880F8C5100020214900
:1010500081F8A000322141E043E0000018000020A8
:10106000780400201600002028090020401DA1203F
:1010700026812A0B6840D69D8BCBDED906E0EC0199
:10108000F0E1B36AEC7895020F7F087E79437CC863
:10109000DA287FECDCA167B532884C64A1780C2992
:1010A000D0BF2E81E2DB3111450FD0D100080140C5
:1010B000006400401B0D0008590C000828050020A2
:1010C00004050020AA040020200000209E4BB02828
:1010D000DF3AC91554000020002C0140FD4809F0FA
:1010E0004AFBFD4890F8A700012837D1FA4890F84C
:1010F000A40098B300220421F84807F0D0FEF64877
:1011000090F8A400F3490870F34890F84A0048703A
:10111000F14890F8560088700321EE4A0023F04809
:10112000807ECDE9033205910290ED481930DA2135
:10113000CDE900101938C17E1A46EA4801F065F879
:10114000E54890F8A410E84809F062F90021E24867
:1011500080F8A71080F8A41080F8561007B000BDE2
:1011600000B58DB0E1480078012872D1DC48007EDE
:10117000022800D12EE3DA48007E0128FAD1D848AF
:10118000C08ACD287ED008DCC9280FD0CA2829D033
:10119000CB283FD0CC2824D15CE0D82873D0D928E4
:1011A00072D0DA2871D0DB28F5D1D6E20120C94906
:1011B000087007900A460023C949897E0798CDE93F
:1011C000033202910590C6481930C921CDE90010BB
:1011D0001938C07EC64AC74B01460690C14801F087
:1011E00014F8F6E21E21BC4A0023BD48807ECDE9FA
:1011F000033205910290BA481930CA21CDE9001096
:101200001938C07EBC4ABD4B01460690B54800F077
:10121000FCFFDEE25520AF490870AA20487002208A
:1012200007900A460023AE49897E0798CDE903322C
:1012300002910590AA481930CB21CDE90010193848
:10124000C07EAF4AAF4B01460690A64800F0DDFFD6
:10125000BFE2C6E2A04890F8A900012827D00121EA
:101260009D4880F8A91055209A490870AA20487016
:10127000022007900A4600239949897E0798CDE904
:10128000033203E032E078E08DE101E20291059063
:1012900093481930CC21CDE900101938C07E9A4A04
:1012A0009A4B014606908F4800F0AFFF1DE0532097
:1012B00088490870A9204870022007900A46002338
:1012C0008749897E0798CDE90332029105908448C9
:1012D0001930CC21CDE900101938C07E8A4A8B4BD9
:1012E000014606907F4800F090FF72E27A4890F83D
:1012F000A900022822D00221774880F8A9105520A1
:1013000074490870AA204870022007900A460023FA
:101310007349897E0798CDE90332029105907048A0
:101320001930CD21CDE900101938C07E784A794BAB
:10133000014606906B4800F068FF1DE053206549A8
:101340000870A9204870022007900A4600236449CB
:10135000897E0798CDE903320291059060481930E3
:10136000CD21CDE900101938C07E694A694B01468C
:1013700006905C4800F049FF2BE2574890F8A10026
:10138000002873D10121544880F8A11062480078E8
:10139000012841D160484078012818D15E48807802
:1013A000A8B901204C4981F8C4005B48C0780128E5
:1013B00002D002280AD104E01121474880F8C51064
:1013C00004E01221444880F8C51000BF5EE0524896
:1013D0004078C8B950488078012815D102203E498C
:1013E00081F8C4004C48C078012802D002280AD1F4
:1013F00004E01121384880F8C51004E01221364875
:1014000080F8C51000BF41E00021334880F8A110EA
:10141000424808F0FDFF39E03F48007802282ED10D
:1014200003202D4981F8C4003B48407801280CD1A5
:1014300039488078012808D13748C078012804D17C
:101440001121254880F8C51020E033484078012854
:101450000DD131488078012809D12F48C078022861
:1014600005D112211C4880F8C5100FE07AE0002158
:10147000194880F8A1102A4808F0CAFF06E00021A8
:10148000154880F8A11027A008F0C2FF5520114987
:101490000870AA204870022007900A4600231049CD
:1014A000897E0798CDE90332029105900C481930E6
:1014B000D821CDE900101938C07E1A4601460690A1
:1014C000084800F0A2FE044890F8A10000B143E0F3
:1014D00068E00000AA04002054000020002C014015
:1014E00028090020040500200CC400081800002072
:1014F0006840D69D8BCBDED906E0EC01F0E1B36A03
:10150000EC7895020F7F087E79437CC8DA287FEC5F
:10151000DCA167B532884C647804002080C30008E1
:10152000C8C300084572726F723A204661696C2028
:10153000746F2073656C65637420746865206D6FCB
:10154000646520666F7220646F6F72206F706572C1
:101550006174696F6E0D0A00F9A008F059FF04F07C
:101560001EFC1FE05620FE490870AB204870022088
:1015700007900A460023FB49897E0798CDE903328C
:1015800002910590F7481930D821CDE9001019389B
:10159000C07E1A4601460690F34800F036FEF3A0DE
:1015A00008F036FF15E1FE4890F8A500002851D15B
:1015B0000121FB4880F8A510FA480178F84880F826
:1015C000A610F8480078012804D11120F44981F8C8
:1015D000580021E0F3480078022804D11220F04995
:1015E00081F8580018E0EF480078032804D1112052
:1015F000EB4981F868000FE0EA480078042804D13C
:101600001220E74981F8680006E00021E44880F8EC
:10161000A510E5A008F0FCFE5520D1490870AA20CD
:101620004870022007900A460023CE49897E079819
:10163000CDE9033202910590CA481930D921CDE98C
:1016400000101938C07E1A4601460690C64800F0C0
:10165000DCFD1CE05320C2490870A920487002201C
:1016600007900A460023BF49897E0798CDE90332D7
:1016700002910590BB481930D921CDE900101938E5
:10168000C07E1A4601460690B74800F0BEFDA0E0B5
:10169000C34890F8A700E8BB0121C14880F8A71013
:1016A000C0480078012804D11121BD4880F85610A7
:1016B0000FE0BC480078022804D11221B84880F815
:1016C000561006E00021B64880F8A710C6A008F022
:1016D0009FFE5520A2490870AA204870022007905A
:1016E0000A4600239F49897E0798CDE9033202917B
:1016F00005909C481930DA21CDE900101938C07ED8
:101700001A4601460690984800F07FFDA44890F8DC
:10171000A70000E003E0F8B103F073FE1CE05720DF
:101720008F490870AC204870022007900A460023B9
:101730008C49897E0798CDE903320291059089484A
:101740001930DA21CDE900101938C07E1A46014659
:101750000690854800F059FD3BE09248007801284A
:101760000AD101F0F6FF00218D4880F8BF1080F803
:10177000C01080F8BA100DE08A480078022809D11C
:1017800001F0F8FF0021864880F8BF1080F8C010F3
:1017900080F8BA10552072490870AA2048700220BB
:1017A00007900A4600236F49897E0798CDE90332E6
:1017B000029105906B481930DB21CDE900101938F2
:1017C000C07E994A994B01460690674800F01DFD7E
:1017D00000BF00BF0020964908703221604808F021
:1017E000CAFF0020069022E006980068099006983B
:1017F000007B8DF82A0004208DF8280000208DF849
:1018000029000698007B024604900699091D0DF1F7
:101810002B0008F039FF08A9864806F071F90590F9
:101820000598042802D0504800F05EFD00BF4E48E5
:1018300000F03CFD06900028D6D10DB000BD014659
:10184000302905DB392903DCA1F13000C0B2704733
:10185000412905DB462903DCA1F13700C0B2F6E7D8
:10186000FF20F4E70146302903DB392901DC0120A0
:101870007047412903DB462901DC0120F8E70020FD
:10188000F6E7F0B504460D4600262B4620783A28A8
:1018900001D00020F0BD012223E0A05CFFF7E2FFB1
:1018A00008B90020F6E7104602EBD0714910A2EB10
:1018B000410131B1A05CFFF7C2FF0007000E1870B4
:1018C00006E0A05CFFF7BBFF1978084418705B1CAA
:1018D000501CC2B22878801D4000904201DA0020DE
:1018E000D8E7A05C0D28D8D12B461878401DC7B288
:1018F000002205E018783044C6B25B1C501CC2B20E
:10190000781E9042F6DCF043C6B2701CC6B218785E
:10191000B04201D10120BDE70020BBE7024650796B
:10192000137900EB0321B1F5006F07D040F60100F9
:10193000814203D0401C814200D07DE07FE0000066
:101940004E6F74653A20737461727420746F206FE7
:1019500070656E2074686520646F6F72210D0A00D7
:10196000AA04002028090020040500205761726E97
:10197000696E673A746865206C61737420646F6F78
:10198000722D6F7065726174696F6E20686173206B
:101990006E6F742066696E69736865640D0A200055
:1019A00054000020780400204572726F723A20744F
:1019B0006865726520697320612070726F626C6562
:1019C0006D206F6620706172616D65746572732041
:1019D000666F72206C6F636B6572206F70657261E9
:1019E00074696F6E200D0A004572726F723A20742E
:1019F0006865726520697320612070726F626C6522
:101A00006D206F6620706172616D65746572732000
:101A1000666F72206C6966746572206F70657261A2
:101A200074696F6E200D0A00DDA167B532884C64C1
:101A30001800002000640040401C814201D10804CD
:101A400070470020FCE710B503249448944988426D
:101A500015D308F0E6F8934808F028F908F0EDF8F7
:101A600008F0DFF890498F4808F0F0F908F0E5F841
:101A70008C4800688C4988421AD1002418E08748B5
:101A80008949884214D308F0CCF8864808F00EF94A
:101A900008F0D3F808F0C5F88149824808F0D6F973
:101AA00008F0CBF87F4800687D49884200D10024C7
:101AB000204610BD2DE9FC5F0546884698F80100D8
:101AC00005EB002098F80210461898F8004008F13D
:101AD0000407B5F1006F0BD07448854208D07048F8
:101AE000854205D07248854202D00320BDE8FC9FA4
:101AF000C6F30D0000283ED1B34608F092F8352019
:101B000008F02AFB4FF0000A2FE0584608F0CEF804
:101B100001900198042811D00098401CC0B2009098
:101B20000098022803DB4FF003094846DEE7352022
:101B300008F012FB584608F0B9F801900BF5806BDD
:101B40004FF400715B4805F0C9FB012804D1410244
:101B5000584805F0D2FB04E04FF40071554805F0F9
:101B6000CAFB0AF1010000F0FF0ABAF1100FCCDB4A
:101B700008F063F800BF08F054F83AE04FF4007141
:101B80004C4805F0ABFB012804D14102494805F05F
:101B9000B4FB04E04FF40071464805F0ACFBE117DC
:101BA00004EB9171891049B13046396808F04EF95B
:101BB0008146361D201FC4B23F1D16E004EBD471D0
:101BC000491049B13988304608F073F98146B61C8E
:101BD000A01EC4B2BF1C08E03978304608F087F96F
:101BE0008146761C601EC4B27F1CB9F1040F00D080
:101BF00001E0002CC2D100BF08F01FF8B9F1040FBA
:101C000001D0032072E7002070E770B50546E87840
:101C1000062821D2DFE800F0030A0E10121E294622
:101C200025480068FFF746FF044617E0FFF70BFF63
:101C3000044613E0002411E000240FE02846FFF7DB
:101C40006DFE1D4908600846006808B9022400E0DE
:101C5000002403E0002401E0002400BF00BF204670
:101C600070BD1FB5154A0021154806F03EF813480F
:101C7000406800901148807A8DF80C000F48827AF5
:101C800000F10B0101A808F0FFFC4FF47A72002369
:101C900069460C4800F090FC1FBD00005400002075
:101CA0000000020800F80308008000080000010896
:101CB00000000308000C01401C000020480900201F
:101CC000006400400405002070B50C460021034666
:101CD00004E004EB41151D601B68491C9142F8D3D8
:101CE00000251D6082800026C680068170BD2DE91A
:101CF000F0470446884615461E46DDE9089A6F09F6
:101D000004B104E04F22F6A1FCA008F07DFC2421E0
:101D1000204608F052FD00202070A660C4F8049010
:101D2000A061E061C4F820A0B7F5803F01D34FF671
:101D3000FF77BAB2414604F10C00FFF7C5FFBDE8DA
:101D4000F08710B5044604B104E06D22E4A1ECA0D4
:101D500008F05AFC206A10BD70B504460D4604B167
:101D600004E07322DEA1E6A008F04EFC207828B93A
:101D7000012D03DB7F2D01DC257004E07D22D8A13D
:101D8000E2A008F041FC70BD01460878704710B52C
:101D9000044604B105E040F25632D1A1DCA008F0BF
:101DA00033FC2078401C20702078202801DB0020A4
:101DB000207010BD2DE9F043024621F0604322F06F
:101DC0006044CF0FD50FAF4214D00FB1980C00E094
:101DD000184680460DB1A00C00E020468146C8455B
:101DE00006D0C84502D20120BDE8F0830020FBE701
:101DF0002846F9E7C1F3807CC2F38076A34203D181
:101E0000B44501D03046EFE7A34201D20120EBE711
:101E10000020E9E72DE9F04106460D4606B105E050
:101E200040F2BF32AEA1B6A008F0EEFB287C00283D
:101E300000DD05E04FF47072A9A1BAA008F0E4FB40
:101E4000F06910B9F561BDE8F081F469F76913E054
:101E500069686068FFF7AEFF40B1F069A04202D147
:101E60002C60F56101E03D602C60ECE7206808B96A
:101E70002560E8E727462468002CE9D100BFE2E7A7
:101E80000146086808B9002070470A6808680068B9
:101E90000860C888401CC8800B89C888834201DA62
:101EA000CB880B811046EFE770B505462846FFF753
:101EB000E7FF04460CB9002070BD1421204608F04D
:101EC0007CFC2046F8E72DE9FF4F83B08146884629
:101ED0009246119CB9F1000F00D005E040F2663245
:101EE0007FA187A008F090FB28F06040404500D11A
:101EF00005E040F267327AA191A008F085FBBAF1C3
:101F0000000F04D16FF0010007B0BDE8F08F002C86
:101F100004DD109810B96FF00100F5E74FF0000BE9
:101F2000082C23DA09F10C00FFF7BEFF054615B9AE
:101F30006FF00200E8E7224605F10800109908F06A
:101F4000A3FB601C28749AF8000000F01F0040F00A
:101F5000C00105F10800015548F0004068602946BD
:101F60004846FFF757FF0BF1010B5AE0002600200F
:101F70000290802001900020009000254EE009F1A1
:101F80000C00FFF791FF054615B96FF00200BBE7A3
:101F9000002736B90698287206980112697202273E
:101FA00000E0002708E01098815D05F10800C155A8
:101FB000781CC7B2701CC6B2072F01DAA642F2DB4A
:101FC000A64201D1402000E001980190DDE9010125
:101FD00040EA41109AF8001001F01F010843C1B215
:101FE00005F10800C15548F000406860781C28746D
:101FF00029464846FFF70EFF0BF1010B029880F0CF
:102000000100029000200190009003E00098401C25
:10201000C0B200900098FE28F8DB00BFA01BAED134
:1020200000BF584670E710B580EA0120002210E09A
:1020300000F4004343B14FF6FF7303EA400341F25B
:10204000210483EA040003E04FF6FF7303EA400033
:10205000521C082AECDB10BD70B506460C4615462E
:1020600005E014F8011B3046FFF7DDFF0646281E89
:10207000A5F10105F5D1304670BD2DE9F047814647
:102080001746984600240EE022463D46464628461E
:10209000314608F0A9F900F0FF0A51464846FFF71B
:1020A000C2FF81460834402CEEDB4846BDE8F0878D
:1020B0002DE9FF5F84B017469846DDE913A6DDE9F8
:1020C0001594129D002003904FF6FF7BB9F1000F8D
:1020D00048D1002C46DD801E08B0BDE8F09F00000E
:1020E0002E2E5C48415244574152455C43414E5C60
:1020F00063616E6172642E63000000006F75745F2F
:10210000696E7320213D2030000000003000000087
:102110007472616E736665725F696420213D203060
:10212000000000006974656D2D3E6672616D652E5C
:10213000646174615F6C656E203E203000000000B9
:102140002863616E5F6964202620307831464646F8
:10215000464646465529203D3D2063616E5F6964D1
:10216000000000001F2E04DD6FF0010008B0BDE884
:10217000F09F0498FFF708FE18BB072C02DD6FF0F4
:102180000300F3E705F00300A84202D06FF001005E
:10219000ECE7224649464FF6FF70FFF75DFF47F632
:1021A000FE71084001900498FFF7EEFD3206019998
:1021B00042EA412105F0030241EA0221084303906B
:1021C00015E00498FFF7E0FD310641EA05210843D8
:1021D0000390072C0BDD3A4643465846FFF74DFF68
:1021E0008346224649465846FFF736FF83465B46FC
:1021F0005246CDE90094DDE90310FFF764FE02903A
:102200005046FFF7C4FD0298B0E72DE9FF5F84B0A8
:10221000894617469846DDF84CA0DDE9165435B9D5
:10222000002C04DD6FF0010008B0BDE8F09F1498A9
:102230001F2802DD6FF00100F6E70498FFF7A4FD08
:1022400010B96FF00300EFE70498FFF79DFD1499B4
:102250000A06129942EA0142159942EAC13141EA5D
:10226000092141F0800140EA010B4FF6FF76072C6F
:102270000BDD3A4643463046FFF7FFFE0646224650
:1022800029463046FFF7E8FE064633465246594691
:10229000CDE900540498FFF716FE03901598012825
:1022A00002D15046FFF773FD0398BDE70146C869A8
:1022B00008B900207047C869001DFBE770B50446E7
:1022C0000D462E46206830602660E088002800DD3C
:1022D00006E040F22F62AFF2F811FAA008F094F98C
:1022E000E088401EE08070BD70B50446E56928684E
:1022F000E061294604F10C00FFF7E0FF70BD10B566
:102300000446606800B906E040F22942AFF230218D
:10231000F8A008F079F9208B800A401CA16960F3CD
:102320008E21A161A0696FF30900A061A06920F46A
:102330000040A06110BD70B505460C4608E0E0689D
:10234000066805F10C00E168FFF7B8FFE66000BF22
:10235000E0680028F3D1E060A0602061A08270BD39
:1023600070B505460C4608E06068066805F10C008B
:102370006168FFF7A3FF666000BF60680028F3D1C3
:10238000A0696FF30900A0610020014670BD70B51F
:1023900005462846FFF774FD04460CB9002070BDC1
:1023A000002020602046FAE72DE9FF5F0C469046AA
:1023B0001E460027208BC0F30900C0F1060000284C
:1023C0001CDD218BC1F3090008E018F8072004F197
:1023D0001A010A54411C88B2791C8FB2062801D216
:1023E000B742F2DBB74209DB208B8119A06961F3A8
:1023F0000900A061012004B0BDE8F09F208BC0F36C
:102400000900801F1C21B0FBF1F201FB120900251D
:10241000606858B90098FFF7BAFF6060606808B953
:10242000E81EE8E765684FF0000926E04FF0010A72
:10243000656804E00AF1010000F0FF0A2D682868D1
:102440000028F7D1208BC0F309003044801F1C21E5
:10245000B0FBF1F0401C00F0FF0BD3450CDDB9F1EF
:10246000000F09D10098FFF792FF2860286810B983
:102470006FF00200BFE72D6800BF1BE0484607E091
:1024800018F80720291D0A54411C88B2791C8FB204
:102490001C2801D2B742F3DBB7420BDA0098FFF7F2
:1024A00076FF2860286810B96FF00200A3E72D6856
:1024B0004FF00009B742E1DB208B8119A06961F37D
:1024C0000900A061012096E70246881A002800DA78
:1024D00020307047024605E01069884201D110465D
:1024E00070471268002AF7D10020F9E770B588B06C
:1024F00006460C462021684608F05FF904943046F1
:10250000FFF7BEFC054615B9002008B070BD2022BB
:102510006946284608F0FDF82846F6E770B50446F7
:102520000E46314604F10C00FFF7E0FF05460DB9F9
:10253000002070BDA0692860A5612846F9E770B544
:1025400005460E46AC695CB9314605F10C00FFF753
:10255000CDFF04460CB9002070BDAC612046FBE7FE
:1025600031462046FFF7B6FF04460CB12046F3E79C
:1025700031462846FFF7D2FFEEE70146C1F3C0120D
:102580000AB902207047C1F3C03008B10120F9E751
:102590000020F7E710B504462046FFF7EEFF0228BB
:1025A00007D1C4F30F2004F07F0109B900F0030044
:1025B00010BDC4F30740FBE72DE9F04F97B082460A
:1025C0000D46174698462868FFF7D7FF8346BBF1AC
:1025D000020F01D1002002E02888C0F306201690E7
:1025E000BBF1020F08D05046FFF7CEFB1699884288
:1025F00002D017B0BDE8F08F2868C0F304601590D2
:10260000287800F07F0014902868FFF7C3FF13902C
:10261000139840EA0B41149841EA8041169841EA28
:1026200040601290287B401E291D0E5C0024F0099A
:1026300000B300200A900B90149800905B46DAF8E3
:1026400004C00AA95046139AE04788B1504612992F
:10265000FFF775FF044604B9CBE74FF6FF70DDE9DD
:102660000A23FFF70AFD616960F31F41616100E021
:10267000BFE707E0DAF818001299FFF72BFF0446CE
:1026800004B9B6E704B106E04FF49E72AFF2B05160
:102690001FA007F0B9FF0022D4E9021051405040BA
:1026A000014301D1012000E000201190D4E9020192
:1026B0003A1A68EB01001A4B00219A1A814131D273
:1026C000012030E0616C6C6F6361746F722D3E733A
:1026D0007461746973746963732E63757272656E65
:1026E000745F75736167655F626C6F636B73203EC7
:1026F0002030000073746174652D3E6275666665F6
:10270000725F626C6F636B73203D3D203000000090
:1027100072785F737461746520213D203000000081
:1027200080841E0000201090F0090F9006F01F0119
:10273000228BC2F38420FFF7C7FE012801DD0120B0
:1027400000E000200E90119828B9109818B90F9841
:1027500018B10E9808B1012000E000200D900D98EE
:10276000A8B1A06966F38E20A061A06920F40040A2
:10277000A06121465046FFF7F3FDF00938B9208BE0
:10278000800A401CA16960F38E21A16131E7F00944
:1027900048B3C6F3801030B3C4E90278202104A8FE
:1027A00008F00BF8CDE90478281D0690287B401E20
:1027B000C0B2ADF824001398ADF826008DF828B00B
:1027C00006F01F008DF8290015988DF82A0014983E
:1027D0008DF82B0004A95046DAF8082090472046CF
:1027E000FFF78DFD05E7208BC0F3C030C6F3401125
:1027F000884200D0FDE606F01F00218BC1F3842142
:10280000884200D0F5E6F00978B3C6F3801060BBCB
:10281000287B032800DCECE6C4E90278287BC01E94
:10282000C3B2AA1D21460AF10C00FFF7BDFD814687
:10283000B9F1000F07DA21465046FFF791FD204617
:10284000FFF75DFDD5E62979687941EA0020A0828D
:10285000297BC91ECAB26169080CA91DFFF7FCFBE0
:10286000616960F31F416161CDE0FFE7F00928BBBA
:10287000C6F3801010BB287B401EC3B22A1D214620
:102880000AF10C00FFF790FD8146B9F1000F07DA5D
:1028900021465046FFF764FD2046FFF730FDA8E6CD
:1028A000297B491ECAB26169080C291DFFF7D4FBB8
:1028B0000146606961F31F406061A3E0287B401E10
:1028C000C0B20C904FF00009208BC0F3090006281D
:1028D00014D2218BC1F309000AE0291D11F8092047
:1028E00004F11A010A54401C09F1010101F0FF0929
:1028F000062843D20C998945EFDB3FE060680390DE
:102900000398D0B30620029005E003980068039076
:1029100002981C300290039800680028F5D10398B3
:1029200000B106E04FF4D972AFF64C01F9A007F000
:102930006BFE208BC0F309010298081A01900198E0
:102940001C2800D206E040F2B512AFF66C01F44844
:1029500007F05AFE01980AE0291D11F80920039991
:10296000091D0A54401C09F1010101F0FF091C284E
:1029700002D20C998945EFDB00BF00BFCDE9047896
:1029800004F11A000690606807900C98814501DBFD
:10299000002001E0281D48440890208BC0F3090165
:1029A0000C980844ADF824001398ADF826008DF873
:1029B00028B006F01F008DF8290015988DF82A0020
:1029C00014988DF82B0000206060297B4A1E6169F5
:1029D000080C291DFFF740FB616960F31F4161612D
:1029E000A08A6169B0EB114F04D104A95046DAF80E
:1029F0000820904704A95046FFF79DFC2046FFF7AA
:102A00007EFCF6E500BF208BC00BC143A06961F3DB
:102A1000CF30A06100BFECE52DE9F0410446174638
:102A20009846A669A5692AE0D5E902013A1A68EB39
:102A30000100BC4B00219A1A81411ED2A069A84214
:102A40000ED129462046FFF78BFCA0690068A061E3
:102A5000294604F10C00FFF731FCA5692E460EE073
:102A600029462046FFF77CFC28683060294604F19F
:102A70000C00FFF723FC356801E02E462D68002D81
:102A8000D2D1BDE8F0812DE9F0410746884607B173
:102A900006E040F2C552AFF6B811A3A007F0B4FDAE
:102AA0003C460025A8F1010606E0605DA15D615588
:102AB000A0556D1C761E00BFB542F6D3BDE8F0816F
:102AC00008B5012000909DF80100012800D108BD43
:102AD0000020FCE72DE9F05F80460C4691461E463B
:102AE0000A9DB9F1000F00D006E040F23152AFF676
:102AF000102190A007F088FD08EBD40806EBD5065E
:102B000004F0070405F0070504EB090738E004F0BA
:102B1000070305F00700834201DD9B4600E0834682
:102B2000DC46A7EB040BCCF1080EF34502D2A7EB71
:102B3000040B01E0CCF1080B59464FF47F4B2BFA04
:102B400001FB0BF0FF0B4BFA00F208EBD40B9BF8E8
:102B500000B00BFA03FB4BFA00FB0BF0FF0A06EB8D
:102B6000D50B9BF800B02BEA020B0AEA020E4BEAE7
:102B70000E0B06EBD50E8EF800B00C440D4400BFD2
:102B8000381BC4D1BDE8F09F2DE9FF4F85B0054645
:102B9000894605B106E040F25252AFF6BC2169A069
:102BA00007F032FDA88AB9EBC00F03D3002009B0AB
:102BB000BDE8F08F079809EB0001A88AB1EBC00FC0
:102BC00004D9287DC9EBC000C0B20790079800283F
:102BD00000DD06E040F25E52AFF6FC215DA007F09A
:102BE00013FDE86810B9286900287DD04C464FF0E5
:102BF000000A079E302C1AD2C4F13000B04201D92D
:102C0000304601E0C4F1300000F0FF0800200090E1
:102C1000A86842462146089BFFF75CFF44440AEB44
:102C2000080000F0FF0AA6EB0800C6B200BFA88AA1
:102C30003021C1EBC00004903027E86803904FE0DA
:102C4000049800B106E040F27F52AFF66C3145A027
:102C500007F0DAFC0498E02801D9E02000E00498AD
:102C600000EB0708A04527D9A8EB0400B04201D922
:102C7000304601E0A8EB040000F0FF0BBC4200D39B
:102C800006E04FF4B162AFF6A8313BA007F0BCFC00
:102C9000E01B0290CDF800A05A46DDE90210001DAD
:102CA000089BFFF717FF5C440AEB0B0000F0FF0ADC
:102CB000A6EB0B00C6B200BFB84500D906E040F253
:102CC0009252AFF6E43136A007F09EFCA8EB070164
:102CD0000498401A0490474603980068039000BF88
:102CE000039818B1002E00E0BCE0A9DC04988642ED
:102CF00000D806E04FF4B362AFF61C4132A007F0F3
:102D000083FC286920B1002E02DDBC4270D377E03D
:102D100087E06DE0626C6F636B20213D2030000026
:102D200054C4000880841E006461746120213D2029
:102D3000300000007372635F6C656E203E2030557A
:102D4000000000007472616E7366657220213D2080
:102D5000300000006269745F6C656E677468203EC5
:102D60002030000072656D61696E696E675F62692F
:102D70007473203E20300000696E7075745F626964
:102D8000745F6F6666736574203E3D20626C6F638E
:102D90006B5F6269745F6F66667365740000000044
:102DA000626C6F636B5F656E645F6269745F6F66B0
:102DB00066736574203E20626C6F636B5F6269743A
:102DC0005F6F66667365740072656D61696E696ECA
:102DD000675F6269745F6C656E677468203C3D2054
:102DE00072656D61696E696E675F62697473000018
:102DF00040F29D52AFF61851AFF2840007F004FC88
:102E0000A4EB0708CDF800A0286932464146089B8C
:102E1000FFF760FE34440AEB060000F0FF0A0026CC
:102E200000BFA88AB4EBC00F00D806E04FF4B5622B
:102E3000AFF65451F2A007F0E7FBBAF1400F00DC07
:102E400006E040F2A952AFF66851F9A007F0DCFBAA
:102E500006B906E040F2AA52AFF67C51FAA007F09C
:102E6000D3FB07E000200090A8684946DDE907236E
:102E7000FFF730FE07989AE62DE9FF4F85B014461C
:102E80009846129D059800B125B96FF0010009B070
:102E9000BDE8F08F012C01DB402C02DD6FF001005A
:102EA000F5E7012C04D1B8F1000F01D0E01EEEE7E8
:102EB0000020009001906B462246DDE90501FFF7F6
:102EC00063FE0646002E01DC3046E0E7002E04DDFE
:102ED000402E02DCA64200DC06E040F22E22AFF6D5
:102EE0000061E0A007F090FBE11704EB5171C910FD
:102EF000A4EBC101F1B12046E31704EB5373DB10DF
:102F00001DF8033021464FEAE47C04EB5C7C4FEA79
:102F1000EC0CA4EBCC0CCCF1000C0CF0070C43FA3D
:102F20000CF322464FEAE47C04EB5C7C4FEAEC0CA9
:102F30000DF80C300027012C01D1012717E0082CD7
:102F400001DC012713E0102C01DC02270FE0202C0C
:102F500001DC04270BE0402C01DC082706E040F2EE
:102F60004722AFF68461BEA007F04EFB00BF002FE2
:102F700002DD082F00DC06E040F24B22AFF6A06134
:102F8000C7A007F041FBFFF79BFD18B13946684623
:102F9000FFF779FDB8F1000F79D0B4EBC70F76D009
:102FA000082C12DC9DF90000611E01228A401040AD
:102FB00000286CD09DF800100120A040401E61EA5E
:102FC000000148B28DF8000061E0102C12DCBDF960
:102FD0000000611E01228A401040002857D0BDF831
:102FE00000100120A040401E61EA000108B2ADF8C7
:102FF00000004CE0202C0DDC611E01228A4000986C
:103000001040D8B30120A040401E009961EA0001A1
:1030100000913CE0402C32DA621E4FF001090020A2
:10302000DDE900AB02904846029907F0CAF90AEAC6
:10303000000A0BEA010B00218AEA010A8BEA010B64
:103040005AEA0B0A22D0224601210020DDE900AB1A
:10305000CDE903010846039907F0B3F9401E61F179
:103060000002C143D0434FF0FF32114010404AEA02
:10307000010A4BEA000BCDE900AB07E007E04FF493
:103080001E72AFF6A47176A007F0BEFA00BFB8F1C9
:10309000000F1FD0082C03DC9DF8000028703EE0D4
:1030A000102C03DCBDF80000288038E0202C02DC66
:1030B0000098286033E0402C04DCDDE90001C5E91C
:1030C000000106E04FF42272AFF6EC7164A007F045
:1030D0009BFA24E0012C03D19DF8000028701EE02B
:1030E000082C03DC9DF80000287018E0102C03DC8D
:1030F000BDF80000288012E0202C02DC0098286037
:103100000DE0402C04DCDDE90001C5E9000105E02B
:1031100040F295226E4952A007F076FA00BFA6420F
:1031200000DC05E040F29A2269496AA007F06CFAD7
:10313000002E00DD05E040F29B2265496BA007F000
:1031400063FA3046A3E62DE9FF4706468846144653
:103150001D4606B105E040F2A9225D4966A007F0D0
:1031600053FA05B105E040F2AA22594967A007F0D9
:103170004BFA402C05DD40F2AE22554938A007F04D
:1031800043FA012C05DA4FF42D72514934A007F0AF
:103190003BFA0020029003900027012C08D1012760
:1031A000287808B1012000E000208DF8080022E016
:1031B000082C04DC012728788DF808001BE0102C6F
:1031C00004DC02272888ADF8080014E0202C03DC7A
:1031D0000427286802900EE0402C05DC0827D5E97A
:1031E0000001CDE9020105E040F2D12238491CA0DE
:1031F00007F00AFA00BF002F00DD93E08CE000002A
:10320000696E7075745F6269745F6F66667365740A
:10321000203C3D207472616E736665722D3E706154
:10322000796C6F61645F6C656E202A203800000045
:103230006F75747075745F6269745F6F66667365CD
:1032400074203C3D2036340072656D61696E696E94
:10325000675F6269745F6C656E677468203D3D20CE
:103260003000000028726573756C74203E20302990
:103270002026262028726573756C74203C3D20360C
:1032800034292026262028726573756C74203C3DF5
:10329000206269745F6C656E6774682900000000C5
:1032A000287374645F627974655F6C656E677468B7
:1032B000203E20302920262620287374645F6279FE
:1032C00074655F6C656E677468203C3D203829002A
:1032D000E0200008726573756C74203C3D206269C3
:1032E000745F6C656E6774680000000072657375CA
:1032F0006C74203E2030000064657374696E6174E4
:10330000696F6E20213D20300000000076616C75F1
:103310006520213D203000004FF43572554956A0FC
:1033200007F072F9FFF7CCFB18B1394602A8FFF796
:10333000AAFBE11704EB5171C910A4EBC10111B351
:103340002046E31704EB5373DB100DF1080C1CF857
:10335000033021464FEAE47C04EB5C7C4FEAEC0C42
:10336000A4EBCC0CCCF1000C0CF0070C03FA0CF322
:1033700022464FEAE47C04EB5C7C4FEAEC0C0DF156
:10338000080909F80C3033462246002102A8CDF87E
:103390000080FFF79FFBBDE8FF870B6903608A8A07
:1033A000828070472DE9FF41044638480068039049
:1033B0003648001D006802903448083000680190CB
:1033C0004FF000474FEAE7480094009800F00045AE
:1033D00000986840009000260399009888420AD31C
:1033E00003990098884202D947F6FF7001E04FF434
:1033F000F840064615E000986FF30B000090DDE9F9
:10340000000108F055FE0090009800F580500090F3
:1034100002990098884201D9029800900098C0F360
:103420004F3646EA1546304604B0BDE8F0813EB559
:10343000044616480C3000680290144810300068AA
:1034400001906004000900900299009808F030FE95
:103450000090DDE9000108F0F7FE03D8009840F085
:10346000FF40009004F40041009840EA01400090C1
:1034700000983EBDE02000087374645F6279746553
:103480005F6C656E677468203E203000B0C2000833
:1034900000B58DB00121084604F02FF9FE4806F072
:1034A000E9F9FE480290FE4803900020049006903F
:1034B000802007904000089002A9F74806F07CFAA7
:1034C00001220221F44806F0AEFA0B208DF8040028
:1034D00005208DF8050001208DF8070001A803F0F4
:1034E00094FD0121EC4806F092FA0DB000BD00B544
:1034F00087B00121042004F01AF942F21070ADF8EF
:103500001400E8480068E849B0FBF1F0401E80B2C2
:10351000ADF810000020ADF81600ADF8120004A9B7
:10352000E24805F02BF96020ADF800000120ADF86D
:10353000020041F28830ADF806000220ADF8080024
:103540006946DA4805F031FA0121D84805F08CFCCB
:10355000D64805F0BDFC0821D44805F0D4FD002173
:10356000D24805F0CDFE07B000BD00B587B00121FF
:103570004FF4057004F0CEF84FF4004004F02EF83C
:10358000E020ADF8040000208DF8070001A9C8482C
:1035900003F004FE3020ADF8040000208DF8070091
:1035A00001A9C44803F0FAFDBC484C3805F03AFFC5
:1035B0000020029001208DF80C0000208DF80D00F5
:1035C0004FF4202004900020059005208DF818006D
:1035D00002A9B2484C3805F04CFF03230122052113
:1035E000AE484C3805F0DDFF032302220621AB482C
:1035F0004C3805F0D6FF03231A460721A7484C385C
:1036000005F0CFFF032304220E21A4484C3805F017
:10361000C8FF032305220F21A0484C3805F0C1FF45
:1036200001219E484C3805F050FF9C484C3805F06D
:103630006EFF00BF99484C3805F06EFF0028F9D1A5
:1036400096484C3805F072FF012194484C3806F03A
:1036500004F8FFF71DFF012190484C3805F040FFAA
:10366000FFF745FF07B000BD1FB501211C2004F086
:1036700051F81020ADF80C0004208DF80F0003A9BC
:103680008B4803F08BFD44F20100ADF80C000420E0
:103690008DF80F0003A9884803F080FD4FF40070F7
:1036A000ADF80C0004208DF80F0003A9814803F049
:1036B00075FD0121084604F02DF80421002003F0D7
:1036C00083FE0021012003F07FFE0E21012003F084
:1036D0007BFE0921022003F077FE44F211200190C5
:1036E00000208DF808000C208DF8090001208DF8CD
:1036F0000A0001A806F0F6F917208DF80000022054
:103700008DF8010001208DF802008DF80300684655
:1037100003F07BFC28208DF80000684603F075FC60
:103720000A208DF80000684603F06FFC08208DF831
:103730000000684603F069FC07208DF80000684629
:1037400003F063FC06208DF80000684603F05DFC82
:103750001FBD08B50121082003F0DCFF4FF48040B5
:10376000ADF8000004208DF803006946524803F0CC
:1037700015FD08BD08B50121082003F0CBFF4FF46B
:103780008040ADF8000010208DF8030003208DF874
:1037900002006946484803F001FD002047490860DF
:1037A00008BD0EB50121092003F0B4FF01214448F2
:1037B00003F0C5FD43F20A00ADF8080004208DF8BF
:1037C0000B0002A93C4803F0E9FC0121084603F084
:1037D000FBFD0D21012003F0F7FD0121202003F066
:1037E00099FF0420ADF808008DF80B0002A93548B8
:1037F00003F0D4FC0221032003F0E6FD0121102098
:1038000003F088FF4FF41C40ADF8080004208DF849
:103810000B0002A9274803F0C1FC0121042003F09A
:1038200079FF4FF4E060ADF8080004208DF80B003C
:1038300002A91F4803F0B2FC0A21002003F0C4FDD6
:103840000921002003F0C0FD0821002003F0BCFD89
:1038500042F20670009000208DF8040008208DF8D8
:10386000050001208DF80600684606F03BF90EBD04
:1038700010B5022006F005F930B30021064806F025
:10388000C6F8002105484C3805F01FFE0521024806
:1038900006F0D2F8022018E0080002404C24014053
:1038A000DC00002040000020A0860100000800404D
:1038B0000008014000100140000C0140B881214285
:1038C000000230000014014008E006F0EEF802208B
:1038D00006F0CCF80120A74981F8240010BD2DE99D
:1038E000F04786B0A348B0F888004FF47A71484397
:1038F00040F6FF7190FBF1FA504608F07EF98046E1
:103900004FF066329C4B08F08FF9064600229B4B25
:1039100008F08AF9044608F043F981B29548A0F806
:103920009210B0F88A004FF47A71484340F6FF7164
:1039300090FBF1FA504608F060F94FF066328E4B7A
:10394000CDE9000108F070F9064600228C4B08F022
:103950006BF900228B4BCDE9020107F099FF8046FD
:103960000022894B07F094FF0446884A884B07F0F1
:103970008FFFCDE9040108F013F981B27D48A0F86A
:103980009410B0F88C00362148430A2190FBF1F0E6
:1039900081B27848A0F89610B0F88E0000EBC00015
:1039A00000EB4000642190FBF1F081B27148A0F877
:1039B0009810B0F890004FF47A71484340F6FF71C8
:1039C00090FBF1FA504608F018F94FF066326A4B56
:1039D000CDE9000108F028F90022694BCDE9020188
:1039E00008F022F906460022664B07F051FF044614
:1039F0000022654B07F04CFF8046644A644B07F099
:103A000047FFCDE9040108F0CBF881B25948A0F88E
:103A10009A1006B0BDE8F08710B504215D4803F0A8
:103A200050FC012809D181025B4803F04AFC20B90F
:103A30000121504880F8AC1027E00421554803F0DC
:103A400040FC58B94FF48061534803F03AFC012818
:103A500004D10221474880F8AC1016E004214D48FB
:103A600003F02FFC50B94FF480614B4803F029FC60
:103A700020B903213F4880F8AC1006E000213D4802
:103A800080F8AC1045A006F0C3FC4FF4005150483C
:103A900003F017FC012809D102214D4803F011FC65
:103AA00020B90221334880F8AD1027E04FF40051CF
:103AB000474803F006FC50B90221454803F001FCD9
:103AC000012804D101212B4880F8AD1016E04FF4F5
:103AD00000513F4803F0F5FB48B902213C4803F090
:103AE000F0FB20B90321234880F8AD1006E0002147
:103AF000204880F8AD1037A006F08AFC4FF48071A2
:103B0000254803F0DEFB012809D14102224803F0D9
:103B1000D8FB20B90221174880F8AE1029E04FF4F5
:103B200080711D4803F0CDFB58B94FF400711A485D
:103B300003F0C7FB012804D101210E4880F8AE1024
:103B400017E04FF48071144803F0BBFB50B94FF4F9
:103B50000071114803F0B5FB20B90321054880F836
:103B6000AE1006E00021034880F8AE1027A006F052
:103B70004FFC10BD5400002066660A40000026403D
:103B80000000104000000840000034409A999999C4
:103B90009999C93F00140140000801404572726FB5
:103BA000723A20465720627567206F72204857206E
:103BB0006661756C742068617070656E20746F202A
:103BC0006C69667465722073656E736F72730A0038
:103BD000000C01404572726F723A204657206275A0
:103BE00067206F72204857206661756C7420686189
:103BF0007070656E20746F207570706572646F6F81
:103C0000722073656E736F72730A00004572726F73
:103C1000723A20465720627567206F7220485720FD
:103C20006661756C742068617070656E20746F20B9
:103C30006C6F776572646F6F722073656E736F72ED
:103C4000730A000010B50446204603F018F810BDB2
:103C500010B504460121084603F05CFD0121AB4884
:103C600003F06DFBAA48006820F07040A849086086
:103C70000846006840F04050086010BD10B504468A
:103C80000121084603F046FD0121A04803F057FB3F
:103C90009F48006820F070409D4908600846006811
:103CA00040F00040086010BD10B5044694B14FF4D8
:103CB00000419748001F03F020FB0620FFF7C2FFDA
:103CC0004FF400419248001F03F015FB4020FFF71E
:103CD000B9FF11E04FF400418D48001F03F00DFBC8
:103CE0004020FFF7AFFF4FF400418948001F03F069
:103CF00002FB0520FFF7A6FF10BD10B54FF40040F2
:103D0000FFF7A6FF4FF400418148001F03F0F5FACA
:103D10000220FFF797FF4FF400417D48001F03F09A
:103D2000EAFA4FF40040FFF7A9FF0C20FFF78AFFE3
:103D30004FF400417648001F03F0C3FA00F001047D
:103D40003220FFF77FFF204610BD70B504464FF4C8
:103D50000040FFF77DFF0620FFF774FF002505E018
:103D600004F00100FFF7A0FF64106D1C082DF7DBC5
:103D700070BD70B50026002506E0FFF7BEFF0446C3
:103D8000E00140EA66066D1C082DF6DB304670BD8A
:103D900010B54FF40040FFF75BFF4FF400415C4863
:103DA000001F03F0AAFA40F2EE20FFF74BFF4FF49A
:103DB00000415748001F03F09EFA0F20FFF742FF13
:103DC00010BD10B500244FF40040FFF757FF04E08A
:103DD000601CC4B20120FFF735FF4FF400414C488E
:103DE000001F03F06EFA08B1C82CF1DBC82C01DB10
:103DF000012010BD002404E0601CC4B20A20FFF7BB
:103E000021FF4FF400414248001F03F05AFA08B95D
:103E1000182CF1DB182C01DB0120EAE70020E8E791
:103E200008B50121042003F075FC0121084603F0C8
:103E300071FC0121354803F082FA4FF40040ADF8DF
:103E4000000010208DF8030003208DF80200694661
:103E50002F48001F03F0A2F94FF400412C48001F27
:103E600003F049FAFFF794FFFFF7ABFF08BD10B569
:103E7000FFF78EFFFFF7A5FFCC20FFF766FF44207A
:103E8000FFF763FF10BD2DE9F05FFFF7F0FFFFF7CD
:103E90007FFFFFF796FF8346CC20FFF756FFBE203B
:103EA000FFF753FFFFF765FF00F0FF0AFFF761FF21
:103EB000C4B2072C08DDE043C4B26FEA0A0000F088
:103EC000FF0A4FF0000B01E04FF0010BA1464FEA53
:103ED00009200FFA80F909EB0A000FFA80F9484629
:103EE00007F08BFE074600220A4B07F09DFE0546B1
:103EF00007F026FE0FFA80F9BBF1000F02D048460A
:103F0000BDE8F09FC9F1000000B2F9E700023000FF
:103F1000040801400000E43F08B50121102003F02F
:103F2000F9FB0720ADF8000010208DF803000320F6
:103F30008DF802006946F74803F030F90020F64991
:103F40000860F649C1F88001F349091D086008BD01
:103F500070B504460D46112C08D12946F04805F0ED
:103F60001BFA0021EE4805F019FA21E0122C08D1C5
:103F70000021EB4805F010FA2946E94805F00EFA51
:103F800016E0132C08D10021E54805F005FA0021C0
:103F9000E34805F003FA0BE0142C09D14FF4FA7151
:103FA000DF4805F0F9F94FF4FA71DD4805F0F6F94C
:103FB00070BD0146012908D10020D74A121F1060A8
:103FC0000120D64AC2F8840117E0022908D1012055
:103FD000D14A121F10600020D04AC2F884010CE0C0
:103FE000032907D10020CC4A121F1060CB4AC2F827
:103FF000840102E04FF0FF3070470020FCE72DE91C
:10400000F04106460C460025012E26D1FFF7D1FFD0
:10401000074617B1681EBDE8F08150212046FFF722
:1040200097FF112C09D100E06D1C4FF48061B94855
:1040300003F047F90128F7D10AE0122C08D100E07B
:104040006D1C4FF48051B34803F03BF90128F7D1C0
:1040500014210846FFF77CFF33E0022E2ED1022008
:10406000FFF7A7FF50212046FFF772FF112C0FD159
:1040700006E06D1CB5F5801F02D34FF0FF30CAE794
:104080004FF40061A34803F01CF90128F1D110E0BE
:10409000122C0ED106E06D1CB5F5801F02D34FF037
:1040A000FF30B8E74FF480519E4803F00AF9012829
:1040B000F1D114210846FFF74BFF02E09AA006F069
:1040C000A7F90020A7E770B504460D46A24890F86E
:1040D000480015282DD1112C08D1A9B2800705F070
:1040E0005FF90021A00705F05DF922E0122C08D14C
:1040F0000021600705F054F9A9B2600705F052F9F4
:1041000017E0142C0CD10021200705F049F90021FB
:10411000200705F047F914208F4981F8480008E08E
:10412000132C06D100208D49086013208A4981F89C
:10413000480070BD70B504460025012C6ED1010306
:10414000744803F0BEF8012868D000218248A0F826
:104150005A1000207049091F086001206F49C1F8FA
:10416000840196211220FFF7F3FE01216C4804F030
:104170007BFE17E06D1C7A48854213D34FF48061B3
:10418000644803F09EF8012804D103217248A0F886
:104190005A1003E004217048A0F85A1071A006F0EC
:1041A00037F906E04FF480515A4803F08AF80128A5
:1041B000E0D100BF4FF4FA711420FFF7C9FE4FF4AD
:1041C0008061544803F07DF8012804D1022162483F
:1041D00080F8AA100FE04FF480514E4803F071F8B8
:1041E000012804D101215C4880F8AA1003E00321D2
:1041F000594880F8AA105848B0F85A0000280CD046
:104200005548B0F8B800401C81B25348A0F8B81027
:10421000B0F85A1061A006F0FBF807E1022C69D152
:10422000E102404803F04DF8012863D000214A48DC
:10423000A0F86A1000203849086001203749C1F809
:10424000800196211220FFF783FE0121344804F0FB
:104250000BFE002514E06D1C4148854210D34FF43D
:1042600000612C4803F02DF8012804D103213A48BD
:10427000A0F86A1003E004213748A0F86A1006E0AD
:104280004FF48051274803F01CF80128E3D100BF08
:1042900050211420FFF75CFE4FF48051214803F0B9
:1042A00010F8012804D101212B4880F8AB100FE051
:1042B0004FF40061174803F004F8012804D10221EB
:1042C000254880F8AB1003E00321234880F8AB10A9
:1042D0002148B0F86A00D0B11F48B0F8B800401CBF
:1042E00081B21D48A0F8B810B0F86A103AA006F0E4
:1042F0008FF89BE0012C0BD12103064802F0E1FF6F
:10430000012805D10121144880F8AA108EE08DE023
:1043100080E000000010014084012242000022429F
:1043200000040040000C01404572726F723A205444
:10433000686520696E70757420706172616D657456
:1043400065727320617265206E6F7420636F727284
:10435000656374210A00000054000020BC812142E2
:1043600000449508204572726F723A206F6E652086
:104370006F66207468652075707065726C6F636B12
:104380006572207377697463682068617320707246
:104390006F62656C6D2E200D0A0000004572726F11
:1043A000723A205468652075707065726C6F636B2B
:1043B0006572206661696C7320746F206C61746330
:1043C0006820696E2C206572726F72636F6465205D
:1043D00069732025640D0A004572726F723A205489
:1043E0006865206C6F7765726C6F636B65722066B1
:1043F00061696C7320746F2072656C656173652CE4
:10440000206572726F72636F646520697320256422
:104410000D0A0000022C09D1E102FE4802F051FF12
:10442000012803D10121FC4880F8AB1070BD70B5A4
:1044300004460D461646B5F5617F02DD4FF4617501
:1044400002E0C82D00DAC825012E02D0022E54D178
:1044500029E0F14890F82800152823D1112C08D123
:10446000A9B2EE4804F098FF0021EC4804F096FF52
:1044700018E0122C08D10021E84804F08DFFA9B201
:10448000E64804F08BFF0DE0142C0BD11420E24918
:1044900081F828000021E14804F07EFF0021DF4878
:1044A00004F07CFF29E0DC4890F83800152823D17F
:1044B000112C08D1A9B2D94804F072FF0021D748C5
:1044C00004F070FF18E0122C08D10021D34804F04A
:1044D00067FFA9B2D14804F065FF0DE0142C0BD1A1
:1044E0000021CE4804F05CFF0021CC4804F05AFFC4
:1044F0001420C94981F8380000BF00BF70BD70B5F5
:1045000004460D46012229462046FFF790FF02226D
:1045100029462046FFF78BFF70BD70B5BE4890F866
:10452000A100012876D1BC4890F8A3000028F9D159
:10453000B94BB3F8E020D3F8E410186AFBF768FE33
:10454000002868D1B44890F8E8000028EAD1B248C1
:1045500090F8C40003286DD0AF4890F8C420002123
:104560001420FFF764FFAC4890F8C40001282CD158
:10457000A94890F8C500112802D012281BD10CE0E0
:104580000221A44802F09DFE18B14121A2484185B4
:1045900002E00321A04841850DE04FF400519D4801
:1045A00002F08FFE18B141219B48418502E00321B2
:1045B0009948418500BF00BF9748B0F8B000401C43
:1045C00081B29548A0F8B01092E0934890F8C400EA
:1045D0000228F9D1904890F8C500112802D012287D
:1045E0001ED10DE04FF400718D4802F06AFE18B143
:1045F00041218948418702E00321874841870FE034
:104600004FF48071864802F05CFE28B14121824857
:10461000418704E0B9E07AE003217F48418700BF89
:1046200000BF7D48B0F8B400401C81B27A48A0F8C1
:10463000B4105DE000211420FFF761FF764890F888
:10464000C500112802D0122851D127E0022171485B
:1046500002F037FE50B903216F484185B0F8B00031
:10466000401C81B26C48A0F8B01002E000216A48FA
:1046700041854FF400716A4802F023FE50B90321CE
:1046800065484187B0F8B400401C81B26248A0F888
:10469000B41002E000216048418728E04FF4005147
:1046A0005C4802F00EFE50B903215B484185B0F82A
:1046B000B000401C81B25848A0F8B01002E00021C0
:1046C000554841854FF48071554802F0FAFD50B9C4
:1046D000032151484187B0F8B400401C81B24E48D4
:1046E000A0F8B41002E000214B48418700BF00BF92
:1046F0000020494981F8C400084690F8C41049A038
:1047000005F086FE0221444880F8A31068E0424884
:1047100090F8E80001283DD13F4890F8C4000328F4
:1047200038D001213C4880F8A31090F8C40001283B
:1047300003D100213848418507E0374890F8C4008C
:10474000022802D1002134484187334890F8C5003F
:10475000122845D1304890F8C400012805D1410302
:104760002C4802F0AEFD01280AD02B4890F8C40076
:1047700002280BD1C1012A4802F0A3FD012805D16E
:10478000254991F8C400FFF7D5FC29E0314805F030
:104790003FFE25E0204890F8C400032820D11E48A1
:1047A00090F8E800022818D100211B484185418774
:1047B000012180F8A3104903164802F082FD10B1D0
:1047C0000120FFF7B7FC4FF48071154802F079FD26
:1047D00030B10220FFF7AEFC02E01FA005F018FE8A
:1047E0000D4890F8A70001284ED10B4BB3F84C2090
:1047F000196D186AFBF70CFD58B900211420FFF75A
:1048000062FC03210448A0F84A10022180F8A41099
:1048100024E02EE0000C014054000020000C004079
:10482000000801404572726F723A2074696D656FBD
:10483000757420647572696E6720646F6F72206F83
:104840007065726174696F6E2C2049443D25640D5A
:104850000A00000034C600082E000000B0F8B600C0
:10486000401C81B2FD48A0F8B610FDA005F0D0FDB7
:104870000AE0FA4890F8E90030B10121F74880F8E1
:10488000A4100021A0F84A10F44890F8A5000128CF
:104890007ED10021F14880F8A21090F8580011282C
:1048A00077D1EE4890F8680000287ED10024EB48CC
:1048B00080F86710A0F85A100020F3490860012022
:1048C000F249C1F88401E548056A64211120FFF727
:1048D0003FFB0121EE4804F0C7FA43E0641CED48B9
:1048E00084421ED34FF48051EB4802F0EAFC0128C9
:1048F00004D10321D948A0F85A1003E00421D74875
:10490000A0F85A10AFF2A45005F082FDD348006A17
:10491000411BE2A005F07CFD0221D04880F8A210E6
:1049200027E0CE4890F8BF0001281BD1FEF722FFF8
:104930000A21CA48A0F85A10E14805F069FDC748A5
:10494000B0F85A10DFA005F063FD0021D04804F054
:1049500023FD0021CE4804F021FD0221BF4880F84C
:10496000A21006E04FF48061CB4802F0AAFC0128B7
:10497000B4D100BF4FF4FA711420FFF7E9FA4FF4F5
:104980007A7400BF641E642CFCD20020BE4901E092
:104990000CE30AE0091D0860B048B0F85A0018B9E5
:1049A0000121AE4880F8A210F4E2AC4890F858001B
:1049B000122878D1A94890F86800002873D1002403
:1049C0000021A648A0F85A100020AF490860012035
:1049D000AE49C1F8840164211220FFF7B9FA012120
:1049E000AB4804F041FA3DE0641CAA48844218D365
:1049F0004FF48061A84802F064FC012804D103212F
:104A00009648A0F85A1003E004219448A0F85A10E0
:104A1000AFF2B06005F0FCFC0221904880F8A210D3
:104A200027E08E4890F8BF0001281BD1FEF7A2FEB8
:104A30000A218A48A0F85A10A14805F0E9FC8748E5
:104A4000B0F85A109FA005F0E3FC0021904804F054
:104A5000A3FC00218E4804F0A1FC02217F4880F8CD
:104A6000A21006E04FF480518B4802F02AFC012886
:104A7000BAD100BF4FF4FA711420FFF769FA4FF46E
:104A80007A7400BF641E642CFCD900207E49091D85
:104A900008607248B0F85A0018B901216F4880F8D0
:104AA000A21077E2FFE76D4890F86800122854D111
:104AB0006A4890F8580000284FD100240021674828
:104AC000A0F86A1001207049086000206F49C1F801
:104AD000840164211220FFF73BFA01216C4804F0A5
:104AE000C3F983A005F094FC1BE0641C6948844270
:104AF00017D34FF40061684802F0E3FB012804D1AA
:104B000003215648A0F86A1003E004215348A0F896
:104B10006A1083A005F07CFC0221504880F8A210A6
:104B200006E04FF480518C4802F0CBFB0128DCD129
:104B300000BF4FF4FA711420FFF70AFA002052491F
:104B400008604648B0F86A0030B90121434880F84F
:104B5000A21082A005F05CFC1CE2404890F86800BE
:104B6000112855D13D4890F85800002850D1002414
:104B700000213A48A0F86A1001204349086000204B
:104B80004249C1F884014FF496711120FFF7E0F912
:104B900001213F4804F068F97EA005F039FC1BE0D4
:104BA000641C3C48844217D34FF480516A4802F099
:104BB00088FB012804D103212848A0F86A1003E0EB
:104BC00004212648A0F86A1055A005F021FC022116
:104BD000224880F8A21006E04FF400612E4802F04F
:104BE00070FB0128DCD100BF4FF4FA711420FFF7ED
:104BF000AFF90020244908601848B0F86A0030B9BD
:104C00000121164880F8A2106FA005F001FCC1E157
:104C1000124890F86800114991F8581088429BD1C9
:104C2000002400250D4890F86800112815D14FF494
:104C30008051194802F045FB01280DD0002012498F
:104C4000086001201149C1F884011221FFF7D7F94A
:104C500000200D49091D0860D6E0EBE0540000205B
:104C60004572726F723A2074696D656F7574207445
:104C70006F206F70657261746520746865206C695F
:104C8000667465720D0A0000800122420000224213
:104C900000040040802ED3000010014020576172B4
:104CA0006E696E673A207468652074696D656F750A
:104CB00074206973202564206D730D0A00000000C4
:104CC000F0C400084572726F723A20636F727265A9
:104CD00073706F6E64696E67206572726F722063A5
:104CE0006F6465206973202564210D0A00000000AF
:104CF00020537461727420746F206C6F636B207426
:104D00006865206C6F7765726C6F636B6572206984
:104D10006E20434357206D6F64652E200D0A0000FE
:104D2000204572726F723A206F6E65206F66207434
:104D30006865206C6F7765726C6F636B657220734A
:104D40007769746368206861732070726F62656C44
:104D50006D2E200D0A000000000C01402046696EF7
:104D600069736820746865206F7065726174696F1B
:104D70006E206F66206C6F7765726C6F636B657207
:104D800020696E20434357206D6F64652E200D0A05
:104D90000000000020537461727420746F207265EB
:104DA0006C6561736520746865206C6F7765726CE3
:104DB0006F636B657220696E204357206D6F646569
:104DC0002E200D0A000000002046696E69736820DD
:104DD000746865206F7065726174696F6E206F66AC
:104DE000206C6F7765726C6F636B657220696E20E3
:104DF00072656C656173696E672028435729206D61
:104E00006F64652E200D0A004FF48051FE4802F0B9
:104E100058FA01283DD00120FC4908600020FC49D7
:104E2000C1F8840112210220FFF7E9F80020F749B8
:104E300008602EE0F74890F86800122829D14FF456
:104E40008061F54802F03DFA01280DD00020EF49BD
:104E500008600120EE49C1F884011121FFF7CFF865
:104E60000020EA49091D08604FF40061EA4802F099
:104E700028FA01280DD00120E44908600020E44907
:104E8000C1F8840111210220FFF7B9F80020DF49A1
:104E900008600020DD490860DD49C1F88401DD4873
:104EA000056A014691F868005021FFF751F8D9488A
:104EB00090F86800112833D124E0641CD74884425C
:104EC00020D34FF48061D44802F0FBF9012803D0CD
:104ED0000321D048A0F85A104FF40061CE4802F0E8
:104EE000F0F9012803D00321CA48A0F86A10AFF6F0
:104EF0008C3005F08DFAC748006A411BC8A005F048
:104F000087FA0CE04FF48061C34802F0DAF9012817
:104F1000D3D18102C04802F0D4F90128CDD133E0C9
:104F200024E0641CBD48844220D34FF48051BA4829
:104F300002F0C7F9012803D00321B648A0F85A109F
:104F40004FF48051B04802F0BCF9012803D003218E
:104F5000B048A0F86A10AFF6F43005F059FAAD4841
:104F6000006A411BAEA005F053FA0CE04FF48051EB
:104F7000A94802F0A6F90128D3D10103A24802F002
:104F8000A0F90128CDD100BF4FF4FA711420FEF72B
:104F9000DFFF00BF00209F4981F8580081F86800BA
:104FA00000219C48A0F85A10A0F86A1070BD70B596
:104FB000984890F8BE0001284BD10026954890F8FB
:104FC000A700012812D1934890F85600112807D164
:104FD00012254FF480619A4802F073F9044605E007
:104FE00011250421974802F06CF904464FF4FA7138
:104FF0002846FFF768F800220421934803F04FFF8A
:1050000001209249086008E0761C9148864204D34A
:1050100013218048A0F84A1001E0012CF4D100BF10
:105020007C48B0F84A00132812D000214FF080408D
:1050300004F0B6F900214FF0804004F0B3F90021EC
:105040004FF0804003F010FF0021724880F8BE103E
:1050500000BF704890F8BF00012833D16D4890F828
:10506000C00000282ED16B4890F8BA00401CC1B295
:10507000684880F8BA10012180F8C01090F8BA0092
:1050800003280EDA41F28831724804F083F90121D5
:10509000704803F0E9FEFEF76DFB6FA005F0B8F96C
:1050A00010E0FEF767FB00217A4804F075F9002153
:1050B000784804F073F90121564880F8AF1076481B
:1050C00005F0A6F970BD00B589B00121092002F0F4
:1050D00021FB0121714802F032F94FF44060ADF834
:1050E000200018208DF8230003208DF8220008A945
:1050F000454802F053F80121092002F00BFB012181
:10510000674802F01CF90121664802F018F93020C6
:10511000ADF8200018208DF8230003208DF8220020
:1051200008A9394802F03AF80121102002F0F2FAF9
:105130000820ADF8200010208DF8230003208DF802
:10514000220008A9344802F029F84FF40040ADF8D5
:10515000200008A92C4802F021F80121052002F0C6
:10516000D9FA0F20ADF8200018208DF82300032075
:105170008DF8220008A9324802F010F8012102201F
:1051800002F0D5FA4FF4C870ADF808004648006840
:105190004649B0FBF1F0401E80B2ADF8040000209B
:1051A000ADF80A00ADF8060001A93A4803F0E6FAA6
:1051B0006020ADF810000120ADF812000020ADF81D
:1051C00018006420ADF8160004A9324803F013FB60
:1051D00004A9304803F051FB08212E4803F074FF66
:1051E00008212C4803F079FF01212A4803F048FEEA
:1051F0000121284803F038FF0021264803F034FE3F
:105200000121084654E00000000C014080012242C8
:105210000000224254000020001001400044950884
:10522000204572726F723A2074696D6520647572E0
:105230006174696F6E20697320256420730D0A0004
:105240000008014000140140002C0140BC812142B3
:1052500000A8D455001000405761726E696E673A1D
:1052600020746865206C6F636B6572206368616E83
:105270006E656C2077696C6C207265636F76657201
:1052800020696E2035207365636F6E6473210D0A8B
:10529000000000000004004038C5000800021800AB
:1052A00000081A00000230004000002000127A00BE
:1052B00002F03DFA4FF47A70ADF80800FE4800683D
:1052C000FE49B0FBF1F0401E80B2ADF804000020B2
:1052D000ADF80A00ADF8060001A94FF0804003F0D8
:1052E0004DFA6020ADF810000120ADF8120000204A
:1052F000ADF81800C820ADF8160004A9C00603F0E8
:1053000009FB04A94FF0804003F04FFB0821C806B9
:1053100003F0F0FE0821C80603F0F5FE012188071E
:1053200003F0AEFD0121880703F09EFE00214FF03F
:10533000804003F099FD0121082002F0F8F9DE48D1
:1053400000684FF47A71B0FBF1F04900B0FBF1F066
:1053500080B2ADF80800D84800684910B0FBF1F001
:10536000401E80B2ADF804000020ADF80A00ADF890
:10537000060001A9D24803F001FA6020ADF8100040
:105380000120ADF812000020ADF81800CA480068EE
:105390004FF47A71B0FBF1F04900B0FBF1F0C0F3CB
:1053A0004F00ADF8160004A9C54803F024FA04A97B
:1053B000C34803F062FA04A9C14803F0ABFA04A998
:1053C000BF4803F0F2FA0821BD4803F07DFE082132
:1053D000BB4803F082FE0821B94803F08BFE082188
:1053E000B74803F090FE0121B54803F049FD0121C3
:1053F000B34803F039FE0021B14803F035FD09B090
:1054000000BD10B500240421AE4801F05AFF012868
:1054100006D1AD4890F85600112801D101240CE0C6
:105420004FF48061A94801F04CFF012805D1A6483E
:1054300090F85600122800D10124012C0ED114201E
:10544000A14981F8480000219F48A0F84A10012195
:1054500080F8A4109EA004F0DBFF10BD4FF4806123
:105460009A4801F02EFF012813D00421954801F03D
:1054700028FF01280DD004219348A0F84A10B0F865
:10548000B600401C81B29048A0F8B6109CA004F071
:10549000BFFF0120A7490860A749C1F88401002087
:1054A000C1F888018848016A01656421A0F8D41018
:1054B0001520854981F8480044F620618248A0F80B
:1054C0004C100021A0F8D41080F8E91090F8561084
:1054D0009AA004F09DFF64217B48A0F85410024676
:1054E000B2F9541092F85600FEF7EDFD01220421A6
:1054F000A04803F0D4FC9F4800884FF6FE71084096
:105500009C4908800846008800F0010018B9012174
:10551000984803F0A9FC00BF9FE72DE9F8438046B7
:105520000F464FF00009112F02D14FF0120901E090
:105530004FF01109B8F1010F03D0B8F1020F76D185
:105540007AE06148016A016341F288318185C821AE
:10555000818615205C4981F828000846B0F934108E
:1055600042464846FEF763FF002461E0B9F1120F9E
:1055700006D14FF40051804801F0A3FE044604E038
:1055800002217D4801F09DFE04464F4890F824001A
:1055900001281BD100204C4981F82400FEF79FF917
:1055A0000121764804F033FA0121754803F08DFF9C
:1055B0004548B0F89A0000904348B0F89830B0F8E9
:1055C0009620B0F894106FA004F022FF3E48016AC4
:1055D000006B0D1A002D01DAC5F1FF353A48808DB8
:1055E000A84212DC8CB90321374841850021344898
:1055F00003F0D2FE0021324803F0D0FE14203249DD
:1056000081F828004FF0FF3614E0012C10D1002162
:105610002D4841852A4803F0BFFE0021284803F0A9
:10562000BDFE1420284981F82800002602E002E18E
:10563000002C9BD000BFFEE02348016A016441F2C8
:1056400088318187C821A0F84410112F00D112277A
:1056500015201D4981F838000846B0F9441042462B
:105660003846FEF7E4FE0024E0E0B9F1120F06D15F
:105670004FF48071154801F024FE044605E04FF414
:105680000071124801F01DFE04460F4890F82400F6
:1056900001280FD100200C4981F82400FEF71FF9E2
:1056A0000121364804F0B3F90121354803F00DFF1C
:1056B00005487BE088E000004000002040420F00E9
:1056C000000C00400014014054000020000801407C
:1056D0005761726E696E673A204C69667465722014
:1056E0006973206F6E2074686520746172676574D9
:1056F000656420706F736974696F6E0D0A00000035
:105700005761726E696E673A204C696674657220E3
:105710006973206E6F742061742074686520696EEF
:10572000697469616C20706F736974696F6E0D0ABA
:105730000000000080012242000022425374617286
:105740007420746F206F7065726174652074686571
:10575000204C696674657220776974682074686586
:1057600020646972656374696F6E206F66202578A6
:105770000D0A0000002C0140000C0140080002400E
:10578000002401404348313A20256409090943486F
:10579000323A2025640909094348333A202564092F
:1057A00009094348343A2025640D0A00B0F89A00EC
:1057B0000090FC48B0F89830B0F89620B0F89410FB
:1057C000AFF2400004F024FEF648016A006C0D1AA6
:1057D000002D01DAC5F1FF35F248808FA84212DCB6
:1057E0008CB90321EF4841871420EE4981F8380035
:1057F0000021ED4803F0D4FD0021EB4803F0D2FD79
:105800004FF0FF3615E0012C10D10021E54841870B
:105810001420E44981F838000021E34803F0C0FD7A
:105820000021E14803F0BEFD002602E0002C3FF419
:105830001CAF00BF00BF00BF3046BDE8F88370B5A5
:1058400005460024012D7CD10021D648A0F85A102D
:105850000020D64908600120D549C1F884014FF4E1
:1058600096711120FEF774FB33E0641CD14884422A
:1058700010D34FF48051D04801F023FD012804D10A
:105880000121C848A0F85A1003E00221C548A0F839
:105890005A1025E0C34890F8BF00012819D10A2109
:1058A000C048A0F85A10002180F8BF10C34804F087
:1058B000AFFDBC48B0F85A10AFF6F83004F0A8FDC0
:1058C0000021BF4803F068FD0021BD4803F066FDDC
:1058D00006E04FF48061B84801F0F3FC0128C4D120
:1058E00000BF50211420FEF733FB4FF48061B24813
:1058F00001F0E7FC012804D10221AA4880F8AA108F
:105900000FE04FF48051AC4801F0DBFC012804D1DA
:105910000121A44880F8AA1003E00321A14880F8DF
:10592000AA10A048B0F85A0000280ED09D48B0F840
:10593000B800401C81B29B48A0F8B810B0F85A10CB
:1059400000E003E09FA004F063FD02E1022D6FD1AF
:1059500000219448A0F86A1000209449091D0860AD
:1059600001209349C1F8800196211120FEF7F0FA39
:105970000121934803F078FA36E0641CA0A004F0FB
:1059800047FD8C48844210D34FF480519D4801F06C
:1059900098FC012804D101218248A0F86A1003E094
:1059A00002218048A0F86A1025E07E4890F8BF00E8
:1059B000012819D10A217B48A0F86A10002180F83B
:1059C000BF107E4804F024FD7648B0F85A10AFF6B8
:1059D0000C5004F01DFD0021794803F0DDFC00218E
:1059E000774803F0DBFC06E04FF40061724801F0F9
:1059F00068FC0128C1D100BF50211420FEF7A8FA8D
:105A00004FF480517F4801F05CFC012804D1012152
:105A1000644880F8AB1010E04FF40061664801F074
:105A200050FC012805D102215E4880F8AB1004E04B
:105A300016E003215B4880F8AB105A48B0F86A00C2
:105A400000280CD05748B0F8B800401C81B2554827
:105A5000A0F8B810B0F86A106B4804F0D9FC78E0F0
:105A600000215048A0F87A1096211120FEF770FA14
:105A700036E0641C62A004F0CBFC4E48844210D394
:105A80004FF480515F4801F01CFC012804D1012132
:105A90004448A0F86A1003E002214248A0F86A10C6
:105AA00025E0404890F8BF00012819D10A213D485F
:105AB000A0F86A10002180F8BF10404804F0A8FC4C
:105AC0003848B0F85A10AFF6046004F0A1FC002189
:105AD0003B4803F061FC0021394803F05FFC06E01D
