:020000040800F2
:1000000078480020A9900008C9080008CB0800081B
:10001000CD080008D1080008D5080008000000003D
:10002000000000000000000000000000D9080008E7
:10003000DB08000800000000DD080008DF080008F9
:10004000C3900008C3900008C3900008C390000844
:10005000C3900008C39000088B040008FB0400084C
:10006000AB040008C39000084905000805350008E6
:10007000C3900008C3900008C3900008C390000814
:10008000C3900008C3900008C3900008C390000804
:10009000F7180008C3900008C39000086B0500081B
:1000A000C3900008C3900008C39000087B5D00085F
:1000B000C3900008C3900008C3900008C3900008D4
:1000C000C3900008C3900008C3900008C3900008C4
:1000D000C3900008C3900008C3900008C3900008B4
:1000E00001060008C3900008C3900008C3900008F0
:1000F000C3900008C3900008C3900008C390000894
:10010000C3900008C3900008C3900008C390000883
:10011000C3900008C39000087F5E0008C3900008E9
:10012000C3900008C3900008C3900008C390000863
:1001300000F002F800F04AF80AA090E8000C8244AF
:100140008344AAF10107DA4501D100F03FF8AFF28C
:10015000090EBAE80F0013F0010F18BFFB1A43F0A5
:100160000103184718B3000038B30000103A24BF49
:1001700078C878C1FAD8520724BF30C830C144BF0C
:1001800004680C607047000000230024002500264E
:10019000103A28BF78C1FBD8520728BF30C148BFEA
:1001A0000B60704766290AF0D887642909F0C0807F
:1001B000002070471FB509F011FD04000020002148
:1001C0000AF0A8FAE0601FBD10B510BD09F026FEC8
:1001D0001146FFF7EFFF00F032F809F044FE03B4D8
:1001E000FFF7F2FF03BC05F045FC000003468B421D
:1001F00006D3581A904201D2012070470020FCE734
:10020000C1F1FF301844904201D20120F5E70020EF
:10021000F3E708B50121082006F000FA0420ADF844
:10022000000010208DF8030003208DF802006946BD
:10023000FE4805F037FF0020FD49086008BDFD4875
:1002400000684FF47A72B0FBF2F1B1F1807F00D315
:100250001DE021F07F40401E4FF0E022506150171A
:100260000F22002807DA13071D0EF34B00F00F04CE
:10027000241F1D5503E013071C0EF04B1C5400BF38
:1002800000204FF0E02290610720106100BFEC4891
:100290000088EB49491E098840EA8100E949088045
:1002A000084600884AF65521884241D1E448801C1E
:1002B000006801280BD1E24808300088E049491E57
:1002C000098940EA810081B2DF4881870FE0DC487C
:1002D000801C006802280AD1D9480A300088D84911
:1002E000491E498940EA810081B2D7488187D448B4
:1002F000401C006801280BD1D148001D0088D0495E
:10030000491E898840EA810081B2CF4881850FE08B
:10031000CB48401C006802280AD1C948801D0088CB
:10032000C749491EC98840EA810081B2C648818513
:1003300005F021FC4FF4E13005F0ACFB02F05FFF6B
:1003400005F0C9FC05F07CFB02F0D8FF03F02EFCA1
:1003500003F071F805F0DCFB04F028FC0120BB4938
:100360000860BB49C1F8BC0103F0A4FB18B9B9A0EF
:1003700008F0D2FF02E0C1A008F0CEFF0121CA4878
:1003800007F0F6FC0121880707F0F2FC0021C748BE
:1003900007F086FF0021C54807F084FF0121C3480C
:1003A00007F0E6FC00F068FBFFF733FF0120A049EF
:1003B000086069E000F020FD03F0BEFE00F019FCCB
:1003C00004F068FB4FF40071B94805F0FEFEB9492E
:1003D00008704FF48071B64805F0F7FEB649087012
:1003E000994890F8240001280DD103F0C2F80121AA
:1003F000B24808F090FA0121B14807F0EAFF002066
:10040000914981F82400904890F8A90001280ED164
:100410008D4AD2F8D410106A41F28832FFF7E6FE16
:1004200028B98948016AC0F8D41000F0C4FB864A94
:10043000D2F8D010106A44F62062FFF7D7FE18BB3E
:100440008148016AC0F8D01003F067FB7E49A1F82B
:10045000E4000846B0F9E400B0F5FA7F02DD0020C0
:10046000A1F8E4007849B1F9E4000AF02DFD07464F
:1004700094490AF067FC04460AF02CFC05462A461B
:100480000B4691A008F048FF94E710B5012008F052
:1004900004FB012808D108F020FB012008F008FB2C
:1004A0000121624805F091FE10BD10B5042008F04E
:1004B000F4FA012820D1042008F0FAFA042008F008
:1004C0000CFB04218A4805F080FEA8B1002114200D
:1004D00003F003FC00220421864807F064FC5A481C
:1004E00090F85600112804D10121574880F8E110F6
:1004F00002E081A008F010FF10BD10B5022008F046
:10050000CCFA01281FD10221484805F05EFED0B187
:1005100001220021142003F01FFD4B4890F8A10098
:1005200001280DD1484890F8C100112808D146484B
:1005300090F8E000401CC1B2434880F8E01002E0AF
:1005400079A008F0E9FE10BD10B5102008F0A5FA5A
:10055000012809D1102008F0C0FA102008F0A8FAEC
:100560001021534805F031FE10BD10B54FF4007056
:1005700008F093FA01282AD1400208F0AEFA4FF4AD
:10058000007008F095FA4FF40071734805F01DFEF5
:10059000E8B92D4890F85700401CC1B22A4880F8AD
:1005A000571090F85700022811DB0021132003F0A8
:1005B00094FB0121244880F8BC10B0F8BA00401C1C
:1005C00081B22148A0F8BA10002180F857104FF4EA
:1005D000007008F062FA012811D1400208F068FAB0
:1005E0004FF4007008F079FA4FF40071304805F0CC
:1005F000ECFD20B102220021142003F0ADFC10BD5F
:1006000010B54FF4804008F048FA01280CD180035F
:1006100008F063FA4FF4804008F04AFA4FF4804142
:10062000024805F0D2FD99E0BBE00000000C01405B
:10063000888121423400002018ED00E000E400E051
:100640000180030800000020480000208C012242A5
:10065000008021425761726E696E673A20612044C2
:10066000533138323020686173206265656E2064D2
:1006700065746563746564210D0A00005761726ECC
:10068000696E673A206661696C696E6720746F20D5
:10069000646574656374207468652044533138322E
:1006A00030210D0A00000000000C00400004004052
:1006B0000008014009000020080000200800024056
:1006C000002401400000204163757272656E742041
:1006D00074656D70657261747572657220697320DE
:1006E000252E316620646567726565210D0A00005C
:1006F00000140140002C01404255473A204C6966E5
:1007000074657220746F70207377697463682D2D1F
:100710002D3E66616C7365207472696767657269E6
:100720006E670D0A000000005761726E696E6720E7
:100730003A207570706572646F6F722D6F70656EA0
:1007400065642073656E736F722070726F626C6582
:100750006D210D0A000000000010014008BB404858
:1007600090F85800E8B13E4890F86800C8B93C4895
:1007700090F86700401CC1B2394880F8671090F8C3
:10078000670002280DDB0021354880F86710012141
:1007900080F8BD10B0F8B600401C81B23048A0F817
:1007A000B6104FF4005008F078F9012827D1400323
:1007B00008F093F94FF4005008F07AF94FF4005123
:1007C000284805F002FDD0B101220021142003F0D9
:1007D000C3FB234890F8A10001280DD1204890F8D0
:1007E000C100122808D11E4890F8E000401CC1B298
:1007F0001B4880F8E01002E01BA008F08DFD4FF4CC
:10080000806008F04AF9012822D1800208F050F9EE
:100810004FF4806008F061F94FF480611D4805F0E5
:10082000D4FCA8B10021142003F057FA00220421BF
:10083000194807F0B8FA0A4890F85600122804D16F
:100840000121074880F8E11002E014A008F064FDDF
:1008500010BD10B54FF40051024805F0B6FC10BDB4
:1008600048000020000C0140425547203A20757096
:10087000706572646F6F722D636C6F736564207343
:10088000656E736F722070726F626C656D210D0AF8
:100890000000000000080140002C01404255473A8A
:1008A000204C696674657220626F74746F6D2D2DB3
:1008B0002D3E66616C736520747269676765726945
:1008C0006E670D0A000000007047704700BFFEE72A
:1008D00000BFFEE700BFFEE770477047704706485D
:1008E000006A401C044908620846006A401C08B9B6
:1008F0000020086270470000480000202DE9F04108
:1009000080460C460025FE480078012801D1BDE84C
:10091000F081A08A072805DCA28AFA48A16808F0BD
:100920000BFE3FE0A08A0C280FDCF648A1680A689D
:10093000026089888180A81DC5B2A38A9A1FF14BE5
:100940005819216908F0F8FD2CE0A08A06B2ED499B
:10095000A06802680A6080888880A81DC5B2701FE0
:1009600006B2E76815E01C2E06D9E64948191C2294
:10097000391D08F0E1FD05E0E24948193246391D0C
:1009800008F0DAFD3F6806F11C0006B205F11C0014
:10099000C5B2002FE7D1DB4A50193246216908F071
:1009A000CBFD00BFA08AD849088020222146D74825
:1009B00008F007FE0120D249087000BFA7E770B514
:1009C0000546049C022B07D100BF00BFD04ED14882
:1009D000C1E90060012070BD012B4BD11046D82A1F
:1009E0002BD008DCA0F1C90005283CD2DFE800F0DC
:1009F0000C11161B2000D92823D0DA2825D0FE2878
:100A000027D0FF282FD129E0C348C44EC1E90006F2
:100A10002DE0C34EC348C1E9006028E0C24EC34880
:100A2000C1E9006023E0C24EC248C1E900601EE097
:100A3000C14EC248C1E9006019E000260E604E6058
:100A400015E000200860486011E000260E604E604E
:100A50000DE0BB4EBB48C1E9006008E0BA48BB4EA0
:100A6000C1E9000603E000200860486000BF00BF45
:100A70000120B0E70020AEE730B58BB000240025A0
:100A80000121480605F0D7FD0121042005F0C6FD2F
:100A90004FF40060ADF8080048208DF80B000320EB
:100AA0008DF80A0002A9AA4805F0FCFA4FF480501C
:100AB000ADF8080018208DF80B0002A9A44805F035
:100AC000F1FAA44805F00EFE08A805F02FFF012159
:100AD000480605F0B0FD00208DF826008DF82700AF
:100AE0008DF8280001208DF8290000208DF82A00BB
:100AF00001208DF82B0000208DF822008DF82300B6
:100B000005208DF8240004208DF825000620ADF87E
:100B1000200008A98F4805F0FEFD4FF408654FF44A
:100B2000FF4400208DF81A008DF81B0001208DF87D
:100B30001C00680BADF810004FF6FF7000EAC5000E
:100B4000001DADF81200600BADF814004FF6FF70F9
:100B500000EAC400001DADF816000020ADF8180032
:100B600001208DF81D0004A805F05FFE012202217E
:100B7000784806F059F914208DF80C0001208DF802
:100B80000D0000208DF80E0001208DF80F0003A845
:100B900005F0BFF900207049704B4FF48062CDE939
:100BA00000106F496F4800F0ECFE08216D4800F01E
:100BB0001DFF0BB030BD00B585B011206A4908702B
:100BC00022204870332088704420C8705520087156
:100BD00005201F22654BCDE90132CDE9031045F216
:100BE0004100634A634B00905E4801F0ABF805B0EA
:100BF00000BD00B587B0604890F8A500012829D154
:100C00005D4890F8A20028B300215B4880F8A51049
:100C100090F8A60054490870574890F8A200487010
:100C20000221514A00233948807ECDE903320591E3
:100C3000029036481930D921CDE900101938C17E0B
:100C40001A46484801F02BF900214B4880F8A610BD
:100C500080F8A210484890F8A10001284ED14648DB
:100C600090F8A300002849D000220221434807F051
:100C70009AF8414890F8A2003B4908703E4890F825
:100C8000C00048703C4890F8C10088703A4890F81D
:100C90002A00C870384890F83A000871364890F831
:100CA0005A004871344890F86A00887107212E4A2A
:100CB00000231648807ECDE9033205910290134847
:100CC0001930D821CDE900101938C17E1A462548BF
:100CD00001F0E5F80021284880F8A31080F8A11061
:100CE0000020254981F8C0000021234880F8C11068
:100CF0000020214981F8A000322141E043E00000BA
:100D000010000020300100200E000020E00500202F
:100D1000401DA12026812A0B6840D69D8BCBDED9B1
:100D200006E0EC01F0E1B36AEC7895020F7F087EF3
:100D300079437CC8DA287FECDCA167B532884C6443
:100D4000A1780C29D0BF2E81E2DB3111450FD0D123
:100D50000008014000640040BF090008FD080008C9
:100D6000E0010020BC0100206201002018000020EA
:100D70009E4BB028DF3AC91548000020002C0140E6
:100D8000FA4808F050FCFA4890F8A700012831D141
:100D9000F74890F8A40068B300220421F54807F052
:100DA00002F8F34890F8A400F0490870F04890F871
:100DB0004A004870EE4890F8560088700321EB4ACC
:100DC0000023ED48807ECDE9033205910290EA4888
:100DD0001930DA21CDE900101938C17E1A46E748EA
:100DE00001F05DF80021E24880F8A71080F8A41017
:100DF00080F8561007B000BD00B58DB0E04800780F
:100E0000012872D1DC48007E022800D12CE3DA48A8
:100E1000007E0128FAD1D848C08ACD287ED008DCCF
:100E2000C9280FD0CA2829D0CB283FD0CC2824D11C
:100E30005CE0D82873D0D92872D0DA2871D0DB28AA
:100E4000F5D1D4E20120C949087007900A46002371
:100E5000C949897E0798CDE9033202910590C648B9
:100E60001930C921CDE900101938C07EC54AC64BDA
:100E700001460690C14801F012F8F4E21E21BC4A76
:100E80000023BD48807ECDE9033205910290BA4827
:100E90001930CA21CDE900101938C07EBB4ABC4BBD
:100EA00001460690B54800F0FAFFDCE25520AF4954
:100EB0000870AA204870022007900A460023AE4915
:100EC000897E0798CDE9033202910590AA4819302E
:100ED000CB21CDE900101938C07EAE4AAE4B014699
:100EE0000690A64800F0DBFFBDE2C4E2A04890F8FF
:100EF000A900012827D001219D4880F8A91055207C
:100F00009A490870AA204870022007900A460023D8
:100F10009949897E0798CDE9033203E032E078E011
:100F20008BE1FFE10291059093481930CC21CDE986
:100F300000101938C07E994A994B014606908F4897
:100F400000F0ADFF1DE0532088490870A9204870CB
:100F5000022007900A4600238749897E0798CDE939
:100F600003320291059084481930CC21CDE900105C
:100F70001938C07E894A8A4B014606907F4800F0A6
:100F80008EFF70E27A4890F8A900022822D0022150
:100F9000774880F8A910552074490870AA20487035
:100FA000022007900A4600237349897E0798CDE9FD
:100FB00003320291059070481930CD21CDE900101F
:100FC0001938C07E774A784B014606906B4800F08E
:100FD00066FF1DE0532065490870A9204870022073
:100FE00007900A4600236449897E0798CDE90332B9
:100FF0000291059060481930CD21CDE900101938D3
:10100000C07E684A684B014606905C4800F047FF86
:1010100029E2574890F8A100002873D101215448D3
:1010200080F8A11061480078012841D15F484078DC
:10103000012818D15D488078A8B901204C4981F871
:10104000C0005A48C078012802D002280AD104E022
:101050001121474880F8C11004E01221444880F86B
:10106000C11000BF5EE051484078C8B94F48807851
:10107000012815D102203E4981F8C0004B48C078B4
:10108000012802D002280AD104E01121384880F852
:10109000C11004E01121364880F8C11000BF41E0C2
:1010A0000021334880F8A110414808F035F939E0B3
:1010B0003E48007802282ED103202D4981F8C00037
:1010C0003A48407801280CD138488078012808D166
:1010D0003648C078012804D11121254880F8C11074
:1010E00020E03248407801280DD13048807801282E
:1010F00009D12E48C078022805D112211C4880F859
:10110000C1100FE078E00021194880F8A1102948AB
:1011100008F002F906E00021154880F8A11026A089
:1011200008F0FAF8552011490870AA2048700220EA
:1011300007900A4600231049897E0798CDE90332BB
:10114000029105900C481930D821CDE900101938CA
:10115000C07E1A4601460690084800F0A0FE0448EA
:1011600090F8A10000B141E066E0000062010020BB
:1011700048000020002C0140E0050020BC010020B8
:10118000100000206840D69D8BCBDED906E0EC0134
:10119000F0E1B36AEC7895020F7F087E79437CC852
:1011A000DA287FECDCA167B532884C64300100207E
:1011B00008B2000850B200084572726F723A2046B9
:1011C00061696C20746F2073656C6563742074684A
:1011D00065206D6F646520666F7220646F6F72208A
:1011E0006F7065726174696F6E0D0A00F9A008F086
:1011F00093F804F023FA1FE05620FE490870AB2054
:101200004870022007900A460023FB49897E079810
:10121000CDE9033202910590F7481930D821CDE984
:1012200000101938C07E1A4601460690F34800F0B7
:1012300036FEF3A008F070F815E1FE4890F8A5001E
:10124000002851D10121FB4880F8A510FA48017807
:10125000F84880F8A610F8480078012804D1112039
:10126000F44981F8580021E0F3480078022804D1BD
:101270001220F04981F8580018E0EF480078032860
:1012800004D11120EB4981F868000FE0EA480078AA
:10129000042804D11220E74981F8680006E0002103
:1012A000E44880F8A510E5A008F036F85520D149AB
:1012B0000870AA204870022007900A460023CE49F1
:1012C000897E0798CDE9033202910590CA4819300A
:1012D000D921CDE900101938C07E1A460146069082
:1012E000C64800F0DCFD1CE05320C2490870A9206C
:1012F0004870022007900A460023BF49897E07985C
:10130000CDE9033202910590BB481930D921CDE9CE
:1013100000101938C07E1A4601460690B74800F002
:10132000BEFDA0E0C34890F8A700E8BB0121C1487A
:1013300080F8A710C0480078012804D11121BD48C9
:1013400080F856100FE0BC480078022804D1122122
:10135000B84880F8561006E00021B64880F8A7107B
:10136000C6A007F0D9FF5520A2490870AA204870EE
:10137000022007900A4600239F49897E0798CDE9FD
:101380000332029105909C481930DA21CDE9001012
:101390001938C07E1A4601460690984800F07FFD35
:1013A000A44890F8A70000E003E0F8B103F09AFD2C
:1013B0001CE057208F490870AC204870022007902D
:1013C0000A4600238C49897E0798CDE903320291B1
:1013D000059089481930DA21CDE900101938C07E0E
:1013E0001A4601460690854800F059FD3BE09248B8
:1013F000007801280AD101F0F6FF00218D4880F81D
:10140000BD1080F8BE1080F8B8100DE08A48007852
:10141000022809D101F0F8FF0021864880F8BD10AC
:1014200080F8BE1080F8B810552072490870AA20C4
:101430004870022007900A4600236F49897E07986A
:10144000CDE90332029105906B481930DB21CDE9DB
:1014500000101938C07E994A994B0146069067489A
:1014600000F01DFD00BF00BF00209649087032212A
:10147000604808F0D8F80020069022E0069800683E
:1014800009900698007B8DF82A0004208DF828002A
:1014900000208DF829000698007B024604900699EA
:1014A000091D0DF12B0008F047F808A9864805F042
:1014B000ABFA05900598042802D0504800F05EFD74
:1014C00000BF4E4800F03CFD06900028D6D10DB07C
:1014D00000BD0146302905DB392903DCA1F13000CC
:1014E000C0B27047412905DB462903DCA1F1370072
:1014F000C0B2F6E7FF20F4E70146302903DB3929C3
:1015000001DC01207047412903DB462901DC012071
:10151000F8E70020F6E7F0B504460D4600262B4616
:1015200020783A2801D00020F0BD012223E0A05C01
:10153000FFF7E2FF08B90020F6E7104602EBD07192
:101540004910A2EB410131B1A05CFFF7C2FF0007D7
:10155000000E187006E0A05CFFF7BBFF1978084486
:1015600018705B1C501CC2B22878801D400090424D
:1015700001DA0020D8E7A05C0D28D8D12B461878D6
:10158000401DC7B2002205E018783044C6B25B1C8B
:10159000501CC2B2781E9042F6DCF043C6B2701CFA
:1015A000C6B21878B04201D10120BDE70020BBE7E8
:1015B00002465079137900EB0321B1F5006F07D093
:1015C00040F60100814203D0401C814200D07DE002
:1015D0007FE000004E6F74653A207374617274206E
:1015E000746F206F70656E2074686520646F6F7211
:1015F000210D0A0062010020E0050020BC0100204E
:101600005761726E696E673A746865206C617374B5
:1016100020646F6F722D6F7065726174696F6E20D8
:10162000686173206E6F742066696E6973686564A3
:101630000D0A200048000020300100204572726F22
:10164000723A207468657265206973206120707237
:101650006F626C656D206F6620706172616D65747C
:1016600065727320666F72206C6F636B6572206F9A
:101670007065726174696F6E200D0A004572726F39
:10168000723A2074686572652069732061207072F7
:101690006F626C656D206F6620706172616D65743C
:1016A00065727320666F72206C6966746572206F54
:1016B0007065726174696F6E200D0A00DDA167B5F7
:1016C00032884C641000002000640040401C8142BD
:1016D00001D1080470470020FCE710B503249448AA
:1016E0009449884215D307F020FA934807F062FA2C
:1016F00007F027FA07F019FA90498F4807F02AFBFC
:1017000007F01FFA8C4800688C4988421AD10024DF
:1017100018E087488949884214D307F006FA8648BA
:1017200007F048FA07F00DFA07F0FFF981498248FF
:1017300007F010FB07F005FA7F4800687D498842F2
:1017400000D10024204610BD2DE9FC5F05468846E7
:1017500098F8010005EB002098F80210461898F858
:10176000004008F10407B5F1006F0BD074488542C2
:1017700008D07048854205D07248854202D00320C7
:10178000BDE8FC9FC6F30D0000283ED1B34607F02C
:10179000CCF9352007F064FC4FF0000A2FE05846E2
:1017A00007F008FA01900198042811D00098401C15
:1017B000C0B200900098022803DB4FF003094846AE
:1017C000DEE7352007F04CFC584607F0F3F90190AE
:1017D0000BF5806B4FF400715B4804F003FD0128AA
:1017E00004D14102584804F00CFD04E04FF40071AC
:1017F000554804F004FD0AF1010000F0FF0ABAF1B7
:10180000100FCCDB07F09DF900BF07F08EF93AE02E
:101810004FF400714C4804F0E5FC012804D141026A
:10182000494804F0EEFC04E04FF40071464804F02F
:10183000E6FCE11704EB9171891049B13046396833
:1018400007F088FA8146361D201FC4B23F1D16E0FE
:1018500004EBD471491049B13988304607F0ADFA2C
:101860008146B61CA01EC4B2BF1C08E039783046C1
:1018700007F0C1FA8146761C601EC4B27F1CB9F124
:10188000040F00D001E0002CC2D100BF07F059F9CD
:10189000B9F1040F01D0032072E7002070E770B5A2
:1018A0000546E878062821D2DFE800F0030A0E108A
:1018B000121E294625480068FFF746FF044617E038
:1018C000FFF70BFF044613E0002411E000240FE0B3
:1018D0002846FFF76DFE1D4908600846006808B9F4
:1018E000022400E0002403E0002401E0002400BF03
:1018F00000BF204670BD1FB5154A0021154805F0F0
:1019000078F91348406800901148807A8DF80C00EF
:101910000F48827A00F10B0101A807F00DFE4FF489
:101920007A72002369460C4800F090FC1FBD00004D
:10193000480000200000020800F8030800800008AA
:101940000000010800000308000C01401400002002
:101950000006002000640040BC01002070B50C4669
:101960000021034604E004EB41151D601B68491C7F
:101970009142F8D300251D6082800026C680068132
:1019800070BD2DE9F0470446884615461E46DDE940
:10199000089A6F0904B104E04F22F6A1FCA007F0F9
:1019A0008BFD2421204607F060FE00202070A660F9
:1019B000C4F80490A061E061C4F820A0B7F5803FAE
:1019C00001D34FF6FF77BAB2414604F10C00FFF79E
:1019D000C5FFBDE8F08710B5044604B104E06D22F0
:1019E000E4A1ECA007F068FD206A10BD70B50446C4
:1019F0000D4604B104E07322DEA1E6A007F05CFD11
:101A0000207828B9012D03DB7F2D01DC257004E04F
:101A10007D22D8A1E2A007F04FFD70BD01460878F5
:101A2000704710B5044604B105E040F25632D1A12A
:101A3000DCA007F041FD2078401C20702078202891
:101A400001DB0020207010BD2DE9F043024621F09B
:101A5000604322F06044CF0FD50FAF4214D00FB1D6
:101A6000980C00E0184680460DB1A00C00E020461E
:101A70008146C84506D0C84502D20120BDE8F083A2
:101A80000020FBE72846F9E7C1F3807CC2F38076AB
:101A9000A34203D1B44501D03046EFE7A34201D2BF
:101AA0000120EBE70020E9E72DE9F04106460D466D
:101AB00006B105E040F2BF32AEA1B6A007F0FCFCD3
:101AC000287C002800DD05E04FF47072A9A1BAA0BF
:101AD00007F0F2FCF06910B9F561BDE8F081F46936
:101AE000F76913E069686068FFF7AEFF40B1F0691D
:101AF000A04202D12C60F56101E03D602C60ECE772
:101B0000206808B92560E8E727462468002CE9D159
:101B100000BFE2E70146086808B9002070470A687C
:101B2000086800680860C888401CC8800B89C8889D
:101B3000834201DACB880B811046EFE770B505468A
:101B40002846FFF7E7FF04460CB9002070BD1421BA
:101B5000204607F08AFD2046F8E72DE9FF4F83B0C5
:101B6000814688469246119CB9F1000F00D005E0ED
:101B700040F266327FA187A007F09EFC28F060400B
:101B8000404500D105E040F267327AA191A007F00C
:101B900093FCBAF1000F04D16FF0010007B0BDE86B
:101BA000F08F002C04DD109810B96FF00100F5E7FC
:101BB0004FF0000B082C23DA09F10C00FFF7BEFFF1
:101BC000054615B96FF00200E8E7224605F1080066
:101BD000109907F0B1FC601C28749AF8000000F01E
:101BE0001F0040F0C00105F10800015548F0004019
:101BF000686029464846FFF757FF0BF1010B5AE092
:101C000000260020029080200190002000900025F6
:101C10004EE009F10C00FFF791FF054615B96FF092
:101C20000200BBE7002736B9069828720698011211
:101C30006972022700E0002708E01098815D05F135
:101C40000800C155781CC7B2701CC6B2072F01DA54
:101C5000A642F2DBA64201D1402000E001980190AB
:101C6000DDE9010140EA41109AF8001001F01F017E
:101C70000843C1B205F10800C15548F00040686052
:101C8000781C287429464846FFF70EFF0BF1010B1C
:101C9000029880F00100029000200190009003E083
:101CA0000098401CC0B200900098FE28F8DB00BFEE
:101CB000A01BAED100BF584670E710B580EA0120E6
:101CC000002210E000F4004343B14FF6FF7303EA33
:101CD000400341F2210483EA040003E04FF6FF735E
:101CE00003EA4000521C082AECDB10BD70B5064622
:101CF0000C46154605E014F8011B3046FFF7DDFFE2
:101D00000646281EA5F10105F5D1304670BD2DE926
:101D1000F04781461746984600240EE022463D468D
:101D200046462846314607F0E3FA00F0FF0A5146DE
:101D30004846FFF7C2FF81460834402CEEDB484698
:101D4000BDE8F0872DE9FF5F84B017469846DDE9CE
:101D500013A6DDE91594129D002003904FF6FF7B3A
:101D6000B9F1000F48D1002C46DD801E08B0BDE857
:101D7000F09F00002E2E5C48415244574152455C72
:101D800043414E5C63616E6172642E63000000002B
:101D90006F75745F696E7320213D20300000000074
:101DA000300000007472616E736665725F69642052
:101DB000213D2030000000006974656D2D3E667283
:101DC000616D652E646174615F6C656E203E2030CC
:101DD000000000002863616E5F696420262030786F
:101DE00031464646464646465529203D3D206361DC
:101DF0006E5F6964000000001F2E04DD6FF00100BB
:101E000008B0BDE8F09F0498FFF708FE18BB072C48
:101E100002DD6FF00300F3E705F00300A84202D0F3
:101E20006FF00100ECE7224649464FF6FF70FFF7DE
:101E30005DFF47F6FE71084001900498FFF7EEFD44
:101E40003206019942EA412105F0030241EA0221EA
:101E50000843039015E00498FFF7E0FD310641EADE
:101E6000052108430390072C0BDD3A4643465846AC
:101E7000FFF74DFF8346224649465846FFF736FF97
:101E800083465B465246CDE90094DDE90310FFF737
:101E900064FE02905046FFF7C4FD0298B0E72DE9BA
:101EA000FF5F84B0894617469846DDF84CA0DDE90F
:101EB000165435B9002C04DD6FF0010008B0BDE800
:101EC000F09F14981F2802DD6FF00100F6E70498D8
:101ED000FFF7A4FD10B96FF00300EFE70498FFF7D8
:101EE0009DFD14990A06129942EA0142159942EAA7
:101EF000C13141EA092141F0800140EA010B4FF66E
:101F0000FF76072C0BDD3A4643463046FFF7FFFECF
:101F10000646224629463046FFF7E8FE0646334687
:101F200052465946CDE900540498FFF716FE039037
:101F30001598012802D15046FFF773FD0398BDE7BD
:101F40000146C86908B900207047C869001DFBE751
:101F500070B504460D462E46206830602660E08845
:101F6000002800DD06E040F22F62AFF2F811FAA07F
:101F700007F0A2FAE088401EE08070BD70B504460C
:101F8000E5692868E061294604F10C00FFF7E0FFED
:101F900070BD10B50446606800B906E040F2294201
:101FA000AFF23021F8A007F087FA208B800A401C9E
:101FB000A16960F38E21A161A0696FF30900A0619E
:101FC000A06920F40040A06110BD70B505460C4624
:101FD00008E0E068066805F10C00E168FFF7B8FF6B
:101FE000E66000BFE0680028F3D1E060A0602061F7
:101FF000A08270BD70B505460C4608E060680668B2
:1020000005F10C006168FFF7A3FF666000BF606820
:102010000028F3D1A0696FF30900A06100200146F8
:1020200070BD70B505462846FFF774FD04460CB92F
:10203000002070BD002020602046FAE72DE9FF5FF8
:102040000C4690461E460027208BC0F30900C0F1C5
:10205000060000281CDD218BC1F3090008E018F8F8
:10206000072004F11A010A54411C88B2791C8FB26E
:10207000062801D2B742F2DBB74209DB208B811977
:10208000A06961F30900A061012004B0BDE8F09FE0
:10209000208BC0F30900801F1C21B0FBF1F201FB73
:1020A00012090025606858B90098FFF7BAFF606010
:1020B000606808B9E81EE8E765684FF0000926E0A7
:1020C0004FF0010A656804E00AF1010000F0FF0A20
:1020D0002D6828680028F7D1208BC0F30900304410
:1020E000801F1C21B0FBF1F0401C00F0FF0BD3451A
:1020F0000CDDB9F1000F09D10098FFF792FF2860BD
:10210000286810B96FF00200BFE72D6800BF1BE020
:10211000484607E018F80720291D0A54411C88B2D8
:10212000791C8FB21C2801D2B742F3DBB7420BDA1D
:102130000098FFF776FF2860286810B96FF002005A
:10214000A3E72D684FF00009B742E1DB208B81192E
:10215000A06961F30900A061012096E70246881A90
:10216000002800DA20307047024605E010698842F6
:1021700001D1104670471268002AF7D10020F9E714
:1021800070B588B006460C462021684607F06DFA07
:1021900004943046FFF7BEFC054615B9002008B090
:1021A00070BD20226946284607F00BFA2846F6E75C
:1021B00070B504460E46314604F10C00FFF7E0FF0F
:1021C00005460DB9002070BDA0692860A5612846AC
:1021D000F9E770B505460E46AC695CB9314605F1C4
:1021E0000C00FFF7CDFF04460CB9002070BDAC61B8
:1021F0002046FBE731462046FFF7B6FF04460CB108
:102200002046F3E731462846FFF7D2FFEEE70146C6
:10221000C1F3C0120AB902207047C1F3C03008B13F
:102220000120F9E70020F7E710B504462046FFF744
:10223000EEFF022807D1C4F30F2004F07F0109B993
:1022400000F0030010BDC4F30740FBE72DE9F04F99
:1022500097B082460D46174698462868FFF7D7FF85
:102260008346BBF1020F01D1002002E02888C0F3B1
:1022700006201690BBF1020F08D05046FFF7CEFBA8
:102280001699884202D017B0BDE8F08F2868C0F3D5
:1022900004601590287800F07F0014902868FFF7FC
:1022A000C3FF1390139840EA0B41149841EA804110
:1022B000169841EA40601290287B401E291D0E5C52
:1022C0000024F00900B300200A900B9014980090AD
:1022D0005B46DAF804C00AA95046139AE04788B171
:1022E00050461299FFF775FF044604B9CBE74FF645
:1022F000FF70DDE90A23FFF70AFD616960F31F4102
:10230000616100E0BFE707E0DAF818001299FFF713
:102310002BFF044604B9B6E704B106E04FF49E7201
:10232000AFF2B0511FA007F0C7F80022D4E90210A5
:1023300051405040014301D1012000E000201190A4
:10234000D4E902013A1A68EB01001A4B00219A1AEB
:10235000814131D2012030E0616C6C6F6361746F38
:10236000722D3E737461746973746963732E63753F
:102370007272656E745F75736167655F626C6F63BF
:102380006B73203E2030000073746174652D3E62D3
:1023900075666665725F626C6F636B73203D3D208E
:1023A0003000000072785F737461746520213D20F5
:1023B0003000000080841E0000201090F0090F9073
:1023C00006F01F01228BC2F38420FFF7C7FE01280D
:1023D00001DD012000E000200E90119828B910982E
:1023E00018B90F9818B10E9808B1012000E000202C
:1023F0000D900D98A8B1A06966F38E20A061A06928
:1024000020F40040A06121465046FFF7F3FDF0099B
:1024100038B9208B800A401CA16960F38E21A1612C
:1024200031E7F00948B3C6F3801030B3C4E902784D
:10243000202104A807F019F9CDE90478281D069099
:10244000287B401EC0B2ADF824001398ADF82600DA
:102450008DF828B006F01F008DF8290015988DF82A
:102460002A0014988DF82B0004A95046DAF80820A9
:1024700090472046FFF78DFD05E7208BC0F3C03065
:10248000C6F34011884200D0FDE606F01F00218B04
:10249000C1F38421884200D0F5E6F00978B3C6F391
:1024A000801060BB287B032800DCECE6C4E90278DE
:1024B000287BC01EC3B2AA1D21460AF10C00FFF7FB
:1024C000BDFD8146B9F1000F07DA21465046FFF7FE
:1024D00091FD2046FFF75DFDD5E62979687941EA4F
:1024E0000020A082297BC91ECAB26169080CA91DFF
:1024F000FFF7FCFB616960F31F416161CDE0FFE71D
:10250000F00928BBC6F3801010BB287B401EC3B265
:102510002A1D21460AF10C00FFF790FD8146B9F112
:10252000000F07DA21465046FFF764FD2046FFF70B
:1025300030FDA8E6297B491ECAB26169080C291D35
:10254000FFF7D4FB0146606961F31F406061A3E0BF
:10255000287B401EC0B20C904FF00009208BC0F3C6
:102560000900062814D2218BC1F309000AE0291DB5
:1025700011F8092004F11A010A54401C09F1010163
:1025800001F0FF09062843D20C998945EFDB3FE0B3
:10259000606803900398D0B30620029005E003988A
:1025A0000068039002981C3002900398006800288D
:1025B000F5D1039800B106E04FF4D972AFF64C01A3
:1025C000F9A006F079FF208BC0F309010298081AE0
:1025D000019001981C2800D206E040F2B512AFF637
:1025E0006C01F44806F068FF01980AE0291D11F813
:1025F00009200399091D0A54401C09F1010101F049
:10260000FF091C2802D20C998945EFDB00BF00BFEF
:10261000CDE9047804F11A000690606807900C98E0
:10262000814501DB002001E0281D48440890208BF3
:10263000C0F309010C980844ADF824001398ADF8D4
:1026400026008DF828B006F01F008DF82900159897
:102650008DF82A0014988DF82B0000206060297BEB
:102660004A1E6169080C291DFFF740FB616960F390
:102670001F416161A08A6169B0EB114F04D104A9C7
:102680005046DAF80820904704A95046FFF79DFC11
:102690002046FFF77EFCF6E500BF208BC00BC14350
:1026A000A06961F3CF30A06100BFECE52DE9F041F6
:1026B000044617469846A669A5692AE0D5E90201AD
:1026C0003A1A68EB0100BC4B00219A1A81411ED2D4
:1026D000A069A8420ED129462046FFF78BFCA069CD
:1026E0000068A061294604F10C00FFF731FCA569E0
:1026F0002E460EE029462046FFF77CFC2868306015
:10270000294604F10C00FFF723FC356801E02E4652
:102710002D68002DD2D1BDE8F0812DE9F0410746AA
:10272000884607B106E040F2C552AFF6B811A3A043
:1027300006F0C2FE3C460025A8F1010606E0605DF9
:10274000A15D6155A0556D1C761E00BFB542F6D344
:10275000BDE8F08108B5012000909DF80100012836
:1027600000D108BD0020FCE72DE9F05F80460C4653
:1027700091461E460A9DB9F1000F00D006E040F2D6
:102780003152AFF6102190A006F096FE08EBD40867
:1027900006EBD50604F0070405F0070504EB09076E
:1027A00038E004F0070305F00700834201DD9B4693
:1027B00000E08346DC46A7EB040BCCF1080EF345A2
:1027C00002D2A7EB040B01E0CCF1080B59464FF401
:1027D0007F4B2BFA01FB0BF0FF0B4BFA00F208EBDF
:1027E000D40B9BF800B00BFA03FB4BFA00FB0BF089
:1027F000FF0A06EBD50B9BF800B02BEA020B0AEAA6
:10280000020E4BEA0E0B06EBD50E8EF800B00C4410
:102810000D4400BF381BC4D1BDE8F09F2DE9FF4F28
:1028200085B00546894605B106E040F25252AFF642
:10283000BC2169A006F040FEA88AB9EBC00F03D303
:10284000002009B0BDE8F08F079809EB0001A88AC5
:10285000B1EBC00F04D9287DC9EBC000C0B207900E
:102860000798002800DD06E040F25E52AFF6FC213A
:102870005DA006F021FEE86810B9286900287DD027
:102880004C464FF0000A079E302C1AD2C4F130009B
:10289000B04201D9304601E0C4F1300000F0FF0839
:1028A00000200090A86842462146089BFFF75CFF85
:1028B00044440AEB080000F0FF0AA6EB0800C6B289
:1028C00000BFA88A3021C1EBC00004903027E8681F
:1028D00003904FE0049800B106E040F27F52AFF65B
:1028E0006C3145A006F0E8FD0498E02801D9E0200D
:1028F00000E0049800EB0708A04527D9A8EB0400E6
:10290000B04201D9304601E0A8EB040000F0FF0B13
:10291000BC4200D306E04FF4B162AFF6A8313BA051
:1029200006F0CAFDE01B0290CDF800A05A46DDE992
:102930000210001D089BFFF717FF5C440AEB0B0019
:1029400000F0FF0AA6EB0B00C6B200BFB84500D9E5
:1029500006E040F29252AFF6E43136A006F0ACFD4C
:10296000A8EB07010498401A0490474603980068B2
:10297000039000BF039818B1002E00E0BCE0A9DC72
:102980000498864200D806E04FF4B362AFF61C41CB
:1029900032A006F091FD286920B1002E02DDBC4274
:1029A00070D377E087E06DE0626C6F636B20213D50
:1029B0002030000094B2000880841E0064617461BD
:1029C00020213D20300000007372635F6C656E2033
:1029D0003E203055000000007472616E73666572AF
:1029E00020213D20300000006269745F6C656E67D5
:1029F0007468203E2030000072656D61696E696EFA
:102A0000675F62697473203E20300000696E7075E4
:102A1000745F6269745F6F6666736574203E3D2003
:102A2000626C6F636B5F6269745F6F666673657417
:102A300000000000626C6F636B5F656E645F6269CB
:102A4000745F6F6666736574203E20626C6F636BA3
:102A50005F6269745F6F66667365740072656D614D
:102A6000696E696E675F6269745F6C656E677468D2
:102A7000203C3D2072656D61696E696E675F6269B9
:102A80007473000040F29D52AFF61851AFF284000B
:102A900006F012FDA4EB0708CDF800A02869324625
:102AA0004146089BFFF760FE34440AEB060000F045
:102AB000FF0A002600BFA88AB4EBC00F00D806E0CA
:102AC0004FF4B562AFF65451F2A006F0F5FCBAF13E
:102AD000400F00DC06E040F2A952AFF66851F9A0C1
:102AE00006F0EAFC06B906E040F2AA52AFF67C51C5
:102AF000FAA006F0E1FC07E000200090A868494633
:102B0000DDE90723FFF730FE07989AE62DE9FF4F2E
:102B100085B014469846129D059800B125B96FF00E
:102B2000010009B0BDE8F08F012C01DB402C02DD73
:102B30006FF00100F5E7012C04D1B8F1000F01D0CE
:102B4000E01EEEE70020009001906B462246DDE992
:102B50000501FFF763FE0646002E01DC3046E0E784
:102B6000002E04DD402E02DCA64200DC06E040F22E
:102B70002E22AFF60061E0A006F09EFCE11704EB08
:102B80005171C910A4EBC101F1B12046E31704EB68
:102B90005373DB101DF8033021464FEAE47C04EB4D
:102BA0005C7C4FEAEC0CA4EBCC0CCCF1000C0CF0F0
:102BB000070C43FA0CF322464FEAE47C04EB5C7CFE
:102BC0004FEAEC0C0DF80C300027012C01D1012745
:102BD00017E0082C01DC012713E0102C01DC022790
:102BE0000FE0202C01DC04270BE0402C01DC08273F
:102BF00006E040F24722AFF68461BEA006F05CFC1E
:102C000000BF002F02DD082F00DC06E040F24B225F
:102C1000AFF6A061C7A006F04FFCFFF79BFD18B10F
:102C200039466846FFF779FDB8F1000F79D0B4EB6B
:102C3000C70F76D0082C12DC9DF90000611E01221E
:102C40008A40104000286CD09DF800100120A04060
:102C5000401E61EA000148B28DF8000061E0102CCE
:102C600012DCBDF90000611E01228A4010400028DC
:102C700057D0BDF800100120A040401E61EA0001BD
:102C800008B2ADF800004CE0202C0DDC611E0122E2
:102C90008A4000981040D8B30120A040401E0099FF
:102CA00061EA000100913CE0402C32DA621E4FF0F4
:102CB00001090020DDE900AB02904846029906F0C8
:102CC00004FB0AEA000A0BEA010B00218AEA010A66
:102CD0008BEA010B5AEA0B0A22D02246012100207E
:102CE000DDE900ABCDE903010846039906F0EDFAF2
:102CF000401E61F10002C143D0434FF0FF3211404A
:102D000010404AEA010A4BEA000BCDE900AB07E0AC
:102D100007E04FF41E72AFF6A47176A006F0CCFB6C
:102D200000BFB8F1000F1FD0082C03DC9DF8000095
:102D300028703EE0102C03DCBDF80000288038E04D
:102D4000202C02DC0098286033E0402C04DCDDE914
:102D50000001C5E9000106E04FF42272AFF6EC7104
:102D600064A006F0A9FB24E0012C03D19DF800002B
:102D700028701EE0082C03DC9DF80000287018E085
:102D8000102C03DCBDF80000288012E0202C02DCAF
:102D9000009828600DE0402C04DCDDE90001C5E965
:102DA000000105E040F295226E4952A006F084FB36
:102DB00000BFA64200DC05E040F29A2269496AA001
:102DC00006F07AFB002E00DD05E040F29B2265490B
:102DD0006BA006F071FB3046A3E62DE9FF470646DF
:102DE000884614461D4606B105E040F2A9225D4919
:102DF00066A006F061FB05B105E040F2AA22594940
:102E000067A006F059FB402C05DD40F2AE22554983
:102E100038A006F051FB012C05DA4FF42D72514910
:102E200034A006F049FB0020029003900027012CFB
:102E300008D10127287808B1012000E000208DF892
:102E4000080022E0082C04DC012728788DF808000F
:102E50001BE0102C04DC02272888ADF8080014E0E1
:102E6000202C03DC0427286802900EE0402C05DCAF
:102E70000827D5E90001CDE9020105E040F2D122A1
:102E800038491CA006F018FB00BF002F00DD93E0BE
:102E90008CE00000696E7075745F6269745F6F66C4
:102EA00066736574203C3D207472616E7366657252
:102EB0002D3E7061796C6F61645F6C656E202A20B5
:102EC000380000006F75747075745F6269745F6FAD
:102ED0006666736574203C3D2036340072656D6112
:102EE000696E696E675F6269745F6C656E6774684E
:102EF000203D3D203000000028726573756C742001
:102F00003E2030292026262028726573756C742097
:102F10003C3D203634292026262028726573756CA6
:102F200074203C3D206269745F6C656E677468292B
:102F300000000000287374645F627974655F6C65DB
:102F40006E677468203E203029202626202873745E
:102F5000645F627974655F6C656E677468203C3D80
:102F600020382900741D0008726573756C74203C4C
:102F70003D206269745F6C656E67746800000000D4
:102F8000726573756C74203E203000006465737444
:102F9000696E6174696F6E20213D20300000000071
:102FA00076616C756520213D203000004FF435724C
:102FB000554956A006F080FAFFF7CCFB18B1394608
:102FC00002A8FFF7AAFBE11704EB5171C910A4EBAB
:102FD000C10111B32046E31704EB5373DB100DF16D
:102FE000080C1CF8033021464FEAE47C04EB5C7CBF
:102FF0004FEAEC0CA4EBCC0CCCF1000C0CF0070C61
:1030000003FA0CF322464FEAE47C04EB5C7C4FEAC3
:10301000EC0C0DF1080909F80C303346224600216A
:1030200002A8CDF80080FFF79FFBBDE8FF870B6982
:1030300003608A8A828070472DE9FF410446384840
:10304000006803903648001D00680290344808303C
:10305000006801904FF000474FEAE748009400985D
:1030600000F0004500986840009000260399009801
:1030700088420AD303990098884202D947F6FF7024
:1030800001E04FF4F840064615E000986FF30B009E
:103090000090DDE9000107F063FF0090009800F563
:1030A0008050009002990098884201D902980090BF
:1030B0000098C0F34F3646EA1546304604B0BDE8E6
:1030C000F0813EB5044616480C3000680290144862
:1030D0001030006801906004000900900299009887
:1030E00007F03EFF0090DDE9000108F005F803D885
:1030F000009840F0FF40009004F40041009840EA3E
:103100000140009000983EBD741D00087374645F18
:10311000627974655F6C656E677468203E2030006C
:1031200060B1000800B58DB00121084603F069FACE
:10313000FE4805F023FBFE480290FE480390002065
:1031400004900690802007904000089002A9F7485C
:1031500005F0B6FB01220221F44805F0E8FB0B2044
:103160008DF8040005208DF8050001208DF807007A
:1031700001A802F0CEFE0121EC4805F0CCFB0DB019
:1031800000BD00B587B00121042003F054FA42F2DB
:103190001070ADF81400E8480068E849B0FBF1F0A1
:1031A000401E80B2ADF810000020ADF81600ADF85A
:1031B000120004A9E24804F065FA6020ADF80000AE
:1031C0000120ADF8020041F28830ADF8060002207F
:1031D000ADF808006946DA4804F06BFB0121D848D5
:1031E00004F0C6FDD64804F0F7FD0821D44804F0E9
:1031F0000EFF0021D24805F007F807B000BD00B56A
:1032000087B001214FF4057003F008FA4FF4004035
:1032100003F068F9E020ADF8040000208DF8070005
:1032200001A9C84802F03EFF3020ADF8040000209C
:103230008DF8070001A9C44802F034FFBC484C389F
:1032400005F074F80020029001208DF80C00002099
:103250008DF80D004FF420200490002005900520EB
:103260008DF8180002A9B2484C3805F086F80323FF
:1032700001220521AE484C3805F017F9032302223C
:103280000621AB484C3805F010F903231A460721F4
:10329000A7484C3805F009F9032304220E21A4485D
:1032A0004C3805F002F9032305220F21A0484C38C1
:1032B00005F0FBF801219E484C3805F08AF89C483F
:1032C0004C3805F0A8F800BF99484C3805F0A8F82C
:1032D0000028F9D196484C3805F0ACF80121944803
:1032E0004C3805F03EF9FFF71DFF012190484C389E
:1032F00005F07AF8FFF745FF07B000BD1FB50121C3
:103300001C2003F08BF91020ADF80C0004208DF880
:103310000F0003A98B4802F0C5FE44F20100ADF88E
:103320000C0004208DF80F0003A9884802F0BAFEB3
:103330004FF40070ADF80C0004208DF80F0003A9C5
:10334000814802F0AFFE0121084603F067F904212D
:10335000002002F0BDFF0021012002F0B9FF0E2184
:10336000012002F0B5FF0921022002F0B1FF44F272
:103370001120019000208DF808000C208DF8090024
:1033800001208DF80A0001A805F030FB17208DF808
:10339000000002208DF8010001208DF802008DF858
:1033A0000300684602F0B5FD28208DF8000068464D
:1033B00002F0AFFD0A208DF80000684602F0A9FD7A
:1033C00008208DF80000684602F0A3FD07208DF864
:1033D0000000684602F09DFD06208DF8000068465A
:1033E00002F097FD1FBD08B50121082003F016F972
:1033F0004FF48040ADF8000004208DF803006946CA
:10340000524802F04FFE08BD08B50121082003F024
:1034100005F94FF48040ADF8000010208DF803004E
:1034200003208DF802006946484802F03BFE002068
:103430004749086008BD0EB50121092003F0EEF8E8
:103440000121444802F0FFFE43F20A00ADF80800F3
:1034500004208DF80B0002A93C4802F023FE012154
:10346000084602F035FF0D21012002F031FF012155
:10347000202003F0D3F80420ADF808008DF80B00ED
:1034800002A9354802F00EFE0221032002F020FFBF
:103490000121102003F0C2F84FF4E050ADF808000D
:1034A00004208DF80B0002A9274802F0FBFD012142
:1034B000042003F0B3F84FF4E060ADF808000420F6
:1034C0008DF80B0002A91F4802F0ECFD0A21002034
:1034D00002F0FEFE0921002002F0FAFE0821002081
:1034E00002F0F6FE42F20670009000208DF8040013
:1034F00008208DF8050001208DF80600684605F0CB
:1035000075FA0EBD10B5022005F03FFA30B3002168
:10351000064805F000FA002105484C3804F059FF30
:103520000521024805F00CFA022018E008000240CC
:103530004C240140D000002034000020A08601006F
:10354000000800400008014000100140000C01404C
:10355000B8812142000230000014014008E005F06B
:1035600028FA022005F006FA0120A74981F8240074
:1035700010BD2DE9F04786B0A348B0F888004FF49D
:103580007A71484340F6FF7190FBF1FA504607F01C
:103590008CFA80464FF066329C4B07F09DFA064647
:1035A00000229B4B07F098FA044607F051FA81B2CB
:1035B0009548A0F89210B0F88A004FF47A71484309
:1035C00040F6FF7190FBF1FA504607F06EFA4FF0AB
:1035D00066328E4BCDE9000107F07EFA06460022E6
:1035E0008C4B07F079FA00228B4BCDE9020107F0F2
:1035F000A7F880460022894B07F0A2F80446884AC3
:10360000884B07F09DF8CDE9040107F021FA81B25B
:103610007D48A0F89410B0F88C00362148430A2168
:1036200090FBF1F081B27848A0F89610B0F88E00C7
:1036300000EBC00000EB4000642190FBF1F081B290
:103640007148A0F89810B0F890004FF47A71484390
:1036500040F6FF7190FBF1FA504607F026FA4FF062
:1036600066326A4BCDE9000107F036FA0022694B59
:10367000CDE9020107F030FA06460022664B07F05A
:103680005FF804460022654B07F05AF88046644A0A
:10369000644B07F055F8CDE9040107F0D9F981B280
:1036A0005948A0F89A1006B0BDE8F08710B504217B
:1036B0005D4802F08AFD012809D181025B4802F0D1
:1036C00084FD20B90121504880F8AC1027E0042186
:1036D000554802F07AFD58B94FF48061534802F022
:1036E00074FD012804D10221474880F8AC1016E08F
:1036F00004214D4802F069FD50B94FF480614B48F8
:1037000002F063FD20B903213F4880F8AC1006E0C9
:1037100000213D4880F8AC1045A005F0FDFD4FF4B8
:103720000051504802F051FD012809D102214D48B5
:1037300002F04BFD20B90221334880F8AD1027E09C
:103740004FF40051474802F040FD50B9022145486E
:1037500002F03BFD012804D101212B4880F8AD1077
:1037600016E04FF400513F4802F02FFD48B9022106
:103770003C4802F02AFD20B90321234880F8AD100F
:1037800006E00021204880F8AD1037A005F0C4FD08
:103790004FF48071254802F018FD012809D141023B
:1037A000224802F012FD20B90221174880F8AE101D
:1037B00029E04FF480711D4802F007FD58B94FF41D
:1037C00000711A4802F001FD012804D101210E48C0
:1037D00080F8AE1017E04FF48071144802F0F5FC49
:1037E00050B94FF40071114802F0EFFC20B90321E9
:1037F000054880F8AE1006E00021034880F8AE10BE
:1038000027A005F089FD10BD4800002066660A402B
:103810000000264000001040000008400000344036
:103820009A9999999999C93F00140140000801405B
:103830004572726F723A20465720627567206F7228
:10384000204857206661756C742068617070656EE1
:1038500020746F206C69667465722073656E736F77
:1038600072730A00000C01404572726F723A204672
:103870005720627567206F72204857206661756C0B
:10388000742068617070656E20746F20757070654B
:1038900072646F6F722073656E736F72730A0000CB
:1038A0004572726F723A20465720627567206F72B8
:1038B000204857206661756C742068617070656E71
:1038C00020746F206C6F776572646F6F7220736500
:1038D0006E736F72730A000010B50446204602F042
:1038E00066F910BD10B504460121084602F096FEA7
:1038F0000121AB4802F0A7FCAA48006820F0704004
:10390000A84908600846006840F04050086010BDB3
:1039100010B504460121084602F080FE0121A048AE
:1039200002F091FC9F48006820F070409D490860BB
:103930000846006840F00040086010BD10B504461D
:1039400094B14FF400419748001F02F05AFC062042
:10395000FFF7C2FF4FF400419248001F02F04FFCF6
:103960004020FFF7B9FF11E04FF400418D48001FE0
:1039700002F047FC4020FFF7AFFF4FF400418948B9
:10398000001F02F03CFC0520FFF7A6FF10BD10B59C
:103990004FF40040FFF7A6FF4FF400418148001F9D
:1039A00002F02FFC0220FFF797FF4FF400417D4803
:1039B000001F02F024FC4FF40040FFF7A9FF0C2089
:1039C000FFF78AFF4FF400417648001F02F0FDFB2D
:1039D00000F001043220FFF77FFF204610BD70B5D4
:1039E00004464FF40040FFF77DFF0620FFF774FF09
:1039F000002505E004F00100FFF7A0FF64106D1C36
:103A0000082DF7DB70BD70B50026002506E0FFF736
:103A1000BEFF0446E00140EA66066D1C082DF6DB99
:103A2000304670BD10B54FF40040FFF75BFF4FF418
:103A300000415C48001F02F0E4FB40F2EE20FFF77B
:103A40004BFF4FF400415748001F02F0D8FB0F20F6
:103A5000FFF742FF10BD10B500244FF40040FFF700
:103A600057FF04E0601CC4B20120FFF735FF4FF49C
:103A700000414C48001F02F0A8FB08B1C82CF1DB44
:103A8000C82C01DB012010BD002404E0601CC4B27E
:103A90000A20FFF721FF4FF400414248001F02F0C7
:103AA00094FB08B9182CF1DB182C01DB0120EAE7A4
:103AB0000020E8E708B50121042002F0AFFD012154
:103AC000084602F0ABFD0121354802F0BCFB4FF483
:103AD0000040ADF8000010208DF8030003208DF8A1
:103AE000020069462F48001F02F0DCFA4FF4004143
:103AF0002C48001F02F083FBFFF794FFFFF7ABFF9A
:103B000008BD10B5FFF78EFFFFF7A5FFCC20FFF72C
:103B100066FF4420FFF763FF10BD2DE9F05FFFF75C
:103B2000F0FFFFF77FFFFFF796FF8346CC20FFF7FC
:103B300056FFBE20FFF753FFFFF765FF00F0FF0AB7
:103B4000FFF761FFC4B2072C08DDE043C4B26FEA9F
:103B50000A0000F0FF0A4FF0000B01E04FF0010BEC
:103B6000A1464FEA09200FFA80F909EB0A000FFA83
:103B700080F9484606F099FF074600220A4B06F0F6
:103B8000ABFF054606F034FF0FFA80F9BBF1000FDA
:103B900002D04846BDE8F09FC9F1000000B2F9E745
:103BA00000023000040801400000E43F08B5012194
:103BB000102002F033FD0720ADF8000010208DF832
:103BC000030003208DF802006946FD4802F06AFAFE
:103BD0000020FC490860FC49C1F88001F949091D31
:103BE000086008BD70B504460D46112C08D1294661
:103BF000F64804F055FB0021F44804F053FB14E0B0
:103C0000122C08D10021F14804F04AFB2946EF4864
:103C100004F048FB09E0132C07D10021EB4804F025
:103C20003FFB0021E94804F03DFB70BD70B505463F
:103C30000C46012D25D150212046FFF7D3FF01214D
:103C4000E24804F095F8112C08D100BF4FF48061D0
:103C5000DB4802F0BAFA0128F8D109E0122C07D1AA
:103C600000BF4FF48051D64802F0AFFA0128F8D1D6
:103C700050211320FFF7B6FF0021D44804F078F854
:103C80002AE0022D25D150212046FFF7ABFF01216C
:103C9000CE4804F06DF8112C08D100BF4FF400613C
:103CA000C74802F092FA0128F8D109E0122C07D196
:103CB00000BF4FF48051C64802F087FA0128F8D1BE
:103CC00050211320FFF78EFF0021C04804F050F868
:103CD00002E0C0A005F020FB70BD70B504460D46A3
:103CE000112C0DD1C74890F84800152808D1294655
:103CF000800704F0D9FA0021A00704F0D7FA27E0E2
:103D0000122C0DD1BF4890F84800152808D1002189
:103D1000800704F0C9FA2946600704F0C7FA17E0E3
:103D2000142C0CD10021200704F0BEFA002120073A
:103D300004F0BCFA1420B34981F8480008E0132CC1
:103D400006D10020B04908601320AE4981F8480030
:103D500070BD70B504460025012C74D1010398484C
:103D600002F033FA01286ED00021A648A0F85A10BC
:103D700000209449091F086001209349C1F884017B
:103D800050211120FFF72EFF0121904803F0F0FF92
:103D900017E06D1C9D48854213D34FF4806188481D
:103DA00002F013FA012804D103219648A0F85A1012
:103DB00003E004219348A0F85A1095A005F0ACFA4E
:103DC00006E04FF480517E4802F0FFF90128E0D16F
:103DD00000BF4FF4FA711320FFF704FF00217B4866
:103DE00003F0C6FF4FF48061754802F0EEF9012838
:103DF00004D10221834880F8AA100FE04FF48051CB
:103E00006F4802F0E2F9012804D101217D4880F8D1
:103E1000AA1003E003217B4880F8AA107948B0F883
:103E20005A0000280ED07748B0F8B600401C81B286
:103E30007448A0F8B610B0F85A1000E003E082A071
:103E400005F06AFA87E0022C6CD1E102604802F0CA
:103E5000BCF9012866D000216A48A0F86A10002049
:103E60005849086001205849C1F8800150211120AB
:103E7000FFF7B8FE0121554803F07AFF14E06D1CEE
:103E80006248854210D34FF400614D4802F09DF91D
:103E9000012804D103215B48A0F86A1003E0042143
:103EA0005848A0F86A1006E04FF40061444802F058
:103EB0008CF90128E3D100BF50211320FFF792FEB7
:103EC0000021424803F054FF4FF48051404802F073
:103ED0007CF9012804D101214A4880F8AB100FE099
:103EE0004FF40061364802F070F9012804D1022134
:103EF000444880F8AB1003E00321424880F8AB103F
:103F00004048B0F86A0030B33E48B0F8B600401CF4
:103F100081B23C48A0F8B610B0F86A1059A005F07C
:103F2000FBF918E0012C0AD12103254802F04DF9D4
:103F3000012804D10121334880F8AA100BE0022C9B
:103F400009D1E102224802F040F9012803D1012100
:103F50002C4880F8AB1070BD70B504460E4615466F
:103F6000012D02D0022D29D1ACE0264890F828007E
:103F7000152815D1112C08D13146514804F090F97B
:103F800000214F4804F08EF918E0122C16D10021C0
:103F90004B4804F085F93146494804F083F90DE0B7
:103FA000142C0BD11420174981F828000021444813
:103FB00004F076F90021424804F074F9ACE0000006
:103FC000001001408401224200002242000400400F
:103FD000000C01404572726F723A20546865206986
:103FE0006E70757420706172616D65746572732096
:103FF000617265206E6F7420636F727265637421E5
:104000000A00000048000020BC81214200449508BD
:10401000204572726F723A206F6E65206F66207451
:1040200068652075707065726C6F636B6572207364
:104030007769746368206861732070726F62656C61
:104040006D2E200D0A0000004572726F723A2054E6
:1040500068652075707065726C6F636B6572206641
:1040600061696C7320746F206C6174636820696E81
:104070002C206572726F72636F64652069732025EE
:10408000640D0A004572726F723A20546865206CA4
:104090006F7765726C6F636B6572206661696C73B4
:1040A00020746F2072656C656173652C2065727277
:1040B0006F72636F64652069732025640D0A0000C8
:1040C000000C0040F84890F83800152815D1112C44
:1040D00008D13146F54804F0E7F80021F34804F030
:1040E000E5F818E0122C16D10021F04804F0DCF8B5
:1040F0003146EE4804F0DAF80DE0142C0BD1002123
:10410000EA4804F0D1F80021E84804F0CFF8142080
:10411000E54981F8380000BF00BF70BD70B50446A6
:104120000D46012229462046FFF716FF02222946A6
:104130002046FFF711FF70BD70B5DB4890F8A10075
:10414000012876D1D84890F8A3000028F9D1D64BA1
:10415000B3F8D820D3F8DC10186AFCF747F8002829
:1041600068D1D14890F8E0000028EAD1CE4890F814
:10417000C00003286DD0CC4890F8C0200021142046
:10418000FFF7EAFEC84890F8C00001282CD1C648C5
:1041900090F8C100112802D012281BD10CE0022196
:1041A000C34802F012F818B14121BF48418502E02E
:1041B0000321BD4841850DE04FF40051BC4802F099
:1041C00004F818B14121B848418502E00321B648FE
:1041D000418500BF00BFB448B0F8B000401C81B2B8
:1041E000B148A0F8B01092E0AF4890F8C0000228A3
:1041F000F9D1AD4890F8C100112802D012281ED183
:104200000DE04FF40071AB4801F0DFFF18B1412120
:10421000A548418702E00321A34841870FE04FF4FE
:104220008071A44801F0D1FF28B141219E48418707
:1042300004E0B1E07AE003219B48418700BF00BF62
:104240009948B0F8B200401C81B29748A0F8B2106B
:104250005DE000211420FFF761FF934890F8C10052
:10426000112802D0122851D127E00221904801F0F4
:10427000ACFF50B903218C484185B0F8B000401C18
:1042800081B28948A0F8B01002E00021864841853B
:104290004FF40071874801F098FF50B9032182481C
:1042A0004187B0F8B200401C81B27F48A0F8B2103C
:1042B00002E000217C48418728E04FF400517C480F
:1042C00001F083FF50B9032177484185B0F8B00071
:1042D000401C81B27448A0F8B01002E0002172487E
:1042E00041854FF48071734801F06FFF50B903218D
:1042F0006D484187B0F8B200401C81B26A48A0F80E
:10430000B21002E000216848418700BF00BF0020D2
:10431000654981F8C000084690F8C01066A004F016
:10432000FBFF0221604880F8A31058E05E4890F837
:10433000E000012831D15C4890F8C00003282CD05F
:104340000121594880F8A31090F8C000012803D13A
:1043500000215548418507E0534890F8C0000228E5
:1043600002D10021504841874F4890F8C1001228DF
:1043700035D14FF400514E4801F027FF012806D0F7
:104380004FF480714B4801F020FF012827D14649A6
:1043900091F8C000FFF7DDFC21E0434890F8C00031
:1043A00003281CD1404890F8E000022817D10021D2
:1043B0003D4841854187012180F8A31049033C48CD
:1043C00001F003FF10B10120FFF7C3FC4FF480712F
:1043D000384801F0FAFE10B10220FFF7BAFC32486B
:1043E00090F8A700012825D12F4BB3F84C20196D68
:1043F000186AFBF7FBFE90B900211420FFF76DFC53
:1044000003212948A0F84A10022180F8A410B0F82E
:10441000B400401C81B22448A0F8B4100AE022483D
:1044200090F8E10030B101211F4880F8A41000216C
:10443000A0F84A101C4890F8A500012871D100216D
:10444000194880F8A21090F8580011286AD116482F
:1044500090F868000028F9D10024134880F867100C
:10446000A0F85A1000202049086001201F49C1F817
:1044700084010D48056A64211120FFF7B3FB012177
:104480001B4803F075FC6FE0641C1A4884424AD351
:104490004FF48051184801F098FE01282ED10321D5
:1044A0000148A0F85A102DE048000020000C004000
:1044B000000C0140000801404572726F723A20748E
:1044C000696D656F757420647572696E6720646FBD
:1044D0006F72206F7065726174696F6E2C20494431
:1044E0003D25640D0A0000008001224200002242A6
:1044F00000040040802ED300001001400421FB483E
:10450000A0F85A10AFF2F84004F006FFF748006A2E
:10451000411BF7A004F000FF0221F44880F8A2102C
:1045200029E0B6E23FE0F14890F8BD0001281BD138
:10453000FEF76AFF0A21ED48A0F85A10F54804F08A
:10454000EBFEEA48B0F85A10F3A004F0E5FE0021B3
:10455000FC4803F0A5FE0021FA4803F0A3FE022167
:10456000E24880F8A21006E04FF48061F64801F0BE
:104570002CFE012888D100BF4FF4FA711320FFF7F9
:1045800031FB4FF47A7400BF641E642CFCD200200F
:10459000EE490860D548B0F85A0018B90121D3484F
:1045A00080F8A21069E2D14890F85800122878D11A
:1045B000CE4890F86800002873D100240021CB4831
:1045C000A0F85A100020E149091F08600120E049C5
:1045D000C1F8840164211220FFF704FB0121D948AE
:1045E00003F0C6FB3DE0641CDA48844218D34FF464
:1045F0008061D54801F0E9FD012804D10321BB48C1
:10460000A0F85A1003E00421B848A0F85A10AFF2FD
:10461000006004F081FE0221B44880F8A21027E077
:10462000B24890F8BD0001281BD1FEF7EDFE0A212B
:10463000AE48A0F85A10B74804F06EFEAB48B0F888
:104640005A10B5A004F068FE0021BE4803F028FE11
:104650000021BC4803F026FE0221A44880F8A210E5
:1046600006E04FF48051B84801F0AFFD0128BAD1FF
:1046700000BF4FF4FA711320FFF7B4FA4FF47A74C5
:1046800000BF641E642CFCD90020B0490860974824
:10469000B0F85A0018B90121944880F8A210ECE152
:1046A000FFE7924890F86800122849D18F4890F8A7
:1046B0005800E8BB002400218C48A0F86A100120B3
:1046C000A249091F08600020A149C1F884015021B6
:1046D0001220FFF787FA01219A4803F049FB17E0FF
:1046E000641C9C48844213D34FF40061964801F047
:1046F0006CFD012804D103217C48A0F86A1003E076
:1047000004217A48A0F86A1093A004F005FE06E0A0
:104710004FF480519E4801F058FD0128E0D100BFC0
:104720004FF4FA711320FFF75DFA0021854800E08D
:1047300006E003F01DFB00208449091F08609CE18E
:104740006A4890F86800112849D1684890F85800E4
:10475000E8BB002400216548A0F86A1001207B49CD
:10476000091F086000207A49C1F8840150211120F6
:10477000FFF738FA0121734803F0FAFA17E0641CD6
:104780007448844213D34FF48051814801F01DFDD9
:10479000012804D103215548A0F86A1003E0042140
:1047A0005248A0F86A106CA004F0B6FD06E04FF481
:1047B0000061654801F009FD0128E0D100BF4FF418
:1047C000FA711320FFF70EFA00215E4800E006E0C0
:1047D00003F0CEFA00205D49091F08604DE143480F
:1047E00090F86800414991F858108842A7D10024F8
:1047F00000253E4890F8680011282CD14FF48051D4
:10480000514801F0E2FC01280DD000204F49091F5A
:10481000086001204E49C1F884011221FFF706FA11
:1048200000204A4908604FF48051594801F0CDFCFE
:10483000012841D001204549091F08600020444952
:10484000C1F8840112210220FFF7F0F900203F494E
:10485000091F086030E0254890F8680012282BD125
:104860004FF48061384801F0B0FC01280DD00020E1
:104870003649091F086001203549C1F8840111211A
:10488000FFF7D4F90020314908604FF400612E4849
:1048900001F09BFC01280FD001202C49091F086062
:1048A00000202B49C1F8840111210220FFF7BEF935
:1048B00000202649091F086000202449091F0860BC
:1048C0002349C1F884010948056A014691F8680046
:1048D0005021FFF787F901211A4803F049FA0348EC
:1048E00090F86800112877D17BE000004800002094
:1048F000205761726E696E673A207468652074692A
:104900006D656F7574206973202564206D730D0AC1
:1049100000000000ECB200084572726F723A20632A
:104920006F72726573706F6E64696E672065727204
:104930006F7220636F6465206973202564210D0AFE
:1049400000000000000400400010014084012242E9
:1049500000002242802ED300204572726F723A20EE
:104960006F6E65206F6620746865206C6F77657266
:104970006C6F636B6572207377697463682068611C
:10498000732070726F62656C6D2E200D0A0000003E
:10499000000C0140641CFE48844222D34FF4806125
:1049A000FC4801F012FC012803D00321FA48A0F8CA
:1049B0005A104FF40061F74801F007FC012803D0BA
:1049C0000321F548A0F86A10AFF6BC1004F0A4FC6F
:1049D000F148006A411B00E011E0F0A004F09CFCEB
:1049E0000CE04FF48061EB4801F0EFFB0128D1D1DE
:1049F0008102E84801F0E9FB0128CBD133E024E053
:104A0000641CE348844220D34FF48051E14801F014
:104A1000DCFB012803D00321DF48A0F85A104FF433
:104A20008051E64801F0D1FB012803D00321DA4888
:104A3000A0F86A10AFF6282004F06EFCD648006A91
:104A4000411BD6A004F068FC0CE04FF48051D14823
:104A500001F0BBFB0128D3D10103D84801F0B5FB1D
:104A60000128CDD100BF4FF4FA711320FFF7BAF837
:104A70000021D34803F07CF900BF0020C64981F82B
:104A8000580081F868000021C348A0F85A10A0F827
:104A90006A1070BD70B5C04890F8BC0001284BD1B9
:104AA0000026BD4890F8A700012812D1BA4890F816
:104AB0005600112807D112254FF48061C14801F03A
:104AC00084FB044605E011250421BF4801F07DFB6D
:104AD00004464FF4FA712846FFF7FFF8002204213C
:104AE000BA4803F060F90120B949086008E0761C73
:104AF000B848864204D31321A748A0F84A1001E021
:104B0000012CF4D100BFA448B0F84A00132812D0F9
:104B100000214FF0804003F0C7FB00214FF08040A0
:104B200003F0C4FB00214FF0804003F021F9002185
:104B3000994880F8BC1000BF974890F8BD00012844
:104B400033D1954890F8BE0000282ED1924890F8B5
:104B5000B800401CC1B2904880F8B810012180F81C
:104B6000BE1090F8B80003280EDA41F288319A4856
:104B700003F094FB0121984803F0FAF8FEF744FC97
:104B800096A004F0C9FB10E0FEF73EFC00218C4823
:104B900003F086FB00218A4803F084FB01217E4854
:104BA00080F8AF109C4804F0B7FB70BD00B589B029
:104BB0000121092001F032FD0121984801F043FB59
:104BC0004FF44060ADF8200018208DF8230003203A
:104BD0008DF8220008A9794801F064FA0121092022
:104BE00001F01CFD01218E4801F02DFB01218D48B3
:104BF00001F029FB3020ADF8200018208DF82300AB
:104C000003208DF8220008A96C4801F04BFA01211D
:104C1000102001F003FD0820ADF8200010208DF8D1
:104C2000230003208DF8220008A95A4801F03AFA1F
:104C30004FF40040ADF8200008A9604801F032FAB6
:104C40000121052001F0EAFC0F20ADF8200018201A
:104C50008DF8230003208DF8220008A9594801F09F
:104C600021FA0121022001F0E6FC4FF4C870ADF8F2
:104C700008006D4800686D49B0FBF1F0401E80B23D
:104C8000ADF804000020ADF80A00ADF8060001A957
:104C90004B4802F0F7FC6020ADF810000120ADF8A1
:104CA00012000020ADF81800C820ADF8160004A9C5
:104CB000434802F024FD04A9414802F062FD0821A6
:104CC0003F4803F085F908213D4803F08AF90121A6
:104CD0003B4803F059F80121394803F049F9002114
:104CE000374803F045F80121084601F0A4FC4FF4D1
:104CF0007A70ADF808004C4800684D49B0FBF1F0FF
:104D0000401E80B2ADF804000020ADF80A00ADF8F6
:104D1000060001A94FF0804002F0B4FC6020ADF81D
:104D200010000120ADF812000020ADF81800C820D6
:104D3000ADF8160004A9C00602F070FD04A94FF0FA
:104D4000804002F0B6FD0821C80603F057F908219B
:104D5000C80603F05CF90121880703F015F801216A
:104D6000880703F005F900214FF0804003F000F8B8
:104D70000121082001F05FFC2B4800684FF47A7194
:104D8000B0FBF1F04900B0FBF1F080B252E000005E
:104D90000044950800100140480000202045727230
:104DA0006F723A2074696D65206475726174696F01
:104DB0006E20697320256420730D0A00000C0140E9
:104DC000000400400008014000140140002C014094
:104DD000BC81214200A8D455001000405761726E7A
:104DE000696E673A20746865206C6F636B6572202A
:104DF0006368616E6E656C2077696C6C20726563A8
:104E00006F76657220696E2035207365636F6E64FE
:104E100073210D0A0000000034B3000800021800DE
:104E200000081A00000230003400002000127A004E
:104E300040420F00ADF80800FC4800684910B0FB84
:104E4000F1F0401E80B2ADF804000020ADF80A0079
:104E5000ADF8060001A9F64802F014FC6020ADF898
:104E600010000120ADF812000020ADF81800EF4846
:104E700000684FF47A71B0FBF1F04900B0FBF1F03B
:104E8000C0F34F00ADF8160004A9E94802F037FC62
:104E900004A9E74802F075FC04A9E54802F0BEFC4D
:104EA00004A9E34802F005FD0821E14803F090F869
:104EB0000821DF4803F095F80821DD4803F09EF84B
:104EC0000821DB4803F0A3F80121D94802F05CFF78
:104ED0000121D74803F04CF80021D54802F048FFE3
:104EE00009B000BD10B500240421D24801F06DF9CD
:104EF000012806D1D04890F85600112801D101248C
:104F00000CE04FF48061CD4801F05FF9012805D134
:104F1000C94890F85600122800D10124012C0ED166
:104F20001420C54981F848000021C348A0F84A1060
:104F3000012180F8A410C2A004F0EEF910BD4FF4D6
:104F40008061BE4801F041F9012810D00421B94820
:104F500001F03BF901280AD00421B748A0F84A1013
:104F6000B0F8B400401C81B2B348A0F8B410B24805
:104F7000016A01656421A0F8CE101520AE4981F8C0
:104F8000480042F21071AC48A0F84C100021A0F883
:104F9000CE1080F8E1104FF4FA71A0F854100246D8
:104FA000B2F8542091B2024692F85600FEF795FEF0
:104FB00001220421AE4802F0F6FEAD4800884FF60B
:104FC000FE710840AA4908800846008800F00100E8
:104FD00018B90121A64802F0CBFE00BFAEE72DE9CB
:104FE000F84307460E464FF00008112E02D14FF04D
:104FF000120801E04FF01108012F02D0022F73D1E7
:1050000077E08D48016A016341F288318185C821CA
:1050100081861520884981F828000846808E81B253
:105020003A464046FEF798FF00245EE0B8F1120FC2
:1050300006D14FF400518F4801F0C7F8044604E050
:1050400002218C4801F0C1F804467B4890F8240006
:1050500001281BD10020784981F82400FEF789FA45
:105060000121854803F057FC0121844803F0B1F980
:105070007148B0F89A0000906F48B0F89830B0F8D6
:105080009620B0F894107EA004F046F96A48016AB0
:10509000006B0D1A002D01DAC5F1FF356648808DD1
:1050A000A84210DC7CB90321634841850021604897
:1050B00003F0F6F800215E4803F0F4F814205E498E
:1050C00081F8280013E0012C0FD100215A484185B6
:1050D000574803F0E5F80021554803F0E3F81420A1
:1050E000554981F8280002E081E0002C9ED000BFE5
:1050F0007DE05148016A016441F288318187C8210D
:10510000A0F84410112E00D1122615204A4981F82A
:1051100038000846B0F8440081B23A463046FEF7FF
:105120001BFF00245FE0B8F1120F06D14FF480712D
:10513000424801F04AF8044605E04FF400713F4848
:1051400001F043F804463C4890F8240001281BD1A4
:105150000020394981F82400FEF70BFA0121464866
:1051600003F0D9FB0121454803F033F93248B0F888
:105170009A0000903048B0F89830B0F89620B0F817
:1051800094103FA004F0C8F82B48016A006C0D1A77
:10519000002D01DAC5F1FF352748808FA84210DCC9
:1051A0007CB90321244841871420234981F8380021
:1051B00000211F4803F078F800211D4803F076F81D
:1051C00013E0012C0FD100211B48418714201A49FC
:1051D00081F838000021164803F066F800211448D1
:1051E00003F064F801E0002C9DD000BF00BF00BFB9
:1051F000BDE8F88370B505460024012D6FD181020A
:10520000294800F0E2FF012869D000210A48A0F8EF
:105210005A1000202549086001202549C1F8840161
:1052200050211220FEF7DEFC79E00000340000205F
:10523000000C00400014014048000020000801401C
:105240005761726E696E673A204C696674657220A8
:105250006973206F6E20746865207461726765746D
:10526000656420706F736974696F6E0D0A000000C9
:10527000002C0140000C01400800024000240140C5
:105280004348313A2025640909094348323A202528
:10529000640909094348333A202564090909434848
:1052A000343A2025640D0A0000100140800122429A
:1052B00000002242641CFE48844211D34FF4805106
:1052C000FC4800F082FF012804D10121FA48A0F82F
:1052D0005A1003E00221F848A0F85A1026E059E0DD
:1052E000F54890F8BD00012819D10A21F248A0F82C
:1052F0005A10002180F8BD10F04804F00DF8EE4877
:10530000B0F85A10AFF6F01004F006F80021EC489F
:1053100002F0C6FF0021EA4802F0C4FF06E04FF4A5
:105320008061E44800F051FF0128C3D100BF502143
:105330001320FEF757FC4FF48061DE4800F045FF74
:10534000012804D10221DC4880F8AA100FE04FF4B4
:105350008051D84800F039FF012804D10121D648F6
:1053600080F8AA1003E00321D34880F8AA10D2489D
:10537000B0F85A0000280CD0CF48B0F8B600401C56
:1053800081B2CD48A0F8B610B0F85A10CDA003F005
:10539000C3FF88E0022DFCD1A902C64800F015FF2A
:1053A0000128F6D00021C448A0F86A100020D44992
:1053B00008600120D349C1F8800150211220FEF776
:1053C00011FC0121BE4802F0D3FC33E0641CB84854
:1053D000844210D34FF48051CB4800F0F6FE0128F0
:1053E00004D10121B448A0F86A1003E00221B248B8
:1053F000A0F86A1025E0B04890F8BD00012819D146
:105400000A21AD48A0F86A10002180F8BD10AB4811
:1054100003F082FFA848B0F85A10AFF6043003F04A
:105420007BFF0021A64802F03BFF0021A44802F0C8
:1054300039FF06E04FF400619E4800F0C6FE0128E7
:10544000C4D100BF50211320FEF7CCFB4FF4805194
:10545000AD4800F0BAFE012804D10121964880F839
:10546000AB100FE04FF40061924800F0AEFE01284F
:1054700004D10221904880F8AB1003E003218E484C
:1054800080F8AB108C48B0F86A0060B18A48B0F878
:10549000B600401C81B28848A0F8B610B0F86A1077
:1054A0009A4803F039FF70BD2DE9F04704460E46D7
:1054B0001546FF27B8464FF0000995A003F02CFFD2
:1054C0002046FFF797FE7C4890F8AA00022804D0F7
:1054D00099A003F021FFBDE8F087012C0AD1022139
:1054E000894800F072FE07466103874800F06DFEB0
:1054F00080460BE0022C09D121029C4800F065FE99
:105500000746E101994800F060FE8046112E11D156
:10551000012F0FD14FF00109012C04D10121664860
:1055200080F8AD101AE0022C18D10121624880F8F1
:10553000AE1013E0122E11D1B8F1010F0ED14FF0C1
:105540000109012C04D102215B4880F8AD1005E06F
:10555000022C03D10221584880F8AE10B9F1010F96
:1055600015D1012D07D10020534981F8A000002159
:10557000514880F8A110012C03D17DA003F0CCFE8E
:1055800004E0022C02D17AA003F0C6FEA3E7B8F132
:10559000000F15D1A7B94848B0F85A0030B1012C16
:1055A00004D131462046FFF71AFD09E04248B0F821
:1055B0006A0028B1022C03D131462046FFF70FFDC7
:1055C000012C01D0022C19D10421744800F0FDFDFA
:1055D000012831D0012D2FD10121374880F8A710A3
:1055E000002180F8A41080F8E1101520324981F8DC
:1055F00048001121304880F856101DE0032C1BD1C3
:105600004FF48061594800F0E0FD012814D0022DCC
:1056100012D10121284880F8A710002180F8A41099
:1056200080F8E1101520244981F848001221224811
:1056300080F85610FFF756FC00BF4CE710B51E4827
:1056400090F8C000032832D000211B4841854187D3
:105650000120194981F8A00051A003F05DFE164A0F
:1056600092F8C11092F8C0000122FFF71DFF124806
:1056700090F8C000012802D10F48408D38B90E487B
:10568000B0F85A0018B90C4890F8A00070B902217F
:10569000094880F8A310B0F8B000401C81B2064859
:1056A000A0F8B010B0F85A20418D93E096E0EAE0FF
:1056B000004495080010014048000020ECB20008AA
:1056C000000400404572726F723A2054686520757C
:1056D000707065726C6F636B6572206661696C7364
:1056E00020746F2072656C656173652C2065727221
:1056F0006F72636F64652069732025640D0A000072
:105700008401224200002242000C01408440000833
:105710004E6F7465203A20737461727420746F2028
:1057200072656C6561736520746865206C6F636B6E
:1057300065720D0A000000005761726E696E673A6B
:1057400020746865206C6F636B6572206973206ECE
:105750006F7420636F7272656374656C7920726513
:105760006C6561736564210D0A000000000801404A
:105770004E4F54453A746865207570706572646F59
:105780006F7220697320616C7265616479206F6E3D
:1057900020706F736974696F6E0D0A000014014008
:1057A0004E6F74653A20737461727420746F206355
:1057B0006865636B2074686520696E697469616CE3
:1057C00020737461747573206F6620646F6F7273D9
:1057D000210D0A00624803F09FFDBCE0614890F88B
:1057E000C000022802D15F48408F38B95D48B0F848
:1057F0006A0018B95B4890F8A00088B9022159489E
:1058000080F8A310B0F8B200401C81B25548A0F84F
:10581000B210B0F86A20418F534803F07DFD9AE042
:1058200000215048A0F8C8106421A0F8C210C82177
:10583000A0F8C410142180F8C61080F8C7104FF4E7
:10584000FA71A0F8CA1049A003F066FD4548016A44
:10585000C0F8DC1042F6E061A0F8D810034693F8D7
:10586000C020B3F8CA3099B2034693F8C100FEF7DE
:1058700073FB012202214B4802F095FA01214948AD
:1058800002F076FA67E0002136484185418790F8BA
:10589000C11002220120FFF707FE324890F8C11024
:1058A00002221046FFF700FE2E48B0F86A0028B921
:1058B0002C48408F10B92B48408DA8B102212948AF
:1058C00080F8A310B0F8B200401C81B22548A0F8BF
:1058D000B210B0F8B000401C81B22248A0F8B0105D
:1058E000314803F019FD36E001201E4981F8A0007F
:1058F00000211C48A0F8C8106421A0F8C210C821DB
:10590000A0F8C410142180F8C61080F8C7104FF416
:10591000FA71A0F8CA1015A003F0FEFC1148016A44
:10592000C0F8DC1042F6E061A0F8D810034693F806
:10593000C020B3F8CA3099B2034693F8C100FEF70D
:105940000BFB01220221174802F02DFA0121154814
:1059500002F00EFA00BF00BF10BD1449096870477D
:1059600088B3000848000020DCB300085761726E5D
:10597000696E673A2053696E676C656D6F64652068
:1059800074686520646F6F72207374617274732021
:10599000746F206F70656E206F7220636C6F73651B
:1059A000210D0A00002C014030B400088001224281
:1059B00000B587B00121022000F03DFE4FF47A705F
:1059C000ADF814004720ADF810000020ADF8160027
:1059D000ADF8120004A9254801F054FE6020ADF88E
:1059E00000000120ADF802000220ADF8080064209C
:1059F000ADF8060069461D4801F081FE69461B4866
:105A000001F0BFFE6946194801F008FF0821174858
:105A100002F0DEFA0821154802F0E3FA08211348E3
:105A200002F0ECFA0121114802F0A2FA01210F481C
:105A300002F0AAF901210D4802F09AF907B000BD61
:105A400008B50121112000F0E9FD4FF4E070ADF838
:105A5000000018208DF8030003208DF8020069462D
:105A6000034800F01FFBFFF7A3FF08BD003401400F
:105A70000010014000BF704700BF704700BF224ABE
:105A8000128802F04002002AF9D0C2B21E4B1B1D40
:105A90001A80704710B586B00446012144F209000F
:105AA00000F0BCFD0121042000F0CDFB4020ADF84A
:105AB000140003208DF8160018208DF8170005A992
:105AC000124800F0EFFA8020ADF8140004208DF8A1
:105AD000170005A90D4800F0E5FA01940020ADF883
