:020000040800F2
:10000000B0490020AD6100087D0300087F030008AF
:100010008103000885030008890300080000000030
:100020000000000000000000000000008D03000838
:100030008F030008000000009103000893030008EC
:10004000C7610008C7610008C7610008C7610008F0
:10005000C7610008C761000879020008C76100088D
:10006000C7610008C7610008990200087B270008E3
:10007000C7610008C7610008C7610008C7610008C0
:10008000C7610008C7610008C7610008C7610008B0
:10009000BD0B0008C7610008C7610008BB0200086B
:1000A000C7610008C7610008C7610008C761000890
:1000B000C7610008C7610008C7610008C761000880
:1000C000C7610008C7610008C7610008C761000870
:1000D000C7610008C7610008C7610008C761000860
:1000E000E3020008C7610008C7610008C761000893
:1000F000C7610008C7610008C7610008C761000840
:10010000C7610008C7610008C7610008C76100082F
:10011000C7610008C7610008C7610008C76100081F
:10012000C7610008C7610008C7610008C76100080F
:1001300000F002F800F042F80AA090E8000C8244B7
:100140008344AAF10107DA4501D100F037F8AFF294
:10015000090EBAE80F0013F0010F18BFFB1A43F0A5
:10016000010318470875000028750000103A24BFE5
:1001700078C878C1FAD8520724BF30C830C144BF0C
:1001800004680C607047000000230024002500264E
:10019000103A28BF78C1FBD8520728BF30C148BFEA
:1001A0000B6070471FB59DE8030006F029FD06F0BF
:1001B000F7F91FBD10B506F05CFA10BD06F0C7FADE
:1001C0001146FFF7EFFF00F009F806F0CBFC03B48F
:1001D000FFF7F0FF03BC06F0C1F900004B480068D0
:1001E0004FF47A72B0FBF2F1B1F1807F00D31DE0E1
:1001F00021F07F40401E4FF0E022506150170F2247
:10020000002807DA13071D0E414B00F00F04241FCE
:100210001D5503E013071C0E3E4B1C5400BF00206D
:100220004FF0E02290610720106100BF4FF4407052
:1002300002F0ECFE02F082FE4FF4E13002F040FEEC
:1002400002F025F902F016FE02F0A0F902F030FCEF
:1002500002F096FB18B930A006F06EF802E038A064
:1002600006F06AF80121414804F004FEC82101208B
:1002700002F08BFD00BFFEE710B5012005F08FFCFA
:10028000012808D105F0ABFC012005F093FC012109
:10029000374803F01CF810BD10B5102005F07FFCA6
:1002A000012809D1102005F09AFC102005F082FCED
:1002B0001021304803F00BF810BD10B54FF400705A
:1002C00005F06DFC01280BD1400205F088FC4FF4CD
:1002D000007005F06FFC4FF40071274802F0F7FF43
:1002E00010BD10B54FF4804005F059FC01280BD12A
:1002F000800305F074FC4FF4804005F05BFC4FF484
:1003000080411B4802F0E3FF10BD000024000020E4
:1003100018ED00E000E400E05761726E696E673A24
:100320002061204453313832302068617320626587
:10033000656E206465746563746564210D0A000050
:100340005761726E696E673A206661696C696E67A3
:1003500020746F206465746563742074686520443C
:100360005331383230210D0A00000000000C0040EB
:10037000000C014000080140001001407047704728
:1003800000BFFEE700BFFEE700BFFEE77047704713
:1003900070470648006A401C044908620846006A23
:1003A000401C08B90020086270470000440000208B
:1003B0002DE9F04180460C460025FE4800780128D2
:1003C00001D1BDE8F081A08A072805DCA28AFA489D
:1003D000A16805F0FDFF3FE0A08A0C280FDCF6487D
:1003E000A1680A68026089888180A81DC5B2A38AB5
:1003F0009A1FF14B5819216905F0EAFF2CE0A08AF9
:1004000006B2ED49A06802680A6080888880A81D4D
:10041000C5B2701F06B2E76815E01C2E06D9E64982
:1004200048191C22391D05F0D3FF05E0E24948199F
:100430003246391D05F0CCFF3F6806F11C0006B2BC
:1004400005F11C00C5B2002FE7D1DB4A5019324636
:10045000216905F0BDFF00BFA08AD849088020228D
:100460002146D74805F0F9FF0120D249087000BFA6
:10047000A7E770B50546049C022B07D100BF00BF5B
:10048000D04ED148C1E90060012070BD012B46D19A
:10049000CD2A26D008DCC92A0FD0CA2A12D0CB2AEE
:1004A00015D0CC2A34D117E0D82A1FD0E12A21D088
:1004B000FE2A23D0FF2A2BD125E0C44EC448C1E92F
:1004C000006029E0C34EC448C1E9006024E0C34E87
:1004D000C348C1E900601FE0C248C34EC1E900063D
:1004E0001AE0C24EC248C1E9006015E000260E6065
:1004F0004E6011E000260E604E600DE0BD4EBE481D
:10050000C1E9006008E0BD48BD4EC1E9000603E056
:1005100000260E604E6000BF00BF0120B5E700203E
:10052000B3E730B58BB0002400250121480603F065
:1005300004F90121042003F0F3F84FF40060ADF852
:10054000080048208DF80B0003208DF80A0002A94E
:10055000AC4802F029FE4FF48050ADF80800182096
:100560008DF80B0002A9A74802F01EFEA64803F072
:100570003BF908A803F05CFA0121480603F0DDF816
:1005800000208DF826008DF827008DF82800012026
:100590008DF8290000208DF82A0001208DF82B000D
:1005A00000208DF822008DF8230005208DF824000E
:1005B00004208DF82500ADF8200008A9924803F02A
:1005C0002CF992480078802101EB00254FF4FF447C
:1005D00000208DF81A008DF81B0001208DF81C00FA
:1005E000680BADF810004FF6FF7000EAC500001D63
:1005F000ADF81200600BADF814004FF6FF7000EA82
:10060000C400001DADF816000020ADF81800012050
:100610008DF81D0004A803F08AF97D4D6FF07F442A
:1006200009208DF81A0000208DF81B0001208DF89C
:100630001C00680BADF81000201200EAC500001D78
:10064000ADF81200600BADF81400201200EAC400EF
:1006500021120843ADF816000020ADF81800012063
:100660008DF81D0004A803F062F9012202216648FA
:1006700003F05CFC14208DF80C0001208DF80D00B7
:1006800000208DF80E0001208DF80F0003A802F065
:10069000C2FC00205F49604B4FF48062CDE900103E
:1006A0005E495F4800F0E7FA584801785C4800F07E
:1006B00017FB0BB030BD00B585B00E205949534A29
:1006C0001278594BCDE90132CDE9031045F24100D2
:1006D000564A574B0090524800F0AEFC05B000BDA2
:1006E00030B58BB033480078012860D13448007EA3
:1006F000022800D1A7E03248007E012858D13048B6
:10070000C08AC93805281CD2DFE800F0031C323348
:1007100034000120434908700121424A002328483F
:10072000807ECDE903320591029025481930C92118
:10073000CDE900101938C17E244A254B384800F015
:1007400028FD7EE01E213B4A00231D48807ECDE926
:100750000332059102901A481930CA21CDE90010E0
:100760001938C17E1B4A1C4B2D4800F012FD68E071
:1007700067E066E001202B4908702F48007820F0E0
:1007800004002D4908700121264A00230C48807E70
:10079000CDE903320591029009481930CD21CDE908
:1007A00000101938C17E114A114B1D4846E04DE03A
:1007B00048E0000004000020A80000200200002003
:1007C00020060020401DA12026812A0B6840D69DCE
:1007D0008BCBDED906E0EC01F0E1B36AEC78950250
:1007E0000F7F087E79437CC8DA287FECDCA167B5EF
:1007F00032884C64A1780C29D0BF2E81E2DB311104
:10080000450FD0D1000801400064004001000020E5
:100810001002500073040008B103000820020020F9
:10082000FC0100203E0100200C0000209E4BB0285F
:10083000DF3AC915440000200000002000F0A9FCA8
:1008400000BF00E000BF0020F349087000241BE057
:1008500020680790207B8DF8220004208DF820006E
:1008600000208DF82100227B211D0DF1230005F0D1
:10087000AFFD06A9E94803F049F90546042D02D069
:10088000E74800F0F5FC00BFE54800F0D3FC041E8B
:10089000DED10BB030BD0146302905DB392903DC40
:1008A000A1F13000C0B27047412905DB462903DCC5
:1008B000A1F13700C0B2F6E7FF20F4E70146302986
:1008C00003DB392901DC01207047412903DB46297C
:1008D00001DC0120F8E70020F6E7F0B504460D46FC
:1008E00000262B4620783A2801D00020F0BD0122B6
:1008F00023E0A05CFFF7E2FF08B90020F6E710460E
:1009000002EBD0714910A2EB410131B1A05CFFF7BD
:10091000C2FF0007000E187006E0A05CFFF7BBFFE7
:100920001978084418705B1C501CC2B22878801DCE
:100930004000904201DA0020D8E7A05C0D28D8D111
:100940002B461878401DC7B2002205E018783044C5
:10095000C6B25B1C501CC2B2781E9042F6DCF0435B
:10096000C6B2701CC6B21878B04201D10120BDE7F2
:100970000020BBE702465079137900EB0321B1F563
:10098000006F09D040F60100814205D0401C814231
:1009900002D0401C814201D1080470470020FCE7CE
:1009A00010B503249F48A049884215D305F03FF9AC
:1009B0009E4805F081F905F046F905F038F99C49A3
:1009C0009A4805F049FA05F03EF9984800689849B8
:1009D00088421AD1002418E092489549884214D3DD
:1009E00005F025F9914805F067F905F02CF905F0B7
:1009F0001EF98D498D4805F02FFA05F024F98B4832
:100A000000688949884200D10024204610BD2DE9A4
:100A1000FC5F0546884698F8010005EB002098F831
:100A20000210461898F8004008F10407B5F1006F6D
:100A30000BD08048854208D07B48854205D07E484F
:100A4000854202D00320BDE8FC9FC6F30D000028BC
:100A50003ED1B34605F0EBF8352005F083FB4FF0AF
:100A6000000A2FE0584605F027F901900198042864
:100A700011D00098401CC0B200900098022803DBFF
:100A80004FF003094846DEE7352005F06BFB58467A
:100A900005F012F901900BF5806B4FF40071674877
:100AA00002F022FC012804D14102644802F02BFC30
:100AB00004E04FF40071614802F023FC0AF10100E8
:100AC00000F0FF0ABAF1100FCCDB05F0BCF800BF54
:100AD00005F0ADF83AE04FF40071584802F004FC1C
:100AE000012804D14102554802F00DFC04E04FF406
:100AF0000071524802F005FCE11704EB9171891076
:100B000049B13046396805F0A7F98146361D201FE6
:100B1000C4B23F1D16E004EBD471491049B13988C5
:100B2000304605F0CCF98146B61CA01EC4B2BF1CED
:100B300008E03978304605F0E0F98146761C601E01
:100B4000C4B27F1CB9F1040F00D001E0002CC2D167
:100B500000BF05F078F8B9F1040F01D0032072E767
:100B6000002070E770B50546E878062821D2DFE856
:100B700000F0030A0E10121E294631480068FFF7E4
:100B800046FF044617E0FFF70BFF044613E000247E
:100B900011E000240FE02846FFF7ECFE284908602A
:100BA0000846006808B9022400E0002403E000249D
:100BB00001E0002400BF00BF204670BD1FB5214AE0
:100BC0000021164803F097F81E48406800901D4821
:100BD000807A8DF80C001B48827A00F10B0101A885
:100BE00005F0F6FB009820F07F40174988420BD1B2
:100BF0009DF8060000F00F00144981F894009DF85C
:100C00000600000981F895004FF47A7200236946C6
:100C1000034800F095FC1FBD040000200064004064
:100C2000FC010020440000200000020800F8030836
:100C3000008000080000010800000308000C0140CB
:100C4000080000204006002010025000A8000020EC
:100C500070B50C460021034604E004EB41151D600D
:100C60001B68491C9142F8D300251D608280002634
:100C7000C680068170BD2DE9F047044688461546BA
:100C80001E46DDE9089A6F0904B104E04F22F6A17F
:100C9000FCA005F05DFB2421204605F010FC00209F
:100CA0002070A660C4F80490A061E061C4F820A0A0
:100CB000B7F5803F01D34FF6FF77BAB2414604F152
:100CC0000C00FFF7C5FFBDE8F08710B5044604B17E
:100CD00004E06D22E4A1ECA005F03AFB206A10BD0F
:100CE00070B504460D4604B104E07322DEA1E6A00F
:100CF00005F02EFB207828B9012D03DB7F2D01DCC8
:100D0000257004E07D22D8A1E2A005F021FB70BD92
:100D100001460878704710B5044604B105E040F27A
:100D20005632D1A1DCA005F013FB2078401C2070C6
:100D30002078202801DB0020207010BD2DE9F04331
:100D4000024621F0604322F06044CF0FD50FAF423E
:100D500014D00FB1980C00E0184680460DB1A00CDD
:100D600000E020468146C84506D0C84502D2012091
:100D7000BDE8F0830020FBE72846F9E7C1F3807C5B
:100D8000C2F38076A34203D1B44501D03046EFE7E9
:100D9000A34201D20120EBE70020E9E72DE9F04171
:100DA00006460D4606B105E040F2BF32AEA1B6A040
:100DB00005F0CEFA287C002800DD05E04FF47072C3
:100DC000A9A1BAA005F0C4FAF06910B9F561BDE8AF
:100DD000F081F469F76913E069686068FFF7AEFFB6
:100DE00040B1F069A04202D12C60F56101E03D60A4
:100DF0002C60ECE7206808B92560E8E727462468FE
:100E0000002CE9D100BFE2E70146086808B90020DC
:100E100070470A68086800680860C888401CC88075
:100E20000B89C888834201DACB880B811046EFE733
:100E300070B505462846FFF7E7FF04460CB90020C9
:100E400070BD1421204605F03AFB2046F8E72DE955
:100E5000FF4F83B0814688469246119CB9F1000F3E
:100E600000D005E040F266327FA187A005F070FA5D
:100E700028F06040404500D105E040F267327AA199
:100E800091A005F065FABAF1000F04D16FF00100EE
:100E900007B0BDE8F08F002C04DD109810B96FF09A
:100EA0000100F5E74FF0000B082C23DA09F10C00E4
:100EB000FFF7BEFF054615B96FF00200E8E72246CE
:100EC00005F10800109905F083FA601C28749AF85F
:100ED000000000F01F0040F0C00105F108000155BE
:100EE00048F00040686029464846FFF757FF0BF17D
:100EF000010B5AE000260020029080200190002083
:100F0000009000254EE009F10C00FFF791FF054627
:100F100015B96FF00200BBE7002736B906982872B2
:100F2000069801126972022700E0002708E0109875
:100F3000815D05F10800C155781CC7B2701CC6B2AE
:100F4000072F01DAA642F2DBA64201D1402000E0E1
:100F500001980190DDE9010140EA41109AF8001082
:100F600001F01F010843C1B205F10800C15548F066
:100F700000406860781C287429464846FFF70EFF39
:100F80000BF1010B029880F001000290002001900B
:100F9000009003E00098401CC0B200900098FE282A
:100FA000F8DB00BFA01BAED100BF584670E710B5FC
:100FB00080EA0120002210E000F4004343B14FF624
:100FC000FF7303EA400341F2210483EA040003E0D3
:100FD0004FF6FF7303EA4000521C082AECDB10BDF9
:100FE00070B506460C46154605E014F8011B304660
:100FF000FFF7DDFF0646281EA5F10105F5D13046B5
:1010000070BD2DE9F04781461746984600240EE052
:1010100022463D4646462846314605F07AF900F01C
:10102000FF0A51464846FFF7C2FF81460834402C6C
:10103000EEDB4846BDE8F0872DE9FF5F84B0174638
:101040009846DDE913A6DDE91594129D0020039072
:101050004FF6FF7BB9F1000F48D1002C46DD801E12
:1010600008B0BDE8F09F00002E2E5C484152445766
:101070004152455C43414E5C63616E6172642E6314
:10108000000000006F75745F696E7320213D203091
:1010900000000000300000007472616E73666572BB
:1010A0005F696420213D2030000000006974656D97
:1010B0002D3E6672616D652E646174615F6C656E54
:1010C000203E2030000000002863616E5F696420CC
:1010D0002620307831464646464646465529203D2C
:1010E0003D2063616E5F6964000000001F2E04DD17
:1010F0006FF0010008B0BDE8F09F0498FFF708FE0C
:1011000018BB072C02DD6FF00300F3E705F00300C6
:10111000A84202D06FF00100ECE7224649464FF6A4
:10112000FF70FFF75DFF47F6FE71084001900498DD
:10113000FFF7EEFD3206019942EA412105F0030274
:1011400041EA02210843039015E00498FFF7E0FD0F
:10115000310641EA052108430390072C0BDD3A468E
:1011600043465846FFF74DFF8346224649465846B8
:10117000FFF736FF83465B465246CDE90094DDE932
:101180000310FFF764FE02905046FFF7C4FD02987B
:10119000B0E72DE9FF5F84B0894617469846DDF831
:1011A0004CA0DDE9165435B9002C04DD6FF00100C8
:1011B00008B0BDE8F09F14981F2802DD6FF0010011
:1011C000F6E70498FFF7A4FD10B96FF00300EFE70E
:1011D0000498FFF79DFD14990A06129942EA01420C
:1011E000159942EAC13141EA092141F0800140EA02
:1011F000010B4FF6FF76072C0BDD3A46434630468F
:10120000FFF7FFFE0646224629463046FFF7E8FE76
:101210000646334652465946CDE900540498FFF736
:1012200016FE03901598012802D15046FFF773FD72
:101230000398BDE70146C86908B900207047C8692E
:10124000001DFBE770B504460D462E462068306051
:101250002660E088002800DD06E040F22F62AFF251
:10126000F811FAA005F074F8E088401EE08070BD27
:1012700070B50446E5692868E061294604F10C0070
:10128000FFF7E0FF70BD10B50446606800B906E0E6
:1012900040F22942AFF23021F8A005F059F8208B36
:1012A000800A401CA16960F38E21A161A0696FF3DF
:1012B0000900A061A06920F40040A06110BD70B5D4
:1012C00005460C4608E0E068066805F10C00E16898
:1012D000FFF7B8FFE66000BFE0680028F3D1E060E8
:1012E000A0602061A08270BD70B505460C4608E084
:1012F0006068066805F10C006168FFF7A3FF66608F
:1013000000BF60680028F3D1A0696FF30900A061F5
:101310000020014670BD70B505462846FFF774FDF4
:1013200004460CB9002070BD002020602046FAE77A
:101330002DE9FF5F0C4690461E460027208BC0F328
:101340000900C0F1060000281CDD218BC1F3090053
:1013500008E018F8072004F11A010A54411C88B269
:10136000791C8FB2062801D2B742F2DBB74209DB03
:10137000208B8119A06961F30900A061012004B0EC
:10138000BDE8F09F208BC0F30900801F1C21B0FB3B
:10139000F1F201FB12090025606858B90098FFF7C7
:1013A000BAFF6060606808B9E81EE8E765684FF05A
:1013B000000926E04FF0010A656804E00AF1010027
:1013C00000F0FF0A2D6828680028F7D1208BC0F3B1
:1013D00009003044801F1C21B0FBF1F0401C00F0DC
:1013E000FF0BD3450CDDB9F1000F09D10098FFF7D1
:1013F00092FF2860286810B96FF00200BFE72D68DF
:1014000000BF1BE0484607E018F80720291D0A54D2
:10141000411C88B2791C8FB21C2801D2B742F3DB81
:10142000B7420BDA0098FFF776FF2860286810B9FA
:101430006FF00200A3E72D684FF00009B742E1DB2F
:10144000208B8119A06961F30900A061012096E752
:101450000246881A002800DA20307047024605E06C
:101460001069884201D1104670471268002AF7D1EE
:101470000020F9E770B588B006460C462021684682
:1014800005F01DF804943046FFF7BEFC054615B97B
:10149000002008B070BD20226946284604F0DDFF18
:1014A0002846F6E770B504460E46314604F10C00B6
:1014B000FFF7E0FF05460DB9002070BDA069286068
:1014C000A5612846F9E770B505460E46AC695CB9DA
:1014D000314605F10C00FFF7CDFF04460CB90020A2
:1014E00070BDAC612046FBE731462046FFF7B6FFF2
:1014F00004460CB12046F3E731462846FFF7D2FFF9
:10150000EEE70146C1F3C0120AB902207047C1F3E9
:10151000C03008B10120F9E70020F7E710B5044614
:101520002046FFF7EEFF022807D1C4F30F2004F096
:101530007F0109B900F0030010BDC4F30740FBE7C9
:101540002DE9F04F97B082460D4617469846286819
:10155000FFF7D7FF8346BBF1020F01D1002002E065
:101560002888C0F306201690BBF1020F08D0504621
:10157000FFF7CEFB1699884202D017B0BDE8F08F76
:101580002868C0F304601590287800F07F0014905C
:101590002868FFF7C3FF1390139840EA0B41149893
:1015A00041EA8041169841EA40601290287B401E33
:1015B000291D0E5C0024F00900B300200A900B9056
:1015C000149800905B46DAF804C00AA95046139AB2
:1015D000E04788B150461299FFF775FF044604B9F9
:1015E000CBE74FF6FF70DDE90A23FFF70AFD6169DB
:1015F00060F31F41616100E0BFE707E0DAF818001F
:101600001299FFF72BFF044604B9B6E704B106E0D0
:101610004FF49E72AFF2B0511FA004F099FE002269
:10162000D4E9021051405040014301D1012000E0B3
:1016300000201190D4E902013A1A68EB01001A4B1C
:1016400000219A1A814131D2012030E0616C6C6F27
:101650006361746F722D3E7374617469737469632E
:10166000732E63757272656E745F75736167655F03
:10167000626C6F636B73203E203000007374617482
:10168000652D3E6275666665725F626C6F636B7333
:10169000203D3D203000000072785F7374617465F6
:1016A00020213D203000000080841E00002010908A
:1016B000F0090F9006F01F01228BC2F38420FFF780
:1016C000C7FE012801DD012000E000200E901198E6
:1016D00028B9109818B90F9818B10E9808B10120C0
:1016E00000E000200D900D98A8B1A06966F38E204F
:1016F000A061A06920F40040A06121465046FFF798
:10170000F3FDF00938B9208B800A401CA16960F311
:101710008E21A16131E7F00948B3C6F3801030B3E0
:10172000C4E90278202104A804F0C9FECDE90478B8
:10173000281D0690287B401EC0B2ADF824001398E7
:10174000ADF826008DF828B006F01F008DF82900AE
:1017500015988DF82A0014988DF82B0004A950468E
:10176000DAF8082090472046FFF78DFD05E7208B2B
:10177000C0F3C030C6F34011884200D0FDE606F049
:101780001F00218BC1F38421884200D0F5E6F009C7
:1017900078B3C6F3801060BB287B032800DCECE63E
:1017A000C4E90278287BC01EC3B2AA1D21460AF1F3
:1017B0000C00FFF7BDFD8146B9F1000F07DA2146A5
:1017C0005046FFF791FD2046FFF75DFDD5E62979EC
:1017D000687941EA0020A082297BC91ECAB26169EA
:1017E000080CA91DFFF7FCFB616960F31F416161F3
:1017F000CDE0FFE7F00928BBC6F3801010BB287BC3
:10180000401EC3B22A1D21460AF10C00FFF790FDCD
:101810008146B9F1000F07DA21465046FFF764FD13
:101820002046FFF730FDA8E6297B491ECAB2616950
:10183000080C291DFFF7D4FB0146606961F31F40C6
:101840006061A3E0287B401EC0B20C904FF00009FD
:10185000208BC0F30900062814D2218BC1F30900A4
:101860000AE0291D11F8092004F11A010A54401C4C
:1018700009F1010101F0FF09062843D20C998945BD
:10188000EFDB3FE0606803900398D0B3062002903E
:1018900005E003980068039002981C3002900398BA
:1018A00000680028F5D1039800B106E04FF4D97222
:1018B000AFF64C01F9A004F04BFD208BC0F30901F9
:1018C0000298081A019001981C2800D206E040F204
:1018D000B512AFF66C01F44804F03AFD01980AE045
:1018E000291D11F809200399091D0A54401C09F10A
:1018F000010101F0FF091C2802D20C998945EFDB98
:1019000000BF00BFCDE9047804F11A0006906068BA
:1019100007900C98814501DB002001E0281D484418
:101920000890208BC0F309010C980844ADF82400FE
:101930001398ADF826008DF828B006F01F008DF83A
:10194000290015988DF82A0014988DF82B00002096
:101950006060297B4A1E6169080C291DFFF740FB66
:10196000616960F31F416161A08A6169B0EB114F49
:1019700004D104A95046DAF80820904704A950463B
:10198000FFF79DFC2046FFF77EFCF6E500BF208BAD
:10199000C00BC143A06961F3CF30A06100BFECE58B
:1019A0002DE9F041044617469846A669A5692AE044
:1019B000D5E902013A1A68EB0100BC4B00219A1AE2
:1019C00081411ED2A069A8420ED129462046FFF7C8
:1019D0008BFCA0690068A061294604F10C00FFF7A8
:1019E00031FCA5692E460EE029462046FFF77CFC17
:1019F00028683060294604F10C00FFF723FC3568A5
:101A000001E02E462D68002DD2D1BDE8F0812DE9F0
:101A1000F0410746884607B106E040F2C552AFF6EE
:101A2000B811A3A004F094FC3C460025A8F10106DF
:101A300006E0605DA15D6155A0556D1C761E00BF7E
:101A4000B542F6D3BDE8F08108B5012000909DF8BD
:101A50000100012800D108BD0020FCE72DE9F05F5E
:101A600080460C4691461E460A9DB9F1000F00D0F3
:101A700006E040F23152AFF6102190A004F068FC6D
:101A800008EBD40806EBD50604F0070405F00705BB
:101A900004EB090738E004F0070305F00700834270
:101AA00001DD9B4600E08346DC46A7EB040BCCF14E
:101AB000080EF34502D2A7EB040B01E0CCF1080BB2
:101AC00059464FF47F4B2BFA01FB0BF0FF0B4BFAFF
:101AD00000F208EBD40B9BF800B00BFA03FB4BFAB7
:101AE00000FB0BF0FF0A06EBD50B9BF800B02BEACE
:101AF000020B0AEA020E4BEA0E0B06EBD50E8EF82D
:101B000000B00C440D4400BF381BC4D1BDE8F09FA9
:101B10002DE9FF4F85B00546894605B106E040F244
:101B20005252AFF6BC2169A004F012FCA88AB9EBAE
:101B3000C00F03D3002009B0BDE8F08F079809EB70
:101B40000001A88AB1EBC00F04D9287DC9EBC00001
:101B5000C0B207900798002800DD06E040F25E5210
:101B6000AFF6FC215DA004F0F3FBE86810B928692A
:101B700000287DD04C464FF0000A079E302C1AD228
:101B8000C4F13000B04201D9304601E0C4F1300068
:101B900000F0FF0800200090A86842462146089BFC
:101BA000FFF75CFF44440AEB080000F0FF0AA6EBD5
:101BB0000800C6B200BFA88A3021C1EBC000049063
:101BC0003027E86803904FE0049800B106E040F247
:101BD0007F52AFF66C3145A004F0BAFB0498E028C0
:101BE00001D9E02000E0049800EB0708A04527D9C0
:101BF000A8EB0400B04201D9304601E0A8EB040094
:101C000000F0FF0BBC4200D306E04FF4B162AFF628
:101C1000A8313BA004F09CFBE01B0290CDF800A093
:101C20005A46DDE90210001D089BFFF717FF5C44D0
:101C30000AEB0B0000F0FF0AA6EB0B00C6B200BFD8
:101C4000B84500D906E040F29252AFF6E43136A032
:101C500004F07EFBA8EB07010498401A0490474665
:101C600003980068039000BF039818B1002E00E0AD
:101C7000BCE0A9DC0498864200D806E04FF4B362C9
:101C8000AFF61C4132A004F063FB286920B1002E9E
:101C900002DDBC4270D377E087E06DE0626C6F6379
:101CA0006B20213D203000001476000880841E0047
:101CB0006461746120213D20300000007372635F15
:101CC0006C656E203E203055000000007472616E1D
:101CD0007366657220213D20300000006269745FE8
:101CE0006C656E677468203E2030000072656D611F
:101CF000696E696E675F62697473203E2030000010
:101D0000696E7075745F6269745F6F66667365741F
:101D1000203E3D20626C6F636B5F6269745F6F662B
:101D20006673657400000000626C6F636B5F656EC4
:101D3000645F6269745F6F6666736574203E2062DB
:101D40006C6F636B5F6269745F6F66667365740066
:101D500072656D61696E696E675F6269745F6C65FB
:101D60006E677468203C3D2072656D61696E696EB6
:101D7000675F62697473000040F29D52AFF61851BC
:101D8000AFF2840004F0E4FAA4EB0708CDF800A059
:101D9000286932464146089BFFF760FE34440AEB4F
:101DA000060000F0FF0A002600BFA88AB4EBC00FAF
:101DB00000D806E04FF4B562AFF65451F2A004F03B
:101DC000C7FABAF1400F00DC06E040F2A952AFF6C4
:101DD0006851F9A004F0BCFA06B906E040F2AA5234
:101DE000AFF67C51FAA004F0B3FA07E000200090AF
:101DF000A8684946DDE90723FFF730FE07989AE611
:101E00002DE9FF4F85B014469846129D059800B104
:101E100025B96FF0010009B0BDE8F08F012C01DB9E
:101E2000402C02DD6FF00100F5E7012C04D1B8F180
:101E3000000F01D0E01EEEE70020009001906B46FD
:101E40002246DDE90501FFF763FE0646002E01DCB0
:101E50003046E0E7002E04DD402E02DCA64200DC26
:101E600006E040F22E22AFF60061E0A004F070FA26
:101E7000E11704EB5171C910A4EBC101F1B1204687
:101E8000E31704EB5373DB101DF8033021464FEAD0
:101E9000E47C04EB5C7C4FEAEC0CA4EBCC0CCCF1C6
:101EA000000C0CF0070C43FA0CF322464FEAE47CDA
:101EB00004EB5C7C4FEAEC0C0DF80C300027012C95
:101EC00001D1012717E0082C01DC012713E0102CB9
:101ED00001DC02270FE0202C01DC04270BE0402C62
:101EE00001DC082706E040F24722AFF68461BEA07D
:101EF00004F02EFA00BF002F02DD082F00DC06E000
:101F000040F24B22AFF6A061C7A004F021FAFFF720
:101F10009BFD18B139466846FFF779FDB8F1000F0F
:101F200079D0B4EBC70F76D0082C12DC9DF90000F5
:101F3000611E01228A40104000286CD09DF80010DC
:101F40000120A040401E61EA000148B28DF8000067
:101F500061E0102C12DCBDF90000611E01228A40F4
:101F60001040002857D0BDF800100120A040401EAE
:101F700061EA000108B2ADF800004CE0202C0DDC55
:101F8000611E01228A4000981040D8B30120A04071
:101F9000401E009961EA000100913CE0402C32DAD9
:101FA000621E4FF001090020DDE900AB02904846B7
:101FB000029904F09BF90AEA000A0BEA010B0021DE
:101FC0008AEA010A8BEA010B5AEA0B0A22D022465E
:101FD00001210020DDE900ABCDE9030108460399AA
:101FE00004F084F9401E61F10002C143D0434FF078
:101FF000FF32114010404AEA010A4BEA000BCDE9DA
:1020000000AB07E007E04FF41E72AFF6A47176A0B4
:1020100004F09EF900BFB8F1000F1FD0082C03DCBC
:102020009DF8000028703EE0102C03DCBDF8000095
:10203000288038E0202C02DC0098286033E0402C17
:1020400004DCDDE90001C5E9000106E04FF422727D
:10205000AFF6EC7164A004F07BF924E0012C03D10D
:102060009DF8000028701EE0082C03DC9DF800009D
:10207000287018E0102C03DCBDF80000288012E066
:10208000202C02DC009828600DE0402C04DCDDE907
:102090000001C5E9000105E040F295226E4952A019
:1020A00004F056F900BFA64200DC05E040F29A2297
:1020B00069496AA004F04CF9002E00DD05E040F209
:1020C0009B2265496BA004F043F93046A3E62DE955
:1020D000FF470646884614461D4606B105E040F215
:1020E000A9225D4966A004F033F905B105E040F28C
:1020F000AA22594967A004F02BF9402C05DD40F2D3
:10210000AE22554938A004F023F9012C05DA4FF42A
:102110002D72514934A004F01BF900200290039065
:102120000027012C08D10127287808B1012000E000
:1021300000208DF8080022E0082C04DC0127287814
:102140008DF808001BE0102C04DC02272888ADF86D
:10215000080014E0202C03DC0427286802900EE01D
:10216000402C05DC0827D5E90001CDE9020105E096
:1021700040F2D12238491CA004F0EAF800BF002F39
:1021800000DD93E08CE00000696E7075745F626939
:10219000745F6F6666736574203C3D207472616E77
:1021A000736665722D3E7061796C6F61645F6C65FA
:1021B0006E202A20380000006F75747075745F629D
:1021C00069745F6F6666736574203C3D2036340029
:1021D00072656D61696E696E675F6269745F6C6577
:1021E0006E677468203D3D203000000028726573E2
:1021F000756C74203E2030292026262028726573B5
:10220000756C74203C3D2036342920262620287207
:102210006573756C74203C3D206269745F6C656EFB
:102220006774682900000000287374645F62797421
:10223000655F6C656E677468203E20302920262615
:1022400020287374645F627974655F6C656E67746F
:1022500068203C3D203829006810000872657375BD
:102260006C74203C3D206269745F6C656E677468B5
:1022700000000000726573756C74203E2030000011
:1022800064657374696E6174696F6E20213D2030DE
:102290000000000076616C756520213D2030000053
:1022A0004FF43572554956A004F052F8FFF7CCFBB5
:1022B00018B1394602A8FFF7AAFBE11704EB5171E8
:1022C000C910A4EBC10111B32046E31704EB53730B
:1022D000DB100DF1080C1CF8033021464FEAE47CBA
:1022E00004EB5C7C4FEAEC0CA4EBCC0CCCF1000CC6
:1022F0000CF0070C03FA0CF322464FEAE47C04EBE3
:102300005C7C4FEAEC0C0DF1080909F80C303346FF
:102310002246002102A8CDF80080FFF79FFBBDE810
:10232000FF870B6903608A8A828070472DE9FF412D
:1023300004463848006803903648001D0068029043
:1023400034480830006801904FF000474FEAE748F2
:102350000094009800F00045009868400090002626
:102360000399009888420AD303990098884202D9B9
:1023700047F6FF7001E04FF4F840064615E000987C
:102380006FF30B000090DDE9000105F035F80090D7
:10239000009800F58050009002990098884201D979
:1023A000029800900098C0F34F3646EA1546304632
:1023B00004B0BDE8F0813EB5044616480C30006814
:1023C00002901448103000680190600400090090E9
:1023D0000299009805F010F80090DDE9000105F081
:1023E000D7F803D8009840F0FF40009004F4004173
:1023F000009840EA0140009000983EBD6810000837
:102400007374645F627974655F6C656E677468206D
:102410003E203000F475000800B58DB0012108465B
:1024200001F071F9E14803F02BFAE1480290E1482C
:102430000390002004900520059000200690802045
:102440000790400008908000099000200A904FF407
:1024500080500B9000200C9002A9D44803F0B2FAEF
:1024600001220221D14803F0E4FA0B208DF8040088
:1024700005208DF8050001208DF8070001A800F067
:10248000CAFD0121C94803F0C8FA0DB000BD00B56E
:1024900087B001214FF4057001F042F94FF400407C
:1024A00001F0A2F8E020ADF8040000208DF807004C
:1024B00001A9C14800F078FE3020ADF804000020EA
:1024C0008DF8070001A9BD4800F06EFEB8484C38F1
:1024D00002F0AEFF0020029001208DF80C000020D9
:1024E0008DF80D004FF46020049000200590052029
:1024F0008DF8180002A9AE484C3802F0C0FF07233F
:1025000001220521AA484C3803F051F80723022282
:102510000621A7484C3803F04AF80723032219463E
:10252000A3484C3803F043F8072304220E21A048A7
:102530004C3803F03CF8072305220F219C484C3807
:1025400003F035F801219A484C3802F0C4FF98484E
:102550004C3802F0E2FF00BF95484C3802F0E2FF31
:102560000028F9D192484C3802F0E6FF00BF9048AD
:102570004C3802F0E6FF0028F9D1FFF74DFF0121AA
:102580008B484C3802F0B2FF07B000BD1FB50121E7
:102590001C2001F0C5F81020ADF80C0004208DF8C7
:1025A0000F0003A9844800F0FFFD44F20100ADF8DC
:1025B0000C0004208DF80F0003A9814800F0F4FD01
:1025C0004FF40070ADF80C0004208DF80F0003A943
:1025D0007A4800F0E9FD0121084601F0A1F8042144
:1025E000002000F0F7FE0021012000F0F3FE0E2194
:1025F000012000F0EFFE0921022000F0EBFE44F282
:102600001120019000208DF808000C208DF80900A1
:1026100001208DF80A0001A803F06AFA17208DF84E
:10262000000002208DF8010000208DF8020001203A
:102630008DF80300684600F0EEFC28208DF80000BD
:10264000684600F0E8FC0A208DF80000684600F0BB
:10265000E2FC09208DF80000684600F0DCFC082050
:102660008DF80000684600F0D6FC07208DF80000C9
:10267000684600F0D0FC06208DF80000684600F0A7
:10268000CAFC1FBD0EB50121092001F049F8012146
:102690004C4800F05AFE43F20A00ADF8080004204E
:1026A0008DF80B0002A9464800F07EFD03210120B1
:1026B00000F090FE0121084600F08CFE0C21012064
:1026C00000F088FE0D21012000F084FE0121202071
:1026D00001F026F80420ADF808008DF80B0002A9DF
:1026E000394800F061FD0221032000F073FE012152
:1026F000102001F015F84FF4E050ADF80800042068
:102700008DF80B0002A92D4800F04EFD0A21022091
:1027100000F060FE0B21022000F05CFE0C21022084
:1027200000F058FE0121042000F0FAFF4FF4E060B1
:10273000ADF8080004208DF80B0002A91E4800F037
:1027400033FD0A21002000F045FE0921002000F0A1
:1027500041FE0821002000F03DFE43F60670009087
:1027600000208DF804000C208DF8050001208DF864
:102770000600684603F0BCF90EBD10B5022003F058
:1027800086F988B10021094803F047F90521074877
:1027900003F058F9022003F08EF9022003F06CF9DF
:1027A0000121024803F039F910BD00000800024081
:1027B0004C2401408E000020000801400010014020
:1027C000000C0140000230000014014010B5044626
:1027D000204600F0CFFB10BDA449096821F07041EC
:1027E000A24A11601146096841F0304111607047FA
:1027F0009E49096821F070419C4A116011460968A0
:1028000041F000411160704710B5044694B14FF497
:1028100000419648001F00F076FD0620FFF7D6FF26
:102820004FF400419148001F00F06BFD4020FFF77E
:10283000CDFF11E04FF400418C48001F00F063FD14
:102840004020FFF7C3FF4FF400418848001F00F00D
:1028500058FD0520FFF7BAFF10BD10B54FF400403A
:10286000FFF7BAFF4FF400418048001F00F04BFD16
:102870000220FFF7ABFF4FF400417C48001F00F03F
:1028800040FD4FF40040FFF7B3FF0C20FFF79EFF21
:102890004FF400417548001F00F019FD00F00104DD
:1028A0003220FFF793FF204610BD70B504464FF469
:1028B0000040FFF791FF0620FFF788FF002505E0A5
:1028C00004F00100FFF7A0FF64106D1C082DF7DB7A
:1028D00070BD70B50026002506E0FFF7BEFF044678
:1028E000E00140EA66066D1C082DF6DB304670BD3F
:1028F00010B54FF40040FFF76FFF4FF400415B4805
:10290000001F00F000FD40F2EE20FFF75FFF4FF4E4
:1029100000415648001F00F0F4FC0F20FFF756FF5F
:1029200010BD10B500244FF40040FFF761FF04E034
:10293000601CC4B20120FFF749FF4FF400414B482F
:10294000001F00F0C4FC08B1C82CF1DBC82C01DB6F
:10295000012010BD002404E0601CC4B20A20FFF76F
:1029600035FF4FF400414148001F00F0B0FC08B9AA
:10297000182CF1DB182C01DB0120EAE70020E8E746
:1029800008B50121042000F0CBFE0121084600F02B
:10299000C7FE0121364800F0D8FC4FF40040ADF8E6
:1029A000000018208DF8030003208DF8020069460E
:1029B0002E48001F00F0F8FB4FF400412B48001F89
:1029C00000F09FFCFFF794FFFFF7ABFF08BD10B5C9
:1029D000FFF78EFFFFF7A5FFCC20FFF766FF44202F
:1029E000FFF763FF10BD2DE9F05FFFF7F0FFFFF782
:1029F0007FFFFFF796FF8346CC20FFF756FFBE20F0
:102A0000FFF753FFFFF765FF00F0FF0AFFF761FFD5
:102A1000C4B2072C08DDE043C4B26FEA0A0000F03C
:102A2000FF0A4FF0000B01E04FF0010BA1464FEA07
:102A300009200FFA80F909EB0A000FFA80F94846DD
:102A400004F085FB074600220A4B04F097FB05467D
:102A500004F04EFB0FFA80F9BBF1000F02D048469C
:102A6000BDE8F09FC9F1000000B2F9E70408014099
:102A7000000230000000E43F08B50121102000F002
:102A80004FFE0720ADF8000010208DF80300032052
:102A90008DF802006946C84800F086FB0020C7494F
:102AA0000860C749C1F88001C449091D086008BD14
:102AB00000B589B00121092000F032FE0121C14892
:102AC00000F043FC4FF44060ADF8200018208DF872
:102AD000230003208DF8220008A9BB4800F064FB06
:102AE0000121092000F01CFE0121B84800F02DFC56
:102AF0000121B74800F029FC3020ADF82000182053
:102B00008DF8230003208DF8220008A9AE4800F0BC
:102B10004BFB0121102000F003FE0820ADF820003F
:102B200010208DF8230003208DF8220008A9A24868
:102B300000F03AFB4FF40040ADF8200008A9A2488D
:102B400000F032FB0121052000F0EAFD0F20ADF876
:102B5000200018208DF8230003208DF8220008A9FA
:102B60009C4800F021FB0121022000F0E6FD9A487C
:102B700000684FF47A71B0FBF1F04900B0FBF1F05E
:102B800080B2ADF80800944800684910B0FBF1F03D
:102B9000401E80B2ADF804000020ADF80A00ADF888
:102BA000060001A98D4801F0EFFD6020ADF810008E
:102BB0000120ADF812000020ADF81800864800682A
:102BC0004FF47A71B0FBF1F04900B0FBF1F0C0F3C3
:102BD0004F00ADF8160004A9804801F012FE04A9C8
:102BE0007E4801F050FE08217C4802F073FA08216B
:102BF0007A4802F078FA0121784802F047F9012179
:102C0000764802F037FA0021744802F033F90121C6
:102C1000084600F092FD704800684FF47A71B0FBEE
:102C2000F1F04900B0FBF1F080B2ADF808006A485D
:102C300000684910B0FBF1F0401E80B2ADF804000E
:102C40000020ADF80A00ADF8060001A94FF0804061
:102C500001F09AFD6020ADF810000120ADF81200DF
:102C60000020ADF818005C4800684FF47A71B0FBA2
:102C7000F1F04900B0FBF1F0C0F34F00ADF81600E1
:102C800004A94FF0804001F04BFE04A94FF08040B2
:102C900001F091FE0821C80602F032FA0821C806A8
:102CA00002F037FA0121880702F0F0F801218807C5
:102CB00002F0E0F900214FF0804002F0DBF8012142
:102CC000082000F03AFD444800684FF47A71B0FBE8
:102CD000F1F04900B0FBF1F080B2ADF808003E48D9
:102CE00000684910B0FBF1F0401E80B2ADF804005E
:102CF0000020ADF80A00ADF8060001A9384801F03F
:102D000043FD6020ADF810000120ADF81200002056
:102D1000ADF81800304800684FF47A71B0FBF1F05C
:102D20004900B0FBF1F0C0F34F00ADF8160004A964
:102D30002B4801F066FD04A9294801F0A4FD04A96F
:102D4000274801F0EDFD04A9254801F034FE0821D3
:102D5000234802F0BFF90821214802F0C4F90821F4
:102D60001F4802F0CDF908211D4802F0D2F90121D7
:102D70001B4802F08BF80121194802F07BF9002171
:102D8000174802F077F809B000BD70B504460D464B
:102D9000012C08D12946124802F004FB00211048FA
:102DA00002F002FB07E000210D4802F0FBFA294681
:102DB0000B4802F0F9FA70BD001001408401224274
:102DC0000000224200021800000C014000081A0016
:102DD00000023000000801402400002000040040F0
:102DE000000C004000B587B00121022000F0A5FCD6
:102DF0004FF47A70ADF814004720ADF810000020B1
:102E0000ADF81600ADF8120004A92B4801F0BCFC87
:102E10006020ADF800000120ADF802000220ADF8FE
:102E200008006420ADF806006946234801F0E9FC7B
:102E30006946214801F027FD69461F4801F070FDF1
:102E400008211D4802F046F908211B4802F04BF901
:102E50000821194802F054F90121174802F00AF933
:102E60000121154802F012F80121134802F002F87E
:102E700007B000BD08B50121112000F051FC4FF44E
:102E8000E070ADF8000018208DF8030003208DF8E5
:102E900002006946094800F087F9FFF7A3FF002107
:102EA000054802F07FFA0021034802F07DFA002174
:102EB000014802F07BFA08BD0034014000100140D7
:102EC00010B586B00446012144F2090000F028FC48
:102ED0000121042000F039FA4020ADF8140003204D
:102EE0008DF8160018208DF8170005A9114800F07C
:102EF0005BF98020ADF8140004208DF8170005A9B7
:102F00000C4800F051F901940020ADF80800ADF82C
:102F10000A00ADF80C00ADF810000C20ADF80E0062
:102F200001A9054801F09BF90121034801F023FAAA
:102F300006B010BD000C0140003801400EB5012163
:102F4000202000F0FAFB4FF6FF70ADF804002C488B
:102F500000682C49B0FBF1F0401E80B2ADF80000D3
:102F60000020ADF80600ADF802006946264801F0E1
:102F70000BFC0EBD10B504464EF66020844200DD09
:102F800010BD0021204802F009FA01211E4801F07D
:102F900071FF00BF1C4802F024FAA042FADD0021B4
:102FA000194801F067FF0021174802F0F7F900BF48
:102FB000E6E710B504464EF66020844200DD10BD01
:102FC00016E00021104802F0E9F901210E4801F055
:102FD00051FF00BF0C4802F004FAB0F57A7FF9DD2A
:102FE0000021094801F046FF0021074802F0D6F908
:102FF000201EA4F101018CB2E3D100BFDFE7000085
:103000002400002040420F000014004031490143D9
:10301000314A1160704770B5002100230F22C47837
:1030200004B32D4C246804F4E064C4F5E064210A80
:10303000C1F10403CA40447804FA03F184781440CF
:1030400021430901254C0678A155047804F01F0599
:103050000124AC4005786D11AD0005F1E025C5F8FF
:10306000004109E0047804F01F050124AC401C4D28
:103070000678761145F8264070BD1A4A0A40024388
:10308000154B1B1F1A60704739B1134A121D126885
:103090000243114B1B1D1A6006E00F4A121D1268F5
:1030A00082430D4B1B1D1A607047042808D14FF056
:1030B000E021096941F004014FF0E022116107E0CD
:1030C0004FF0E021096921F004014FF0E022116185
:1030D000704700000000FA050CED00E000E400E09D
:1030E00080E100E080FFFF1F10B50446CC48844219
:1030F00008D10121042000F02DFB0021042000F064
:1031000029FB46E0C748844208D10121082000F08D
:1031100021FB0021082000F01DFB3AE0C248844258
:1031200008D10121102000F015FB0021102000F033
:1031300011FB2EE0BD48844208D10121202000F07F
:1031400009FB0021202000F005FB22E0B848844262
:1031500008D10121402000F0FDFA0021402000F0BC
:10316000F9FA16E0B348844208D10121802000F02A
:10317000F1FA0021802000F0EDFA0AE0AE48844226
:1031800007D10121801500F0E5FA0021A01500F01B
:10319000E1FA10BD10B50121084600F0DBFA00216C
:1031A000012000F0D7FA10BD2DE9F04102460025BC
:1031B0000026002000230024002791F803C00CF013
:1031C0000F0591F803C00CF0100CBCF1000F03D0F8
:1031D00091F802C04CEA050591F800C0BCF1000F5F
:1031E00031D0146800202BE04FF0010C0CFA00F3F2
:1031F000B1F800C00CEA03069E4220D183004FF0D4
:103200000F0C0CFA03F7BC4305FA03FC4CEA040468
:1032100091F803C0BCF1280F06D14FF0010C0CFA55
:1032200000FCC2F814C00AE091F803C0BCF1480FDA
:1032300005D14FF0010C0CFA00FCC2F810C0401C84
:103240000828D1D31460B1F800C0BCF1FF0F34DD01
:10325000546800202EE000F1080C4FF0010808FA35
:103260000CF3B1F800C00CEA03069E4221D18300A2
:103270004FF00F0C0CFA03F7BC4305FA03FC4CEAC1
:10328000040491F803C0BCF1280F05D100F1080C2B
:1032900008FA0CF8C2F8148091F803C0BCF1480F8A
:1032A00007D100F1080C4FF0010808FA0CF8C2F839
:1032B0001080401C0828CED35460BDE8F0814FF642
:1032C000FF710180022181700421C17070470246A4
:1032D000002093680B400BB1012000E000207047F4
:1032E0000146886880B2704702460020D3680B40D0
:1032F0000BB1012000E0002070470146C86880B291
:10330000704701617047416170470AB1016100E097
:1033100041617047C16070474FF480320A43826157
:103320008161826182698269704702460020434B55
:1033300018684FF68073184040EA021008433F4B6C
:10334000186070473E49C8617047F0B50A460023CF
:1033500000240021002500F00046B6F1004F02D104
:10336000364EF16901E0354E7168C0F3034583B212
:1033700000F44016B6F5401F08D121F070612F4EC1
:10338000766826F070662D4F7E6012E000F480169D
:10339000B6F5801F06D1032606FA05F4A14341F0D5
:1033A000706106E0460D360103FA06F6B14341F0BE
:1033B000706122B1460D360103FA06F6314300F082
:1033C0000046B6F1004F02D11C4EF16101E01B4EE8
:1033D0007160F0BD30B500228B071C0F0F2303FA7C
:1033E00004F2164B08338C1053F824309343134CDB
:1033F00008348D1044F8253023468C1053F82430BF
:103400008C07240F00FA04F423430C4C08348D106D
:1034100044F8253030BD0A49DC31086070470000AF
:1034200000080140000C0140001001400014014060
:1034300000180140001C0140002001400000014034
:1034400000002042DF48006840F00100DD490860CC
:1034500008464068DC490840DA4948600846006888
:10346000DA490840D74908600846006820F48020FF
:1034700008600846406820F4FE0048604FF41F00D2
:1034800088607047CF49096821F48031CD4A1160C6
:103490001146096821F480211160B0F5803F03D006
:1034A000B0F5802F0ED106E0C649096841F480319D
:1034B000C44A116007E0C349096841F4A021C14A28
:1034C000116000E000BF00BF704710B50146002248
:1034D000002300204A11012A02D1BA4C236806E0D9
:1034E000022A02D1B74C236A01E0B64C636A01F0AC
:1034F0001F02012494401C400CB1012000E0002078
:1035000010BD38B5002000900024002500BF3120F8
:10351000FFF7DBFF05460098401C00900098B0F5CF
:10352000A06F01D0002DF2D03120FFF7CEFF08B1FF
:10353000012400E00024204638BD01460020A14AB5
:10354000106820F0F80040EAC10010607047A04900
:1035500008607047024600209A4B586820F47C109F
:1035600042EA01031843974B586070479849086630
:10357000704701460020934A506820F0030008433A
:10358000506070478F48406800F00C00704701465B
:1035900000208C4A506820F0F000084350607047CB
:1035A00001460020874A506820F4E06008435060DC
:1035B000704701460020834A506820F4605040EA7A
:1035C000C1005060704729B17E4A527A02437D4B58
:1035D0005A7204E07B4A527A82437A4B5A7270479D
:1035E0007B49D8310860704701460020754A506811
:1035F00020F440400843506070470021714A203257
:103600001170704A82F82010012802D004280AD1D3
:1036100004E001216B4A2032117005E00521694A5E
:103620002032117000E000BF00BF70476949086098
:1036300070476449096A0143624A116270476549EB
:1036400044390860704730B500210022002400236F
:103650005C4D6D6805F00C0121B1042905D00829E5
:1036600023D105E05C4D056022E05B4D05601FE065
:10367000544D6D6805F47012524D6D6805F4803438
:10368000022505EB92421CB9544D554305600BE0F1
:103690004C4D6D6805F400351DB1504D5543056026
:1036A00002E04D4D5543056002E04B4D056000BF03
:1036B00000BF444D6D6805F0F0010909484D6B5C91
:1036C0000568DD4045603F4D6D6805F4E061090A1D
:1036D000434D6B5C4568DD4085603A4D6D6805F48F
:1036E0006051C90A3E4D6B5C4568DD40C560354D93
:1036F0006D6805F44041890B3A4D6B5CC568B5FBBC
:10370000F3F5056130BD29B12E4A526902432D4BB4
:103710005A6104E02B4A526982432A4B5A6170472E
:1037200029B1284A92690243264B9A6104E0254A4E
:1037300092698243234B9A61704729B1214AD26929
:103740000243204BDA6104E01E4AD26982431D4BDA
:10375000DA61704729B11B4AD2680243194BDA601B
:1037600004E0184AD2688243164BDA60704729B1E8
:10377000144A12690243134B1A6104E0114A126998
:103780008243104B1A6170471249403908607047F4
:103790000F49C86470470B49C87170470948406AAF
:1037A00040F0807007494862704701460020054A92
:1037B00092680A400AB1012000E0002070470149E8
:1037C00088727047001002400000FFF8FFFFF6FE0D
:1037D000000042428004424200127A0000093D008B
:1037E0000D0000201D00002010B50446FE48844254
:1037F00009D101214806FFF7BAFF00214FF0007000
:10380000FFF7B5FF08E001218806FFF7B0FF0021B0
:103810004FF08060FFF7ABFF10BD30B502460020CF
:103820000023146824F002041460146844F00104B6
:10383000146000E05B1C546804F001041CB94FF6EE
:10384000FF74A342F6D1546804F001040CB90020BF
:103850006CE08C79012C04D1146844F0800414606D
:1038600003E0146824F080041460CC79012C04D1A6
:10387000146844F04004146003E0146824F0400429
:1038800014600C7A012C04D1146844F020041460F4
:1038900003E0146824F0200414604C7A012C04D155
:1038A000146844F01004146003E0146824F0100459
:1038B00014608C7A012C04D1146844F0080414605C
:1038C00003E0146824F008041460CC7A012C04D1BD
:1038D000146844F00404146003E0146824F0040441
:1038E00014608C78A407CD7844EA05640D7944EA25
:1038F00005444D7944EA05540D886D1E2C43D4616E
:10390000146824F001041460002300E05B1C546878
:1039100004F001041CB14FF6FF74A342F6D15468C1
:1039200004F001040CB1002000E0012030BD10B50E
:103930000021837A012202FA03F1AC4A126842F0B4
:103940000102AA4B1A60A94A1C3212688A43A74B8B
:103950001C331A60027BCAB9A44A0C3212688A432B
:10396000A24B0C331A604288C38842EA03439F4A41
:103970004032847A42F834300288838842EA034332
:103980009A4A4032847A02EBC4025360027B012AD5
:1039900019D1964A0C3212680A43944B0C331A60C0
:1039A0004288038842EA0343904A4032847A42F8CC
:1039B0003430C288838842EA03438C4A4032847A96
:1039C00002EBC4025360C27A3AB9884A121D1268E7
:1039D0008A43864B1B1D1A6006E0844A121D12683A
:1039E0000A43824B1B1D1A60028932B97F4A143286
:1039F00012688A437D4B14331A600289012A06D16A
:103A00007A4A143212680A43784B14331A60427BA4
:103A1000012A06D1754A1C3212680A43734B1C33C3
:103A20001A60724A126822F00102704B1A6010BDCF
:103A300000218171C171017241728172C172817004
:103A4000C170032101710221417101210180704780
:103A50006649096841F00101644A1160114609682C
:103A600043F60E729143614A11601146096841EABA
:103A7000002111601146096821F0010111607047B1
:103A800021B1026842F48032026003E0026822F44D
:103A9000803202607047E1B1026842F08002026049
:103AA0004FF4C272125842F480734FF4C272135032
:103AB0004FF4CA72125842F480734FF4CA72135012
:103AC0004FF4D272125842F480734FF4D2721350F2
:103AD0001BE0026822F0800202604FF4C2721258AA
:103AE00022F480734FF4C27213504FF4CA7212580A
:103AF00022F480734FF4CA7213504FF4D2721258EA
:103B000022F480734FF4D2721350704710B50246FE
:103B10000020936803F08063B3F1806F00D110E060
:103B2000936803F00063B3F1006F01D1012008E056
:103B3000936803F08053B3F1805F01D1022000E06D
:103B40000420042879D002F5C07303EB00131B682E
:103B500003F0010402F5C07303EB00131C600B7A41
:103B60007BB94B7A0C8843EA445302F5C07404EBEA
:103B700000142468234302F5C07404EB001423608E
:103B800010E00B7A4C6843EAC4034C7A234302F5F5
:103B9000C07404EB00142468234302F5C07404EBE2
:103BA000001423608B7A03F00F038B7202F5C0734D
:103BB00003EB00135B6823F00F0402F5C07303EB03
:103BC00000135C6002F5C07303EB00135B688C7A32
:103BD000234302F5C07404EB001463608B7B1C0666
:103BE0004B7B44EA034403E000640040006600406D
:103BF0000B7B44EA0323CC7A234302F5C07404EB25
:103C00000014A3608B7C1C064B7C44EA03440B7CB1
:103C100044EA0323CC7B234302F5C07404EB001475
:103C2000E36002F5C07303EB00131B6843F001046B
:103C300002F5C07303EB00131C6010BD10B5024603
:103C4000002321B1012907D002290FD109E0906892
:103C5000F94C00EA04030BE09068F84C00EA040316
:103C600006E09068F64C00EA040301E0002300BF80
:103C700000BFF44C181BA34216D007DC83B16FF0D1
:103C80008060184470B1022818D111E0B0F5007FAF
:103C900010D0ED4C204448B1B0F5003F0ED10BE000
:103CA00002230DE000230BE0002309E0002307E0DE
:103CB000012305E0012303E0012301E0002300BF0D
:103CC00000BFD8B210BD21B1012907D002290FD100
:103CD00009E0826842F0800282600AE0826842F471
:103CE0000042826005E0826842F40002826000E0E7
:103CF00000BF00BF704710B500F5D87303EB011388
:103D00001B6803F004031372137A53B900F5D873D8
:103D100003EB01131B6840F2FF7404EA5353136072
:103D200009E000F5D87303EB01131B686FF06044E2
:103D300004EAD303536000F5D87303EB01131B6847
:103D400003F00203537200F5D87303EB01135B68B1
:103D500003F00F03937200F5D87303EB01135B6854
:103D60001B0AD37400F5D87303EB01139B68D3725D
:103D700000F5D87303EB01139B681C0A147300F55C
:103D8000D87303EB01139B681C0C547300F5D873B4
:103D900003EB01139B681B0E937300F5D87303EBC1
:103DA0000113DB68D37300F5D87303EB0113DB68F1
:103DB0001C0A147400F5D87303EB0113DB681C0CA8
:103DC000547400F5D87303EB0113DB681B0E937476
:103DD00021B9C36843F02003C36003E0036943F0E3
:103DE0002003036110BD21B9C26842F02002C26005
:103DF00003E0026942F0200202617047024600209F
:103E000019B9D36803F0030006E0012903D113694F
:103E100003F0030000E00020704710B502460B4697
:103E200000204FF6FF71BBB9146824F0020444F07F
:103E30000104146000E0491E546804F00304012CDE
:103E400001D00029F7D1546804F00304012C01D0FB
:103E5000002032E0012030E0012B13D1146824F05F
:103E60000304146000E0491E546804F003040CB11C
:103E70000029F8D1546804F003040CB100201CE0C0
:103E800001201AE0022B17D1146824F0010444F039
:103E90000204146000E0491E546804F00304022C7C
:103EA00001D00029F7D1546804F00304022C01D09A
:103EB000002002E0012000E0002010BD01460020AB
:103EC0000A6822F0010242F002020A604A6802F027
:103ED0000302022A00D10120704701464FF6FF720B
:103EE00000200B6823F002030B6000E0521E4B68B9
:103EF00003F00203022B01D1002AF7D14B6803F033
:103F00000203022B00D001207047014600208A697D
:103F100002F070007047014600208A69100E704759
:103F2000014600208A69C2F3074070471AB143690D
:103F30000B43436102E043698B434361704710B513
:103F40000246002001F4700343B19369C1F31304E6
:103F500023400BB101202DE000202BE001F0807305
:103F600043B15368C1F3130423400BB1012021E096
:103F700000201FE001F0006343B19368C1F3130414
:103F800023400BB1012015E0002013E001F0007385
:103F900043B1D368C1F3130423400BB1012009E0FE
:103FA000002007E01369C1F3130423400BB1012083
:103FB00000E0002010BD0022244B994202D10023D2
:103FC000836111E0C1F3130201F000730BB1C26011
:103FD0000AE001F080630BB1026105E001F00063CB
:103FE0000BB1826000E0426070470246002002EAA6
:103FF00001030BB1012000E00020704770B50446BA
:104000000D46002660692840002872D0B5F5807FF3
:1040100069D01DDC082D42D006DC012D2DD0022DEB
:1040200031D0042D7FD134E0102D3ED0202D42D050
:10403000402D78D145E00000030000040003000893
:1040400000000310000100080001FFF77000F030CD
:10405000B5F5004F61D009DCB5F5007F4AD0B5F564
:10406000806F4DD0B5F5006F5DD150E0B5F5803F64
:104070002DD0B5F5003F56D12FE0A0685549FFF788
:10408000B4FF064651E0E0680321FFF7AEFF0646A5
:104090004BE0E0680821FFF7A8FF064645E0E0682E
:1040A0001021FFF7A2FF06463FE020690321FFF73A
:1040B0009CFF064639E020690821FFF796FF064677
:1040C00033E020691021FFF790FF06462DE060687D
:1040D0000821FFF78AFF064627E060681021FFF7F6
:1040E00084FF064621E0A0690121FFF77EFF064616
:1040F0001BE01BE0A0690221FFF777FF064614E0F2
:10410000A0690421FFF771FF06460EE00BE0A069ED
:104110007021FFF76AFF064607E060680421FFF799
:1041200064FF064601E0002600BF00E0002630469E
:1041300070BDB1F5007F3AD00FDC202928D006DC15
:1041400001291CD004291DD0082940D11DE0402997
:1041500021D0B1F5807F3AD126E0B1F5004F31D0C2
:1041600006DCB1F5806F25D0B1F5006F2FD124E0CA
:10417000B1F5803F12D0B1F5003F28D111E0154ACA
:10418000826025E00822C26022E01022C2601FE0A7
:10419000082202611CE01022026119E0082242603C
:1041A00016E01022426013E00422426010E0042274
:1041B00042600DE0042242600AE000228261042293
:1041C000426005E0002282610422426000E000BFFC
:1041D00000BF70470101010010B50446FB4884424E
:1041E00009D101218803FFF7B5FA00214FF480407F
:1041F000FFF7B0FA32E0F648844209D101214804C1
:10420000FFF7B5FA00214FF40030FFF7B0FA25E0D0
:10421000F048844209D101218804FFF7A8FA00215F
:104220004FF48020FFF7A3FA18E0EB48844209D14D
:104230000121C804FFF79BFA00214FF40020FFF78B
:1042400096FA0BE0E548844208D101210805FFF702
:104250008EFA00214FF48010FFF789FA10BD2DE986
:10426000F04786B005460E460024A24600BFA14690
:104270000027B08900B100BF2F462C8A4CF6FF7092
:104280000440F08804432C82AC894EF6F3100440BD
:10429000B08831890843718908430443AC81AC8AF2
:1042A0004FF6FF400440B0890443AC8201A8FFF7F9
:1042B000CAF9C648874202D1DDF810A001E0DDF856
:1042C0000CA0A88900F4004040B10AEBCA0000EB42
:1042D0000A1031684900B0FBF1F807E00AEBCA00A8
:1042E00000EB0A1031688900B0FBF1F86420B8FBDC
:1042F000F0F004012009642101FB1089A88900F471
:10430000004040B1322000EBC900B0FBF1F000F0FA
:104310000700044308E0322000EB09106421B0FBE1
:10432000F1F000F00F0004432C8106B0BDE8F087E7
:104330004FF41651016000218180C18001810C2160
:10434000418100218181704710B502460020108A0A
:104350004FF2FF0318400B884C8823438C8823437B
:10436000CC8823431843108210BD00210180418076
:104370008180C180704721B1828942F400528281DC
:1043800004E082894DF6FF731A4082817047F0B5D0
:104390000346002400260025002040F66A17B94293
:1043A00000D100BF1846C1F3421401F01F060127D7
:1043B00007FA06F5012C01D10C3004E0022C01D1E2
:1043C000103000E014301AB107682F43076002E094
:1043D0000768AF430760F0BD1AB1838A0B4383823D
:1043E00002E0838A8B4383827047028A4FF6F07320
:1043F0001A400282028A0A430282704782894FF27F
:10440000FF731A40828182890A438281704721B1F9
:10441000828942F00202828104E082894FF6FD73B4
:104420001A4082817047028A4FF6DF731A40028277
:10443000028A0A430282704721B1028A42F4804212
:10444000028204E0028A4BF6FF731A400282704730
:10445000C1F308028280704701468888C0F30800D3
:104460007047818941F0010181817047028BD2B28E
:104470000283028B42EA012202837047028B02F41C
:104480007F420283028B0A430283704721B1828AF2
:1044900042F02002828204E0828A4FF6DF731A40E3
:1044A0008282704721B1828A42F01002828204E047
:1044B000828A4FF6EF731A408282704721B1828A56
:1044C00042F00802828204E0828A4FF6F7731A40B3
:1044D0008282704721B1828942F40042828103E0E6
:1044E0008289C2F30E028281704721B1828A42F42E
:1044F0000062828204E0828A4FF2FF731A40828255
:104500007047828A4FF6FB731A408282828A0A437E
:104510008282704721B1828A42F00202828204E0E4
:10452000828A4FF6FD731A4082827047024600204D
:10453000B1F5007F00D100BF13880B400BB1012003
:1045400000E00020704701F40072B2F5007F00D156
:1045500000BFCA430280704770B5024600240023A2
:104560000025002040F66A16B14200D100BFC1F319
:10457000421501F01F03012606FA03F3012D02D1B3
:104580009689334006E0022D02D1168A334001E0BD
:10459000968A33400C12012606FA04F41688344039
:1045A00013B10CB1012000E0002070BD10B5002255
:1045B000002340F66A14A14200D100BF0A12012470
:1045C0009440A3B2DC43048010BD000000380140D9
:1045D0000044004000480040004C004000500040B3
:1045E00010B50446FE48844208D10121C014FFF7EB
:1045F000B1F80021E014FFF7ADF8C4E0B4F1804F4A
:1046000008D101210846FFF7B2F800210120FFF789
:10461000AEF8B8E0F348844208D101210220FFF748
:10462000A6F800210220FFF7A2F8ACE0EE48844291
:1046300008D101210420FFF79AF800210420FFF798
:1046400096F8A0E0E948844208D101210820FFF74C
:104650008EF800210820FFF78AF894E0E4488442AD
:1046600008D101211020FFF782F800211020FFF768
:104670007EF888E0DF48844208D101212020FFF73E
:1046800076F800212020FFF772F87CE0DA488442B7
:1046900008D101214014FFF75DF800216014FFF7F5
:1046A00059F870E0D548844209D10121C804FFF7C8
:1046B00051F800214FF40020FFF74CF863E0D04898
:1046C000844209D101210805FFF744F800214FF485
:1046D0008010FFF73FF856E0CA48844209D1012113
:1046E0004805FFF737F800214FF40010FFF732F8C4
:1046F00049E0C548844208D101214020FFF737F83E
:1047000000214020FFF733F83DE0C048844208D143
:1047100001218020FFF72BF800218020FFF727F8E8
:1047200031E0BB48844208D101218015FFF71FF812
:104730000021A015FFF71BF825E0B648844209D1F7
:1047400001210804FFF706F800214FF48030FFF73D
:1047500001F818E0B048844209D101214804FEF76D
:10476000F9FF00214FF40030FEF7F4FF0BE0AB48F7
:10477000844208D101218804FEF7ECFF00214FF4A8
:104780008020FEF7E7FF10BD00220288944B98427C
:104790000ED0994B98420BD0B0F1804F08D0914B7E
:1047A000984205D0904B984202D0904B984204D149
:1047B0004FF68F731A404B881A438D4B984207D09F
:1047C0008C4B984204D04FF6FF431A40CB881A43D3
:1047D00002808B8883850B880385814B98420BD0A0
:1047E000854B984208D08B4B984205D08A4B984213
:1047F00002D08A4B984201D10B7A0386012383822F
:10480000704770B5002400220023058C4FF6FE7619
:1048100035400584028C8388048B4FF68F752C40BD
:10482000B51E2C400D882C43751E2A400D892A4345
:104830004D882A436A4DA8420BD06F4DA84208D03C
:10484000744DA84205D0744DA84202D0734DA842C1
:1048500013D14FF6F7752A404D892A434FF6FB7561
:104860002A408D882A434FF6FF652B404FF6FF55AF
:104870002B408D892B43CD892B4383800483CD88A6
:104880008586028470BD70B5002400220023058C4B
:104890004FF6EF7635400584028C8388048B48F60A
:1048A000FF752C404FF6FF452C400D884FF6FF76E4
:1048B00006EA05252C434FF6DF752A400D8906EAE6
:1048C00005152A434D8806EA05152A43444DA8429A
:1048D00002D0494DA8421DD14FF67F752A404D891F
:1048E0004FF6FF7606EA05152A434FF6BF752A40B4
:1048F0008D8806EA05152A434FF6FF352B404FF207
:10490000FF752B408D8906EA85052B43CD8906EA84
:1049100085052B4383800483CD880587028470BD81
:1049200070B5002400220023058C4FF6FF66354049
:104930000584028C8388848B4FF68F752C404FF64C
:10494000FC752C400D882C434FF6FF552A400D89ED
:104950004FF6FF7606EA05252A434D8806EA052527
:104960002A431F4DA84202D0234DA8421DD14FF229
:10497000FF752A404D894FF6FF7606EA05252A4342
:104980004FF6FF352A408D8806EA05252A434EF664
:10499000FF752B404DF6FF752B408D8906EA0515F6
:1049A0002B43CD8906EA05152B4383808483CD886C
:1049B0008587028470BD70B5002200230024058C19
:1049C0004EF6FF7635400584038C8488828B48F64A
:1049D000FF752A404FF6FF452A400D8820E0000071
:1049E000002C01400004004000080040000C004082
:1049F000001000400014004000340140004C014011
:104A0000005001400054014000180040001C0040CC
:104A100000200040004001400044014000480140A7
:104A20004FF6FF7606EA05252A434DF6FF752B4023
:104A30000D8906EA05352B434D8806EA05352B43DB
:104A4000F94DA84202D0F94DA84208D14BF6FF75A6
:104A50002C408D894FF6FF7606EA85152C4384801D
:104A60008283CD88A0F84050038470BD828B4FF2C2
:104A7000FF331A408283828B4FF6FF7303EA0123D0
:104A80001A4382837047F0B50C4615460022002178
:104A90000026078C4EF6FF7C07EA0C070784828B02
:104AA000018C4FF6FF7707EA043640F6FF473A409D
:104AB0004FF6FF7707EA05273A434FF6FF7707EAF5
:104AC00003373A43D84FB8420ED0D84FB8420BD034
:104AD000B0F1804F08D0D64FB84205D0D54FB8427C
:104AE00002D0D54FB84206D14DF6FF77394046F493
:104AF0008057394305E047F6FF57394044F4805763
:104B0000394382830184F0BD828B4FF6F3731A40E0
:104B10008283828B0A4382837047F0B50C46154628
:104B2000002200210026078C4FF6FF6C07EA0C07D5
:104B30000784828B018C4FF6FF7707EA04264FF635
:104B40000C773A404FF6FF7707EA03172F433A43B3
:104B5000B54FB8420ED0B54FB8420BD0B0F1804F30
:104B600008D0B34FB84205D0B24FB84202D0B24FCE
:104B7000B84206D14FF6FF57394046F480773943A3
:104B800005E04FF2FF57394044F480773943828380
:104B90000184F0BD028B4FF2FF331A400283028B77
:104BA0004FF6FF7303EA01231A4302837047F0B5FF
:104BB0000C461546002200210026078C4FF6EF7C9C
:104BC00007EA0C070784028B018C4FF6FF7707EA90
:104BD000041640F6FF473A404FF6FF7707EA0337DF
:104BE0003A434FF6FF7707EA05273A438E4FB8421C
:104BF0000ED08E4FB8420BD0B0F1804F08D08C4F02
:104C0000B84205D08B4FB84202D08B4FB84206D184
:104C10004FF6DF77394046F01007394305E04FF68D
:104C20005F77394044F01007394302830184F0BDB7
:104C3000028B4FF6F3731A400283028B0A430283FE
:104C40007047F0B50C46154600220021068C4FF641
:104C5000FE773E400684028B018C4FF60C76324084
:104C60007E1C06EA03162E4332436F4EB0420ED02E
:104C70006E4EB0420BD0B0F1804F08D06C4EB042B7
:104C800005D06C4EB04202D06B4EB04206D14FF60A
:104C9000FD76314044F00106314305E04FF6F576EC
:104CA000314044F00106314302830184F0BD70B508
:104CB00005460C465C4885420ED05C4885420BD0C8
:104CC000B5F1804F08D05A48854205D059488542F1
:104CD00002D05948854200D100E000BF208850B979
:104CE0002389A28861882846FFF7ABFFE188284620
:104CF000FFF79EFF25E0208804280AD12389A28897
:104D000061882846FFF753FFE1882846FFF742FFF6
:104D100017E0208808280AD12389A28861882846BC
:104D2000FFF7FBFEE1882846FFF7EEFE09E0238946
:104D3000A28861882846FFF7A6FEE1882846FFF78B
:104D400095FE70BD2DE9F04105460C460026012771
:104D5000608808B9022600E00026A088012801D159
:104D6000022700E001272088A0B92389A288618852
:104D70002846FFF766FFE1882846FFF759FF238999
:104D80003A4631462846FFF712FFE1882846FFF7EA
:104D900001FF2EE02088042814D12389A28861888D
:104DA0002846FFF704FFE1882846FFF7F3FE238932
:104DB0003A4631462846FFF744FFE1882846FFF788
:104DC00037FF16E02088082813D12389A28861883C
:104DD0002846FFF7A2FEE1882846FFF795FE2389C3
:104DE0003A4631462846FFF74EFEE1882846FFF74F
:104DF0003DFEBDE8F0810A884B881A438B881A4330
:104E0000CB881A430B891A434B891A438B891A435F
:104E1000A0F8442070474FF6FF7181800021018087
:104E2000C180418001727047002C01400034014074
:104E30000004004000080040000C004000210180F8
:104E400041808180C180018141818181C181704720
:104E5000002101804180012181800021C1800181E8
:104E600070470021018041808180C18001814181A2
:104E70008181704721B1028842F00102028004E082
:104E800002884FF6FE731A400280704731B1B0F8C5
:104E9000442042F40042A0F8442005E0B0F8442049
:104EA000C2F30E02A0F8442070471AB183890B4365
:104EB000838102E083898B438381704781827047BD
:104EC00041EA0203A0F8483070471AB183890B43C6
:104ED000838102E083898B438381704701894FF688
:104EE000F8721140018170470A46002101894FF68E
:104EF0008F73194011430181704730B504460D4648
:104F000029462046FFF7F0FF208940F00700208166
:104F100030BD2DE9F04104460D4616461F46602D72
:104F200006D13B46012231462046FFF740FE05E010
:104F30003B46012231462046FFF783FE29462046A4
:104F4000FFF7D2FF208940F007002081BDE8F08103
:104F500030B50C4600210189C9B24FF6FF7505EA4C
:104F60000325154325432943018130BD2DE9F04137
:104F700005460E4617469846002443463A463146B3
:104F80002846FFF7E5FF2C894FF6F870044044F0FF
:104F900007044FF68F70044044F070042C81BDE884
:104FA000F081F0B504460D4616461F463B46324694
:104FB00029462046FFF7CCFF208940F4804020811D
:104FC000F0BD0185828270470A46002101884FF6B4
:104FD0008F731940114301807047F0B50C46154698
:104FE0001E460021002200230189028B038C4FF60C
:104FF000F877394021434FF6FC473A4040F2011719
:105000003A434FF6DD773B404FF6FF7707EA061746
:105010002F433B43018102830384F0BD0A460021F4
:10502000018B4FF68F7319401143018370470A4675
:105030000021018B48F6FF7319404FF6FF7303EA16
:1050400002231943018370470A460021818B4FF6E2
:105050008F7319401143818370470A460021818B69
:1050600048F6FF7319404FF6FF7303EA0223194312
:105070008183704721B1028842F08002028004E0FF
:1050800002884FF67F731A400280704721B18288F0
:1050900042F00402828004E082884FF6FB731A40DB
:1050A0008280704721B1828842F00802828004E049
:1050B00082884FF6F7731A408280704721B1828848
:1050C00042F00102828004E082884FF6FE731A40AB
:1050D000828070470A460021018B4FF6F773194012
:1050E0001143018370470A460021018B4FF2FF7381
:1050F00019404FF6FF7303EA0223194301837047F7
:105100000A460021818B4FF6F773194011438183C2
:1051100070470A460021818B4FF2FF7319404FF60A
:10512000FF7303EA02231943818370470A46002173
:10513000018B4FF6FB7319401143018370470A46F8
:105140000021018B4FF6FF3319404FF6FF7303EA3E
:1051500002231943018370470A460021818B4FF6D1
:10516000FB7319401143818370470A460021818BEC
:105170004FF6FF3319404FF6FF7303EA022319433A
:10518000818370470A460021018B4FF67F731940D7
:105190001143018370470A460021018BC1F30E01C0
:1051A0004FF6FF7303EA02231943018370470A464F
:1051B0000021818B4FF67F73194011438183704723
:1051C0000A460021818BC1F30E014FF6FF7303EAFB
:1051D00002231943818370470A460021018C4FF650
:1051E000FD7319401143018470470A460021018C68
:1051F0004FF6F77319401143018470470A460021A6
:10520000018C4FF6DF7319404FF6FF7303EA021368
:105210001943018470470A460021018C4FF67F73C1
:1052200019404FF6FF7303EA0213194301847047D4
:105230000A460021018C4FF6FF5319404FF6FF73C9
:1052400003EA02231943018470470A460021018CB6
:105250004FF2FF7319404FF6FF7303EA022319431D
:10526000018470470A460021018C4DF6FF731940F6
:105270004FF6FF7303EA023319430184704730B5D8
:10528000002301248C40A3B2048C9C430484048C2E
:1052900002FA01F5ADB22C43048430BD30B50023D1
:1052A00004248C40A3B2048C9C430484048C02FA32
:1052B00001F5ADB22C43048430BD70B50346002027
:1052C00000241846183001258D40ACB21D8CA54332
:1052D0001D8409B1082909D100EB6100056825F09A
:1052E000700505600568154305600EE00D1FC5F3E8
:1052F0004E052844056825F4E045056005684FF62D
:10530000FF7606EA02263543056070BD21B10288AA
:1053100042F00202028004E002884FF6FD731A4058
:105320000280704721B1028842F00402028004E04A
:1053300002884FF6FB731A400280704721B18288C1
:1053400042F08002828004E082884FF67F731A4028
:105350008280704702884FF6F7731A4002800288F5
:105360000A430280704782884FF68F731A4082800A
:1053700082880A438280704702894FF6F8731A4088
:10538000028102890A430281704702894FF67F73C6
:105390001A40028102890A43028170478184704762
:1053A0008185704781867047018770478187704784
:1053B000A0F84010704702884FF6FF431A40028061
:1053C00002880A43028070470146888E7047014672
:1053D000088F70470146888F70470146B1F840003A
:1053E00070470146888C70470146088D7047024619
:1053F0000020138A0B400BB1012000E00020704711
:10540000CA430282704730B50246002000230024C0
:10541000158A05EA0103958905EA010413B10CB167
:10542000012000E0002030BDCA4302827047000026
:1054300010B50446FA48844208D101214015FEF710
:1054400089F900216015FEF785F917E0F5488442D7
:1054500008D101210015FEF77DF900212015FEF786
:1054600079F90BE0F048844208D10121C803FEF726
:1054700071F900214FF40040FEF76CF910BD30B512
:105480000246002000235068E84C20400D790C684B
:1054900044EA0524204350609068E54C2040D1E95F
:1054A00002542C434D7944EA450420439060D06A6D
:1054B00020F470000C7C641EE4B2234340EA0350E5
:1054C000D06230BD00210160017141718160C16015
:1054D00001210174704721B1826842F001028260AB
:1054E00003E0826822F001028260704721B1826885
:1054F00042F48072826003E0826822F480728260EB
:10550000704710B50023CBB21AB144681C43446005
:1055100002E044689C43446010BD816841F008018A
:1055200081607047014600208A6802F008020AB1D3
:10553000012000E000207047816841F00401816093
:105540007047014600208A6802F004020AB1012077
:1055500000E00020704721B1826842F4A00282601E
:1055600003E0826822F4A0028260704701460020B6
:105570008A6802F480020AB1012000E0002070472E
:1055800010B50A4600210023416821F46041531EF2
:1055900041EA4331416010BD21B1426842F40062EA
:1055A000426003E0426822F4006242607047F0B556
:1055B00004460D4600200021092D11DDE068A5F10B
:1055C0000A0606EB4607072606FA07F18843A5F107
:1055D0000A0606EB460603FA06F10843E0600CE013
:1055E000206905EB4507072606FA07F1884305EB16
:1055F000450603FA06F108432061072A0FDA606BBB
:10560000561E06EB86071F2606FA07F18843561E2C
:1056100006EB860605FA06F10843606322E00D2AD0
:105620000FDA206BD61F06EB86071F2606FA07F156
:105630008843D61F06EB860605FA06F10843206369
:1056400010E0E06AA2F10D0606EB86071F2606FAB7
:1056500007F18843A2F10D0606EB860605FA06F16E
:105660000843E062F0BD21B1826842F4801282609A
:1056700003E0826822F48012826070470146C86CA1
:1056800080B2704766484C300068704721B142686C
:1056900042F48062426003E0426822F48062426029
:1056A000704721B1426842F48052426003E0426890
:1056B00022F48052426070470A460021816821F43A
:1056C000E04111438160704721B1826842F4004299
:1056D000826003E0826822F400428260704721B158
:1056E000826842F40212826003E0826822F40212AD
:1056F00082607047014600208A6802F400120AB1F5
:10570000012000E000207047F0B504461546002057
:1057100000220026092911DDE068A1F10A0707EB44
:10572000470C072707FA0CF29043A1F10A0707EB91
:10573000470703FA07F21043E0600CE0206901EB31
:10574000410C072707FA0CF2904301EB410703FADB
:1057500007F210432061A06BC0F30156EF1C06F165
:10576000010CA7EB0C0707EB870C1F2707FA0CF2BD
:105770009043EF1C06F1010CA7EB0C0707EB870722
:1057800001FA07F21043A063F0BD10B50A460021EC
:105790000023816B21F44011531E41EA03518163C0
:1057A00010BD08B5002300930090009B0B440093AC
:1057B000009B1A6008BD08B50246002000900092C8
:1057C00001F12800009B184400900098006880B206
:1057D00008BD0A4600214168164B1940114341603B
:1057E00070474162826270470A460021416821F099
:1057F0001F0111434160704740B1094908310968F0
:1058000041F40001064A0832116007E004490831FA
:10581000096821F40001024A083211607047000053
:105820000024014000280140003C0140FFFEF0FF41
:10583000FDF7F1FFFFFD3FFF0246002013680B401C
:105840000BB1012000E000207047CA43026070479E
:1058500070B502460020002300240B125568CEB21A
:1058600005EA060415681D4015B10CB1012000E0E1
:10587000002070BD00220A12D3430360704700006D
:1058800001684FF6FE721140016000210160416025
:105890008160C1608D49884208D18C4908394968C6
:1058A00041F00F01894A083A51608AE08749143172
:1058B000884208D185490839496841F0F001834A96
:1058C000083A51607DE081492831884208D17F49FA
:1058D0000839496841F470617C4A083A516070E0C7
:1058E0007A493C31884208D178490839496841F4FD
:1058F0007041764A083A516063E0744950318842F9
:1059000008D172490839496841F470216F4A083A50
:10591000516056E06D496431884208D16B490839BD
:10592000496841F47001694A083A516049E06749A1
:105930007831884208D165490839496841F0706179
:10594000624A083A51603CE06149884206D1011F31
:10595000096841F00F01021F116032E05C49143107
:10596000884208D15A49091F096841F0F001584A94
:10597000121F116025E056492831884208D1544948
:10598000091F096841F47061514A121F116018E043
:105990004F493C31884208D14D49091F096841F4FB
:1059A00070414B4A121F11600BE049495031884247
:1059B00007D14749091F096841F47021444A121F61
:1059C0001160704710B50022026847F6F0739A43E1
:1059D0000C6A8B6823430C6923434C6923438C690D
:1059E0002343CC6923434C6A23438C6A23431A43E1
:1059F0000260CB6843600B6883604B68C36010BD76
:105A00000021016041608160C1600161416181618B
:105A1000C161016241628162704721B1026842F056
:105A20000102026004E002684FF6FE731A40026051
:105A300070471AB103680B43036002E003688B43AD
:105A400003607047416070470146486880B2704704
:105A500001460020002201F080531BB11C4B083B83
:105A60001A6802E0194B083B1A6802EA01030BB1FD
:105A7000012000E00020704700F0805119B1144966
:105A8000091F086002E01149083948607047014663
:105A90000020002201F080531BB10D4B083B1A6817
:105AA00002E00A4B083B1A6802EA01030BB101202D
:105AB00000E00020704700F0805119B10449091F2F
:105AC000086002E001490839486070470800024058
:105AD00008040240002044490860091D0860091DAF
